{
	"contracts/monContrat.sol": {
		"Certification": {
			"abi": [
				{
					"inputs": [],
					"stateMutability": "nonpayable",
					"type": "constructor"
				},
				{
					"inputs": [
						{
							"internalType": "string",
							"name": "_code_magasin",
							"type": "string"
						},
						{
							"internalType": "string",
							"name": "_n_lot",
							"type": "string"
						},
						{
							"internalType": "string",
							"name": "_n_bon_livraison",
							"type": "string"
						},
						{
							"internalType": "uint256",
							"name": "_poids",
							"type": "uint256"
						},
						{
							"internalType": "string",
							"name": "_date_arrivee",
							"type": "string"
						},
						{
							"internalType": "string",
							"name": "_provenance_fournisseur",
							"type": "string"
						},
						{
							"internalType": "string",
							"name": "code_sanitaire",
							"type": "string"
						},
						{
							"internalType": "uint256",
							"name": "_distance",
							"type": "uint256"
						}
					],
					"name": "ajouterLot",
					"outputs": [],
					"stateMutability": "nonpayable",
					"type": "function"
				},
				{
					"inputs": [
						{
							"internalType": "string",
							"name": "code_lot",
							"type": "string"
						}
					],
					"name": "certification",
					"outputs": [],
					"stateMutability": "nonpayable",
					"type": "function"
				},
				{
					"inputs": [
						{
							"internalType": "string",
							"name": "code_lot",
							"type": "string"
						}
					],
					"name": "exists",
					"outputs": [
						{
							"internalType": "bool",
							"name": "",
							"type": "bool"
						}
					],
					"stateMutability": "view",
					"type": "function"
				},
				{
					"inputs": [
						{
							"internalType": "string",
							"name": "code_lot",
							"type": "string"
						}
					],
					"name": "getCircuitProximite",
					"outputs": [
						{
							"internalType": "bool",
							"name": "",
							"type": "bool"
						}
					],
					"stateMutability": "view",
					"type": "function"
				},
				{
					"inputs": [
						{
							"internalType": "string",
							"name": "code_lot",
							"type": "string"
						}
					],
					"name": "getDistance",
					"outputs": [
						{
							"internalType": "uint256",
							"name": "",
							"type": "uint256"
						}
					],
					"stateMutability": "view",
					"type": "function"
				},
				{
					"inputs": [
						{
							"internalType": "string",
							"name": "code_lot",
							"type": "string"
						}
					],
					"name": "getFournisseur",
					"outputs": [
						{
							"internalType": "string",
							"name": "",
							"type": "string"
						}
					],
					"stateMutability": "view",
					"type": "function"
				},
				{
					"inputs": [
						{
							"internalType": "string",
							"name": "code_lot",
							"type": "string"
						}
					],
					"name": "getLotInformations",
					"outputs": [
						{
							"internalType": "string",
							"name": "",
							"type": "string"
						}
					],
					"stateMutability": "view",
					"type": "function"
				},
				{
					"inputs": [],
					"name": "getTaille",
					"outputs": [
						{
							"internalType": "uint256",
							"name": "",
							"type": "uint256"
						}
					],
					"stateMutability": "view",
					"type": "function"
				},
				{
					"inputs": [
						{
							"internalType": "string",
							"name": "",
							"type": "string"
						}
					],
					"name": "lots",
					"outputs": [
						{
							"internalType": "string",
							"name": "code_magasin",
							"type": "string"
						},
						{
							"internalType": "string",
							"name": "n_lot",
							"type": "string"
						},
						{
							"internalType": "string",
							"name": "n_bon_livraison",
							"type": "string"
						},
						{
							"internalType": "uint256",
							"name": "poids",
							"type": "uint256"
						},
						{
							"internalType": "string",
							"name": "date_arrivee",
							"type": "string"
						},
						{
							"internalType": "string",
							"name": "provenance_fournisseur",
							"type": "string"
						},
						{
							"internalType": "string",
							"name": "code_sanitaire",
							"type": "string"
						},
						{
							"internalType": "uint256",
							"name": "distance",
							"type": "uint256"
						},
						{
							"internalType": "bool",
							"name": "circuit_proximite",
							"type": "bool"
						}
					],
					"stateMutability": "view",
					"type": "function"
				},
				{
					"inputs": [
						{
							"internalType": "string",
							"name": "code_lot",
							"type": "string"
						},
						{
							"internalType": "bool",
							"name": "c",
							"type": "bool"
						}
					],
					"name": "setCircuitProximite",
					"outputs": [],
					"stateMutability": "nonpayable",
					"type": "function"
				}
			],
			"devdoc": {
				"kind": "dev",
				"methods": {},
				"version": 1
			},
			"evm": {
				"assembly": "    /* \"contracts/monContrat.sol\":58:4374  contract Certification{... */\n  mstore(0x40, 0x80)\n    /* \"contracts/monContrat.sol\":552:553  0 */\n  0x00\n    /* \"contracts/monContrat.sol\":535:553  uint256 taille = 0 */\n  0x02\n  sstore\n    /* \"contracts/monContrat.sol\":562:612  constructor(){... */\n  callvalue\n  dup1\n  iszero\n  tag_1\n  jumpi\n  0x00\n  dup1\n  revert\ntag_1:\n  pop\n    /* \"contracts/monContrat.sol\":594:604  msg.sender */\n  caller\n    /* \"contracts/monContrat.sol\":586:591  owner */\n  0x00\n  dup1\n    /* \"contracts/monContrat.sol\":586:604  owner = msg.sender */\n  0x0100\n  exp\n  dup2\n  sload\n  dup2\n  0xffffffffffffffffffffffffffffffffffffffff\n  mul\n  not\n  and\n  swap1\n  dup4\n  0xffffffffffffffffffffffffffffffffffffffff\n  and\n  mul\n  or\n  swap1\n  sstore\n  pop\n    /* \"contracts/monContrat.sol\":58:4374  contract Certification{... */\n  dataSize(sub_0)\n  dup1\n  dataOffset(sub_0)\n  0x00\n  codecopy\n  0x00\n  return\nstop\n\nsub_0: assembly {\n        /* \"contracts/monContrat.sol\":58:4374  contract Certification{... */\n      mstore(0x40, 0x80)\n      callvalue\n      dup1\n      iszero\n      tag_1\n      jumpi\n      0x00\n      dup1\n      revert\n    tag_1:\n      pop\n      jumpi(tag_2, lt(calldatasize, 0x04))\n      shr(0xe0, calldataload(0x00))\n      dup1\n      0x92f8087e\n      gt\n      tag_13\n      jumpi\n      dup1\n      0x92f8087e\n      eq\n      tag_8\n      jumpi\n      dup1\n      0xe2d66992\n      eq\n      tag_9\n      jumpi\n      dup1\n      0xed0bf0f1\n      eq\n      tag_10\n      jumpi\n      dup1\n      0xf11b344e\n      eq\n      tag_11\n      jumpi\n      dup1\n      0xf560026f\n      eq\n      tag_12\n      jumpi\n      jump(tag_2)\n    tag_13:\n      dup1\n      0x261a323e\n      eq\n      tag_3\n      jumpi\n      dup1\n      0x4898c5ab\n      eq\n      tag_4\n      jumpi\n      dup1\n      0x53bdec8f\n      eq\n      tag_5\n      jumpi\n      dup1\n      0x79a2d3f1\n      eq\n      tag_6\n      jumpi\n      dup1\n      0x7b9b5209\n      eq\n      tag_7\n      jumpi\n    tag_2:\n      0x00\n      dup1\n      revert\n        /* \"contracts/monContrat.sol\":1439:1562  function exists(string memory code_lot) public view returns(bool){... */\n    tag_3:\n      tag_14\n      0x04\n      dup1\n      calldatasize\n      sub\n      dup2\n      add\n      swap1\n      tag_15\n      swap2\n      swap1\n      tag_16\n      jump\t// in\n    tag_15:\n      tag_17\n      jump\t// in\n    tag_14:\n      mload(0x40)\n      tag_18\n      swap2\n      swap1\n      tag_19\n      jump\t// in\n    tag_18:\n      mload(0x40)\n      dup1\n      swap2\n      sub\n      swap1\n      return\n        /* \"contracts/monContrat.sol\":2069:2191  function setCircuitProximite(string memory code_lot,bool c) public {... */\n    tag_4:\n      tag_20\n      0x04\n      dup1\n      calldatasize\n      sub\n      dup2\n      add\n      swap1\n      tag_21\n      swap2\n      swap1\n      tag_22\n      jump\t// in\n    tag_21:\n      tag_23\n      jump\t// in\n    tag_20:\n      stop\n        /* \"contracts/monContrat.sol\":1660:1795  function getCircuitProximite(string memory code_lot)public view returns(bool){... */\n    tag_5:\n      tag_24\n      0x04\n      dup1\n      calldatasize\n      sub\n      dup2\n      add\n      swap1\n      tag_25\n      swap2\n      swap1\n      tag_16\n      jump\t// in\n    tag_25:\n      tag_26\n      jump\t// in\n    tag_24:\n      mload(0x40)\n      tag_27\n      swap2\n      swap1\n      tag_19\n      jump\t// in\n    tag_27:\n      mload(0x40)\n      dup1\n      swap2\n      sub\n      swap1\n      return\n        /* \"contracts/monContrat.sol\":2199:3560  function getLotInformations(string memory code_lot) public view returns (string memory) {... */\n    tag_6:\n      tag_28\n      0x04\n      dup1\n      calldatasize\n      sub\n      dup2\n      add\n      swap1\n      tag_29\n      swap2\n      swap1\n      tag_16\n      jump\t// in\n    tag_29:\n      tag_30\n      jump\t// in\n    tag_28:\n      mload(0x40)\n      tag_31\n      swap2\n      swap1\n      tag_32\n      jump\t// in\n    tag_31:\n      mload(0x40)\n      dup1\n      swap2\n      sub\n      swap1\n      return\n        /* \"contracts/monContrat.sol\":4108:4369  function certification(string memory code_lot) public{... */\n    tag_7:\n      tag_33\n      0x04\n      dup1\n      calldatasize\n      sub\n      dup2\n      add\n      swap1\n      tag_34\n      swap2\n      swap1\n      tag_16\n      jump\t// in\n    tag_34:\n      tag_35\n      jump\t// in\n    tag_33:\n      stop\n        /* \"contracts/monContrat.sol\":832:1433  function ajouterLot(string memory _code_magasin,string memory _n_lot,string memory _n_bon_livraison,uint256 _poids,string memory _date_arrivee,string memory _provenance_fournisseur,string memory code_sanitaire,uint256 _distance) public{... */\n    tag_8:\n      tag_36\n      0x04\n      dup1\n      calldatasize\n      sub\n      dup2\n      add\n      swap1\n      tag_37\n      swap2\n      swap1\n      tag_38\n      jump\t// in\n    tag_37:\n      tag_39\n      jump\t// in\n    tag_36:\n      stop\n        /* \"contracts/monContrat.sol\":493:528  mapping (string => Lot) public lots */\n    tag_9:\n      tag_40\n      0x04\n      dup1\n      calldatasize\n      sub\n      dup2\n      add\n      swap1\n      tag_41\n      swap2\n      swap1\n      tag_16\n      jump\t// in\n    tag_41:\n      tag_42\n      jump\t// in\n    tag_40:\n      mload(0x40)\n      tag_43\n      swap10\n      swap9\n      swap8\n      swap7\n      swap6\n      swap5\n      swap4\n      swap3\n      swap2\n      swap1\n      tag_44\n      jump\t// in\n    tag_43:\n      mload(0x40)\n      dup1\n      swap2\n      sub\n      swap1\n      return\n        /* \"contracts/monContrat.sol\":1802:1936  function getFournisseur(string memory code_lot)public view returns(string memory){... */\n    tag_10:\n      tag_45\n      0x04\n      dup1\n      calldatasize\n      sub\n      dup2\n      add\n      swap1\n      tag_46\n      swap2\n      swap1\n      tag_16\n      jump\t// in\n    tag_46:\n      tag_47\n      jump\t// in\n    tag_45:\n      mload(0x40)\n      tag_48\n      swap2\n      swap1\n      tag_32\n      jump\t// in\n    tag_48:\n      mload(0x40)\n      dup1\n      swap2\n      sub\n      swap1\n      return\n        /* \"contracts/monContrat.sol\":1568:1654  function getTaille()public view returns(uint256)... */\n    tag_11:\n      tag_49\n      tag_50\n      jump\t// in\n    tag_49:\n      mload(0x40)\n      tag_51\n      swap2\n      swap1\n      tag_52\n      jump\t// in\n    tag_51:\n      mload(0x40)\n      dup1\n      swap2\n      sub\n      swap1\n      return\n        /* \"contracts/monContrat.sol\":1942:2063  function getDistance(string memory code_lot)public view returns(uint256){... */\n    tag_12:\n      tag_53\n      0x04\n      dup1\n      calldatasize\n      sub\n      dup2\n      add\n      swap1\n      tag_54\n      swap2\n      swap1\n      tag_16\n      jump\t// in\n    tag_54:\n      tag_55\n      jump\t// in\n    tag_53:\n      mload(0x40)\n      tag_56\n      swap2\n      swap1\n      tag_52\n      jump\t// in\n    tag_56:\n      mload(0x40)\n      dup1\n      swap2\n      sub\n      swap1\n      return\n        /* \"contracts/monContrat.sol\":1439:1562  function exists(string memory code_lot) public view returns(bool){... */\n    tag_17:\n        /* \"contracts/monContrat.sol\":1499:1503  bool */\n      0x00\n        /* \"contracts/monContrat.sol\":1548:1549  0 */\n      dup1\n        /* \"contracts/monContrat.sol\":1522:1526  lots */\n      0x01\n        /* \"contracts/monContrat.sol\":1527:1535  code_lot */\n      dup4\n        /* \"contracts/monContrat.sol\":1522:1536  lots[code_lot] */\n      mload(0x40)\n      tag_58\n      swap2\n      swap1\n      tag_59\n      jump\t// in\n    tag_58:\n      swap1\n      dup2\n      mstore\n      0x20\n      add\n      mload(0x40)\n      dup1\n      swap2\n      sub\n      swap1\n      keccak256\n        /* \"contracts/monContrat.sol\":1522:1545  lots[code_lot].distance */\n      0x07\n      add\n      sload\n        /* \"contracts/monContrat.sol\":1522:1549  lots[code_lot].distance > 0 */\n      gt\n        /* \"contracts/monContrat.sol\":1515:1550  return(lots[code_lot].distance > 0) */\n      swap1\n      pop\n        /* \"contracts/monContrat.sol\":1439:1562  function exists(string memory code_lot) public view returns(bool){... */\n      swap2\n      swap1\n      pop\n      jump\t// out\n        /* \"contracts/monContrat.sol\":2069:2191  function setCircuitProximite(string memory code_lot,bool c) public {... */\n    tag_23:\n        /* \"contracts/monContrat.sol\":2182:2183  c */\n      dup1\n        /* \"contracts/monContrat.sol\":2147:2151  lots */\n      0x01\n        /* \"contracts/monContrat.sol\":2152:2160  code_lot */\n      dup4\n        /* \"contracts/monContrat.sol\":2147:2161  lots[code_lot] */\n      mload(0x40)\n      tag_61\n      swap2\n      swap1\n      tag_59\n      jump\t// in\n    tag_61:\n      swap1\n      dup2\n      mstore\n      0x20\n      add\n      mload(0x40)\n      dup1\n      swap2\n      sub\n      swap1\n      keccak256\n        /* \"contracts/monContrat.sol\":2147:2179  lots[code_lot].circuit_proximite */\n      0x08\n      add\n      0x00\n        /* \"contracts/monContrat.sol\":2147:2183  lots[code_lot].circuit_proximite = c */\n      0x0100\n      exp\n      dup2\n      sload\n      dup2\n      0xff\n      mul\n      not\n      and\n      swap1\n      dup4\n      iszero\n      iszero\n      mul\n      or\n      swap1\n      sstore\n      pop\n        /* \"contracts/monContrat.sol\":2069:2191  function setCircuitProximite(string memory code_lot,bool c) public {... */\n      pop\n      pop\n      jump\t// out\n        /* \"contracts/monContrat.sol\":1660:1795  function getCircuitProximite(string memory code_lot)public view returns(bool){... */\n    tag_26:\n        /* \"contracts/monContrat.sol\":1732:1736  bool */\n      0x00\n        /* \"contracts/monContrat.sol\":1755:1759  lots */\n      0x01\n        /* \"contracts/monContrat.sol\":1760:1768  code_lot */\n      dup3\n        /* \"contracts/monContrat.sol\":1755:1769  lots[code_lot] */\n      mload(0x40)\n      tag_63\n      swap2\n      swap1\n      tag_59\n      jump\t// in\n    tag_63:\n      swap1\n      dup2\n      mstore\n      0x20\n      add\n      mload(0x40)\n      dup1\n      swap2\n      sub\n      swap1\n      keccak256\n        /* \"contracts/monContrat.sol\":1755:1787  lots[code_lot].circuit_proximite */\n      0x08\n      add\n      0x00\n      swap1\n      sload\n      swap1\n      0x0100\n      exp\n      swap1\n      div\n      0xff\n      and\n        /* \"contracts/monContrat.sol\":1748:1787  return lots[code_lot].circuit_proximite */\n      swap1\n      pop\n        /* \"contracts/monContrat.sol\":1660:1795  function getCircuitProximite(string memory code_lot)public view returns(bool){... */\n      swap2\n      swap1\n      pop\n      jump\t// out\n        /* \"contracts/monContrat.sol\":2199:3560  function getLotInformations(string memory code_lot) public view returns (string memory) {... */\n    tag_30:\n        /* \"contracts/monContrat.sol\":2272:2285  string memory */\n      0x60\n        /* \"contracts/monContrat.sol\":2306:2322  exists(code_lot) */\n      tag_65\n        /* \"contracts/monContrat.sol\":2313:2321  code_lot */\n      dup3\n        /* \"contracts/monContrat.sol\":2306:2312  exists */\n      tag_17\n        /* \"contracts/monContrat.sol\":2306:2322  exists(code_lot) */\n      jump\t// in\n    tag_65:\n        /* \"contracts/monContrat.sol\":2298:2364  require(exists(code_lot),\"Le Lot n'existe pas dans la blockchain\") */\n      tag_66\n      jumpi\n      mload(0x40)\n      0x08c379a000000000000000000000000000000000000000000000000000000000\n      dup2\n      mstore\n      0x04\n      add\n      tag_67\n      swap1\n      tag_68\n      jump\t// in\n    tag_67:\n      mload(0x40)\n      dup1\n      swap2\n      sub\n      swap1\n      revert\n    tag_66:\n        /* \"contracts/monContrat.sol\":2375:2392  string memory res */\n      0x00\n        /* \"contracts/monContrat.sol\":2442:2446  lots */\n      0x01\n        /* \"contracts/monContrat.sol\":2447:2455  code_lot */\n      dup4\n        /* \"contracts/monContrat.sol\":2442:2456  lots[code_lot] */\n      mload(0x40)\n      tag_69\n      swap2\n      swap1\n      tag_59\n      jump\t// in\n    tag_69:\n      swap1\n      dup2\n      mstore\n      0x20\n      add\n      mload(0x40)\n      dup1\n      swap2\n      sub\n      swap1\n      keccak256\n        /* \"contracts/monContrat.sol\":2442:2469  lots[code_lot].code_magasin */\n      0x00\n      add\n        /* \"contracts/monContrat.sol\":2490:2494  lots */\n      0x01\n        /* \"contracts/monContrat.sol\":2495:2503  code_lot */\n      dup5\n        /* \"contracts/monContrat.sol\":2490:2504  lots[code_lot] */\n      mload(0x40)\n      tag_70\n      swap2\n      swap1\n      tag_59\n      jump\t// in\n    tag_70:\n      swap1\n      dup2\n      mstore\n      0x20\n      add\n      mload(0x40)\n      dup1\n      swap2\n      sub\n      swap1\n      keccak256\n        /* \"contracts/monContrat.sol\":2490:2510  lots[code_lot].n_lot */\n      0x01\n      add\n        /* \"contracts/monContrat.sol\":2583:2587  lots */\n      0x01\n        /* \"contracts/monContrat.sol\":2588:2596  code_lot */\n      dup6\n        /* \"contracts/monContrat.sol\":2583:2597  lots[code_lot] */\n      mload(0x40)\n      tag_71\n      swap2\n      swap1\n      tag_59\n      jump\t// in\n    tag_71:\n      swap1\n      dup2\n      mstore\n      0x20\n      add\n      mload(0x40)\n      dup1\n      swap2\n      sub\n      swap1\n      keccak256\n        /* \"contracts/monContrat.sol\":2583:2610  lots[code_lot].code_magasin */\n      0x00\n      add\n        /* \"contracts/monContrat.sol\":2611:2615  lots */\n      0x01\n        /* \"contracts/monContrat.sol\":2616:2624  code_lot */\n      dup7\n        /* \"contracts/monContrat.sol\":2611:2625  lots[code_lot] */\n      mload(0x40)\n      tag_72\n      swap2\n      swap1\n      tag_59\n      jump\t// in\n    tag_72:\n      swap1\n      dup2\n      mstore\n      0x20\n      add\n      mload(0x40)\n      dup1\n      swap2\n      sub\n      swap1\n      keccak256\n        /* \"contracts/monContrat.sol\":2611:2631  lots[code_lot].n_lot */\n      0x01\n      add\n        /* \"contracts/monContrat.sol\":2722:2726  lots */\n      0x01\n        /* \"contracts/monContrat.sol\":2727:2735  code_lot */\n      dup8\n        /* \"contracts/monContrat.sol\":2722:2736  lots[code_lot] */\n      mload(0x40)\n      tag_73\n      swap2\n      swap1\n      tag_59\n      jump\t// in\n    tag_73:\n      swap1\n      dup2\n      mstore\n      0x20\n      add\n      mload(0x40)\n      dup1\n      swap2\n      sub\n      swap1\n      keccak256\n        /* \"contracts/monContrat.sol\":2722:2752  lots[code_lot].n_bon_livraison */\n      0x02\n      add\n        /* \"contracts/monContrat.sol\":2768:2798  toString(lots[code_lot].poids) */\n      tag_74\n        /* \"contracts/monContrat.sol\":2777:2781  lots */\n      0x01\n        /* \"contracts/monContrat.sol\":2782:2790  code_lot */\n      dup10\n        /* \"contracts/monContrat.sol\":2777:2791  lots[code_lot] */\n      mload(0x40)\n      tag_75\n      swap2\n      swap1\n      tag_59\n      jump\t// in\n    tag_75:\n      swap1\n      dup2\n      mstore\n      0x20\n      add\n      mload(0x40)\n      dup1\n      swap2\n      sub\n      swap1\n      keccak256\n        /* \"contracts/monContrat.sol\":2777:2797  lots[code_lot].poids */\n      0x03\n      add\n      sload\n        /* \"contracts/monContrat.sol\":2768:2776  toString */\n      tag_76\n        /* \"contracts/monContrat.sol\":2768:2798  toString(lots[code_lot].poids) */\n      jump\t// in\n    tag_74:\n        /* \"contracts/monContrat.sol\":2887:2891  lots */\n      0x01\n        /* \"contracts/monContrat.sol\":2892:2900  code_lot */\n      dup10\n        /* \"contracts/monContrat.sol\":2887:2901  lots[code_lot] */\n      mload(0x40)\n      tag_77\n      swap2\n      swap1\n      tag_59\n      jump\t// in\n    tag_77:\n      swap1\n      dup2\n      mstore\n      0x20\n      add\n      mload(0x40)\n      dup1\n      swap2\n      sub\n      swap1\n      keccak256\n        /* \"contracts/monContrat.sol\":2887:2914  lots[code_lot].date_arrivee */\n      0x04\n      add\n        /* \"contracts/monContrat.sol\":3004:3008  lots */\n      0x01\n        /* \"contracts/monContrat.sol\":3009:3017  code_lot */\n      dup11\n        /* \"contracts/monContrat.sol\":3004:3018  lots[code_lot] */\n      mload(0x40)\n      tag_78\n      swap2\n      swap1\n      tag_59\n      jump\t// in\n    tag_78:\n      swap1\n      dup2\n      mstore\n      0x20\n      add\n      mload(0x40)\n      dup1\n      swap2\n      sub\n      swap1\n      keccak256\n        /* \"contracts/monContrat.sol\":3004:3041  lots[code_lot].provenance_fournisseur */\n      0x05\n      add\n        /* \"contracts/monContrat.sol\":3066:3070  lots */\n      0x01\n        /* \"contracts/monContrat.sol\":3071:3079  code_lot */\n      dup12\n        /* \"contracts/monContrat.sol\":3066:3080  lots[code_lot] */\n      mload(0x40)\n      tag_79\n      swap2\n      swap1\n      tag_59\n      jump\t// in\n    tag_79:\n      swap1\n      dup2\n      mstore\n      0x20\n      add\n      mload(0x40)\n      dup1\n      swap2\n      sub\n      swap1\n      keccak256\n        /* \"contracts/monContrat.sol\":3066:3095  lots[code_lot].code_sanitaire */\n      0x06\n      add\n        /* \"contracts/monContrat.sol\":3167:3200  toString(lots[code_lot].distance) */\n      tag_80\n        /* \"contracts/monContrat.sol\":3176:3180  lots */\n      0x01\n        /* \"contracts/monContrat.sol\":3181:3189  code_lot */\n      dup14\n        /* \"contracts/monContrat.sol\":3176:3190  lots[code_lot] */\n      mload(0x40)\n      tag_81\n      swap2\n      swap1\n      tag_59\n      jump\t// in\n    tag_81:\n      swap1\n      dup2\n      mstore\n      0x20\n      add\n      mload(0x40)\n      dup1\n      swap2\n      sub\n      swap1\n      keccak256\n        /* \"contracts/monContrat.sol\":3176:3199  lots[code_lot].distance */\n      0x07\n      add\n      sload\n        /* \"contracts/monContrat.sol\":3167:3175  toString */\n      tag_76\n        /* \"contracts/monContrat.sol\":3167:3200  toString(lots[code_lot].distance) */\n      jump\t// in\n    tag_80:\n        /* \"contracts/monContrat.sol\":2402:3208  abi.encodePacked(\"Code du magasin : \" , lots[code_lot].code_magasin,\"\\n Numero Lot: \" , lots[code_lot].n_lot,... */\n      add(0x20, mload(0x40))\n      tag_82\n      swap11\n      swap10\n      swap9\n      swap8\n      swap7\n      swap6\n      swap5\n      swap4\n      swap3\n      swap2\n      swap1\n      tag_83\n      jump\t// in\n    tag_82:\n      mload(0x40)\n      0x20\n      dup2\n      dup4\n      sub\n      sub\n      dup2\n      mstore\n      swap1\n      0x40\n      mstore\n        /* \"contracts/monContrat.sol\":2375:3209  string memory res = string(abi.encodePacked(\"Code du magasin : \" , lots[code_lot].code_magasin,\"\\n Numero Lot: \" , lots[code_lot].n_lot,... */\n      swap1\n      pop\n        /* \"contracts/monContrat.sol\":3226:3255  getCircuitProximite(code_lot) */\n      tag_84\n        /* \"contracts/monContrat.sol\":3246:3254  code_lot */\n      dup4\n        /* \"contracts/monContrat.sol\":3226:3245  getCircuitProximite */\n      tag_26\n        /* \"contracts/monContrat.sol\":3226:3255  getCircuitProximite(code_lot) */\n      jump\t// in\n    tag_84:\n        /* \"contracts/monContrat.sol\":3222:3526  if (getCircuitProximite(code_lot)) {... */\n      iszero\n      tag_85\n      jumpi\n        /* \"contracts/monContrat.sol\":3302:3305  res */\n      dup1\n        /* \"contracts/monContrat.sol\":3285:3372  abi.encodePacked(res, \"<b>C'est un produit qui provient d'un circuit de proximite</b>\") */\n      add(0x20, mload(0x40))\n      tag_86\n      swap2\n      swap1\n      tag_87\n      jump\t// in\n    tag_86:\n      mload(0x40)\n      0x20\n      dup2\n      dup4\n      sub\n      sub\n      dup2\n      mstore\n      swap1\n      0x40\n      mstore\n        /* \"contracts/monContrat.sol\":3272:3373  res = string(abi.encodePacked(res, \"<b>C'est un produit qui provient d'un circuit de proximite</b>\")) */\n      swap1\n      pop\n        /* \"contracts/monContrat.sol\":3222:3526  if (getCircuitProximite(code_lot)) {... */\n      jump(tag_88)\n    tag_85:\n        /* \"contracts/monContrat.sol\":3436:3439  res */\n      dup1\n        /* \"contracts/monContrat.sol\":3419:3513  abi.encodePacked(res, \"<b>C'est un produit qui ne provient pas d'un circuit de proximite</b>\") */\n      add(0x20, mload(0x40))\n      tag_89\n      swap2\n      swap1\n      tag_90\n      jump\t// in\n    tag_89:\n      mload(0x40)\n      0x20\n      dup2\n      dup4\n      sub\n      sub\n      dup2\n      mstore\n      swap1\n      0x40\n      mstore\n        /* \"contracts/monContrat.sol\":3406:3514  res = string(abi.encodePacked(res, \"<b>C'est un produit qui ne provient pas d'un circuit de proximite</b>\")) */\n      swap1\n      pop\n        /* \"contracts/monContrat.sol\":3222:3526  if (getCircuitProximite(code_lot)) {... */\n    tag_88:\n        /* \"contracts/monContrat.sol\":3543:3546  res */\n      dup1\n        /* \"contracts/monContrat.sol\":3536:3546  return res */\n      swap2\n      pop\n      pop\n        /* \"contracts/monContrat.sol\":2199:3560  function getLotInformations(string memory code_lot) public view returns (string memory) {... */\n      swap2\n      swap1\n      pop\n      jump\t// out\n        /* \"contracts/monContrat.sol\":4108:4369  function certification(string memory code_lot) public{... */\n    tag_35:\n        /* \"contracts/monContrat.sol\":4308:4310  80 */\n      0x50\n        /* \"contracts/monContrat.sol\":4277:4298  getDistance(code_lot) */\n      tag_92\n        /* \"contracts/monContrat.sol\":4289:4297  code_lot */\n      dup3\n        /* \"contracts/monContrat.sol\":4277:4288  getDistance */\n      tag_55\n        /* \"contracts/monContrat.sol\":4277:4298  getDistance(code_lot) */\n      jump\t// in\n    tag_92:\n        /* \"contracts/monContrat.sol\":4277:4311  getDistance(code_lot)<=uint256(80) */\n      gt\n        /* \"contracts/monContrat.sol\":4274:4361  if(getDistance(code_lot)<=uint256(80))... */\n      tag_93\n      jumpi\n        /* \"contracts/monContrat.sol\":4326:4361  setCircuitProximite(code_lot, true) */\n      tag_94\n        /* \"contracts/monContrat.sol\":4346:4354  code_lot */\n      dup2\n        /* \"contracts/monContrat.sol\":4356:4360  true */\n      0x01\n        /* \"contracts/monContrat.sol\":4326:4345  setCircuitProximite */\n      tag_23\n        /* \"contracts/monContrat.sol\":4326:4361  setCircuitProximite(code_lot, true) */\n      jump\t// in\n    tag_94:\n        /* \"contracts/monContrat.sol\":4274:4361  if(getDistance(code_lot)<=uint256(80))... */\n    tag_93:\n        /* \"contracts/monContrat.sol\":4108:4369  function certification(string memory code_lot) public{... */\n      pop\n      jump\t// out\n        /* \"contracts/monContrat.sol\":832:1433  function ajouterLot(string memory _code_magasin,string memory _n_lot,string memory _n_bon_livraison,uint256 _poids,string memory _date_arrivee,string memory _provenance_fournisseur,string memory code_sanitaire,uint256 _distance) public{... */\n    tag_39:\n        /* \"contracts/monContrat.sol\":1078:1100  string memory code_lot */\n      0x00\n        /* \"contracts/monContrat.sol\":1127:1140  _code_magasin */\n      dup9\n        /* \"contracts/monContrat.sol\":1142:1148  _n_lot */\n      dup9\n        /* \"contracts/monContrat.sol\":1110:1149  abi.encodePacked(_code_magasin, _n_lot) */\n      add(0x20, mload(0x40))\n      tag_96\n      swap3\n      swap2\n      swap1\n      tag_97\n      jump\t// in\n    tag_96:\n      mload(0x40)\n      0x20\n      dup2\n      dup4\n      sub\n      sub\n      dup2\n      mstore\n      swap1\n      0x40\n      mstore\n        /* \"contracts/monContrat.sol\":1078:1150  string memory code_lot = string(abi.encodePacked(_code_magasin, _n_lot)) */\n      swap1\n      pop\n        /* \"contracts/monContrat.sol\":1170:1186  exists(code_lot) */\n      tag_98\n        /* \"contracts/monContrat.sol\":1177:1185  code_lot */\n      dup2\n        /* \"contracts/monContrat.sol\":1170:1176  exists */\n      tag_17\n        /* \"contracts/monContrat.sol\":1170:1186  exists(code_lot) */\n      jump\t// in\n    tag_98:\n        /* \"contracts/monContrat.sol\":1169:1186  !exists(code_lot) */\n      iszero\n        /* \"contracts/monContrat.sol\":1161:1227  require(!exists(code_lot),\"Le lot existe deja dans la blockchain\") */\n      tag_99\n      jumpi\n      mload(0x40)\n      0x08c379a000000000000000000000000000000000000000000000000000000000\n      dup2\n      mstore\n      0x04\n      add\n      tag_100\n      swap1\n      tag_101\n      jump\t// in\n    tag_100:\n      mload(0x40)\n      dup1\n      swap2\n      sub\n      swap1\n      revert\n    tag_99:\n        /* \"contracts/monContrat.sol\":1253:1371  Lot(_code_magasin,_n_lot,_n_bon_livraison,_poids,_date_arrivee,_provenance_fournisseur,code_sanitaire,_distance,false) */\n      mload(0x40)\n      dup1\n      0x0120\n      add\n      0x40\n      mstore\n      dup1\n        /* \"contracts/monContrat.sol\":1257:1270  _code_magasin */\n      dup11\n        /* \"contracts/monContrat.sol\":1253:1371  Lot(_code_magasin,_n_lot,_n_bon_livraison,_poids,_date_arrivee,_provenance_fournisseur,code_sanitaire,_distance,false) */\n      dup2\n      mstore\n      0x20\n      add\n        /* \"contracts/monContrat.sol\":1271:1277  _n_lot */\n      dup10\n        /* \"contracts/monContrat.sol\":1253:1371  Lot(_code_magasin,_n_lot,_n_bon_livraison,_poids,_date_arrivee,_provenance_fournisseur,code_sanitaire,_distance,false) */\n      dup2\n      mstore\n      0x20\n      add\n        /* \"contracts/monContrat.sol\":1278:1294  _n_bon_livraison */\n      dup9\n        /* \"contracts/monContrat.sol\":1253:1371  Lot(_code_magasin,_n_lot,_n_bon_livraison,_poids,_date_arrivee,_provenance_fournisseur,code_sanitaire,_distance,false) */\n      dup2\n      mstore\n      0x20\n      add\n        /* \"contracts/monContrat.sol\":1295:1301  _poids */\n      dup8\n        /* \"contracts/monContrat.sol\":1253:1371  Lot(_code_magasin,_n_lot,_n_bon_livraison,_poids,_date_arrivee,_provenance_fournisseur,code_sanitaire,_distance,false) */\n      dup2\n      mstore\n      0x20\n      add\n        /* \"contracts/monContrat.sol\":1302:1315  _date_arrivee */\n      dup7\n        /* \"contracts/monContrat.sol\":1253:1371  Lot(_code_magasin,_n_lot,_n_bon_livraison,_poids,_date_arrivee,_provenance_fournisseur,code_sanitaire,_distance,false) */\n      dup2\n      mstore\n      0x20\n      add\n        /* \"contracts/monContrat.sol\":1316:1339  _provenance_fournisseur */\n      dup6\n        /* \"contracts/monContrat.sol\":1253:1371  Lot(_code_magasin,_n_lot,_n_bon_livraison,_poids,_date_arrivee,_provenance_fournisseur,code_sanitaire,_distance,false) */\n      dup2\n      mstore\n      0x20\n      add\n        /* \"contracts/monContrat.sol\":1340:1354  code_sanitaire */\n      dup5\n        /* \"contracts/monContrat.sol\":1253:1371  Lot(_code_magasin,_n_lot,_n_bon_livraison,_poids,_date_arrivee,_provenance_fournisseur,code_sanitaire,_distance,false) */\n      dup2\n      mstore\n      0x20\n      add\n        /* \"contracts/monContrat.sol\":1355:1364  _distance */\n      dup4\n        /* \"contracts/monContrat.sol\":1253:1371  Lot(_code_magasin,_n_lot,_n_bon_livraison,_poids,_date_arrivee,_provenance_fournisseur,code_sanitaire,_distance,false) */\n      dup2\n      mstore\n      0x20\n      add\n        /* \"contracts/monContrat.sol\":1365:1370  false */\n      0x00\n        /* \"contracts/monContrat.sol\":1253:1371  Lot(_code_magasin,_n_lot,_n_bon_livraison,_poids,_date_arrivee,_provenance_fournisseur,code_sanitaire,_distance,false) */\n      iszero\n      iszero\n      dup2\n      mstore\n      pop\n        /* \"contracts/monContrat.sol\":1238:1242  lots */\n      0x01\n        /* \"contracts/monContrat.sol\":1243:1251  code_lot */\n      dup3\n        /* \"contracts/monContrat.sol\":1238:1252  lots[code_lot] */\n      mload(0x40)\n      tag_102\n      swap2\n      swap1\n      tag_59\n      jump\t// in\n    tag_102:\n      swap1\n      dup2\n      mstore\n      0x20\n      add\n      mload(0x40)\n      dup1\n      swap2\n      sub\n      swap1\n      keccak256\n        /* \"contracts/monContrat.sol\":1238:1371  lots[code_lot]=Lot(_code_magasin,_n_lot,_n_bon_livraison,_poids,_date_arrivee,_provenance_fournisseur,code_sanitaire,_distance,false) */\n      0x00\n      dup3\n      add\n      mload\n      dup2\n      0x00\n      add\n      swap1\n      dup2\n      tag_103\n      swap2\n      swap1\n      tag_104\n      jump\t// in\n    tag_103:\n      pop\n      0x20\n      dup3\n      add\n      mload\n      dup2\n      0x01\n      add\n      swap1\n      dup2\n      tag_105\n      swap2\n      swap1\n      tag_104\n      jump\t// in\n    tag_105:\n      pop\n      0x40\n      dup3\n      add\n      mload\n      dup2\n      0x02\n      add\n      swap1\n      dup2\n      tag_106\n      swap2\n      swap1\n      tag_104\n      jump\t// in\n    tag_106:\n      pop\n      0x60\n      dup3\n      add\n      mload\n      dup2\n      0x03\n      add\n      sstore\n      0x80\n      dup3\n      add\n      mload\n      dup2\n      0x04\n      add\n      swap1\n      dup2\n      tag_107\n      swap2\n      swap1\n      tag_104\n      jump\t// in\n    tag_107:\n      pop\n      0xa0\n      dup3\n      add\n      mload\n      dup2\n      0x05\n      add\n      swap1\n      dup2\n      tag_108\n      swap2\n      swap1\n      tag_104\n      jump\t// in\n    tag_108:\n      pop\n      0xc0\n      dup3\n      add\n      mload\n      dup2\n      0x06\n      add\n      swap1\n      dup2\n      tag_109\n      swap2\n      swap1\n      tag_104\n      jump\t// in\n    tag_109:\n      pop\n      0xe0\n      dup3\n      add\n      mload\n      dup2\n      0x07\n      add\n      sstore\n      0x0100\n      dup3\n      add\n      mload\n      dup2\n      0x08\n      add\n      exp(0x0100, 0x00)\n      dup2\n      sload\n      dup2\n      0xff\n      mul\n      not\n      and\n      swap1\n      dup4\n      iszero\n      iszero\n      mul\n      or\n      swap1\n      sstore\n      pop\n      swap1\n      pop\n      pop\n        /* \"contracts/monContrat.sol\":1382:1388  taille */\n      0x02\n      0x00\n        /* \"contracts/monContrat.sol\":1382:1391  taille ++ */\n      dup2\n      sload\n      dup1\n      swap3\n      swap2\n      swap1\n      tag_110\n      swap1\n      tag_111\n      jump\t// in\n    tag_110:\n      swap2\n      swap1\n      pop\n      sstore\n      pop\n        /* \"contracts/monContrat.sol\":1402:1425  certification(code_lot) */\n      tag_112\n        /* \"contracts/monContrat.sol\":1416:1424  code_lot */\n      dup2\n        /* \"contracts/monContrat.sol\":1402:1415  certification */\n      tag_35\n        /* \"contracts/monContrat.sol\":1402:1425  certification(code_lot) */\n      jump\t// in\n    tag_112:\n        /* \"contracts/monContrat.sol\":1067:1433  {... */\n      pop\n        /* \"contracts/monContrat.sol\":832:1433  function ajouterLot(string memory _code_magasin,string memory _n_lot,string memory _n_bon_livraison,uint256 _poids,string memory _date_arrivee,string memory _provenance_fournisseur,string memory code_sanitaire,uint256 _distance) public{... */\n      pop\n      pop\n      pop\n      pop\n      pop\n      pop\n      pop\n      pop\n      jump\t// out\n        /* \"contracts/monContrat.sol\":493:528  mapping (string => Lot) public lots */\n    tag_42:\n      0x01\n      dup2\n      dup1\n      mload\n      0x20\n      dup2\n      add\n      dup3\n      add\n      dup1\n      mload\n      dup5\n      dup3\n      mstore\n      0x20\n      dup4\n      add\n      0x20\n      dup6\n      add\n      keccak256\n      dup2\n      dup4\n      mstore\n      dup1\n      swap6\n      pop\n      pop\n      pop\n      pop\n      pop\n      pop\n      0x00\n      swap2\n      pop\n      swap1\n      pop\n      dup1\n      0x00\n      add\n      dup1\n      sload\n      tag_113\n      swap1\n      tag_114\n      jump\t// in\n    tag_113:\n      dup1\n      0x1f\n      add\n      0x20\n      dup1\n      swap2\n      div\n      mul\n      0x20\n      add\n      mload(0x40)\n      swap1\n      dup2\n      add\n      0x40\n      mstore\n      dup1\n      swap3\n      swap2\n      swap1\n      dup2\n      dup2\n      mstore\n      0x20\n      add\n      dup3\n      dup1\n      sload\n      tag_115\n      swap1\n      tag_114\n      jump\t// in\n    tag_115:\n      dup1\n      iszero\n      tag_116\n      jumpi\n      dup1\n      0x1f\n      lt\n      tag_117\n      jumpi\n      0x0100\n      dup1\n      dup4\n      sload\n      div\n      mul\n      dup4\n      mstore\n      swap2\n      0x20\n      add\n      swap2\n      jump(tag_116)\n    tag_117:\n      dup3\n      add\n      swap2\n      swap1\n      0x00\n      mstore\n      keccak256(0x00, 0x20)\n      swap1\n    tag_118:\n      dup2\n      sload\n      dup2\n      mstore\n      swap1\n      0x01\n      add\n      swap1\n      0x20\n      add\n      dup1\n      dup4\n      gt\n      tag_118\n      jumpi\n      dup3\n      swap1\n      sub\n      0x1f\n      and\n      dup3\n      add\n      swap2\n    tag_116:\n      pop\n      pop\n      pop\n      pop\n      pop\n      swap1\n      dup1\n      0x01\n      add\n      dup1\n      sload\n      tag_119\n      swap1\n      tag_114\n      jump\t// in\n    tag_119:\n      dup1\n      0x1f\n      add\n      0x20\n      dup1\n      swap2\n      div\n      mul\n      0x20\n      add\n      mload(0x40)\n      swap1\n      dup2\n      add\n      0x40\n      mstore\n      dup1\n      swap3\n      swap2\n      swap1\n      dup2\n      dup2\n      mstore\n      0x20\n      add\n      dup3\n      dup1\n      sload\n      tag_120\n      swap1\n      tag_114\n      jump\t// in\n    tag_120:\n      dup1\n      iszero\n      tag_121\n      jumpi\n      dup1\n      0x1f\n      lt\n      tag_122\n      jumpi\n      0x0100\n      dup1\n      dup4\n      sload\n      div\n      mul\n      dup4\n      mstore\n      swap2\n      0x20\n      add\n      swap2\n      jump(tag_121)\n    tag_122:\n      dup3\n      add\n      swap2\n      swap1\n      0x00\n      mstore\n      keccak256(0x00, 0x20)\n      swap1\n    tag_123:\n      dup2\n      sload\n      dup2\n      mstore\n      swap1\n      0x01\n      add\n      swap1\n      0x20\n      add\n      dup1\n      dup4\n      gt\n      tag_123\n      jumpi\n      dup3\n      swap1\n      sub\n      0x1f\n      and\n      dup3\n      add\n      swap2\n    tag_121:\n      pop\n      pop\n      pop\n      pop\n      pop\n      swap1\n      dup1\n      0x02\n      add\n      dup1\n      sload\n      tag_124\n      swap1\n      tag_114\n      jump\t// in\n    tag_124:\n      dup1\n      0x1f\n      add\n      0x20\n      dup1\n      swap2\n      div\n      mul\n      0x20\n      add\n      mload(0x40)\n      swap1\n      dup2\n      add\n      0x40\n      mstore\n      dup1\n      swap3\n      swap2\n      swap1\n      dup2\n      dup2\n      mstore\n      0x20\n      add\n      dup3\n      dup1\n      sload\n      tag_125\n      swap1\n      tag_114\n      jump\t// in\n    tag_125:\n      dup1\n      iszero\n      tag_126\n      jumpi\n      dup1\n      0x1f\n      lt\n      tag_127\n      jumpi\n      0x0100\n      dup1\n      dup4\n      sload\n      div\n      mul\n      dup4\n      mstore\n      swap2\n      0x20\n      add\n      swap2\n      jump(tag_126)\n    tag_127:\n      dup3\n      add\n      swap2\n      swap1\n      0x00\n      mstore\n      keccak256(0x00, 0x20)\n      swap1\n    tag_128:\n      dup2\n      sload\n      dup2\n      mstore\n      swap1\n      0x01\n      add\n      swap1\n      0x20\n      add\n      dup1\n      dup4\n      gt\n      tag_128\n      jumpi\n      dup3\n      swap1\n      sub\n      0x1f\n      and\n      dup3\n      add\n      swap2\n    tag_126:\n      pop\n      pop\n      pop\n      pop\n      pop\n      swap1\n      dup1\n      0x03\n      add\n      sload\n      swap1\n      dup1\n      0x04\n      add\n      dup1\n      sload\n      tag_129\n      swap1\n      tag_114\n      jump\t// in\n    tag_129:\n      dup1\n      0x1f\n      add\n      0x20\n      dup1\n      swap2\n      div\n      mul\n      0x20\n      add\n      mload(0x40)\n      swap1\n      dup2\n      add\n      0x40\n      mstore\n      dup1\n      swap3\n      swap2\n      swap1\n      dup2\n      dup2\n      mstore\n      0x20\n      add\n      dup3\n      dup1\n      sload\n      tag_130\n      swap1\n      tag_114\n      jump\t// in\n    tag_130:\n      dup1\n      iszero\n      tag_131\n      jumpi\n      dup1\n      0x1f\n      lt\n      tag_132\n      jumpi\n      0x0100\n      dup1\n      dup4\n      sload\n      div\n      mul\n      dup4\n      mstore\n      swap2\n      0x20\n      add\n      swap2\n      jump(tag_131)\n    tag_132:\n      dup3\n      add\n      swap2\n      swap1\n      0x00\n      mstore\n      keccak256(0x00, 0x20)\n      swap1\n    tag_133:\n      dup2\n      sload\n      dup2\n      mstore\n      swap1\n      0x01\n      add\n      swap1\n      0x20\n      add\n      dup1\n      dup4\n      gt\n      tag_133\n      jumpi\n      dup3\n      swap1\n      sub\n      0x1f\n      and\n      dup3\n      add\n      swap2\n    tag_131:\n      pop\n      pop\n      pop\n      pop\n      pop\n      swap1\n      dup1\n      0x05\n      add\n      dup1\n      sload\n      tag_134\n      swap1\n      tag_114\n      jump\t// in\n    tag_134:\n      dup1\n      0x1f\n      add\n      0x20\n      dup1\n      swap2\n      div\n      mul\n      0x20\n      add\n      mload(0x40)\n      swap1\n      dup2\n      add\n      0x40\n      mstore\n      dup1\n      swap3\n      swap2\n      swap1\n      dup2\n      dup2\n      mstore\n      0x20\n      add\n      dup3\n      dup1\n      sload\n      tag_135\n      swap1\n      tag_114\n      jump\t// in\n    tag_135:\n      dup1\n      iszero\n      tag_136\n      jumpi\n      dup1\n      0x1f\n      lt\n      tag_137\n      jumpi\n      0x0100\n      dup1\n      dup4\n      sload\n      div\n      mul\n      dup4\n      mstore\n      swap2\n      0x20\n      add\n      swap2\n      jump(tag_136)\n    tag_137:\n      dup3\n      add\n      swap2\n      swap1\n      0x00\n      mstore\n      keccak256(0x00, 0x20)\n      swap1\n    tag_138:\n      dup2\n      sload\n      dup2\n      mstore\n      swap1\n      0x01\n      add\n      swap1\n      0x20\n      add\n      dup1\n      dup4\n      gt\n      tag_138\n      jumpi\n      dup3\n      swap1\n      sub\n      0x1f\n      and\n      dup3\n      add\n      swap2\n    tag_136:\n      pop\n      pop\n      pop\n      pop\n      pop\n      swap1\n      dup1\n      0x06\n      add\n      dup1\n      sload\n      tag_139\n      swap1\n      tag_114\n      jump\t// in\n    tag_139:\n      dup1\n      0x1f\n      add\n      0x20\n      dup1\n      swap2\n      div\n      mul\n      0x20\n      add\n      mload(0x40)\n      swap1\n      dup2\n      add\n      0x40\n      mstore\n      dup1\n      swap3\n      swap2\n      swap1\n      dup2\n      dup2\n      mstore\n      0x20\n      add\n      dup3\n      dup1\n      sload\n      tag_140\n      swap1\n      tag_114\n      jump\t// in\n    tag_140:\n      dup1\n      iszero\n      tag_141\n      jumpi\n      dup1\n      0x1f\n      lt\n      tag_142\n      jumpi\n      0x0100\n      dup1\n      dup4\n      sload\n      div\n      mul\n      dup4\n      mstore\n      swap2\n      0x20\n      add\n      swap2\n      jump(tag_141)\n    tag_142:\n      dup3\n      add\n      swap2\n      swap1\n      0x00\n      mstore\n      keccak256(0x00, 0x20)\n      swap1\n    tag_143:\n      dup2\n      sload\n      dup2\n      mstore\n      swap1\n      0x01\n      add\n      swap1\n      0x20\n      add\n      dup1\n      dup4\n      gt\n      tag_143\n      jumpi\n      dup3\n      swap1\n      sub\n      0x1f\n      and\n      dup3\n      add\n      swap2\n    tag_141:\n      pop\n      pop\n      pop\n      pop\n      pop\n      swap1\n      dup1\n      0x07\n      add\n      sload\n      swap1\n      dup1\n      0x08\n      add\n      0x00\n      swap1\n      sload\n      swap1\n      0x0100\n      exp\n      swap1\n      div\n      0xff\n      and\n      swap1\n      pop\n      dup10\n      jump\t// out\n        /* \"contracts/monContrat.sol\":1802:1936  function getFournisseur(string memory code_lot)public view returns(string memory){... */\n    tag_47:\n        /* \"contracts/monContrat.sol\":1869:1882  string memory */\n      0x60\n        /* \"contracts/monContrat.sol\":1901:1905  lots */\n      0x01\n        /* \"contracts/monContrat.sol\":1906:1914  code_lot */\n      dup3\n        /* \"contracts/monContrat.sol\":1901:1915  lots[code_lot] */\n      mload(0x40)\n      tag_145\n      swap2\n      swap1\n      tag_59\n      jump\t// in\n    tag_145:\n      swap1\n      dup2\n      mstore\n      0x20\n      add\n      mload(0x40)\n      dup1\n      swap2\n      sub\n      swap1\n      keccak256\n        /* \"contracts/monContrat.sol\":1901:1928  lots[code_lot].code_magasin */\n      0x00\n      add\n        /* \"contracts/monContrat.sol\":1894:1928  return lots[code_lot].code_magasin */\n      dup1\n      sload\n      tag_146\n      swap1\n      tag_114\n      jump\t// in\n    tag_146:\n      dup1\n      0x1f\n      add\n      0x20\n      dup1\n      swap2\n      div\n      mul\n      0x20\n      add\n      mload(0x40)\n      swap1\n      dup2\n      add\n      0x40\n      mstore\n      dup1\n      swap3\n      swap2\n      swap1\n      dup2\n      dup2\n      mstore\n      0x20\n      add\n      dup3\n      dup1\n      sload\n      tag_147\n      swap1\n      tag_114\n      jump\t// in\n    tag_147:\n      dup1\n      iszero\n      tag_148\n      jumpi\n      dup1\n      0x1f\n      lt\n      tag_149\n      jumpi\n      0x0100\n      dup1\n      dup4\n      sload\n      div\n      mul\n      dup4\n      mstore\n      swap2\n      0x20\n      add\n      swap2\n      jump(tag_148)\n    tag_149:\n      dup3\n      add\n      swap2\n      swap1\n      0x00\n      mstore\n      keccak256(0x00, 0x20)\n      swap1\n    tag_150:\n      dup2\n      sload\n      dup2\n      mstore\n      swap1\n      0x01\n      add\n      swap1\n      0x20\n      add\n      dup1\n      dup4\n      gt\n      tag_150\n      jumpi\n      dup3\n      swap1\n      sub\n      0x1f\n      and\n      dup3\n      add\n      swap2\n    tag_148:\n      pop\n      pop\n      pop\n      pop\n      pop\n      swap1\n      pop\n        /* \"contracts/monContrat.sol\":1802:1936  function getFournisseur(string memory code_lot)public view returns(string memory){... */\n      swap2\n      swap1\n      pop\n      jump\t// out\n        /* \"contracts/monContrat.sol\":1568:1654  function getTaille()public view returns(uint256)... */\n    tag_50:\n        /* \"contracts/monContrat.sol\":1608:1615  uint256 */\n      0x00\n        /* \"contracts/monContrat.sol\":1640:1646  taille */\n      sload(0x02)\n        /* \"contracts/monContrat.sol\":1633:1646  return taille */\n      swap1\n      pop\n        /* \"contracts/monContrat.sol\":1568:1654  function getTaille()public view returns(uint256)... */\n      swap1\n      jump\t// out\n        /* \"contracts/monContrat.sol\":1942:2063  function getDistance(string memory code_lot)public view returns(uint256){... */\n    tag_55:\n        /* \"contracts/monContrat.sol\":2006:2013  uint256 */\n      0x00\n        /* \"contracts/monContrat.sol\":2032:2036  lots */\n      0x01\n        /* \"contracts/monContrat.sol\":2037:2045  code_lot */\n      dup3\n        /* \"contracts/monContrat.sol\":2032:2046  lots[code_lot] */\n      mload(0x40)\n      tag_153\n      swap2\n      swap1\n      tag_59\n      jump\t// in\n    tag_153:\n      swap1\n      dup2\n      mstore\n      0x20\n      add\n      mload(0x40)\n      dup1\n      swap2\n      sub\n      swap1\n      keccak256\n        /* \"contracts/monContrat.sol\":2032:2055  lots[code_lot].distance */\n      0x07\n      add\n      sload\n        /* \"contracts/monContrat.sol\":2025:2055  return lots[code_lot].distance */\n      swap1\n      pop\n        /* \"contracts/monContrat.sol\":1942:2063  function getDistance(string memory code_lot)public view returns(uint256){... */\n      swap2\n      swap1\n      pop\n      jump\t// out\n        /* \"contracts/monContrat.sol\":3568:4100  function toString(uint256 value) internal pure returns (string memory) {... */\n    tag_76:\n        /* \"contracts/monContrat.sol\":3624:3637  string memory */\n      0x60\n        /* \"contracts/monContrat.sol\":3663:3664  0 */\n      0x00\n        /* \"contracts/monContrat.sol\":3654:3659  value */\n      dup3\n        /* \"contracts/monContrat.sol\":3654:3664  value == 0 */\n      sub\n        /* \"contracts/monContrat.sol\":3650:3703  if (value == 0) {... */\n      tag_155\n      jumpi\n        /* \"contracts/monContrat.sol\":3681:3691  return \"0\" */\n      mload(0x40)\n      dup1\n      0x40\n      add\n      0x40\n      mstore\n      dup1\n      0x01\n      dup2\n      mstore\n      0x20\n      add\n      0x3000000000000000000000000000000000000000000000000000000000000000\n      dup2\n      mstore\n      pop\n      swap1\n      pop\n      jump(tag_154)\n        /* \"contracts/monContrat.sol\":3650:3703  if (value == 0) {... */\n    tag_155:\n        /* \"contracts/monContrat.sol\":3713:3725  uint256 temp */\n      0x00\n        /* \"contracts/monContrat.sol\":3728:3733  value */\n      dup3\n        /* \"contracts/monContrat.sol\":3713:3733  uint256 temp = value */\n      swap1\n      pop\n        /* \"contracts/monContrat.sol\":3744:3758  uint256 digits */\n      0x00\n        /* \"contracts/monContrat.sol\":3769:3847  while (temp != 0) {... */\n    tag_156:\n        /* \"contracts/monContrat.sol\":3784:3785  0 */\n      0x00\n        /* \"contracts/monContrat.sol\":3776:3780  temp */\n      dup3\n        /* \"contracts/monContrat.sol\":3776:3785  temp != 0 */\n      eq\n        /* \"contracts/monContrat.sol\":3769:3847  while (temp != 0) {... */\n      tag_157\n      jumpi\n        /* \"contracts/monContrat.sol\":3802:3810  digits++ */\n      dup1\n      dup1\n      tag_158\n      swap1\n      tag_111\n      jump\t// in\n    tag_158:\n      swap2\n      pop\n      pop\n        /* \"contracts/monContrat.sol\":3833:3835  10 */\n      0x0a\n        /* \"contracts/monContrat.sol\":3825:3835  temp /= 10 */\n      dup3\n      tag_159\n      swap2\n      swap1\n      tag_160\n      jump\t// in\n    tag_159:\n      swap2\n      pop\n        /* \"contracts/monContrat.sol\":3769:3847  while (temp != 0) {... */\n      jump(tag_156)\n    tag_157:\n        /* \"contracts/monContrat.sol\":3857:3876  bytes memory buffer */\n      0x00\n        /* \"contracts/monContrat.sol\":3889:3895  digits */\n      dup2\n        /* \"contracts/monContrat.sol\":3879:3896  new bytes(digits) */\n      0xffffffffffffffff\n      dup2\n      gt\n      iszero\n      tag_161\n      jumpi\n      tag_162\n      tag_163\n      jump\t// in\n    tag_162:\n    tag_161:\n      mload(0x40)\n      swap1\n      dup1\n      dup3\n      mstore\n      dup1\n      0x1f\n      add\n      not(0x1f)\n      and\n      0x20\n      add\n      dup3\n      add\n      0x40\n      mstore\n      dup1\n      iszero\n      tag_164\n      jumpi\n      dup2\n      0x20\n      add\n      0x01\n      dup3\n      mul\n      dup1\n      calldatasize\n      dup4\n      calldatacopy\n      dup1\n      dup3\n      add\n      swap2\n      pop\n      pop\n      swap1\n      pop\n    tag_164:\n      pop\n        /* \"contracts/monContrat.sol\":3857:3896  bytes memory buffer = new bytes(digits) */\n      swap1\n      pop\n        /* \"contracts/monContrat.sol\":3907:4061  while (value != 0) {... */\n    tag_165:\n        /* \"contracts/monContrat.sol\":3923:3924  0 */\n      0x00\n        /* \"contracts/monContrat.sol\":3914:3919  value */\n      dup6\n        /* \"contracts/monContrat.sol\":3914:3924  value != 0 */\n      eq\n        /* \"contracts/monContrat.sol\":3907:4061  while (value != 0) {... */\n      tag_166\n      jumpi\n        /* \"contracts/monContrat.sol\":3951:3952  1 */\n      0x01\n        /* \"contracts/monContrat.sol\":3941:3952  digits -= 1 */\n      dup3\n      tag_167\n      swap2\n      swap1\n      tag_168\n      jump\t// in\n    tag_167:\n      swap2\n      pop\n        /* \"contracts/monContrat.sol\":4018:4020  10 */\n      0x0a\n        /* \"contracts/monContrat.sol\":4010:4015  value */\n      dup6\n        /* \"contracts/monContrat.sol\":4010:4020  value % 10 */\n      tag_169\n      swap2\n      swap1\n      tag_170\n      jump\t// in\n    tag_169:\n        /* \"contracts/monContrat.sol\":3997:3999  48 */\n      0x30\n        /* \"contracts/monContrat.sol\":3997:4021  48 + uint256(value % 10) */\n      tag_171\n      swap2\n      swap1\n      tag_172\n      jump\t// in\n    tag_171:\n        /* \"contracts/monContrat.sol\":3984:4023  bytes1(uint8(48 + uint256(value % 10))) */\n      0xf8\n      shl\n        /* \"contracts/monContrat.sol\":3967:3973  buffer */\n      dup2\n        /* \"contracts/monContrat.sol\":3974:3980  digits */\n      dup4\n        /* \"contracts/monContrat.sol\":3967:3981  buffer[digits] */\n      dup2\n      mload\n      dup2\n      lt\n      tag_173\n      jumpi\n      tag_174\n      tag_175\n      jump\t// in\n    tag_174:\n    tag_173:\n      0x20\n      add\n      add\n        /* \"contracts/monContrat.sol\":3967:4023  buffer[digits] = bytes1(uint8(48 + uint256(value % 10))) */\n      swap1\n      not(0xffffffffffffffffffffffffffffffffffffffffffffffffffffffffffffff)\n      and\n      swap1\n      dup2\n      0x00\n      byte\n      swap1\n      mstore8\n      pop\n        /* \"contracts/monContrat.sol\":4047:4049  10 */\n      0x0a\n        /* \"contracts/monContrat.sol\":4038:4049  value /= 10 */\n      dup6\n      tag_176\n      swap2\n      swap1\n      tag_160\n      jump\t// in\n    tag_176:\n      swap5\n      pop\n        /* \"contracts/monContrat.sol\":3907:4061  while (value != 0) {... */\n      jump(tag_165)\n    tag_166:\n        /* \"contracts/monContrat.sol\":4085:4091  buffer */\n      dup1\n        /* \"contracts/monContrat.sol\":4071:4092  return string(buffer) */\n      swap4\n      pop\n      pop\n      pop\n      pop\n        /* \"contracts/monContrat.sol\":3568:4100  function toString(uint256 value) internal pure returns (string memory) {... */\n    tag_154:\n      swap2\n      swap1\n      pop\n      jump\t// out\n        /* \"#utility.yul\":7:82   */\n    tag_177:\n        /* \"#utility.yul\":40:46   */\n      0x00\n        /* \"#utility.yul\":73:75   */\n      0x40\n        /* \"#utility.yul\":67:76   */\n      mload\n        /* \"#utility.yul\":57:76   */\n      swap1\n      pop\n        /* \"#utility.yul\":7:82   */\n      swap1\n      jump\t// out\n        /* \"#utility.yul\":88:205   */\n    tag_178:\n        /* \"#utility.yul\":197:198   */\n      0x00\n        /* \"#utility.yul\":194:195   */\n      dup1\n        /* \"#utility.yul\":187:199   */\n      revert\n        /* \"#utility.yul\":211:328   */\n    tag_179:\n        /* \"#utility.yul\":320:321   */\n      0x00\n        /* \"#utility.yul\":317:318   */\n      dup1\n        /* \"#utility.yul\":310:322   */\n      revert\n        /* \"#utility.yul\":334:451   */\n    tag_180:\n        /* \"#utility.yul\":443:444   */\n      0x00\n        /* \"#utility.yul\":440:441   */\n      dup1\n        /* \"#utility.yul\":433:445   */\n      revert\n        /* \"#utility.yul\":457:574   */\n    tag_181:\n        /* \"#utility.yul\":566:567   */\n      0x00\n        /* \"#utility.yul\":563:564   */\n      dup1\n        /* \"#utility.yul\":556:568   */\n      revert\n        /* \"#utility.yul\":580:682   */\n    tag_182:\n        /* \"#utility.yul\":621:627   */\n      0x00\n        /* \"#utility.yul\":672:674   */\n      0x1f\n        /* \"#utility.yul\":668:675   */\n      not\n        /* \"#utility.yul\":663:665   */\n      0x1f\n        /* \"#utility.yul\":656:661   */\n      dup4\n        /* \"#utility.yul\":652:666   */\n      add\n        /* \"#utility.yul\":648:676   */\n      and\n        /* \"#utility.yul\":638:676   */\n      swap1\n      pop\n        /* \"#utility.yul\":580:682   */\n      swap2\n      swap1\n      pop\n      jump\t// out\n        /* \"#utility.yul\":688:868   */\n    tag_163:\n        /* \"#utility.yul\":736:813   */\n      0x4e487b7100000000000000000000000000000000000000000000000000000000\n        /* \"#utility.yul\":733:734   */\n      0x00\n        /* \"#utility.yul\":726:814   */\n      mstore\n        /* \"#utility.yul\":833:837   */\n      0x41\n        /* \"#utility.yul\":830:831   */\n      0x04\n        /* \"#utility.yul\":823:838   */\n      mstore\n        /* \"#utility.yul\":857:861   */\n      0x24\n        /* \"#utility.yul\":854:855   */\n      0x00\n        /* \"#utility.yul\":847:862   */\n      revert\n        /* \"#utility.yul\":874:1155   */\n    tag_183:\n        /* \"#utility.yul\":957:984   */\n      tag_259\n        /* \"#utility.yul\":979:983   */\n      dup3\n        /* \"#utility.yul\":957:984   */\n      tag_182\n      jump\t// in\n    tag_259:\n        /* \"#utility.yul\":949:955   */\n      dup2\n        /* \"#utility.yul\":945:985   */\n      add\n        /* \"#utility.yul\":1087:1093   */\n      dup2\n        /* \"#utility.yul\":1075:1085   */\n      dup2\n        /* \"#utility.yul\":1072:1094   */\n      lt\n        /* \"#utility.yul\":1051:1069   */\n      0xffffffffffffffff\n        /* \"#utility.yul\":1039:1049   */\n      dup3\n        /* \"#utility.yul\":1036:1070   */\n      gt\n        /* \"#utility.yul\":1033:1095   */\n      or\n        /* \"#utility.yul\":1030:1118   */\n      iszero\n      tag_260\n      jumpi\n        /* \"#utility.yul\":1098:1116   */\n      tag_261\n      tag_163\n      jump\t// in\n    tag_261:\n        /* \"#utility.yul\":1030:1118   */\n    tag_260:\n        /* \"#utility.yul\":1138:1148   */\n      dup1\n        /* \"#utility.yul\":1134:1136   */\n      0x40\n        /* \"#utility.yul\":1127:1149   */\n      mstore\n        /* \"#utility.yul\":917:1155   */\n      pop\n        /* \"#utility.yul\":874:1155   */\n      pop\n      pop\n      jump\t// out\n        /* \"#utility.yul\":1161:1290   */\n    tag_184:\n        /* \"#utility.yul\":1195:1201   */\n      0x00\n        /* \"#utility.yul\":1222:1242   */\n      tag_263\n      tag_177\n      jump\t// in\n    tag_263:\n        /* \"#utility.yul\":1212:1242   */\n      swap1\n      pop\n        /* \"#utility.yul\":1251:1284   */\n      tag_264\n        /* \"#utility.yul\":1279:1283   */\n      dup3\n        /* \"#utility.yul\":1271:1277   */\n      dup3\n        /* \"#utility.yul\":1251:1284   */\n      tag_183\n      jump\t// in\n    tag_264:\n        /* \"#utility.yul\":1161:1290   */\n      swap2\n      swap1\n      pop\n      jump\t// out\n        /* \"#utility.yul\":1296:1604   */\n    tag_185:\n        /* \"#utility.yul\":1358:1362   */\n      0x00\n        /* \"#utility.yul\":1448:1466   */\n      0xffffffffffffffff\n        /* \"#utility.yul\":1440:1446   */\n      dup3\n        /* \"#utility.yul\":1437:1467   */\n      gt\n        /* \"#utility.yul\":1434:1490   */\n      iszero\n      tag_266\n      jumpi\n        /* \"#utility.yul\":1470:1488   */\n      tag_267\n      tag_163\n      jump\t// in\n    tag_267:\n        /* \"#utility.yul\":1434:1490   */\n    tag_266:\n        /* \"#utility.yul\":1508:1537   */\n      tag_268\n        /* \"#utility.yul\":1530:1536   */\n      dup3\n        /* \"#utility.yul\":1508:1537   */\n      tag_182\n      jump\t// in\n    tag_268:\n        /* \"#utility.yul\":1500:1537   */\n      swap1\n      pop\n        /* \"#utility.yul\":1592:1596   */\n      0x20\n        /* \"#utility.yul\":1586:1590   */\n      dup2\n        /* \"#utility.yul\":1582:1597   */\n      add\n        /* \"#utility.yul\":1574:1597   */\n      swap1\n      pop\n        /* \"#utility.yul\":1296:1604   */\n      swap2\n      swap1\n      pop\n      jump\t// out\n        /* \"#utility.yul\":1610:1756   */\n    tag_186:\n        /* \"#utility.yul\":1707:1713   */\n      dup3\n        /* \"#utility.yul\":1702:1705   */\n      dup2\n        /* \"#utility.yul\":1697:1700   */\n      dup4\n        /* \"#utility.yul\":1684:1714   */\n      calldatacopy\n        /* \"#utility.yul\":1748:1749   */\n      0x00\n        /* \"#utility.yul\":1739:1745   */\n      dup4\n        /* \"#utility.yul\":1734:1737   */\n      dup4\n        /* \"#utility.yul\":1730:1746   */\n      add\n        /* \"#utility.yul\":1723:1750   */\n      mstore\n        /* \"#utility.yul\":1610:1756   */\n      pop\n      pop\n      pop\n      jump\t// out\n        /* \"#utility.yul\":1762:2187   */\n    tag_187:\n        /* \"#utility.yul\":1840:1845   */\n      0x00\n        /* \"#utility.yul\":1865:1931   */\n      tag_271\n        /* \"#utility.yul\":1881:1930   */\n      tag_272\n        /* \"#utility.yul\":1923:1929   */\n      dup5\n        /* \"#utility.yul\":1881:1930   */\n      tag_185\n      jump\t// in\n    tag_272:\n        /* \"#utility.yul\":1865:1931   */\n      tag_184\n      jump\t// in\n    tag_271:\n        /* \"#utility.yul\":1856:1931   */\n      swap1\n      pop\n        /* \"#utility.yul\":1954:1960   */\n      dup3\n        /* \"#utility.yul\":1947:1952   */\n      dup2\n        /* \"#utility.yul\":1940:1961   */\n      mstore\n        /* \"#utility.yul\":1992:1996   */\n      0x20\n        /* \"#utility.yul\":1985:1990   */\n      dup2\n        /* \"#utility.yul\":1981:1997   */\n      add\n        /* \"#utility.yul\":2030:2033   */\n      dup5\n        /* \"#utility.yul\":2021:2027   */\n      dup5\n        /* \"#utility.yul\":2016:2019   */\n      dup5\n        /* \"#utility.yul\":2012:2028   */\n      add\n        /* \"#utility.yul\":2009:2034   */\n      gt\n        /* \"#utility.yul\":2006:2118   */\n      iszero\n      tag_273\n      jumpi\n        /* \"#utility.yul\":2037:2116   */\n      tag_274\n      tag_181\n      jump\t// in\n    tag_274:\n        /* \"#utility.yul\":2006:2118   */\n    tag_273:\n        /* \"#utility.yul\":2127:2181   */\n      tag_275\n        /* \"#utility.yul\":2174:2180   */\n      dup5\n        /* \"#utility.yul\":2169:2172   */\n      dup3\n        /* \"#utility.yul\":2164:2167   */\n      dup6\n        /* \"#utility.yul\":2127:2181   */\n      tag_186\n      jump\t// in\n    tag_275:\n        /* \"#utility.yul\":1846:2187   */\n      pop\n        /* \"#utility.yul\":1762:2187   */\n      swap4\n      swap3\n      pop\n      pop\n      pop\n      jump\t// out\n        /* \"#utility.yul\":2207:2547   */\n    tag_188:\n        /* \"#utility.yul\":2263:2268   */\n      0x00\n        /* \"#utility.yul\":2312:2315   */\n      dup3\n        /* \"#utility.yul\":2305:2309   */\n      0x1f\n        /* \"#utility.yul\":2297:2303   */\n      dup4\n        /* \"#utility.yul\":2293:2310   */\n      add\n        /* \"#utility.yul\":2289:2316   */\n      slt\n        /* \"#utility.yul\":2279:2401   */\n      tag_277\n      jumpi\n        /* \"#utility.yul\":2320:2399   */\n      tag_278\n      tag_180\n      jump\t// in\n    tag_278:\n        /* \"#utility.yul\":2279:2401   */\n    tag_277:\n        /* \"#utility.yul\":2437:2443   */\n      dup2\n        /* \"#utility.yul\":2424:2444   */\n      calldataload\n        /* \"#utility.yul\":2462:2541   */\n      tag_279\n        /* \"#utility.yul\":2537:2540   */\n      dup5\n        /* \"#utility.yul\":2529:2535   */\n      dup3\n        /* \"#utility.yul\":2522:2526   */\n      0x20\n        /* \"#utility.yul\":2514:2520   */\n      dup7\n        /* \"#utility.yul\":2510:2527   */\n      add\n        /* \"#utility.yul\":2462:2541   */\n      tag_187\n      jump\t// in\n    tag_279:\n        /* \"#utility.yul\":2453:2541   */\n      swap2\n      pop\n        /* \"#utility.yul\":2269:2547   */\n      pop\n        /* \"#utility.yul\":2207:2547   */\n      swap3\n      swap2\n      pop\n      pop\n      jump\t// out\n        /* \"#utility.yul\":2553:3062   */\n    tag_16:\n        /* \"#utility.yul\":2622:2628   */\n      0x00\n        /* \"#utility.yul\":2671:2673   */\n      0x20\n        /* \"#utility.yul\":2659:2668   */\n      dup3\n        /* \"#utility.yul\":2650:2657   */\n      dup5\n        /* \"#utility.yul\":2646:2669   */\n      sub\n        /* \"#utility.yul\":2642:2674   */\n      slt\n        /* \"#utility.yul\":2639:2758   */\n      iszero\n      tag_281\n      jumpi\n        /* \"#utility.yul\":2677:2756   */\n      tag_282\n      tag_178\n      jump\t// in\n    tag_282:\n        /* \"#utility.yul\":2639:2758   */\n    tag_281:\n        /* \"#utility.yul\":2825:2826   */\n      0x00\n        /* \"#utility.yul\":2814:2823   */\n      dup3\n        /* \"#utility.yul\":2810:2827   */\n      add\n        /* \"#utility.yul\":2797:2828   */\n      calldataload\n        /* \"#utility.yul\":2855:2873   */\n      0xffffffffffffffff\n        /* \"#utility.yul\":2847:2853   */\n      dup2\n        /* \"#utility.yul\":2844:2874   */\n      gt\n        /* \"#utility.yul\":2841:2958   */\n      iszero\n      tag_283\n      jumpi\n        /* \"#utility.yul\":2877:2956   */\n      tag_284\n      tag_179\n      jump\t// in\n    tag_284:\n        /* \"#utility.yul\":2841:2958   */\n    tag_283:\n        /* \"#utility.yul\":2982:3045   */\n      tag_285\n        /* \"#utility.yul\":3037:3044   */\n      dup5\n        /* \"#utility.yul\":3028:3034   */\n      dup3\n        /* \"#utility.yul\":3017:3026   */\n      dup6\n        /* \"#utility.yul\":3013:3035   */\n      add\n        /* \"#utility.yul\":2982:3045   */\n      tag_188\n      jump\t// in\n    tag_285:\n        /* \"#utility.yul\":2972:3045   */\n      swap2\n      pop\n        /* \"#utility.yul\":2768:3055   */\n      pop\n        /* \"#utility.yul\":2553:3062   */\n      swap3\n      swap2\n      pop\n      pop\n      jump\t// out\n        /* \"#utility.yul\":3068:3158   */\n    tag_189:\n        /* \"#utility.yul\":3102:3109   */\n      0x00\n        /* \"#utility.yul\":3145:3150   */\n      dup2\n        /* \"#utility.yul\":3138:3151   */\n      iszero\n        /* \"#utility.yul\":3131:3152   */\n      iszero\n        /* \"#utility.yul\":3120:3152   */\n      swap1\n      pop\n        /* \"#utility.yul\":3068:3158   */\n      swap2\n      swap1\n      pop\n      jump\t// out\n        /* \"#utility.yul\":3164:3273   */\n    tag_190:\n        /* \"#utility.yul\":3245:3266   */\n      tag_288\n        /* \"#utility.yul\":3260:3265   */\n      dup2\n        /* \"#utility.yul\":3245:3266   */\n      tag_189\n      jump\t// in\n    tag_288:\n        /* \"#utility.yul\":3240:3243   */\n      dup3\n        /* \"#utility.yul\":3233:3267   */\n      mstore\n        /* \"#utility.yul\":3164:3273   */\n      pop\n      pop\n      jump\t// out\n        /* \"#utility.yul\":3279:3489   */\n    tag_19:\n        /* \"#utility.yul\":3366:3370   */\n      0x00\n        /* \"#utility.yul\":3404:3406   */\n      0x20\n        /* \"#utility.yul\":3393:3402   */\n      dup3\n        /* \"#utility.yul\":3389:3407   */\n      add\n        /* \"#utility.yul\":3381:3407   */\n      swap1\n      pop\n        /* \"#utility.yul\":3417:3482   */\n      tag_290\n        /* \"#utility.yul\":3479:3480   */\n      0x00\n        /* \"#utility.yul\":3468:3477   */\n      dup4\n        /* \"#utility.yul\":3464:3481   */\n      add\n        /* \"#utility.yul\":3455:3461   */\n      dup5\n        /* \"#utility.yul\":3417:3482   */\n      tag_190\n      jump\t// in\n    tag_290:\n        /* \"#utility.yul\":3279:3489   */\n      swap3\n      swap2\n      pop\n      pop\n      jump\t// out\n        /* \"#utility.yul\":3495:3611   */\n    tag_191:\n        /* \"#utility.yul\":3565:3586   */\n      tag_292\n        /* \"#utility.yul\":3580:3585   */\n      dup2\n        /* \"#utility.yul\":3565:3586   */\n      tag_189\n      jump\t// in\n    tag_292:\n        /* \"#utility.yul\":3558:3563   */\n      dup2\n        /* \"#utility.yul\":3555:3587   */\n      eq\n        /* \"#utility.yul\":3545:3605   */\n      tag_293\n      jumpi\n        /* \"#utility.yul\":3601:3602   */\n      0x00\n        /* \"#utility.yul\":3598:3599   */\n      dup1\n        /* \"#utility.yul\":3591:3603   */\n      revert\n        /* \"#utility.yul\":3545:3605   */\n    tag_293:\n        /* \"#utility.yul\":3495:3611   */\n      pop\n      jump\t// out\n        /* \"#utility.yul\":3617:3750   */\n    tag_192:\n        /* \"#utility.yul\":3660:3665   */\n      0x00\n        /* \"#utility.yul\":3698:3704   */\n      dup2\n        /* \"#utility.yul\":3685:3705   */\n      calldataload\n        /* \"#utility.yul\":3676:3705   */\n      swap1\n      pop\n        /* \"#utility.yul\":3714:3744   */\n      tag_295\n        /* \"#utility.yul\":3738:3743   */\n      dup2\n        /* \"#utility.yul\":3714:3744   */\n      tag_191\n      jump\t// in\n    tag_295:\n        /* \"#utility.yul\":3617:3750   */\n      swap3\n      swap2\n      pop\n      pop\n      jump\t// out\n        /* \"#utility.yul\":3756:4404   */\n    tag_22:\n        /* \"#utility.yul\":3831:3837   */\n      0x00\n        /* \"#utility.yul\":3839:3845   */\n      dup1\n        /* \"#utility.yul\":3888:3890   */\n      0x40\n        /* \"#utility.yul\":3876:3885   */\n      dup4\n        /* \"#utility.yul\":3867:3874   */\n      dup6\n        /* \"#utility.yul\":3863:3886   */\n      sub\n        /* \"#utility.yul\":3859:3891   */\n      slt\n        /* \"#utility.yul\":3856:3975   */\n      iszero\n      tag_297\n      jumpi\n        /* \"#utility.yul\":3894:3973   */\n      tag_298\n      tag_178\n      jump\t// in\n    tag_298:\n        /* \"#utility.yul\":3856:3975   */\n    tag_297:\n        /* \"#utility.yul\":4042:4043   */\n      0x00\n        /* \"#utility.yul\":4031:4040   */\n      dup4\n        /* \"#utility.yul\":4027:4044   */\n      add\n        /* \"#utility.yul\":4014:4045   */\n      calldataload\n        /* \"#utility.yul\":4072:4090   */\n      0xffffffffffffffff\n        /* \"#utility.yul\":4064:4070   */\n      dup2\n        /* \"#utility.yul\":4061:4091   */\n      gt\n        /* \"#utility.yul\":4058:4175   */\n      iszero\n      tag_299\n      jumpi\n        /* \"#utility.yul\":4094:4173   */\n      tag_300\n      tag_179\n      jump\t// in\n    tag_300:\n        /* \"#utility.yul\":4058:4175   */\n    tag_299:\n        /* \"#utility.yul\":4199:4262   */\n      tag_301\n        /* \"#utility.yul\":4254:4261   */\n      dup6\n        /* \"#utility.yul\":4245:4251   */\n      dup3\n        /* \"#utility.yul\":4234:4243   */\n      dup7\n        /* \"#utility.yul\":4230:4252   */\n      add\n        /* \"#utility.yul\":4199:4262   */\n      tag_188\n      jump\t// in\n    tag_301:\n        /* \"#utility.yul\":4189:4262   */\n      swap3\n      pop\n        /* \"#utility.yul\":3985:4272   */\n      pop\n        /* \"#utility.yul\":4311:4313   */\n      0x20\n        /* \"#utility.yul\":4337:4387   */\n      tag_302\n        /* \"#utility.yul\":4379:4386   */\n      dup6\n        /* \"#utility.yul\":4370:4376   */\n      dup3\n        /* \"#utility.yul\":4359:4368   */\n      dup7\n        /* \"#utility.yul\":4355:4377   */\n      add\n        /* \"#utility.yul\":4337:4387   */\n      tag_192\n      jump\t// in\n    tag_302:\n        /* \"#utility.yul\":4327:4387   */\n      swap2\n      pop\n        /* \"#utility.yul\":4282:4397   */\n      pop\n        /* \"#utility.yul\":3756:4404   */\n      swap3\n      pop\n      swap3\n      swap1\n      pop\n      jump\t// out\n        /* \"#utility.yul\":4410:4509   */\n    tag_193:\n        /* \"#utility.yul\":4462:4468   */\n      0x00\n        /* \"#utility.yul\":4496:4501   */\n      dup2\n        /* \"#utility.yul\":4490:4502   */\n      mload\n        /* \"#utility.yul\":4480:4502   */\n      swap1\n      pop\n        /* \"#utility.yul\":4410:4509   */\n      swap2\n      swap1\n      pop\n      jump\t// out\n        /* \"#utility.yul\":4515:4684   */\n    tag_194:\n        /* \"#utility.yul\":4599:4610   */\n      0x00\n        /* \"#utility.yul\":4633:4639   */\n      dup3\n        /* \"#utility.yul\":4628:4631   */\n      dup3\n        /* \"#utility.yul\":4621:4640   */\n      mstore\n        /* \"#utility.yul\":4673:4677   */\n      0x20\n        /* \"#utility.yul\":4668:4671   */\n      dup3\n        /* \"#utility.yul\":4664:4678   */\n      add\n        /* \"#utility.yul\":4649:4678   */\n      swap1\n      pop\n        /* \"#utility.yul\":4515:4684   */\n      swap3\n      swap2\n      pop\n      pop\n      jump\t// out\n        /* \"#utility.yul\":4690:4936   */\n    tag_195:\n        /* \"#utility.yul\":4771:4772   */\n      0x00\n        /* \"#utility.yul\":4781:4894   */\n    tag_306:\n        /* \"#utility.yul\":4795:4801   */\n      dup4\n        /* \"#utility.yul\":4792:4793   */\n      dup2\n        /* \"#utility.yul\":4789:4802   */\n      lt\n        /* \"#utility.yul\":4781:4894   */\n      iszero\n      tag_308\n      jumpi\n        /* \"#utility.yul\":4880:4881   */\n      dup1\n        /* \"#utility.yul\":4875:4878   */\n      dup3\n        /* \"#utility.yul\":4871:4882   */\n      add\n        /* \"#utility.yul\":4865:4883   */\n      mload\n        /* \"#utility.yul\":4861:4862   */\n      dup2\n        /* \"#utility.yul\":4856:4859   */\n      dup5\n        /* \"#utility.yul\":4852:4863   */\n      add\n        /* \"#utility.yul\":4845:4884   */\n      mstore\n        /* \"#utility.yul\":4817:4819   */\n      0x20\n        /* \"#utility.yul\":4814:4815   */\n      dup2\n        /* \"#utility.yul\":4810:4820   */\n      add\n        /* \"#utility.yul\":4805:4820   */\n      swap1\n      pop\n        /* \"#utility.yul\":4781:4894   */\n      jump(tag_306)\n    tag_308:\n        /* \"#utility.yul\":4928:4929   */\n      0x00\n        /* \"#utility.yul\":4919:4925   */\n      dup5\n        /* \"#utility.yul\":4914:4917   */\n      dup5\n        /* \"#utility.yul\":4910:4926   */\n      add\n        /* \"#utility.yul\":4903:4930   */\n      mstore\n        /* \"#utility.yul\":4752:4936   */\n      pop\n        /* \"#utility.yul\":4690:4936   */\n      pop\n      pop\n      pop\n      jump\t// out\n        /* \"#utility.yul\":4942:5319   */\n    tag_196:\n        /* \"#utility.yul\":5030:5033   */\n      0x00\n        /* \"#utility.yul\":5058:5097   */\n      tag_310\n        /* \"#utility.yul\":5091:5096   */\n      dup3\n        /* \"#utility.yul\":5058:5097   */\n      tag_193\n      jump\t// in\n    tag_310:\n        /* \"#utility.yul\":5113:5184   */\n      tag_311\n        /* \"#utility.yul\":5177:5183   */\n      dup2\n        /* \"#utility.yul\":5172:5175   */\n      dup6\n        /* \"#utility.yul\":5113:5184   */\n      tag_194\n      jump\t// in\n    tag_311:\n        /* \"#utility.yul\":5106:5184   */\n      swap4\n      pop\n        /* \"#utility.yul\":5193:5258   */\n      tag_312\n        /* \"#utility.yul\":5251:5257   */\n      dup2\n        /* \"#utility.yul\":5246:5249   */\n      dup6\n        /* \"#utility.yul\":5239:5243   */\n      0x20\n        /* \"#utility.yul\":5232:5237   */\n      dup7\n        /* \"#utility.yul\":5228:5244   */\n      add\n        /* \"#utility.yul\":5193:5258   */\n      tag_195\n      jump\t// in\n    tag_312:\n        /* \"#utility.yul\":5283:5312   */\n      tag_313\n        /* \"#utility.yul\":5305:5311   */\n      dup2\n        /* \"#utility.yul\":5283:5312   */\n      tag_182\n      jump\t// in\n    tag_313:\n        /* \"#utility.yul\":5278:5281   */\n      dup5\n        /* \"#utility.yul\":5274:5313   */\n      add\n        /* \"#utility.yul\":5267:5313   */\n      swap2\n      pop\n        /* \"#utility.yul\":5034:5319   */\n      pop\n        /* \"#utility.yul\":4942:5319   */\n      swap3\n      swap2\n      pop\n      pop\n      jump\t// out\n        /* \"#utility.yul\":5325:5638   */\n    tag_32:\n        /* \"#utility.yul\":5438:5442   */\n      0x00\n        /* \"#utility.yul\":5476:5478   */\n      0x20\n        /* \"#utility.yul\":5465:5474   */\n      dup3\n        /* \"#utility.yul\":5461:5479   */\n      add\n        /* \"#utility.yul\":5453:5479   */\n      swap1\n      pop\n        /* \"#utility.yul\":5525:5534   */\n      dup2\n        /* \"#utility.yul\":5519:5523   */\n      dup2\n        /* \"#utility.yul\":5515:5535   */\n      sub\n        /* \"#utility.yul\":5511:5512   */\n      0x00\n        /* \"#utility.yul\":5500:5509   */\n      dup4\n        /* \"#utility.yul\":5496:5513   */\n      add\n        /* \"#utility.yul\":5489:5536   */\n      mstore\n        /* \"#utility.yul\":5553:5631   */\n      tag_315\n        /* \"#utility.yul\":5626:5630   */\n      dup2\n        /* \"#utility.yul\":5617:5623   */\n      dup5\n        /* \"#utility.yul\":5553:5631   */\n      tag_196\n      jump\t// in\n    tag_315:\n        /* \"#utility.yul\":5545:5631   */\n      swap1\n      pop\n        /* \"#utility.yul\":5325:5638   */\n      swap3\n      swap2\n      pop\n      pop\n      jump\t// out\n        /* \"#utility.yul\":5644:5721   */\n    tag_197:\n        /* \"#utility.yul\":5681:5688   */\n      0x00\n        /* \"#utility.yul\":5710:5715   */\n      dup2\n        /* \"#utility.yul\":5699:5715   */\n      swap1\n      pop\n        /* \"#utility.yul\":5644:5721   */\n      swap2\n      swap1\n      pop\n      jump\t// out\n        /* \"#utility.yul\":5727:5849   */\n    tag_198:\n        /* \"#utility.yul\":5800:5824   */\n      tag_318\n        /* \"#utility.yul\":5818:5823   */\n      dup2\n        /* \"#utility.yul\":5800:5824   */\n      tag_197\n      jump\t// in\n    tag_318:\n        /* \"#utility.yul\":5793:5798   */\n      dup2\n        /* \"#utility.yul\":5790:5825   */\n      eq\n        /* \"#utility.yul\":5780:5843   */\n      tag_319\n      jumpi\n        /* \"#utility.yul\":5839:5840   */\n      0x00\n        /* \"#utility.yul\":5836:5837   */\n      dup1\n        /* \"#utility.yul\":5829:5841   */\n      revert\n        /* \"#utility.yul\":5780:5843   */\n    tag_319:\n        /* \"#utility.yul\":5727:5849   */\n      pop\n      jump\t// out\n        /* \"#utility.yul\":5855:5994   */\n    tag_199:\n        /* \"#utility.yul\":5901:5906   */\n      0x00\n        /* \"#utility.yul\":5939:5945   */\n      dup2\n        /* \"#utility.yul\":5926:5946   */\n      calldataload\n        /* \"#utility.yul\":5917:5946   */\n      swap1\n      pop\n        /* \"#utility.yul\":5955:5988   */\n      tag_321\n        /* \"#utility.yul\":5982:5987   */\n      dup2\n        /* \"#utility.yul\":5955:5988   */\n      tag_198\n      jump\t// in\n    tag_321:\n        /* \"#utility.yul\":5855:5994   */\n      swap3\n      swap2\n      pop\n      pop\n      jump\t// out\n        /* \"#utility.yul\":6000:8429   */\n    tag_38:\n        /* \"#utility.yul\":6182:6188   */\n      0x00\n        /* \"#utility.yul\":6190:6196   */\n      dup1\n        /* \"#utility.yul\":6198:6204   */\n      0x00\n        /* \"#utility.yul\":6206:6212   */\n      dup1\n        /* \"#utility.yul\":6214:6220   */\n      0x00\n        /* \"#utility.yul\":6222:6228   */\n      dup1\n        /* \"#utility.yul\":6230:6236   */\n      0x00\n        /* \"#utility.yul\":6238:6244   */\n      dup1\n        /* \"#utility.yul\":6287:6290   */\n      0x0100\n        /* \"#utility.yul\":6275:6284   */\n      dup10\n        /* \"#utility.yul\":6266:6273   */\n      dup12\n        /* \"#utility.yul\":6262:6285   */\n      sub\n        /* \"#utility.yul\":6258:6291   */\n      slt\n        /* \"#utility.yul\":6255:6375   */\n      iszero\n      tag_323\n      jumpi\n        /* \"#utility.yul\":6294:6373   */\n      tag_324\n      tag_178\n      jump\t// in\n    tag_324:\n        /* \"#utility.yul\":6255:6375   */\n    tag_323:\n        /* \"#utility.yul\":6442:6443   */\n      0x00\n        /* \"#utility.yul\":6431:6440   */\n      dup10\n        /* \"#utility.yul\":6427:6444   */\n      add\n        /* \"#utility.yul\":6414:6445   */\n      calldataload\n        /* \"#utility.yul\":6472:6490   */\n      0xffffffffffffffff\n        /* \"#utility.yul\":6464:6470   */\n      dup2\n        /* \"#utility.yul\":6461:6491   */\n      gt\n        /* \"#utility.yul\":6458:6575   */\n      iszero\n      tag_325\n      jumpi\n        /* \"#utility.yul\":6494:6573   */\n      tag_326\n      tag_179\n      jump\t// in\n    tag_326:\n        /* \"#utility.yul\":6458:6575   */\n    tag_325:\n        /* \"#utility.yul\":6599:6662   */\n      tag_327\n        /* \"#utility.yul\":6654:6661   */\n      dup12\n        /* \"#utility.yul\":6645:6651   */\n      dup3\n        /* \"#utility.yul\":6634:6643   */\n      dup13\n        /* \"#utility.yul\":6630:6652   */\n      add\n        /* \"#utility.yul\":6599:6662   */\n      tag_188\n      jump\t// in\n    tag_327:\n        /* \"#utility.yul\":6589:6662   */\n      swap9\n      pop\n        /* \"#utility.yul\":6385:6672   */\n      pop\n        /* \"#utility.yul\":6739:6741   */\n      0x20\n        /* \"#utility.yul\":6728:6737   */\n      dup10\n        /* \"#utility.yul\":6724:6742   */\n      add\n        /* \"#utility.yul\":6711:6743   */\n      calldataload\n        /* \"#utility.yul\":6770:6788   */\n      0xffffffffffffffff\n        /* \"#utility.yul\":6762:6768   */\n      dup2\n        /* \"#utility.yul\":6759:6789   */\n      gt\n        /* \"#utility.yul\":6756:6873   */\n      iszero\n      tag_328\n      jumpi\n        /* \"#utility.yul\":6792:6871   */\n      tag_329\n      tag_179\n      jump\t// in\n    tag_329:\n        /* \"#utility.yul\":6756:6873   */\n    tag_328:\n        /* \"#utility.yul\":6897:6960   */\n      tag_330\n        /* \"#utility.yul\":6952:6959   */\n      dup12\n        /* \"#utility.yul\":6943:6949   */\n      dup3\n        /* \"#utility.yul\":6932:6941   */\n      dup13\n        /* \"#utility.yul\":6928:6950   */\n      add\n        /* \"#utility.yul\":6897:6960   */\n      tag_188\n      jump\t// in\n    tag_330:\n        /* \"#utility.yul\":6887:6960   */\n      swap8\n      pop\n        /* \"#utility.yul\":6682:6970   */\n      pop\n        /* \"#utility.yul\":7037:7039   */\n      0x40\n        /* \"#utility.yul\":7026:7035   */\n      dup10\n        /* \"#utility.yul\":7022:7040   */\n      add\n        /* \"#utility.yul\":7009:7041   */\n      calldataload\n        /* \"#utility.yul\":7068:7086   */\n      0xffffffffffffffff\n        /* \"#utility.yul\":7060:7066   */\n      dup2\n        /* \"#utility.yul\":7057:7087   */\n      gt\n        /* \"#utility.yul\":7054:7171   */\n      iszero\n      tag_331\n      jumpi\n        /* \"#utility.yul\":7090:7169   */\n      tag_332\n      tag_179\n      jump\t// in\n    tag_332:\n        /* \"#utility.yul\":7054:7171   */\n    tag_331:\n        /* \"#utility.yul\":7195:7258   */\n      tag_333\n        /* \"#utility.yul\":7250:7257   */\n      dup12\n        /* \"#utility.yul\":7241:7247   */\n      dup3\n        /* \"#utility.yul\":7230:7239   */\n      dup13\n        /* \"#utility.yul\":7226:7248   */\n      add\n        /* \"#utility.yul\":7195:7258   */\n      tag_188\n      jump\t// in\n    tag_333:\n        /* \"#utility.yul\":7185:7258   */\n      swap7\n      pop\n        /* \"#utility.yul\":6980:7268   */\n      pop\n        /* \"#utility.yul\":7307:7309   */\n      0x60\n        /* \"#utility.yul\":7333:7386   */\n      tag_334\n        /* \"#utility.yul\":7378:7385   */\n      dup12\n        /* \"#utility.yul\":7369:7375   */\n      dup3\n        /* \"#utility.yul\":7358:7367   */\n      dup13\n        /* \"#utility.yul\":7354:7376   */\n      add\n        /* \"#utility.yul\":7333:7386   */\n      tag_199\n      jump\t// in\n    tag_334:\n        /* \"#utility.yul\":7323:7386   */\n      swap6\n      pop\n        /* \"#utility.yul\":7278:7396   */\n      pop\n        /* \"#utility.yul\":7463:7466   */\n      0x80\n        /* \"#utility.yul\":7452:7461   */\n      dup10\n        /* \"#utility.yul\":7448:7467   */\n      add\n        /* \"#utility.yul\":7435:7468   */\n      calldataload\n        /* \"#utility.yul\":7495:7513   */\n      0xffffffffffffffff\n        /* \"#utility.yul\":7487:7493   */\n      dup2\n        /* \"#utility.yul\":7484:7514   */\n      gt\n        /* \"#utility.yul\":7481:7598   */\n      iszero\n      tag_335\n      jumpi\n        /* \"#utility.yul\":7517:7596   */\n      tag_336\n      tag_179\n      jump\t// in\n    tag_336:\n        /* \"#utility.yul\":7481:7598   */\n    tag_335:\n        /* \"#utility.yul\":7622:7685   */\n      tag_337\n        /* \"#utility.yul\":7677:7684   */\n      dup12\n        /* \"#utility.yul\":7668:7674   */\n      dup3\n        /* \"#utility.yul\":7657:7666   */\n      dup13\n        /* \"#utility.yul\":7653:7675   */\n      add\n        /* \"#utility.yul\":7622:7685   */\n      tag_188\n      jump\t// in\n    tag_337:\n        /* \"#utility.yul\":7612:7685   */\n      swap5\n      pop\n        /* \"#utility.yul\":7406:7695   */\n      pop\n        /* \"#utility.yul\":7762:7765   */\n      0xa0\n        /* \"#utility.yul\":7751:7760   */\n      dup10\n        /* \"#utility.yul\":7747:7766   */\n      add\n        /* \"#utility.yul\":7734:7767   */\n      calldataload\n        /* \"#utility.yul\":7794:7812   */\n      0xffffffffffffffff\n        /* \"#utility.yul\":7786:7792   */\n      dup2\n        /* \"#utility.yul\":7783:7813   */\n      gt\n        /* \"#utility.yul\":7780:7897   */\n      iszero\n      tag_338\n      jumpi\n        /* \"#utility.yul\":7816:7895   */\n      tag_339\n      tag_179\n      jump\t// in\n    tag_339:\n        /* \"#utility.yul\":7780:7897   */\n    tag_338:\n        /* \"#utility.yul\":7921:7984   */\n      tag_340\n        /* \"#utility.yul\":7976:7983   */\n      dup12\n        /* \"#utility.yul\":7967:7973   */\n      dup3\n        /* \"#utility.yul\":7956:7965   */\n      dup13\n        /* \"#utility.yul\":7952:7974   */\n      add\n        /* \"#utility.yul\":7921:7984   */\n      tag_188\n      jump\t// in\n    tag_340:\n        /* \"#utility.yul\":7911:7984   */\n      swap4\n      pop\n        /* \"#utility.yul\":7705:7994   */\n      pop\n        /* \"#utility.yul\":8061:8064   */\n      0xc0\n        /* \"#utility.yul\":8050:8059   */\n      dup10\n        /* \"#utility.yul\":8046:8065   */\n      add\n        /* \"#utility.yul\":8033:8066   */\n      calldataload\n        /* \"#utility.yul\":8093:8111   */\n      0xffffffffffffffff\n        /* \"#utility.yul\":8085:8091   */\n      dup2\n        /* \"#utility.yul\":8082:8112   */\n      gt\n        /* \"#utility.yul\":8079:8196   */\n      iszero\n      tag_341\n      jumpi\n        /* \"#utility.yul\":8115:8194   */\n      tag_342\n      tag_179\n      jump\t// in\n    tag_342:\n        /* \"#utility.yul\":8079:8196   */\n    tag_341:\n        /* \"#utility.yul\":8220:8283   */\n      tag_343\n        /* \"#utility.yul\":8275:8282   */\n      dup12\n        /* \"#utility.yul\":8266:8272   */\n      dup3\n        /* \"#utility.yul\":8255:8264   */\n      dup13\n        /* \"#utility.yul\":8251:8273   */\n      add\n        /* \"#utility.yul\":8220:8283   */\n      tag_188\n      jump\t// in\n    tag_343:\n        /* \"#utility.yul\":8210:8283   */\n      swap3\n      pop\n        /* \"#utility.yul\":8004:8293   */\n      pop\n        /* \"#utility.yul\":8332:8335   */\n      0xe0\n        /* \"#utility.yul\":8359:8412   */\n      tag_344\n        /* \"#utility.yul\":8404:8411   */\n      dup12\n        /* \"#utility.yul\":8395:8401   */\n      dup3\n        /* \"#utility.yul\":8384:8393   */\n      dup13\n        /* \"#utility.yul\":8380:8402   */\n      add\n        /* \"#utility.yul\":8359:8412   */\n      tag_199\n      jump\t// in\n    tag_344:\n        /* \"#utility.yul\":8349:8412   */\n      swap2\n      pop\n        /* \"#utility.yul\":8303:8422   */\n      pop\n        /* \"#utility.yul\":6000:8429   */\n      swap3\n      swap6\n      swap9\n      pop\n      swap3\n      swap6\n      swap9\n      swap1\n      swap4\n      swap7\n      pop\n      jump\t// out\n        /* \"#utility.yul\":8435:8553   */\n    tag_200:\n        /* \"#utility.yul\":8522:8546   */\n      tag_346\n        /* \"#utility.yul\":8540:8545   */\n      dup2\n        /* \"#utility.yul\":8522:8546   */\n      tag_197\n      jump\t// in\n    tag_346:\n        /* \"#utility.yul\":8517:8520   */\n      dup3\n        /* \"#utility.yul\":8510:8547   */\n      mstore\n        /* \"#utility.yul\":8435:8553   */\n      pop\n      pop\n      jump\t// out\n        /* \"#utility.yul\":8559:10201   */\n    tag_44:\n        /* \"#utility.yul\":8990:8994   */\n      0x00\n        /* \"#utility.yul\":9028:9031   */\n      0x0120\n        /* \"#utility.yul\":9017:9026   */\n      dup3\n        /* \"#utility.yul\":9013:9032   */\n      add\n        /* \"#utility.yul\":9005:9032   */\n      swap1\n      pop\n        /* \"#utility.yul\":9078:9087   */\n      dup2\n        /* \"#utility.yul\":9072:9076   */\n      dup2\n        /* \"#utility.yul\":9068:9088   */\n      sub\n        /* \"#utility.yul\":9064:9065   */\n      0x00\n        /* \"#utility.yul\":9053:9062   */\n      dup4\n        /* \"#utility.yul\":9049:9066   */\n      add\n        /* \"#utility.yul\":9042:9089   */\n      mstore\n        /* \"#utility.yul\":9106:9184   */\n      tag_348\n        /* \"#utility.yul\":9179:9183   */\n      dup2\n        /* \"#utility.yul\":9170:9176   */\n      dup13\n        /* \"#utility.yul\":9106:9184   */\n      tag_196\n      jump\t// in\n    tag_348:\n        /* \"#utility.yul\":9098:9184   */\n      swap1\n      pop\n        /* \"#utility.yul\":9231:9240   */\n      dup2\n        /* \"#utility.yul\":9225:9229   */\n      dup2\n        /* \"#utility.yul\":9221:9241   */\n      sub\n        /* \"#utility.yul\":9216:9218   */\n      0x20\n        /* \"#utility.yul\":9205:9214   */\n      dup4\n        /* \"#utility.yul\":9201:9219   */\n      add\n        /* \"#utility.yul\":9194:9242   */\n      mstore\n        /* \"#utility.yul\":9259:9337   */\n      tag_349\n        /* \"#utility.yul\":9332:9336   */\n      dup2\n        /* \"#utility.yul\":9323:9329   */\n      dup12\n        /* \"#utility.yul\":9259:9337   */\n      tag_196\n      jump\t// in\n    tag_349:\n        /* \"#utility.yul\":9251:9337   */\n      swap1\n      pop\n        /* \"#utility.yul\":9384:9393   */\n      dup2\n        /* \"#utility.yul\":9378:9382   */\n      dup2\n        /* \"#utility.yul\":9374:9394   */\n      sub\n        /* \"#utility.yul\":9369:9371   */\n      0x40\n        /* \"#utility.yul\":9358:9367   */\n      dup4\n        /* \"#utility.yul\":9354:9372   */\n      add\n        /* \"#utility.yul\":9347:9395   */\n      mstore\n        /* \"#utility.yul\":9412:9490   */\n      tag_350\n        /* \"#utility.yul\":9485:9489   */\n      dup2\n        /* \"#utility.yul\":9476:9482   */\n      dup11\n        /* \"#utility.yul\":9412:9490   */\n      tag_196\n      jump\t// in\n    tag_350:\n        /* \"#utility.yul\":9404:9490   */\n      swap1\n      pop\n        /* \"#utility.yul\":9500:9572   */\n      tag_351\n        /* \"#utility.yul\":9568:9570   */\n      0x60\n        /* \"#utility.yul\":9557:9566   */\n      dup4\n        /* \"#utility.yul\":9553:9571   */\n      add\n        /* \"#utility.yul\":9544:9550   */\n      dup10\n        /* \"#utility.yul\":9500:9572   */\n      tag_200\n      jump\t// in\n    tag_351:\n        /* \"#utility.yul\":9620:9629   */\n      dup2\n        /* \"#utility.yul\":9614:9618   */\n      dup2\n        /* \"#utility.yul\":9610:9630   */\n      sub\n        /* \"#utility.yul\":9604:9607   */\n      0x80\n        /* \"#utility.yul\":9593:9602   */\n      dup4\n        /* \"#utility.yul\":9589:9608   */\n      add\n        /* \"#utility.yul\":9582:9631   */\n      mstore\n        /* \"#utility.yul\":9648:9726   */\n      tag_352\n        /* \"#utility.yul\":9721:9725   */\n      dup2\n        /* \"#utility.yul\":9712:9718   */\n      dup9\n        /* \"#utility.yul\":9648:9726   */\n      tag_196\n      jump\t// in\n    tag_352:\n        /* \"#utility.yul\":9640:9726   */\n      swap1\n      pop\n        /* \"#utility.yul\":9774:9783   */\n      dup2\n        /* \"#utility.yul\":9768:9772   */\n      dup2\n        /* \"#utility.yul\":9764:9784   */\n      sub\n        /* \"#utility.yul\":9758:9761   */\n      0xa0\n        /* \"#utility.yul\":9747:9756   */\n      dup4\n        /* \"#utility.yul\":9743:9762   */\n      add\n        /* \"#utility.yul\":9736:9785   */\n      mstore\n        /* \"#utility.yul\":9802:9880   */\n      tag_353\n        /* \"#utility.yul\":9875:9879   */\n      dup2\n        /* \"#utility.yul\":9866:9872   */\n      dup8\n        /* \"#utility.yul\":9802:9880   */\n      tag_196\n      jump\t// in\n    tag_353:\n        /* \"#utility.yul\":9794:9880   */\n      swap1\n      pop\n        /* \"#utility.yul\":9928:9937   */\n      dup2\n        /* \"#utility.yul\":9922:9926   */\n      dup2\n        /* \"#utility.yul\":9918:9938   */\n      sub\n        /* \"#utility.yul\":9912:9915   */\n      0xc0\n        /* \"#utility.yul\":9901:9910   */\n      dup4\n        /* \"#utility.yul\":9897:9916   */\n      add\n        /* \"#utility.yul\":9890:9939   */\n      mstore\n        /* \"#utility.yul\":9956:10034   */\n      tag_354\n        /* \"#utility.yul\":10029:10033   */\n      dup2\n        /* \"#utility.yul\":10020:10026   */\n      dup7\n        /* \"#utility.yul\":9956:10034   */\n      tag_196\n      jump\t// in\n    tag_354:\n        /* \"#utility.yul\":9948:10034   */\n      swap1\n      pop\n        /* \"#utility.yul\":10044:10117   */\n      tag_355\n        /* \"#utility.yul\":10112:10115   */\n      0xe0\n        /* \"#utility.yul\":10101:10110   */\n      dup4\n        /* \"#utility.yul\":10097:10116   */\n      add\n        /* \"#utility.yul\":10088:10094   */\n      dup6\n        /* \"#utility.yul\":10044:10117   */\n      tag_200\n      jump\t// in\n    tag_355:\n        /* \"#utility.yul\":10127:10194   */\n      tag_356\n        /* \"#utility.yul\":10189:10192   */\n      0x0100\n        /* \"#utility.yul\":10178:10187   */\n      dup4\n        /* \"#utility.yul\":10174:10193   */\n      add\n        /* \"#utility.yul\":10165:10171   */\n      dup5\n        /* \"#utility.yul\":10127:10194   */\n      tag_190\n      jump\t// in\n    tag_356:\n        /* \"#utility.yul\":8559:10201   */\n      swap11\n      swap10\n      pop\n      pop\n      pop\n      pop\n      pop\n      pop\n      pop\n      pop\n      pop\n      pop\n      jump\t// out\n        /* \"#utility.yul\":10207:10429   */\n    tag_52:\n        /* \"#utility.yul\":10300:10304   */\n      0x00\n        /* \"#utility.yul\":10338:10340   */\n      0x20\n        /* \"#utility.yul\":10327:10336   */\n      dup3\n        /* \"#utility.yul\":10323:10341   */\n      add\n        /* \"#utility.yul\":10315:10341   */\n      swap1\n      pop\n        /* \"#utility.yul\":10351:10422   */\n      tag_358\n        /* \"#utility.yul\":10419:10420   */\n      0x00\n        /* \"#utility.yul\":10408:10417   */\n      dup4\n        /* \"#utility.yul\":10404:10421   */\n      add\n        /* \"#utility.yul\":10395:10401   */\n      dup5\n        /* \"#utility.yul\":10351:10422   */\n      tag_200\n      jump\t// in\n    tag_358:\n        /* \"#utility.yul\":10207:10429   */\n      swap3\n      swap2\n      pop\n      pop\n      jump\t// out\n        /* \"#utility.yul\":10435:10583   */\n    tag_201:\n        /* \"#utility.yul\":10537:10548   */\n      0x00\n        /* \"#utility.yul\":10574:10577   */\n      dup2\n        /* \"#utility.yul\":10559:10577   */\n      swap1\n      pop\n        /* \"#utility.yul\":10435:10583   */\n      swap3\n      swap2\n      pop\n      pop\n      jump\t// out\n        /* \"#utility.yul\":10589:10979   */\n    tag_202:\n        /* \"#utility.yul\":10695:10698   */\n      0x00\n        /* \"#utility.yul\":10723:10762   */\n      tag_361\n        /* \"#utility.yul\":10756:10761   */\n      dup3\n        /* \"#utility.yul\":10723:10762   */\n      tag_193\n      jump\t// in\n    tag_361:\n        /* \"#utility.yul\":10778:10867   */\n      tag_362\n        /* \"#utility.yul\":10860:10866   */\n      dup2\n        /* \"#utility.yul\":10855:10858   */\n      dup6\n        /* \"#utility.yul\":10778:10867   */\n      tag_201\n      jump\t// in\n    tag_362:\n        /* \"#utility.yul\":10771:10867   */\n      swap4\n      pop\n        /* \"#utility.yul\":10876:10941   */\n      tag_363\n        /* \"#utility.yul\":10934:10940   */\n      dup2\n        /* \"#utility.yul\":10929:10932   */\n      dup6\n        /* \"#utility.yul\":10922:10926   */\n      0x20\n        /* \"#utility.yul\":10915:10920   */\n      dup7\n        /* \"#utility.yul\":10911:10927   */\n      add\n        /* \"#utility.yul\":10876:10941   */\n      tag_195\n      jump\t// in\n    tag_363:\n        /* \"#utility.yul\":10966:10972   */\n      dup1\n        /* \"#utility.yul\":10961:10964   */\n      dup5\n        /* \"#utility.yul\":10957:10973   */\n      add\n        /* \"#utility.yul\":10950:10973   */\n      swap2\n      pop\n        /* \"#utility.yul\":10699:10979   */\n      pop\n        /* \"#utility.yul\":10589:10979   */\n      swap3\n      swap2\n      pop\n      pop\n      jump\t// out\n        /* \"#utility.yul\":10985:11260   */\n    tag_59:\n        /* \"#utility.yul\":11117:11120   */\n      0x00\n        /* \"#utility.yul\":11139:11234   */\n      tag_365\n        /* \"#utility.yul\":11230:11233   */\n      dup3\n        /* \"#utility.yul\":11221:11227   */\n      dup5\n        /* \"#utility.yul\":11139:11234   */\n      tag_202\n      jump\t// in\n    tag_365:\n        /* \"#utility.yul\":11132:11234   */\n      swap2\n      pop\n        /* \"#utility.yul\":11251:11254   */\n      dup2\n        /* \"#utility.yul\":11244:11254   */\n      swap1\n      pop\n        /* \"#utility.yul\":10985:11260   */\n      swap3\n      swap2\n      pop\n      pop\n      jump\t// out\n        /* \"#utility.yul\":11266:11491   */\n    tag_203:\n        /* \"#utility.yul\":11406:11440   */\n      0x4c65204c6f74206e27657869737465207061732064616e73206c6120626c6f63\n        /* \"#utility.yul\":11402:11403   */\n      0x00\n        /* \"#utility.yul\":11394:11400   */\n      dup3\n        /* \"#utility.yul\":11390:11404   */\n      add\n        /* \"#utility.yul\":11383:11441   */\n      mstore\n        /* \"#utility.yul\":11475:11483   */\n      0x6b636861696e0000000000000000000000000000000000000000000000000000\n        /* \"#utility.yul\":11470:11472   */\n      0x20\n        /* \"#utility.yul\":11462:11468   */\n      dup3\n        /* \"#utility.yul\":11458:11473   */\n      add\n        /* \"#utility.yul\":11451:11484   */\n      mstore\n        /* \"#utility.yul\":11266:11491   */\n      pop\n      jump\t// out\n        /* \"#utility.yul\":11497:11863   */\n    tag_204:\n        /* \"#utility.yul\":11639:11642   */\n      0x00\n        /* \"#utility.yul\":11660:11727   */\n      tag_368\n        /* \"#utility.yul\":11724:11726   */\n      0x26\n        /* \"#utility.yul\":11719:11722   */\n      dup4\n        /* \"#utility.yul\":11660:11727   */\n      tag_194\n      jump\t// in\n    tag_368:\n        /* \"#utility.yul\":11653:11727   */\n      swap2\n      pop\n        /* \"#utility.yul\":11736:11829   */\n      tag_369\n        /* \"#utility.yul\":11825:11828   */\n      dup3\n        /* \"#utility.yul\":11736:11829   */\n      tag_203\n      jump\t// in\n    tag_369:\n        /* \"#utility.yul\":11854:11856   */\n      0x40\n        /* \"#utility.yul\":11849:11852   */\n      dup3\n        /* \"#utility.yul\":11845:11857   */\n      add\n        /* \"#utility.yul\":11838:11857   */\n      swap1\n      pop\n        /* \"#utility.yul\":11497:11863   */\n      swap2\n      swap1\n      pop\n      jump\t// out\n        /* \"#utility.yul\":11869:12288   */\n    tag_68:\n        /* \"#utility.yul\":12035:12039   */\n      0x00\n        /* \"#utility.yul\":12073:12075   */\n      0x20\n        /* \"#utility.yul\":12062:12071   */\n      dup3\n        /* \"#utility.yul\":12058:12076   */\n      add\n        /* \"#utility.yul\":12050:12076   */\n      swap1\n      pop\n        /* \"#utility.yul\":12122:12131   */\n      dup2\n        /* \"#utility.yul\":12116:12120   */\n      dup2\n        /* \"#utility.yul\":12112:12132   */\n      sub\n        /* \"#utility.yul\":12108:12109   */\n      0x00\n        /* \"#utility.yul\":12097:12106   */\n      dup4\n        /* \"#utility.yul\":12093:12110   */\n      add\n        /* \"#utility.yul\":12086:12133   */\n      mstore\n        /* \"#utility.yul\":12150:12281   */\n      tag_371\n        /* \"#utility.yul\":12276:12280   */\n      dup2\n        /* \"#utility.yul\":12150:12281   */\n      tag_204\n      jump\t// in\n    tag_371:\n        /* \"#utility.yul\":12142:12281   */\n      swap1\n      pop\n        /* \"#utility.yul\":11869:12288   */\n      swap2\n      swap1\n      pop\n      jump\t// out\n        /* \"#utility.yul\":12294:12462   */\n    tag_205:\n        /* \"#utility.yul\":12434:12454   */\n      0x436f6465206475206d61676173696e203a200000000000000000000000000000\n        /* \"#utility.yul\":12430:12431   */\n      0x00\n        /* \"#utility.yul\":12422:12428   */\n      dup3\n        /* \"#utility.yul\":12418:12432   */\n      add\n        /* \"#utility.yul\":12411:12455   */\n      mstore\n        /* \"#utility.yul\":12294:12462   */\n      pop\n      jump\t// out\n        /* \"#utility.yul\":12468:12870   */\n    tag_206:\n        /* \"#utility.yul\":12628:12631   */\n      0x00\n        /* \"#utility.yul\":12649:12734   */\n      tag_374\n        /* \"#utility.yul\":12731:12733   */\n      0x12\n        /* \"#utility.yul\":12726:12729   */\n      dup4\n        /* \"#utility.yul\":12649:12734   */\n      tag_201\n      jump\t// in\n    tag_374:\n        /* \"#utility.yul\":12642:12734   */\n      swap2\n      pop\n        /* \"#utility.yul\":12743:12836   */\n      tag_375\n        /* \"#utility.yul\":12832:12835   */\n      dup3\n        /* \"#utility.yul\":12743:12836   */\n      tag_205\n      jump\t// in\n    tag_375:\n        /* \"#utility.yul\":12861:12863   */\n      0x12\n        /* \"#utility.yul\":12856:12859   */\n      dup3\n        /* \"#utility.yul\":12852:12864   */\n      add\n        /* \"#utility.yul\":12845:12864   */\n      swap1\n      pop\n        /* \"#utility.yul\":12468:12870   */\n      swap2\n      swap1\n      pop\n      jump\t// out\n        /* \"#utility.yul\":12876:13056   */\n    tag_207:\n        /* \"#utility.yul\":12924:13001   */\n      0x4e487b7100000000000000000000000000000000000000000000000000000000\n        /* \"#utility.yul\":12921:12922   */\n      0x00\n        /* \"#utility.yul\":12914:13002   */\n      mstore\n        /* \"#utility.yul\":13021:13025   */\n      0x22\n        /* \"#utility.yul\":13018:13019   */\n      0x04\n        /* \"#utility.yul\":13011:13026   */\n      mstore\n        /* \"#utility.yul\":13045:13049   */\n      0x24\n        /* \"#utility.yul\":13042:13043   */\n      0x00\n        /* \"#utility.yul\":13035:13050   */\n      revert\n        /* \"#utility.yul\":13062:13382   */\n    tag_114:\n        /* \"#utility.yul\":13106:13112   */\n      0x00\n        /* \"#utility.yul\":13143:13144   */\n      0x02\n        /* \"#utility.yul\":13137:13141   */\n      dup3\n        /* \"#utility.yul\":13133:13145   */\n      div\n        /* \"#utility.yul\":13123:13145   */\n      swap1\n      pop\n        /* \"#utility.yul\":13190:13191   */\n      0x01\n        /* \"#utility.yul\":13184:13188   */\n      dup3\n        /* \"#utility.yul\":13180:13192   */\n      and\n        /* \"#utility.yul\":13211:13229   */\n      dup1\n        /* \"#utility.yul\":13201:13282   */\n      tag_378\n      jumpi\n        /* \"#utility.yul\":13267:13271   */\n      0x7f\n        /* \"#utility.yul\":13259:13265   */\n      dup3\n        /* \"#utility.yul\":13255:13272   */\n      and\n        /* \"#utility.yul\":13245:13272   */\n      swap2\n      pop\n        /* \"#utility.yul\":13201:13282   */\n    tag_378:\n        /* \"#utility.yul\":13329:13331   */\n      0x20\n        /* \"#utility.yul\":13321:13327   */\n      dup3\n        /* \"#utility.yul\":13318:13332   */\n      lt\n        /* \"#utility.yul\":13298:13316   */\n      dup2\n        /* \"#utility.yul\":13295:13333   */\n      sub\n        /* \"#utility.yul\":13292:13376   */\n      tag_379\n      jumpi\n        /* \"#utility.yul\":13348:13366   */\n      tag_380\n      tag_207\n      jump\t// in\n    tag_380:\n        /* \"#utility.yul\":13292:13376   */\n    tag_379:\n        /* \"#utility.yul\":13113:13382   */\n      pop\n        /* \"#utility.yul\":13062:13382   */\n      swap2\n      swap1\n      pop\n      jump\t// out\n        /* \"#utility.yul\":13388:13529   */\n    tag_208:\n        /* \"#utility.yul\":13437:13441   */\n      0x00\n        /* \"#utility.yul\":13460:13463   */\n      dup2\n        /* \"#utility.yul\":13452:13463   */\n      swap1\n      pop\n        /* \"#utility.yul\":13483:13486   */\n      dup2\n        /* \"#utility.yul\":13480:13481   */\n      0x00\n        /* \"#utility.yul\":13473:13487   */\n      mstore\n        /* \"#utility.yul\":13517:13521   */\n      0x20\n        /* \"#utility.yul\":13514:13515   */\n      0x00\n        /* \"#utility.yul\":13504:13522   */\n      keccak256\n        /* \"#utility.yul\":13496:13522   */\n      swap1\n      pop\n        /* \"#utility.yul\":13388:13529   */\n      swap2\n      swap1\n      pop\n      jump\t// out\n        /* \"#utility.yul\":13559:14433   */\n    tag_209:\n        /* \"#utility.yul\":13662:13665   */\n      0x00\n        /* \"#utility.yul\":13699:13704   */\n      dup2\n        /* \"#utility.yul\":13693:13705   */\n      sload\n        /* \"#utility.yul\":13728:13764   */\n      tag_383\n        /* \"#utility.yul\":13754:13763   */\n      dup2\n        /* \"#utility.yul\":13728:13764   */\n      tag_114\n      jump\t// in\n    tag_383:\n        /* \"#utility.yul\":13780:13869   */\n      tag_384\n        /* \"#utility.yul\":13862:13868   */\n      dup2\n        /* \"#utility.yul\":13857:13860   */\n      dup7\n        /* \"#utility.yul\":13780:13869   */\n      tag_201\n      jump\t// in\n    tag_384:\n        /* \"#utility.yul\":13773:13869   */\n      swap5\n      pop\n        /* \"#utility.yul\":13900:13901   */\n      0x01\n        /* \"#utility.yul\":13889:13898   */\n      dup3\n        /* \"#utility.yul\":13885:13902   */\n      and\n        /* \"#utility.yul\":13916:13917   */\n      0x00\n        /* \"#utility.yul\":13911:14077   */\n      dup2\n      eq\n      tag_386\n      jumpi\n        /* \"#utility.yul\":14091:14092   */\n      0x01\n        /* \"#utility.yul\":14086:14427   */\n      dup2\n      eq\n      tag_387\n      jumpi\n        /* \"#utility.yul\":13878:14427   */\n      jump(tag_385)\n        /* \"#utility.yul\":13911:14077   */\n    tag_386:\n        /* \"#utility.yul\":13995:13999   */\n      0xff\n        /* \"#utility.yul\":13991:14000   */\n      not\n        /* \"#utility.yul\":13980:13989   */\n      dup4\n        /* \"#utility.yul\":13976:14001   */\n      and\n        /* \"#utility.yul\":13971:13974   */\n      dup7\n        /* \"#utility.yul\":13964:14002   */\n      mstore\n        /* \"#utility.yul\":14057:14063   */\n      dup2\n        /* \"#utility.yul\":14050:14064   */\n      iszero\n        /* \"#utility.yul\":14043:14065   */\n      iszero\n        /* \"#utility.yul\":14035:14041   */\n      dup3\n        /* \"#utility.yul\":14031:14066   */\n      mul\n        /* \"#utility.yul\":14026:14029   */\n      dup7\n        /* \"#utility.yul\":14022:14067   */\n      add\n        /* \"#utility.yul\":14015:14067   */\n      swap4\n      pop\n        /* \"#utility.yul\":13911:14077   */\n      jump(tag_385)\n        /* \"#utility.yul\":14086:14427   */\n    tag_387:\n        /* \"#utility.yul\":14153:14191   */\n      tag_388\n        /* \"#utility.yul\":14185:14190   */\n      dup6\n        /* \"#utility.yul\":14153:14191   */\n      tag_208\n      jump\t// in\n    tag_388:\n        /* \"#utility.yul\":14213:14214   */\n      0x00\n        /* \"#utility.yul\":14227:14381   */\n    tag_389:\n        /* \"#utility.yul\":14241:14247   */\n      dup4\n        /* \"#utility.yul\":14238:14239   */\n      dup2\n        /* \"#utility.yul\":14235:14248   */\n      lt\n        /* \"#utility.yul\":14227:14381   */\n      iszero\n      tag_391\n      jumpi\n        /* \"#utility.yul\":14315:14322   */\n      dup2\n        /* \"#utility.yul\":14309:14323   */\n      sload\n        /* \"#utility.yul\":14305:14306   */\n      dup2\n        /* \"#utility.yul\":14300:14303   */\n      dup10\n        /* \"#utility.yul\":14296:14307   */\n      add\n        /* \"#utility.yul\":14289:14324   */\n      mstore\n        /* \"#utility.yul\":14365:14366   */\n      0x01\n        /* \"#utility.yul\":14356:14363   */\n      dup3\n        /* \"#utility.yul\":14352:14367   */\n      add\n        /* \"#utility.yul\":14341:14367   */\n      swap2\n      pop\n        /* \"#utility.yul\":14263:14267   */\n      0x20\n        /* \"#utility.yul\":14260:14261   */\n      dup2\n        /* \"#utility.yul\":14256:14268   */\n      add\n        /* \"#utility.yul\":14251:14268   */\n      swap1\n      pop\n        /* \"#utility.yul\":14227:14381   */\n      jump(tag_389)\n    tag_391:\n        /* \"#utility.yul\":14410:14416   */\n      dup4\n        /* \"#utility.yul\":14405:14408   */\n      dup9\n        /* \"#utility.yul\":14401:14417   */\n      add\n        /* \"#utility.yul\":14394:14417   */\n      swap6\n      pop\n        /* \"#utility.yul\":14093:14427   */\n      pop\n      pop\n        /* \"#utility.yul\":13878:14427   */\n    tag_385:\n      pop\n        /* \"#utility.yul\":13666:14433   */\n      pop\n      pop\n        /* \"#utility.yul\":13559:14433   */\n      swap3\n      swap2\n      pop\n      pop\n      jump\t// out\n        /* \"#utility.yul\":14439:14653   */\n    tag_210:\n        /* \"#utility.yul\":14579:14645   */\n      0x0a204e756d65726f204c6f743a20000000000000000000000000000000000000\n        /* \"#utility.yul\":14575:14576   */\n      0x00\n        /* \"#utility.yul\":14567:14573   */\n      dup3\n        /* \"#utility.yul\":14563:14577   */\n      add\n        /* \"#utility.yul\":14556:14646   */\n      mstore\n        /* \"#utility.yul\":14439:14653   */\n      pop\n      jump\t// out\n        /* \"#utility.yul\":14659:15061   */\n    tag_211:\n        /* \"#utility.yul\":14819:14822   */\n      0x00\n        /* \"#utility.yul\":14840:14925   */\n      tag_394\n        /* \"#utility.yul\":14922:14924   */\n      0x0e\n        /* \"#utility.yul\":14917:14920   */\n      dup4\n        /* \"#utility.yul\":14840:14925   */\n      tag_201\n      jump\t// in\n    tag_394:\n        /* \"#utility.yul\":14833:14925   */\n      swap2\n      pop\n        /* \"#utility.yul\":14934:15027   */\n      tag_395\n        /* \"#utility.yul\":15023:15026   */\n      dup3\n        /* \"#utility.yul\":14934:15027   */\n      tag_210\n      jump\t// in\n    tag_395:\n        /* \"#utility.yul\":15052:15054   */\n      0x0e\n        /* \"#utility.yul\":15047:15050   */\n      dup3\n        /* \"#utility.yul\":15043:15055   */\n      add\n        /* \"#utility.yul\":15036:15055   */\n      swap1\n      pop\n        /* \"#utility.yul\":14659:15061   */\n      swap2\n      swap1\n      pop\n      jump\t// out\n        /* \"#utility.yul\":15067:15281   */\n    tag_212:\n        /* \"#utility.yul\":15207:15273   */\n      0x0a20436f6465204c6f743a200000000000000000000000000000000000000000\n        /* \"#utility.yul\":15203:15204   */\n      0x00\n        /* \"#utility.yul\":15195:15201   */\n      dup3\n        /* \"#utility.yul\":15191:15205   */\n      add\n        /* \"#utility.yul\":15184:15274   */\n      mstore\n        /* \"#utility.yul\":15067:15281   */\n      pop\n      jump\t// out\n        /* \"#utility.yul\":15287:15689   */\n    tag_213:\n        /* \"#utility.yul\":15447:15450   */\n      0x00\n        /* \"#utility.yul\":15468:15553   */\n      tag_398\n        /* \"#utility.yul\":15550:15552   */\n      0x0c\n        /* \"#utility.yul\":15545:15548   */\n      dup4\n        /* \"#utility.yul\":15468:15553   */\n      tag_201\n      jump\t// in\n    tag_398:\n        /* \"#utility.yul\":15461:15553   */\n      swap2\n      pop\n        /* \"#utility.yul\":15562:15655   */\n      tag_399\n        /* \"#utility.yul\":15651:15654   */\n      dup3\n        /* \"#utility.yul\":15562:15655   */\n      tag_212\n      jump\t// in\n    tag_399:\n        /* \"#utility.yul\":15680:15682   */\n      0x0c\n        /* \"#utility.yul\":15675:15678   */\n      dup3\n        /* \"#utility.yul\":15671:15683   */\n      add\n        /* \"#utility.yul\":15664:15683   */\n      swap1\n      pop\n        /* \"#utility.yul\":15287:15689   */\n      swap2\n      swap1\n      pop\n      jump\t// out\n        /* \"#utility.yul\":15695:15909   */\n    tag_214:\n        /* \"#utility.yul\":15835:15901   */\n      0x0a204e756d65726f20647520626f6e206465206c6976726169736f6e203a2000\n        /* \"#utility.yul\":15831:15832   */\n      0x00\n        /* \"#utility.yul\":15823:15829   */\n      dup3\n        /* \"#utility.yul\":15819:15833   */\n      add\n        /* \"#utility.yul\":15812:15902   */\n      mstore\n        /* \"#utility.yul\":15695:15909   */\n      pop\n      jump\t// out\n        /* \"#utility.yul\":15915:16317   */\n    tag_215:\n        /* \"#utility.yul\":16075:16078   */\n      0x00\n        /* \"#utility.yul\":16096:16181   */\n      tag_402\n        /* \"#utility.yul\":16178:16180   */\n      0x1f\n        /* \"#utility.yul\":16173:16176   */\n      dup4\n        /* \"#utility.yul\":16096:16181   */\n      tag_201\n      jump\t// in\n    tag_402:\n        /* \"#utility.yul\":16089:16181   */\n      swap2\n      pop\n        /* \"#utility.yul\":16190:16283   */\n      tag_403\n        /* \"#utility.yul\":16279:16282   */\n      dup3\n        /* \"#utility.yul\":16190:16283   */\n      tag_214\n      jump\t// in\n    tag_403:\n        /* \"#utility.yul\":16308:16310   */\n      0x1f\n        /* \"#utility.yul\":16303:16306   */\n      dup3\n        /* \"#utility.yul\":16299:16311   */\n      add\n        /* \"#utility.yul\":16292:16311   */\n      swap1\n      pop\n        /* \"#utility.yul\":15915:16317   */\n      swap2\n      swap1\n      pop\n      jump\t// out\n        /* \"#utility.yul\":16323:16537   */\n    tag_216:\n        /* \"#utility.yul\":16463:16529   */\n      0x0a20506f6964733a200000000000000000000000000000000000000000000000\n        /* \"#utility.yul\":16459:16460   */\n      0x00\n        /* \"#utility.yul\":16451:16457   */\n      dup3\n        /* \"#utility.yul\":16447:16461   */\n      add\n        /* \"#utility.yul\":16440:16530   */\n      mstore\n        /* \"#utility.yul\":16323:16537   */\n      pop\n      jump\t// out\n        /* \"#utility.yul\":16543:16943   */\n    tag_217:\n        /* \"#utility.yul\":16703:16706   */\n      0x00\n        /* \"#utility.yul\":16724:16808   */\n      tag_406\n        /* \"#utility.yul\":16806:16807   */\n      0x09\n        /* \"#utility.yul\":16801:16804   */\n      dup4\n        /* \"#utility.yul\":16724:16808   */\n      tag_201\n      jump\t// in\n    tag_406:\n        /* \"#utility.yul\":16717:16808   */\n      swap2\n      pop\n        /* \"#utility.yul\":16817:16910   */\n      tag_407\n        /* \"#utility.yul\":16906:16909   */\n      dup3\n        /* \"#utility.yul\":16817:16910   */\n      tag_216\n      jump\t// in\n    tag_407:\n        /* \"#utility.yul\":16935:16936   */\n      0x09\n        /* \"#utility.yul\":16930:16933   */\n      dup3\n        /* \"#utility.yul\":16926:16937   */\n      add\n        /* \"#utility.yul\":16919:16937   */\n      swap1\n      pop\n        /* \"#utility.yul\":16543:16943   */\n      swap2\n      swap1\n      pop\n      jump\t// out\n        /* \"#utility.yul\":16949:17163   */\n    tag_218:\n        /* \"#utility.yul\":17089:17155   */\n      0x6b670a204461746520642761727269766565206475206c6f743a200000000000\n        /* \"#utility.yul\":17085:17086   */\n      0x00\n        /* \"#utility.yul\":17077:17083   */\n      dup3\n        /* \"#utility.yul\":17073:17087   */\n      add\n        /* \"#utility.yul\":17066:17156   */\n      mstore\n        /* \"#utility.yul\":16949:17163   */\n      pop\n      jump\t// out\n        /* \"#utility.yul\":17169:17571   */\n    tag_219:\n        /* \"#utility.yul\":17329:17332   */\n      0x00\n        /* \"#utility.yul\":17350:17435   */\n      tag_410\n        /* \"#utility.yul\":17432:17434   */\n      0x1b\n        /* \"#utility.yul\":17427:17430   */\n      dup4\n        /* \"#utility.yul\":17350:17435   */\n      tag_201\n      jump\t// in\n    tag_410:\n        /* \"#utility.yul\":17343:17435   */\n      swap2\n      pop\n        /* \"#utility.yul\":17444:17537   */\n      tag_411\n        /* \"#utility.yul\":17533:17536   */\n      dup3\n        /* \"#utility.yul\":17444:17537   */\n      tag_218\n      jump\t// in\n    tag_411:\n        /* \"#utility.yul\":17562:17564   */\n      0x1b\n        /* \"#utility.yul\":17557:17560   */\n      dup3\n        /* \"#utility.yul\":17553:17565   */\n      add\n        /* \"#utility.yul\":17546:17565   */\n      swap1\n      pop\n        /* \"#utility.yul\":17169:17571   */\n      swap2\n      swap1\n      pop\n      jump\t// out\n        /* \"#utility.yul\":17577:17791   */\n    tag_220:\n        /* \"#utility.yul\":17717:17783   */\n      0x0a2050726f76656e616e636520647520466f75726e697373657572203a200000\n        /* \"#utility.yul\":17713:17714   */\n      0x00\n        /* \"#utility.yul\":17705:17711   */\n      dup3\n        /* \"#utility.yul\":17701:17715   */\n      add\n        /* \"#utility.yul\":17694:17784   */\n      mstore\n        /* \"#utility.yul\":17577:17791   */\n      pop\n      jump\t// out\n        /* \"#utility.yul\":17797:18199   */\n    tag_221:\n        /* \"#utility.yul\":17957:17960   */\n      0x00\n        /* \"#utility.yul\":17978:18063   */\n      tag_414\n        /* \"#utility.yul\":18060:18062   */\n      0x1e\n        /* \"#utility.yul\":18055:18058   */\n      dup4\n        /* \"#utility.yul\":17978:18063   */\n      tag_201\n      jump\t// in\n    tag_414:\n        /* \"#utility.yul\":17971:18063   */\n      swap2\n      pop\n        /* \"#utility.yul\":18072:18165   */\n      tag_415\n        /* \"#utility.yul\":18161:18164   */\n      dup3\n        /* \"#utility.yul\":18072:18165   */\n      tag_220\n      jump\t// in\n    tag_415:\n        /* \"#utility.yul\":18190:18192   */\n      0x1e\n        /* \"#utility.yul\":18185:18188   */\n      dup3\n        /* \"#utility.yul\":18181:18193   */\n      add\n        /* \"#utility.yul\":18174:18193   */\n      swap1\n      pop\n        /* \"#utility.yul\":17797:18199   */\n      swap2\n      swap1\n      pop\n      jump\t// out\n        /* \"#utility.yul\":18205:18419   */\n    tag_222:\n        /* \"#utility.yul\":18345:18411   */\n      0x0a20436f64652073616e697461697265203a2000000000000000000000000000\n        /* \"#utility.yul\":18341:18342   */\n      0x00\n        /* \"#utility.yul\":18333:18339   */\n      dup3\n        /* \"#utility.yul\":18329:18343   */\n      add\n        /* \"#utility.yul\":18322:18412   */\n      mstore\n        /* \"#utility.yul\":18205:18419   */\n      pop\n      jump\t// out\n        /* \"#utility.yul\":18425:18827   */\n    tag_223:\n        /* \"#utility.yul\":18585:18588   */\n      0x00\n        /* \"#utility.yul\":18606:18691   */\n      tag_418\n        /* \"#utility.yul\":18688:18690   */\n      0x13\n        /* \"#utility.yul\":18683:18686   */\n      dup4\n        /* \"#utility.yul\":18606:18691   */\n      tag_201\n      jump\t// in\n    tag_418:\n        /* \"#utility.yul\":18599:18691   */\n      swap2\n      pop\n        /* \"#utility.yul\":18700:18793   */\n      tag_419\n        /* \"#utility.yul\":18789:18792   */\n      dup3\n        /* \"#utility.yul\":18700:18793   */\n      tag_222\n      jump\t// in\n    tag_419:\n        /* \"#utility.yul\":18818:18820   */\n      0x13\n        /* \"#utility.yul\":18813:18816   */\n      dup3\n        /* \"#utility.yul\":18809:18821   */\n      add\n        /* \"#utility.yul\":18802:18821   */\n      swap1\n      pop\n        /* \"#utility.yul\":18425:18827   */\n      swap2\n      swap1\n      pop\n      jump\t// out\n        /* \"#utility.yul\":18833:19047   */\n    tag_224:\n        /* \"#utility.yul\":18973:19039   */\n      0x0a2044697374616e63653a200000000000000000000000000000000000000000\n        /* \"#utility.yul\":18969:18970   */\n      0x00\n        /* \"#utility.yul\":18961:18967   */\n      dup3\n        /* \"#utility.yul\":18957:18971   */\n      add\n        /* \"#utility.yul\":18950:19040   */\n      mstore\n        /* \"#utility.yul\":18833:19047   */\n      pop\n      jump\t// out\n        /* \"#utility.yul\":19053:19455   */\n    tag_225:\n        /* \"#utility.yul\":19213:19216   */\n      0x00\n        /* \"#utility.yul\":19234:19319   */\n      tag_422\n        /* \"#utility.yul\":19316:19318   */\n      0x0c\n        /* \"#utility.yul\":19311:19314   */\n      dup4\n        /* \"#utility.yul\":19234:19319   */\n      tag_201\n      jump\t// in\n    tag_422:\n        /* \"#utility.yul\":19227:19319   */\n      swap2\n      pop\n        /* \"#utility.yul\":19328:19421   */\n      tag_423\n        /* \"#utility.yul\":19417:19420   */\n      dup3\n        /* \"#utility.yul\":19328:19421   */\n      tag_224\n      jump\t// in\n    tag_423:\n        /* \"#utility.yul\":19446:19448   */\n      0x0c\n        /* \"#utility.yul\":19441:19444   */\n      dup3\n        /* \"#utility.yul\":19437:19449   */\n      add\n        /* \"#utility.yul\":19430:19449   */\n      swap1\n      pop\n        /* \"#utility.yul\":19053:19455   */\n      swap2\n      swap1\n      pop\n      jump\t// out\n        /* \"#utility.yul\":19461:19675   */\n    tag_226:\n        /* \"#utility.yul\":19601:19667   */\n      0x6b6d0a0000000000000000000000000000000000000000000000000000000000\n        /* \"#utility.yul\":19597:19598   */\n      0x00\n        /* \"#utility.yul\":19589:19595   */\n      dup3\n        /* \"#utility.yul\":19585:19599   */\n      add\n        /* \"#utility.yul\":19578:19668   */\n      mstore\n        /* \"#utility.yul\":19461:19675   */\n      pop\n      jump\t// out\n        /* \"#utility.yul\":19681:20081   */\n    tag_227:\n        /* \"#utility.yul\":19841:19844   */\n      0x00\n        /* \"#utility.yul\":19862:19946   */\n      tag_426\n        /* \"#utility.yul\":19944:19945   */\n      0x03\n        /* \"#utility.yul\":19939:19942   */\n      dup4\n        /* \"#utility.yul\":19862:19946   */\n      tag_201\n      jump\t// in\n    tag_426:\n        /* \"#utility.yul\":19855:19946   */\n      swap2\n      pop\n        /* \"#utility.yul\":19955:20048   */\n      tag_427\n        /* \"#utility.yul\":20044:20047   */\n      dup3\n        /* \"#utility.yul\":19955:20048   */\n      tag_226\n      jump\t// in\n    tag_427:\n        /* \"#utility.yul\":20073:20074   */\n      0x03\n        /* \"#utility.yul\":20068:20071   */\n      dup3\n        /* \"#utility.yul\":20064:20075   */\n      add\n        /* \"#utility.yul\":20057:20075   */\n      swap1\n      pop\n        /* \"#utility.yul\":19681:20081   */\n      swap2\n      swap1\n      pop\n      jump\t// out\n        /* \"#utility.yul\":20087:24414   */\n    tag_83:\n        /* \"#utility.yul\":21637:21640   */\n      0x00\n        /* \"#utility.yul\":21659:21807   */\n      tag_429\n        /* \"#utility.yul\":21803:21806   */\n      dup3\n        /* \"#utility.yul\":21659:21807   */\n      tag_206\n      jump\t// in\n    tag_429:\n        /* \"#utility.yul\":21652:21807   */\n      swap2\n      pop\n        /* \"#utility.yul\":21824:21916   */\n      tag_430\n        /* \"#utility.yul\":21912:21915   */\n      dup3\n        /* \"#utility.yul\":21903:21909   */\n      dup14\n        /* \"#utility.yul\":21824:21916   */\n      tag_209\n      jump\t// in\n    tag_430:\n        /* \"#utility.yul\":21817:21916   */\n      swap2\n      pop\n        /* \"#utility.yul\":21933:22081   */\n      tag_431\n        /* \"#utility.yul\":22077:22080   */\n      dup3\n        /* \"#utility.yul\":21933:22081   */\n      tag_211\n      jump\t// in\n    tag_431:\n        /* \"#utility.yul\":21926:22081   */\n      swap2\n      pop\n        /* \"#utility.yul\":22098:22190   */\n      tag_432\n        /* \"#utility.yul\":22186:22189   */\n      dup3\n        /* \"#utility.yul\":22177:22183   */\n      dup13\n        /* \"#utility.yul\":22098:22190   */\n      tag_209\n      jump\t// in\n    tag_432:\n        /* \"#utility.yul\":22091:22190   */\n      swap2\n      pop\n        /* \"#utility.yul\":22207:22355   */\n      tag_433\n        /* \"#utility.yul\":22351:22354   */\n      dup3\n        /* \"#utility.yul\":22207:22355   */\n      tag_213\n      jump\t// in\n    tag_433:\n        /* \"#utility.yul\":22200:22355   */\n      swap2\n      pop\n        /* \"#utility.yul\":22372:22464   */\n      tag_434\n        /* \"#utility.yul\":22460:22463   */\n      dup3\n        /* \"#utility.yul\":22451:22457   */\n      dup12\n        /* \"#utility.yul\":22372:22464   */\n      tag_209\n      jump\t// in\n    tag_434:\n        /* \"#utility.yul\":22365:22464   */\n      swap2\n      pop\n        /* \"#utility.yul\":22481:22573   */\n      tag_435\n        /* \"#utility.yul\":22569:22572   */\n      dup3\n        /* \"#utility.yul\":22560:22566   */\n      dup11\n        /* \"#utility.yul\":22481:22573   */\n      tag_209\n      jump\t// in\n    tag_435:\n        /* \"#utility.yul\":22474:22573   */\n      swap2\n      pop\n        /* \"#utility.yul\":22590:22738   */\n      tag_436\n        /* \"#utility.yul\":22734:22737   */\n      dup3\n        /* \"#utility.yul\":22590:22738   */\n      tag_215\n      jump\t// in\n    tag_436:\n        /* \"#utility.yul\":22583:22738   */\n      swap2\n      pop\n        /* \"#utility.yul\":22755:22847   */\n      tag_437\n        /* \"#utility.yul\":22843:22846   */\n      dup3\n        /* \"#utility.yul\":22834:22840   */\n      dup10\n        /* \"#utility.yul\":22755:22847   */\n      tag_209\n      jump\t// in\n    tag_437:\n        /* \"#utility.yul\":22748:22847   */\n      swap2\n      pop\n        /* \"#utility.yul\":22864:23012   */\n      tag_438\n        /* \"#utility.yul\":23008:23011   */\n      dup3\n        /* \"#utility.yul\":22864:23012   */\n      tag_217\n      jump\t// in\n    tag_438:\n        /* \"#utility.yul\":22857:23012   */\n      swap2\n      pop\n        /* \"#utility.yul\":23029:23124   */\n      tag_439\n        /* \"#utility.yul\":23120:23123   */\n      dup3\n        /* \"#utility.yul\":23111:23117   */\n      dup9\n        /* \"#utility.yul\":23029:23124   */\n      tag_202\n      jump\t// in\n    tag_439:\n        /* \"#utility.yul\":23022:23124   */\n      swap2\n      pop\n        /* \"#utility.yul\":23141:23289   */\n      tag_440\n        /* \"#utility.yul\":23285:23288   */\n      dup3\n        /* \"#utility.yul\":23141:23289   */\n      tag_219\n      jump\t// in\n    tag_440:\n        /* \"#utility.yul\":23134:23289   */\n      swap2\n      pop\n        /* \"#utility.yul\":23306:23398   */\n      tag_441\n        /* \"#utility.yul\":23394:23397   */\n      dup3\n        /* \"#utility.yul\":23385:23391   */\n      dup8\n        /* \"#utility.yul\":23306:23398   */\n      tag_209\n      jump\t// in\n    tag_441:\n        /* \"#utility.yul\":23299:23398   */\n      swap2\n      pop\n        /* \"#utility.yul\":23415:23563   */\n      tag_442\n        /* \"#utility.yul\":23559:23562   */\n      dup3\n        /* \"#utility.yul\":23415:23563   */\n      tag_221\n      jump\t// in\n    tag_442:\n        /* \"#utility.yul\":23408:23563   */\n      swap2\n      pop\n        /* \"#utility.yul\":23580:23672   */\n      tag_443\n        /* \"#utility.yul\":23668:23671   */\n      dup3\n        /* \"#utility.yul\":23659:23665   */\n      dup7\n        /* \"#utility.yul\":23580:23672   */\n      tag_209\n      jump\t// in\n    tag_443:\n        /* \"#utility.yul\":23573:23672   */\n      swap2\n      pop\n        /* \"#utility.yul\":23689:23837   */\n      tag_444\n        /* \"#utility.yul\":23833:23836   */\n      dup3\n        /* \"#utility.yul\":23689:23837   */\n      tag_223\n      jump\t// in\n    tag_444:\n        /* \"#utility.yul\":23682:23837   */\n      swap2\n      pop\n        /* \"#utility.yul\":23854:23946   */\n      tag_445\n        /* \"#utility.yul\":23942:23945   */\n      dup3\n        /* \"#utility.yul\":23933:23939   */\n      dup6\n        /* \"#utility.yul\":23854:23946   */\n      tag_209\n      jump\t// in\n    tag_445:\n        /* \"#utility.yul\":23847:23946   */\n      swap2\n      pop\n        /* \"#utility.yul\":23963:24111   */\n      tag_446\n        /* \"#utility.yul\":24107:24110   */\n      dup3\n        /* \"#utility.yul\":23963:24111   */\n      tag_225\n      jump\t// in\n    tag_446:\n        /* \"#utility.yul\":23956:24111   */\n      swap2\n      pop\n        /* \"#utility.yul\":24128:24223   */\n      tag_447\n        /* \"#utility.yul\":24219:24222   */\n      dup3\n        /* \"#utility.yul\":24210:24216   */\n      dup5\n        /* \"#utility.yul\":24128:24223   */\n      tag_202\n      jump\t// in\n    tag_447:\n        /* \"#utility.yul\":24121:24223   */\n      swap2\n      pop\n        /* \"#utility.yul\":24240:24388   */\n      tag_448\n        /* \"#utility.yul\":24384:24387   */\n      dup3\n        /* \"#utility.yul\":24240:24388   */\n      tag_227\n      jump\t// in\n    tag_448:\n        /* \"#utility.yul\":24233:24388   */\n      swap2\n      pop\n        /* \"#utility.yul\":24405:24408   */\n      dup2\n        /* \"#utility.yul\":24398:24408   */\n      swap1\n      pop\n        /* \"#utility.yul\":20087:24414   */\n      swap12\n      swap11\n      pop\n      pop\n      pop\n      pop\n      pop\n      pop\n      pop\n      pop\n      pop\n      pop\n      pop\n      jump\t// out\n        /* \"#utility.yul\":24420:24669   */\n    tag_228:\n        /* \"#utility.yul\":24560:24594   */\n      0x3c623e432765737420756e2070726f64756974207175692070726f7669656e74\n        /* \"#utility.yul\":24556:24557   */\n      0x00\n        /* \"#utility.yul\":24548:24554   */\n      dup3\n        /* \"#utility.yul\":24544:24558   */\n      add\n        /* \"#utility.yul\":24537:24595   */\n      mstore\n        /* \"#utility.yul\":24629:24661   */\n      0x206427756e20636972637569742064652070726f78696d6974653c2f623e0000\n        /* \"#utility.yul\":24624:24626   */\n      0x20\n        /* \"#utility.yul\":24616:24622   */\n      dup3\n        /* \"#utility.yul\":24612:24627   */\n      add\n        /* \"#utility.yul\":24605:24662   */\n      mstore\n        /* \"#utility.yul\":24420:24669   */\n      pop\n      jump\t// out\n        /* \"#utility.yul\":24675:25077   */\n    tag_229:\n        /* \"#utility.yul\":24835:24838   */\n      0x00\n        /* \"#utility.yul\":24856:24941   */\n      tag_451\n        /* \"#utility.yul\":24938:24940   */\n      0x3e\n        /* \"#utility.yul\":24933:24936   */\n      dup4\n        /* \"#utility.yul\":24856:24941   */\n      tag_201\n      jump\t// in\n    tag_451:\n        /* \"#utility.yul\":24849:24941   */\n      swap2\n      pop\n        /* \"#utility.yul\":24950:25043   */\n      tag_452\n        /* \"#utility.yul\":25039:25042   */\n      dup3\n        /* \"#utility.yul\":24950:25043   */\n      tag_228\n      jump\t// in\n    tag_452:\n        /* \"#utility.yul\":25068:25070   */\n      0x3e\n        /* \"#utility.yul\":25063:25066   */\n      dup3\n        /* \"#utility.yul\":25059:25071   */\n      add\n        /* \"#utility.yul\":25052:25071   */\n      swap1\n      pop\n        /* \"#utility.yul\":24675:25077   */\n      swap2\n      swap1\n      pop\n      jump\t// out\n        /* \"#utility.yul\":25083:25624   */\n    tag_87:\n        /* \"#utility.yul\":25316:25319   */\n      0x00\n        /* \"#utility.yul\":25338:25433   */\n      tag_454\n        /* \"#utility.yul\":25429:25432   */\n      dup3\n        /* \"#utility.yul\":25420:25426   */\n      dup5\n        /* \"#utility.yul\":25338:25433   */\n      tag_202\n      jump\t// in\n    tag_454:\n        /* \"#utility.yul\":25331:25433   */\n      swap2\n      pop\n        /* \"#utility.yul\":25450:25598   */\n      tag_455\n        /* \"#utility.yul\":25594:25597   */\n      dup3\n        /* \"#utility.yul\":25450:25598   */\n      tag_229\n      jump\t// in\n    tag_455:\n        /* \"#utility.yul\":25443:25598   */\n      swap2\n      pop\n        /* \"#utility.yul\":25615:25618   */\n      dup2\n        /* \"#utility.yul\":25608:25618   */\n      swap1\n      pop\n        /* \"#utility.yul\":25083:25624   */\n      swap3\n      swap2\n      pop\n      pop\n      jump\t// out\n        /* \"#utility.yul\":25630:25923   */\n    tag_230:\n        /* \"#utility.yul\":25770:25804   */\n      0x3c623e432765737420756e2070726f6475697420717569206e652070726f7669\n        /* \"#utility.yul\":25766:25767   */\n      0x00\n        /* \"#utility.yul\":25758:25764   */\n      dup3\n        /* \"#utility.yul\":25754:25768   */\n      add\n        /* \"#utility.yul\":25747:25805   */\n      mstore\n        /* \"#utility.yul\":25839:25873   */\n      0x656e7420706173206427756e20636972637569742064652070726f78696d6974\n        /* \"#utility.yul\":25834:25836   */\n      0x20\n        /* \"#utility.yul\":25826:25832   */\n      dup3\n        /* \"#utility.yul\":25822:25837   */\n      add\n        /* \"#utility.yul\":25815:25874   */\n      mstore\n        /* \"#utility.yul\":25908:25915   */\n      0x653c2f623e000000000000000000000000000000000000000000000000000000\n        /* \"#utility.yul\":25903:25905   */\n      0x40\n        /* \"#utility.yul\":25895:25901   */\n      dup3\n        /* \"#utility.yul\":25891:25906   */\n      add\n        /* \"#utility.yul\":25884:25916   */\n      mstore\n        /* \"#utility.yul\":25630:25923   */\n      pop\n      jump\t// out\n        /* \"#utility.yul\":25929:26331   */\n    tag_231:\n        /* \"#utility.yul\":26089:26092   */\n      0x00\n        /* \"#utility.yul\":26110:26195   */\n      tag_458\n        /* \"#utility.yul\":26192:26194   */\n      0x45\n        /* \"#utility.yul\":26187:26190   */\n      dup4\n        /* \"#utility.yul\":26110:26195   */\n      tag_201\n      jump\t// in\n    tag_458:\n        /* \"#utility.yul\":26103:26195   */\n      swap2\n      pop\n        /* \"#utility.yul\":26204:26297   */\n      tag_459\n        /* \"#utility.yul\":26293:26296   */\n      dup3\n        /* \"#utility.yul\":26204:26297   */\n      tag_230\n      jump\t// in\n    tag_459:\n        /* \"#utility.yul\":26322:26324   */\n      0x45\n        /* \"#utility.yul\":26317:26320   */\n      dup3\n        /* \"#utility.yul\":26313:26325   */\n      add\n        /* \"#utility.yul\":26306:26325   */\n      swap1\n      pop\n        /* \"#utility.yul\":25929:26331   */\n      swap2\n      swap1\n      pop\n      jump\t// out\n        /* \"#utility.yul\":26337:26878   */\n    tag_90:\n        /* \"#utility.yul\":26570:26573   */\n      0x00\n        /* \"#utility.yul\":26592:26687   */\n      tag_461\n        /* \"#utility.yul\":26683:26686   */\n      dup3\n        /* \"#utility.yul\":26674:26680   */\n      dup5\n        /* \"#utility.yul\":26592:26687   */\n      tag_202\n      jump\t// in\n    tag_461:\n        /* \"#utility.yul\":26585:26687   */\n      swap2\n      pop\n        /* \"#utility.yul\":26704:26852   */\n      tag_462\n        /* \"#utility.yul\":26848:26851   */\n      dup3\n        /* \"#utility.yul\":26704:26852   */\n      tag_231\n      jump\t// in\n    tag_462:\n        /* \"#utility.yul\":26697:26852   */\n      swap2\n      pop\n        /* \"#utility.yul\":26869:26872   */\n      dup2\n        /* \"#utility.yul\":26862:26872   */\n      swap1\n      pop\n        /* \"#utility.yul\":26337:26878   */\n      swap3\n      swap2\n      pop\n      pop\n      jump\t// out\n        /* \"#utility.yul\":26884:27319   */\n    tag_97:\n        /* \"#utility.yul\":27064:27067   */\n      0x00\n        /* \"#utility.yul\":27086:27181   */\n      tag_464\n        /* \"#utility.yul\":27177:27180   */\n      dup3\n        /* \"#utility.yul\":27168:27174   */\n      dup6\n        /* \"#utility.yul\":27086:27181   */\n      tag_202\n      jump\t// in\n    tag_464:\n        /* \"#utility.yul\":27079:27181   */\n      swap2\n      pop\n        /* \"#utility.yul\":27198:27293   */\n      tag_465\n        /* \"#utility.yul\":27289:27292   */\n      dup3\n        /* \"#utility.yul\":27280:27286   */\n      dup5\n        /* \"#utility.yul\":27198:27293   */\n      tag_202\n      jump\t// in\n    tag_465:\n        /* \"#utility.yul\":27191:27293   */\n      swap2\n      pop\n        /* \"#utility.yul\":27310:27313   */\n      dup2\n        /* \"#utility.yul\":27303:27313   */\n      swap1\n      pop\n        /* \"#utility.yul\":26884:27319   */\n      swap4\n      swap3\n      pop\n      pop\n      pop\n      jump\t// out\n        /* \"#utility.yul\":27325:27549   */\n    tag_232:\n        /* \"#utility.yul\":27465:27499   */\n      0x4c65206c6f74206578697374652064656a612064616e73206c6120626c6f636b\n        /* \"#utility.yul\":27461:27462   */\n      0x00\n        /* \"#utility.yul\":27453:27459   */\n      dup3\n        /* \"#utility.yul\":27449:27463   */\n      add\n        /* \"#utility.yul\":27442:27500   */\n      mstore\n        /* \"#utility.yul\":27534:27541   */\n      0x636861696e000000000000000000000000000000000000000000000000000000\n        /* \"#utility.yul\":27529:27531   */\n      0x20\n        /* \"#utility.yul\":27521:27527   */\n      dup3\n        /* \"#utility.yul\":27517:27532   */\n      add\n        /* \"#utility.yul\":27510:27542   */\n      mstore\n        /* \"#utility.yul\":27325:27549   */\n      pop\n      jump\t// out\n        /* \"#utility.yul\":27555:27921   */\n    tag_233:\n        /* \"#utility.yul\":27697:27700   */\n      0x00\n        /* \"#utility.yul\":27718:27785   */\n      tag_468\n        /* \"#utility.yul\":27782:27784   */\n      0x25\n        /* \"#utility.yul\":27777:27780   */\n      dup4\n        /* \"#utility.yul\":27718:27785   */\n      tag_194\n      jump\t// in\n    tag_468:\n        /* \"#utility.yul\":27711:27785   */\n      swap2\n      pop\n        /* \"#utility.yul\":27794:27887   */\n      tag_469\n        /* \"#utility.yul\":27883:27886   */\n      dup3\n        /* \"#utility.yul\":27794:27887   */\n      tag_232\n      jump\t// in\n    tag_469:\n        /* \"#utility.yul\":27912:27914   */\n      0x40\n        /* \"#utility.yul\":27907:27910   */\n      dup3\n        /* \"#utility.yul\":27903:27915   */\n      add\n        /* \"#utility.yul\":27896:27915   */\n      swap1\n      pop\n        /* \"#utility.yul\":27555:27921   */\n      swap2\n      swap1\n      pop\n      jump\t// out\n        /* \"#utility.yul\":27927:28346   */\n    tag_101:\n        /* \"#utility.yul\":28093:28097   */\n      0x00\n        /* \"#utility.yul\":28131:28133   */\n      0x20\n        /* \"#utility.yul\":28120:28129   */\n      dup3\n        /* \"#utility.yul\":28116:28134   */\n      add\n        /* \"#utility.yul\":28108:28134   */\n      swap1\n      pop\n        /* \"#utility.yul\":28180:28189   */\n      dup2\n        /* \"#utility.yul\":28174:28178   */\n      dup2\n        /* \"#utility.yul\":28170:28190   */\n      sub\n        /* \"#utility.yul\":28166:28167   */\n      0x00\n        /* \"#utility.yul\":28155:28164   */\n      dup4\n        /* \"#utility.yul\":28151:28168   */\n      add\n        /* \"#utility.yul\":28144:28191   */\n      mstore\n        /* \"#utility.yul\":28208:28339   */\n      tag_471\n        /* \"#utility.yul\":28334:28338   */\n      dup2\n        /* \"#utility.yul\":28208:28339   */\n      tag_233\n      jump\t// in\n    tag_471:\n        /* \"#utility.yul\":28200:28339   */\n      swap1\n      pop\n        /* \"#utility.yul\":27927:28346   */\n      swap2\n      swap1\n      pop\n      jump\t// out\n        /* \"#utility.yul\":28352:28445   */\n    tag_234:\n        /* \"#utility.yul\":28389:28395   */\n      0x00\n        /* \"#utility.yul\":28436:28438   */\n      0x20\n        /* \"#utility.yul\":28431:28433   */\n      0x1f\n        /* \"#utility.yul\":28424:28429   */\n      dup4\n        /* \"#utility.yul\":28420:28434   */\n      add\n        /* \"#utility.yul\":28416:28439   */\n      div\n        /* \"#utility.yul\":28406:28439   */\n      swap1\n      pop\n        /* \"#utility.yul\":28352:28445   */\n      swap2\n      swap1\n      pop\n      jump\t// out\n        /* \"#utility.yul\":28451:28558   */\n    tag_235:\n        /* \"#utility.yul\":28495:28503   */\n      0x00\n        /* \"#utility.yul\":28545:28550   */\n      dup3\n        /* \"#utility.yul\":28539:28543   */\n      dup3\n        /* \"#utility.yul\":28535:28551   */\n      shl\n        /* \"#utility.yul\":28514:28551   */\n      swap1\n      pop\n        /* \"#utility.yul\":28451:28558   */\n      swap3\n      swap2\n      pop\n      pop\n      jump\t// out\n        /* \"#utility.yul\":28564:28957   */\n    tag_236:\n        /* \"#utility.yul\":28633:28639   */\n      0x00\n        /* \"#utility.yul\":28683:28684   */\n      0x08\n        /* \"#utility.yul\":28671:28681   */\n      dup4\n        /* \"#utility.yul\":28667:28685   */\n      mul\n        /* \"#utility.yul\":28706:28803   */\n      tag_475\n        /* \"#utility.yul\":28736:28802   */\n      0xffffffffffffffffffffffffffffffffffffffffffffffffffffffffffffffff\n        /* \"#utility.yul\":28725:28734   */\n      dup3\n        /* \"#utility.yul\":28706:28803   */\n      tag_235\n      jump\t// in\n    tag_475:\n        /* \"#utility.yul\":28824:28863   */\n      tag_476\n        /* \"#utility.yul\":28854:28862   */\n      dup7\n        /* \"#utility.yul\":28843:28852   */\n      dup4\n        /* \"#utility.yul\":28824:28863   */\n      tag_235\n      jump\t// in\n    tag_476:\n        /* \"#utility.yul\":28812:28863   */\n      swap6\n      pop\n        /* \"#utility.yul\":28896:28900   */\n      dup1\n        /* \"#utility.yul\":28892:28901   */\n      not\n        /* \"#utility.yul\":28885:28890   */\n      dup5\n        /* \"#utility.yul\":28881:28902   */\n      and\n        /* \"#utility.yul\":28872:28902   */\n      swap4\n      pop\n        /* \"#utility.yul\":28945:28949   */\n      dup1\n        /* \"#utility.yul\":28935:28943   */\n      dup7\n        /* \"#utility.yul\":28931:28950   */\n      and\n        /* \"#utility.yul\":28924:28929   */\n      dup5\n        /* \"#utility.yul\":28921:28951   */\n      or\n        /* \"#utility.yul\":28911:28951   */\n      swap3\n      pop\n        /* \"#utility.yul\":28640:28957   */\n      pop\n      pop\n        /* \"#utility.yul\":28564:28957   */\n      swap4\n      swap3\n      pop\n      pop\n      pop\n      jump\t// out\n        /* \"#utility.yul\":28963:29023   */\n    tag_237:\n        /* \"#utility.yul\":28991:28994   */\n      0x00\n        /* \"#utility.yul\":29012:29017   */\n      dup2\n        /* \"#utility.yul\":29005:29017   */\n      swap1\n      pop\n        /* \"#utility.yul\":28963:29023   */\n      swap2\n      swap1\n      pop\n      jump\t// out\n        /* \"#utility.yul\":29029:29171   */\n    tag_238:\n        /* \"#utility.yul\":29079:29088   */\n      0x00\n        /* \"#utility.yul\":29112:29165   */\n      tag_479\n        /* \"#utility.yul\":29130:29164   */\n      tag_480\n        /* \"#utility.yul\":29139:29163   */\n      tag_481\n        /* \"#utility.yul\":29157:29162   */\n      dup5\n        /* \"#utility.yul\":29139:29163   */\n      tag_197\n      jump\t// in\n    tag_481:\n        /* \"#utility.yul\":29130:29164   */\n      tag_237\n      jump\t// in\n    tag_480:\n        /* \"#utility.yul\":29112:29165   */\n      tag_197\n      jump\t// in\n    tag_479:\n        /* \"#utility.yul\":29099:29165   */\n      swap1\n      pop\n        /* \"#utility.yul\":29029:29171   */\n      swap2\n      swap1\n      pop\n      jump\t// out\n        /* \"#utility.yul\":29177:29252   */\n    tag_239:\n        /* \"#utility.yul\":29220:29223   */\n      0x00\n        /* \"#utility.yul\":29241:29246   */\n      dup2\n        /* \"#utility.yul\":29234:29246   */\n      swap1\n      pop\n        /* \"#utility.yul\":29177:29252   */\n      swap2\n      swap1\n      pop\n      jump\t// out\n        /* \"#utility.yul\":29258:29527   */\n    tag_240:\n        /* \"#utility.yul\":29368:29407   */\n      tag_484\n        /* \"#utility.yul\":29399:29406   */\n      dup4\n        /* \"#utility.yul\":29368:29407   */\n      tag_238\n      jump\t// in\n    tag_484:\n        /* \"#utility.yul\":29429:29520   */\n      tag_485\n        /* \"#utility.yul\":29478:29519   */\n      tag_486\n        /* \"#utility.yul\":29502:29518   */\n      dup3\n        /* \"#utility.yul\":29478:29519   */\n      tag_239\n      jump\t// in\n    tag_486:\n        /* \"#utility.yul\":29470:29476   */\n      dup5\n        /* \"#utility.yul\":29463:29467   */\n      dup5\n        /* \"#utility.yul\":29457:29468   */\n      sload\n        /* \"#utility.yul\":29429:29520   */\n      tag_236\n      jump\t// in\n    tag_485:\n        /* \"#utility.yul\":29423:29427   */\n      dup3\n        /* \"#utility.yul\":29416:29521   */\n      sstore\n        /* \"#utility.yul\":29334:29527   */\n      pop\n        /* \"#utility.yul\":29258:29527   */\n      pop\n      pop\n      pop\n      jump\t// out\n        /* \"#utility.yul\":29533:29606   */\n    tag_241:\n        /* \"#utility.yul\":29578:29581   */\n      0x00\n        /* \"#utility.yul\":29533:29606   */\n      swap1\n      jump\t// out\n        /* \"#utility.yul\":29612:29801   */\n    tag_242:\n        /* \"#utility.yul\":29689:29721   */\n      tag_489\n      tag_241\n      jump\t// in\n    tag_489:\n        /* \"#utility.yul\":29730:29795   */\n      tag_490\n        /* \"#utility.yul\":29788:29794   */\n      dup2\n        /* \"#utility.yul\":29780:29786   */\n      dup5\n        /* \"#utility.yul\":29774:29778   */\n      dup5\n        /* \"#utility.yul\":29730:29795   */\n      tag_240\n      jump\t// in\n    tag_490:\n        /* \"#utility.yul\":29665:29801   */\n      pop\n        /* \"#utility.yul\":29612:29801   */\n      pop\n      pop\n      jump\t// out\n        /* \"#utility.yul\":29807:29993   */\n    tag_243:\n        /* \"#utility.yul\":29867:29987   */\n    tag_492:\n        /* \"#utility.yul\":29884:29887   */\n      dup2\n        /* \"#utility.yul\":29877:29882   */\n      dup2\n        /* \"#utility.yul\":29874:29888   */\n      lt\n        /* \"#utility.yul\":29867:29987   */\n      iszero\n      tag_494\n      jumpi\n        /* \"#utility.yul\":29938:29977   */\n      tag_495\n        /* \"#utility.yul\":29975:29976   */\n      0x00\n        /* \"#utility.yul\":29968:29973   */\n      dup3\n        /* \"#utility.yul\":29938:29977   */\n      tag_242\n      jump\t// in\n    tag_495:\n        /* \"#utility.yul\":29911:29912   */\n      0x01\n        /* \"#utility.yul\":29904:29909   */\n      dup2\n        /* \"#utility.yul\":29900:29913   */\n      add\n        /* \"#utility.yul\":29891:29913   */\n      swap1\n      pop\n        /* \"#utility.yul\":29867:29987   */\n      jump(tag_492)\n    tag_494:\n        /* \"#utility.yul\":29807:29993   */\n      pop\n      pop\n      jump\t// out\n        /* \"#utility.yul\":29999:30542   */\n    tag_244:\n        /* \"#utility.yul\":30100:30102   */\n      0x1f\n        /* \"#utility.yul\":30095:30098   */\n      dup3\n        /* \"#utility.yul\":30092:30103   */\n      gt\n        /* \"#utility.yul\":30089:30535   */\n      iszero\n      tag_497\n      jumpi\n        /* \"#utility.yul\":30134:30172   */\n      tag_498\n        /* \"#utility.yul\":30166:30171   */\n      dup2\n        /* \"#utility.yul\":30134:30172   */\n      tag_208\n      jump\t// in\n    tag_498:\n        /* \"#utility.yul\":30218:30247   */\n      tag_499\n        /* \"#utility.yul\":30236:30246   */\n      dup5\n        /* \"#utility.yul\":30218:30247   */\n      tag_234\n      jump\t// in\n    tag_499:\n        /* \"#utility.yul\":30208:30216   */\n      dup2\n        /* \"#utility.yul\":30204:30248   */\n      add\n        /* \"#utility.yul\":30401:30403   */\n      0x20\n        /* \"#utility.yul\":30389:30399   */\n      dup6\n        /* \"#utility.yul\":30386:30404   */\n      lt\n        /* \"#utility.yul\":30383:30432   */\n      iszero\n      tag_500\n      jumpi\n        /* \"#utility.yul\":30422:30430   */\n      dup2\n        /* \"#utility.yul\":30407:30430   */\n      swap1\n      pop\n        /* \"#utility.yul\":30383:30432   */\n    tag_500:\n        /* \"#utility.yul\":30445:30525   */\n      tag_501\n        /* \"#utility.yul\":30501:30523   */\n      tag_502\n        /* \"#utility.yul\":30519:30522   */\n      dup6\n        /* \"#utility.yul\":30501:30523   */\n      tag_234\n      jump\t// in\n    tag_502:\n        /* \"#utility.yul\":30491:30499   */\n      dup4\n        /* \"#utility.yul\":30487:30524   */\n      add\n        /* \"#utility.yul\":30474:30485   */\n      dup3\n        /* \"#utility.yul\":30445:30525   */\n      tag_243\n      jump\t// in\n    tag_501:\n        /* \"#utility.yul\":30104:30535   */\n      pop\n      pop\n        /* \"#utility.yul\":30089:30535   */\n    tag_497:\n        /* \"#utility.yul\":29999:30542   */\n      pop\n      pop\n      pop\n      jump\t// out\n        /* \"#utility.yul\":30548:30665   */\n    tag_245:\n        /* \"#utility.yul\":30602:30610   */\n      0x00\n        /* \"#utility.yul\":30652:30657   */\n      dup3\n        /* \"#utility.yul\":30646:30650   */\n      dup3\n        /* \"#utility.yul\":30642:30658   */\n      shr\n        /* \"#utility.yul\":30621:30658   */\n      swap1\n      pop\n        /* \"#utility.yul\":30548:30665   */\n      swap3\n      swap2\n      pop\n      pop\n      jump\t// out\n        /* \"#utility.yul\":30671:30840   */\n    tag_246:\n        /* \"#utility.yul\":30715:30721   */\n      0x00\n        /* \"#utility.yul\":30748:30799   */\n      tag_505\n        /* \"#utility.yul\":30796:30797   */\n      0x00\n        /* \"#utility.yul\":30792:30798   */\n      not\n        /* \"#utility.yul\":30784:30789   */\n      dup5\n        /* \"#utility.yul\":30781:30782   */\n      0x08\n        /* \"#utility.yul\":30777:30790   */\n      mul\n        /* \"#utility.yul\":30748:30799   */\n      tag_245\n      jump\t// in\n    tag_505:\n        /* \"#utility.yul\":30744:30800   */\n      not\n        /* \"#utility.yul\":30829:30833   */\n      dup1\n        /* \"#utility.yul\":30823:30827   */\n      dup4\n        /* \"#utility.yul\":30819:30834   */\n      and\n        /* \"#utility.yul\":30809:30834   */\n      swap2\n      pop\n        /* \"#utility.yul\":30722:30840   */\n      pop\n        /* \"#utility.yul\":30671:30840   */\n      swap3\n      swap2\n      pop\n      pop\n      jump\t// out\n        /* \"#utility.yul\":30845:31140   */\n    tag_247:\n        /* \"#utility.yul\":30921:30925   */\n      0x00\n        /* \"#utility.yul\":31067:31096   */\n      tag_507\n        /* \"#utility.yul\":31092:31095   */\n      dup4\n        /* \"#utility.yul\":31086:31090   */\n      dup4\n        /* \"#utility.yul\":31067:31096   */\n      tag_246\n      jump\t// in\n    tag_507:\n        /* \"#utility.yul\":31059:31096   */\n      swap2\n      pop\n        /* \"#utility.yul\":31129:31132   */\n      dup3\n        /* \"#utility.yul\":31126:31127   */\n      0x02\n        /* \"#utility.yul\":31122:31133   */\n      mul\n        /* \"#utility.yul\":31116:31120   */\n      dup3\n        /* \"#utility.yul\":31113:31134   */\n      or\n        /* \"#utility.yul\":31105:31134   */\n      swap1\n      pop\n        /* \"#utility.yul\":30845:31140   */\n      swap3\n      swap2\n      pop\n      pop\n      jump\t// out\n        /* \"#utility.yul\":31145:32540   */\n    tag_104:\n        /* \"#utility.yul\":31262:31299   */\n      tag_509\n        /* \"#utility.yul\":31295:31298   */\n      dup3\n        /* \"#utility.yul\":31262:31299   */\n      tag_193\n      jump\t// in\n    tag_509:\n        /* \"#utility.yul\":31364:31382   */\n      0xffffffffffffffff\n        /* \"#utility.yul\":31356:31362   */\n      dup2\n        /* \"#utility.yul\":31353:31383   */\n      gt\n        /* \"#utility.yul\":31350:31406   */\n      iszero\n      tag_510\n      jumpi\n        /* \"#utility.yul\":31386:31404   */\n      tag_511\n      tag_163\n      jump\t// in\n    tag_511:\n        /* \"#utility.yul\":31350:31406   */\n    tag_510:\n        /* \"#utility.yul\":31430:31468   */\n      tag_512\n        /* \"#utility.yul\":31462:31466   */\n      dup3\n        /* \"#utility.yul\":31456:31467   */\n      sload\n        /* \"#utility.yul\":31430:31468   */\n      tag_114\n      jump\t// in\n    tag_512:\n        /* \"#utility.yul\":31515:31582   */\n      tag_513\n        /* \"#utility.yul\":31575:31581   */\n      dup3\n        /* \"#utility.yul\":31567:31573   */\n      dup3\n        /* \"#utility.yul\":31561:31565   */\n      dup6\n        /* \"#utility.yul\":31515:31582   */\n      tag_244\n      jump\t// in\n    tag_513:\n        /* \"#utility.yul\":31609:31610   */\n      0x00\n        /* \"#utility.yul\":31633:31637   */\n      0x20\n        /* \"#utility.yul\":31620:31637   */\n      swap1\n      pop\n        /* \"#utility.yul\":31665:31667   */\n      0x1f\n        /* \"#utility.yul\":31657:31663   */\n      dup4\n        /* \"#utility.yul\":31654:31668   */\n      gt\n        /* \"#utility.yul\":31682:31683   */\n      0x01\n        /* \"#utility.yul\":31677:32295   */\n      dup2\n      eq\n      tag_515\n      jumpi\n        /* \"#utility.yul\":32339:32340   */\n      0x00\n        /* \"#utility.yul\":32356:32362   */\n      dup5\n        /* \"#utility.yul\":32353:32430   */\n      iszero\n      tag_516\n      jumpi\n        /* \"#utility.yul\":32405:32414   */\n      dup3\n        /* \"#utility.yul\":32400:32403   */\n      dup8\n        /* \"#utility.yul\":32396:32415   */\n      add\n        /* \"#utility.yul\":32390:32416   */\n      mload\n        /* \"#utility.yul\":32381:32416   */\n      swap1\n      pop\n        /* \"#utility.yul\":32353:32430   */\n    tag_516:\n        /* \"#utility.yul\":32456:32523   */\n      tag_517\n        /* \"#utility.yul\":32516:32522   */\n      dup6\n        /* \"#utility.yul\":32509:32514   */\n      dup3\n        /* \"#utility.yul\":32456:32523   */\n      tag_247\n      jump\t// in\n    tag_517:\n        /* \"#utility.yul\":32450:32454   */\n      dup7\n        /* \"#utility.yul\":32443:32524   */\n      sstore\n        /* \"#utility.yul\":32312:32534   */\n      pop\n        /* \"#utility.yul\":31647:32534   */\n      jump(tag_514)\n        /* \"#utility.yul\":31677:32295   */\n    tag_515:\n        /* \"#utility.yul\":31729:31733   */\n      0x1f\n        /* \"#utility.yul\":31725:31734   */\n      not\n        /* \"#utility.yul\":31717:31723   */\n      dup5\n        /* \"#utility.yul\":31713:31735   */\n      and\n        /* \"#utility.yul\":31763:31800   */\n      tag_518\n        /* \"#utility.yul\":31795:31799   */\n      dup7\n        /* \"#utility.yul\":31763:31800   */\n      tag_208\n      jump\t// in\n    tag_518:\n        /* \"#utility.yul\":31822:31823   */\n      0x00\n        /* \"#utility.yul\":31836:32044   */\n    tag_519:\n        /* \"#utility.yul\":31850:31857   */\n      dup3\n        /* \"#utility.yul\":31847:31848   */\n      dup2\n        /* \"#utility.yul\":31844:31858   */\n      lt\n        /* \"#utility.yul\":31836:32044   */\n      iszero\n      tag_521\n      jumpi\n        /* \"#utility.yul\":31929:31938   */\n      dup5\n        /* \"#utility.yul\":31924:31927   */\n      dup10\n        /* \"#utility.yul\":31920:31939   */\n      add\n        /* \"#utility.yul\":31914:31940   */\n      mload\n        /* \"#utility.yul\":31906:31912   */\n      dup3\n        /* \"#utility.yul\":31899:31941   */\n      sstore\n        /* \"#utility.yul\":31980:31981   */\n      0x01\n        /* \"#utility.yul\":31972:31978   */\n      dup3\n        /* \"#utility.yul\":31968:31982   */\n      add\n        /* \"#utility.yul\":31958:31982   */\n      swap2\n      pop\n        /* \"#utility.yul\":32027:32029   */\n      0x20\n        /* \"#utility.yul\":32016:32025   */\n      dup6\n        /* \"#utility.yul\":32012:32030   */\n      add\n        /* \"#utility.yul\":31999:32030   */\n      swap5\n      pop\n        /* \"#utility.yul\":31873:31877   */\n      0x20\n        /* \"#utility.yul\":31870:31871   */\n      dup2\n        /* \"#utility.yul\":31866:31878   */\n      add\n        /* \"#utility.yul\":31861:31878   */\n      swap1\n      pop\n        /* \"#utility.yul\":31836:32044   */\n      jump(tag_519)\n    tag_521:\n        /* \"#utility.yul\":32072:32078   */\n      dup7\n        /* \"#utility.yul\":32063:32070   */\n      dup4\n        /* \"#utility.yul\":32060:32079   */\n      lt\n        /* \"#utility.yul\":32057:32236   */\n      iszero\n      tag_522\n      jumpi\n        /* \"#utility.yul\":32130:32139   */\n      dup5\n        /* \"#utility.yul\":32125:32128   */\n      dup10\n        /* \"#utility.yul\":32121:32140   */\n      add\n        /* \"#utility.yul\":32115:32141   */\n      mload\n        /* \"#utility.yul\":32173:32221   */\n      tag_523\n        /* \"#utility.yul\":32215:32219   */\n      0x1f\n        /* \"#utility.yul\":32207:32213   */\n      dup10\n        /* \"#utility.yul\":32203:32220   */\n      and\n        /* \"#utility.yul\":32192:32201   */\n      dup3\n        /* \"#utility.yul\":32173:32221   */\n      tag_246\n      jump\t// in\n    tag_523:\n        /* \"#utility.yul\":32165:32171   */\n      dup4\n        /* \"#utility.yul\":32158:32222   */\n      sstore\n        /* \"#utility.yul\":32080:32236   */\n      pop\n        /* \"#utility.yul\":32057:32236   */\n    tag_522:\n        /* \"#utility.yul\":32282:32283   */\n      0x01\n        /* \"#utility.yul\":32278:32279   */\n      0x02\n        /* \"#utility.yul\":32270:32276   */\n      dup9\n        /* \"#utility.yul\":32266:32280   */\n      mul\n        /* \"#utility.yul\":32262:32284   */\n      add\n        /* \"#utility.yul\":32256:32260   */\n      dup9\n        /* \"#utility.yul\":32249:32285   */\n      sstore\n        /* \"#utility.yul\":31684:32295   */\n      pop\n      pop\n      pop\n        /* \"#utility.yul\":31647:32534   */\n    tag_514:\n      pop\n        /* \"#utility.yul\":31237:32540   */\n      pop\n      pop\n      pop\n        /* \"#utility.yul\":31145:32540   */\n      pop\n      pop\n      jump\t// out\n        /* \"#utility.yul\":32546:32726   */\n    tag_248:\n        /* \"#utility.yul\":32594:32671   */\n      0x4e487b7100000000000000000000000000000000000000000000000000000000\n        /* \"#utility.yul\":32591:32592   */\n      0x00\n        /* \"#utility.yul\":32584:32672   */\n      mstore\n        /* \"#utility.yul\":32691:32695   */\n      0x11\n        /* \"#utility.yul\":32688:32689   */\n      0x04\n        /* \"#utility.yul\":32681:32696   */\n      mstore\n        /* \"#utility.yul\":32715:32719   */\n      0x24\n        /* \"#utility.yul\":32712:32713   */\n      0x00\n        /* \"#utility.yul\":32705:32720   */\n      revert\n        /* \"#utility.yul\":32732:32965   */\n    tag_111:\n        /* \"#utility.yul\":32771:32774   */\n      0x00\n        /* \"#utility.yul\":32794:32818   */\n      tag_526\n        /* \"#utility.yul\":32812:32817   */\n      dup3\n        /* \"#utility.yul\":32794:32818   */\n      tag_197\n      jump\t// in\n    tag_526:\n        /* \"#utility.yul\":32785:32818   */\n      swap2\n      pop\n        /* \"#utility.yul\":32840:32906   */\n      0xffffffffffffffffffffffffffffffffffffffffffffffffffffffffffffffff\n        /* \"#utility.yul\":32833:32838   */\n      dup3\n        /* \"#utility.yul\":32830:32907   */\n      sub\n        /* \"#utility.yul\":32827:32930   */\n      tag_527\n      jumpi\n        /* \"#utility.yul\":32910:32928   */\n      tag_528\n      tag_248\n      jump\t// in\n    tag_528:\n        /* \"#utility.yul\":32827:32930   */\n    tag_527:\n        /* \"#utility.yul\":32957:32958   */\n      0x01\n        /* \"#utility.yul\":32950:32955   */\n      dup3\n        /* \"#utility.yul\":32946:32959   */\n      add\n        /* \"#utility.yul\":32939:32959   */\n      swap1\n      pop\n        /* \"#utility.yul\":32732:32965   */\n      swap2\n      swap1\n      pop\n      jump\t// out\n        /* \"#utility.yul\":32971:33151   */\n    tag_249:\n        /* \"#utility.yul\":33019:33096   */\n      0x4e487b7100000000000000000000000000000000000000000000000000000000\n        /* \"#utility.yul\":33016:33017   */\n      0x00\n        /* \"#utility.yul\":33009:33097   */\n      mstore\n        /* \"#utility.yul\":33116:33120   */\n      0x12\n        /* \"#utility.yul\":33113:33114   */\n      0x04\n        /* \"#utility.yul\":33106:33121   */\n      mstore\n        /* \"#utility.yul\":33140:33144   */\n      0x24\n        /* \"#utility.yul\":33137:33138   */\n      0x00\n        /* \"#utility.yul\":33130:33145   */\n      revert\n        /* \"#utility.yul\":33157:33342   */\n    tag_160:\n        /* \"#utility.yul\":33197:33198   */\n      0x00\n        /* \"#utility.yul\":33214:33234   */\n      tag_531\n        /* \"#utility.yul\":33232:33233   */\n      dup3\n        /* \"#utility.yul\":33214:33234   */\n      tag_197\n      jump\t// in\n    tag_531:\n        /* \"#utility.yul\":33209:33234   */\n      swap2\n      pop\n        /* \"#utility.yul\":33248:33268   */\n      tag_532\n        /* \"#utility.yul\":33266:33267   */\n      dup4\n        /* \"#utility.yul\":33248:33268   */\n      tag_197\n      jump\t// in\n    tag_532:\n        /* \"#utility.yul\":33243:33268   */\n      swap3\n      pop\n        /* \"#utility.yul\":33287:33288   */\n      dup3\n        /* \"#utility.yul\":33277:33312   */\n      tag_533\n      jumpi\n        /* \"#utility.yul\":33292:33310   */\n      tag_534\n      tag_249\n      jump\t// in\n    tag_534:\n        /* \"#utility.yul\":33277:33312   */\n    tag_533:\n        /* \"#utility.yul\":33334:33335   */\n      dup3\n        /* \"#utility.yul\":33331:33332   */\n      dup3\n        /* \"#utility.yul\":33327:33336   */\n      div\n        /* \"#utility.yul\":33322:33336   */\n      swap1\n      pop\n        /* \"#utility.yul\":33157:33342   */\n      swap3\n      swap2\n      pop\n      pop\n      jump\t// out\n        /* \"#utility.yul\":33348:33542   */\n    tag_168:\n        /* \"#utility.yul\":33388:33392   */\n      0x00\n        /* \"#utility.yul\":33408:33428   */\n      tag_536\n        /* \"#utility.yul\":33426:33427   */\n      dup3\n        /* \"#utility.yul\":33408:33428   */\n      tag_197\n      jump\t// in\n    tag_536:\n        /* \"#utility.yul\":33403:33428   */\n      swap2\n      pop\n        /* \"#utility.yul\":33442:33462   */\n      tag_537\n        /* \"#utility.yul\":33460:33461   */\n      dup4\n        /* \"#utility.yul\":33442:33462   */\n      tag_197\n      jump\t// in\n    tag_537:\n        /* \"#utility.yul\":33437:33462   */\n      swap3\n      pop\n        /* \"#utility.yul\":33486:33487   */\n      dup3\n        /* \"#utility.yul\":33483:33484   */\n      dup3\n        /* \"#utility.yul\":33479:33488   */\n      sub\n        /* \"#utility.yul\":33471:33488   */\n      swap1\n      pop\n        /* \"#utility.yul\":33510:33511   */\n      dup2\n        /* \"#utility.yul\":33504:33508   */\n      dup2\n        /* \"#utility.yul\":33501:33512   */\n      gt\n        /* \"#utility.yul\":33498:33535   */\n      iszero\n      tag_538\n      jumpi\n        /* \"#utility.yul\":33515:33533   */\n      tag_539\n      tag_248\n      jump\t// in\n    tag_539:\n        /* \"#utility.yul\":33498:33535   */\n    tag_538:\n        /* \"#utility.yul\":33348:33542   */\n      swap3\n      swap2\n      pop\n      pop\n      jump\t// out\n        /* \"#utility.yul\":33548:33724   */\n    tag_170:\n        /* \"#utility.yul\":33580:33581   */\n      0x00\n        /* \"#utility.yul\":33597:33617   */\n      tag_541\n        /* \"#utility.yul\":33615:33616   */\n      dup3\n        /* \"#utility.yul\":33597:33617   */\n      tag_197\n      jump\t// in\n    tag_541:\n        /* \"#utility.yul\":33592:33617   */\n      swap2\n      pop\n        /* \"#utility.yul\":33631:33651   */\n      tag_542\n        /* \"#utility.yul\":33649:33650   */\n      dup4\n        /* \"#utility.yul\":33631:33651   */\n      tag_197\n      jump\t// in\n    tag_542:\n        /* \"#utility.yul\":33626:33651   */\n      swap3\n      pop\n        /* \"#utility.yul\":33670:33671   */\n      dup3\n        /* \"#utility.yul\":33660:33695   */\n      tag_543\n      jumpi\n        /* \"#utility.yul\":33675:33693   */\n      tag_544\n      tag_249\n      jump\t// in\n    tag_544:\n        /* \"#utility.yul\":33660:33695   */\n    tag_543:\n        /* \"#utility.yul\":33716:33717   */\n      dup3\n        /* \"#utility.yul\":33713:33714   */\n      dup3\n        /* \"#utility.yul\":33709:33718   */\n      mod\n        /* \"#utility.yul\":33704:33718   */\n      swap1\n      pop\n        /* \"#utility.yul\":33548:33724   */\n      swap3\n      swap2\n      pop\n      pop\n      jump\t// out\n        /* \"#utility.yul\":33730:33921   */\n    tag_172:\n        /* \"#utility.yul\":33770:33773   */\n      0x00\n        /* \"#utility.yul\":33789:33809   */\n      tag_546\n        /* \"#utility.yul\":33807:33808   */\n      dup3\n        /* \"#utility.yul\":33789:33809   */\n      tag_197\n      jump\t// in\n    tag_546:\n        /* \"#utility.yul\":33784:33809   */\n      swap2\n      pop\n        /* \"#utility.yul\":33823:33843   */\n      tag_547\n        /* \"#utility.yul\":33841:33842   */\n      dup4\n        /* \"#utility.yul\":33823:33843   */\n      tag_197\n      jump\t// in\n    tag_547:\n        /* \"#utility.yul\":33818:33843   */\n      swap3\n      pop\n        /* \"#utility.yul\":33866:33867   */\n      dup3\n        /* \"#utility.yul\":33863:33864   */\n      dup3\n        /* \"#utility.yul\":33859:33868   */\n      add\n        /* \"#utility.yul\":33852:33868   */\n      swap1\n      pop\n        /* \"#utility.yul\":33887:33890   */\n      dup1\n        /* \"#utility.yul\":33884:33885   */\n      dup3\n        /* \"#utility.yul\":33881:33891   */\n      gt\n        /* \"#utility.yul\":33878:33914   */\n      iszero\n      tag_548\n      jumpi\n        /* \"#utility.yul\":33894:33912   */\n      tag_549\n      tag_248\n      jump\t// in\n    tag_549:\n        /* \"#utility.yul\":33878:33914   */\n    tag_548:\n        /* \"#utility.yul\":33730:33921   */\n      swap3\n      swap2\n      pop\n      pop\n      jump\t// out\n        /* \"#utility.yul\":33927:34107   */\n    tag_175:\n        /* \"#utility.yul\":33975:34052   */\n      0x4e487b7100000000000000000000000000000000000000000000000000000000\n        /* \"#utility.yul\":33972:33973   */\n      0x00\n        /* \"#utility.yul\":33965:34053   */\n      mstore\n        /* \"#utility.yul\":34072:34076   */\n      0x32\n        /* \"#utility.yul\":34069:34070   */\n      0x04\n        /* \"#utility.yul\":34062:34077   */\n      mstore\n        /* \"#utility.yul\":34096:34100   */\n      0x24\n        /* \"#utility.yul\":34093:34094   */\n      0x00\n        /* \"#utility.yul\":34086:34101   */\n      revert\n\n    auxdata: 0xa2646970667358221220552930f9ca0803f55bb2c71eae1aa930455a90a5908d74ebb5e1e140f073d5b464736f6c63430008110033\n}\n",
				"bytecode": {
					"linkReferences": {},
					"object": "6080604052600060025534801561001557600080fd5b50336000806101000a81548173ffffffffffffffffffffffffffffffffffffffff021916908373ffffffffffffffffffffffffffffffffffffffff160217905550611e5a806100656000396000f3fe608060405234801561001057600080fd5b506004361061009e5760003560e01c806392f8087e1161006657806392f8087e1461016b578063e2d6699214610187578063ed0bf0f1146101bf578063f11b344e146101ef578063f560026f1461020d5761009e565b8063261a323e146100a35780634898c5ab146100d357806353bdec8f146100ef57806379a2d3f11461011f5780637b9b52091461014f575b600080fd5b6100bd60048036038101906100b89190610e2c565b61023d565b6040516100ca9190610e90565b60405180910390f35b6100ed60048036038101906100e89190610ed7565b61026a565b005b61010960048036038101906101049190610e2c565b6102a7565b6040516101169190610e90565b60405180910390f35b61013960048036038101906101349190610e2c565b6102df565b6040516101469190610fb2565b60405180910390f35b61016960048036038101906101649190610e2c565b610512565b005b6101856004803603810190610180919061100a565b610531565b005b6101a1600480360381019061019c9190610e2c565b6106e9565b6040516101b699989796959493929190611177565b60405180910390f35b6101d960048036038101906101d49190610e2c565b610a8a565b6040516101e69190610fb2565b60405180910390f35b6101f7610b3d565b604051610204919061122e565b60405180910390f35b61022760048036038101906102229190610e2c565b610b47565b604051610234919061122e565b60405180910390f35b6000806001836040516102509190611285565b908152602001604051809103902060070154119050919050565b8060018360405161027b9190611285565b908152602001604051809103902060080160006101000a81548160ff0219169083151502179055505050565b60006001826040516102b99190611285565b908152602001604051809103902060080160009054906101000a900460ff169050919050565b60606102ea8261023d565b610329576040517f08c379a00000000000000000000000000000000000000000000000000000000081526004016103209061130e565b60405180910390fd5b600060018360405161033b9190611285565b908152602001604051809103902060000160018460405161035c9190611285565b908152602001604051809103902060010160018560405161037d9190611285565b908152602001604051809103902060000160018660405161039e9190611285565b90815260200160405180910390206001016001876040516103bf9190611285565b90815260200160405180910390206002016103fa6001896040516103e39190611285565b908152602001604051809103902060030154610b72565b60018960405161040a9190611285565b908152602001604051809103902060040160018a60405161042b9190611285565b908152602001604051809103902060050160018b60405161044c9190611285565b908152602001604051809103902060060161048760018d6040516104709190611285565b908152602001604051809103902060070154610b72565b6040516020016104a09a9998979695949392919061171e565b60405160208183030381529060405290506104ba836102a7565b156104e657806040516020016104d0919061188a565b6040516020818303038152906040529050610509565b806040516020016104f79190611944565b60405160208183030381529060405290505b80915050919050565b605061051d82610b47565b1161052e5761052d81600161026a565b5b50565b60008888604051602001610546929190611966565b60405160208183030381529060405290506105608161023d565b156105a0576040517f08c379a0000000000000000000000000000000000000000000000000000000008152600401610597906119fc565b60405180910390fd5b6040518061012001604052808a8152602001898152602001888152602001878152602001868152602001858152602001848152602001838152602001600015158152506001826040516105f39190611285565b908152602001604051809103902060008201518160000190816106169190611bb3565b50602082015181600101908161062c9190611bb3565b5060408201518160020190816106429190611bb3565b506060820151816003015560808201518160040190816106629190611bb3565b5060a08201518160050190816106789190611bb3565b5060c082015181600601908161068e9190611bb3565b5060e082015181600701556101008201518160080160006101000a81548160ff021916908315150217905550905050600260008154809291906106d090611cb4565b91905055506106de81610512565b505050505050505050565b600181805160208101820180518482526020830160208501208183528095505050505050600091509050806000018054610722906113a9565b80601f016020809104026020016040519081016040528092919081815260200182805461074e906113a9565b801561079b5780601f106107705761010080835404028352916020019161079b565b820191906000526020600020905b81548152906001019060200180831161077e57829003601f168201915b5050505050908060010180546107b0906113a9565b80601f01602080910402602001604051908101604052809291908181526020018280546107dc906113a9565b80156108295780601f106107fe57610100808354040283529160200191610829565b820191906000526020600020905b81548152906001019060200180831161080c57829003601f168201915b50505050509080600201805461083e906113a9565b80601f016020809104026020016040519081016040528092919081815260200182805461086a906113a9565b80156108b75780601f1061088c576101008083540402835291602001916108b7565b820191906000526020600020905b81548152906001019060200180831161089a57829003601f168201915b5050505050908060030154908060040180546108d2906113a9565b80601f01602080910402602001604051908101604052809291908181526020018280546108fe906113a9565b801561094b5780601f106109205761010080835404028352916020019161094b565b820191906000526020600020905b81548152906001019060200180831161092e57829003601f168201915b505050505090806005018054610960906113a9565b80601f016020809104026020016040519081016040528092919081815260200182805461098c906113a9565b80156109d95780601f106109ae576101008083540402835291602001916109d9565b820191906000526020600020905b8154815290600101906020018083116109bc57829003601f168201915b5050505050908060060180546109ee906113a9565b80601f0160208091040260200160405190810160405280929190818152602001828054610a1a906113a9565b8015610a675780601f10610a3c57610100808354040283529160200191610a67565b820191906000526020600020905b815481529060010190602001808311610a4a57829003601f168201915b5050505050908060070154908060080160009054906101000a900460ff16905089565b6060600182604051610a9c9190611285565b90815260200160405180910390206000018054610ab8906113a9565b80601f0160208091040260200160405190810160405280929190818152602001828054610ae4906113a9565b8015610b315780601f10610b0657610100808354040283529160200191610b31565b820191906000526020600020905b815481529060010190602001808311610b1457829003601f168201915b50505050509050919050565b6000600254905090565b6000600182604051610b599190611285565b9081526020016040518091039020600701549050919050565b606060008203610bb9576040518060400160405280600181526020017f30000000000000000000000000000000000000000000000000000000000000008152509050610ccd565b600082905060005b60008214610beb578080610bd490611cb4565b915050600a82610be49190611d2b565b9150610bc1565b60008167ffffffffffffffff811115610c0757610c06610d01565b5b6040519080825280601f01601f191660200182016040528015610c395781602001600182028036833780820191505090505b5090505b60008514610cc657600182610c529190611d5c565b9150600a85610c619190611d90565b6030610c6d9190611dc1565b60f81b818381518110610c8357610c82611df5565b5b60200101907effffffffffffffffffffffffffffffffffffffffffffffffffffffffffffff1916908160001a905350600a85610cbf9190611d2b565b9450610c3d565b8093505050505b919050565b6000604051905090565b600080fd5b600080fd5b600080fd5b600080fd5b6000601f19601f8301169050919050565b7f4e487b7100000000000000000000000000000000000000000000000000000000600052604160045260246000fd5b610d3982610cf0565b810181811067ffffffffffffffff82111715610d5857610d57610d01565b5b80604052505050565b6000610d6b610cd2565b9050610d778282610d30565b919050565b600067ffffffffffffffff821115610d9757610d96610d01565b5b610da082610cf0565b9050602081019050919050565b82818337600083830152505050565b6000610dcf610dca84610d7c565b610d61565b905082815260208101848484011115610deb57610dea610ceb565b5b610df6848285610dad565b509392505050565b600082601f830112610e1357610e12610ce6565b5b8135610e23848260208601610dbc565b91505092915050565b600060208284031215610e4257610e41610cdc565b5b600082013567ffffffffffffffff811115610e6057610e5f610ce1565b5b610e6c84828501610dfe565b91505092915050565b60008115159050919050565b610e8a81610e75565b82525050565b6000602082019050610ea56000830184610e81565b92915050565b610eb481610e75565b8114610ebf57600080fd5b50565b600081359050610ed181610eab565b92915050565b60008060408385031215610eee57610eed610cdc565b5b600083013567ffffffffffffffff811115610f0c57610f0b610ce1565b5b610f1885828601610dfe565b9250506020610f2985828601610ec2565b9150509250929050565b600081519050919050565b600082825260208201905092915050565b60005b83811015610f6d578082015181840152602081019050610f52565b60008484015250505050565b6000610f8482610f33565b610f8e8185610f3e565b9350610f9e818560208601610f4f565b610fa781610cf0565b840191505092915050565b60006020820190508181036000830152610fcc8184610f79565b905092915050565b6000819050919050565b610fe781610fd4565b8114610ff257600080fd5b50565b60008135905061100481610fde565b92915050565b600080600080600080600080610100898b03121561102b5761102a610cdc565b5b600089013567ffffffffffffffff81111561104957611048610ce1565b5b6110558b828c01610dfe565b985050602089013567ffffffffffffffff81111561107657611075610ce1565b5b6110828b828c01610dfe565b975050604089013567ffffffffffffffff8111156110a3576110a2610ce1565b5b6110af8b828c01610dfe565b96505060606110c08b828c01610ff5565b955050608089013567ffffffffffffffff8111156110e1576110e0610ce1565b5b6110ed8b828c01610dfe565b94505060a089013567ffffffffffffffff81111561110e5761110d610ce1565b5b61111a8b828c01610dfe565b93505060c089013567ffffffffffffffff81111561113b5761113a610ce1565b5b6111478b828c01610dfe565b92505060e06111588b828c01610ff5565b9150509295985092959890939650565b61117181610fd4565b82525050565b6000610120820190508181036000830152611192818c610f79565b905081810360208301526111a6818b610f79565b905081810360408301526111ba818a610f79565b90506111c96060830189611168565b81810360808301526111db8188610f79565b905081810360a08301526111ef8187610f79565b905081810360c08301526112038186610f79565b905061121260e0830185611168565b611220610100830184610e81565b9a9950505050505050505050565b60006020820190506112436000830184611168565b92915050565b600081905092915050565b600061125f82610f33565b6112698185611249565b9350611279818560208601610f4f565b80840191505092915050565b60006112918284611254565b915081905092915050565b7f4c65204c6f74206e27657869737465207061732064616e73206c6120626c6f6360008201527f6b636861696e0000000000000000000000000000000000000000000000000000602082015250565b60006112f8602683610f3e565b91506113038261129c565b604082019050919050565b60006020820190508181036000830152611327816112eb565b9050919050565b7f436f6465206475206d61676173696e203a200000000000000000000000000000600082015250565b6000611364601283611249565b915061136f8261132e565b601282019050919050565b7f4e487b7100000000000000000000000000000000000000000000000000000000600052602260045260246000fd5b600060028204905060018216806113c157607f821691505b6020821081036113d4576113d361137a565b5b50919050565b60008190508160005260206000209050919050565b600081546113fc816113a9565b6114068186611249565b94506001821660008114611421576001811461143657611469565b60ff1983168652811515820286019350611469565b61143f856113da565b60005b8381101561146157815481890152600182019150602081019050611442565b838801955050505b50505092915050565b7f0a204e756d65726f204c6f743a20000000000000000000000000000000000000600082015250565b60006114a8600e83611249565b91506114b382611472565b600e82019050919050565b7f0a20436f6465204c6f743a200000000000000000000000000000000000000000600082015250565b60006114f4600c83611249565b91506114ff826114be565b600c82019050919050565b7f0a204e756d65726f20647520626f6e206465206c6976726169736f6e203a2000600082015250565b6000611540601f83611249565b915061154b8261150a565b601f82019050919050565b7f0a20506f6964733a200000000000000000000000000000000000000000000000600082015250565b600061158c600983611249565b915061159782611556565b600982019050919050565b7f6b670a204461746520642761727269766565206475206c6f743a200000000000600082015250565b60006115d8601b83611249565b91506115e3826115a2565b601b82019050919050565b7f0a2050726f76656e616e636520647520466f75726e697373657572203a200000600082015250565b6000611624601e83611249565b915061162f826115ee565b601e82019050919050565b7f0a20436f64652073616e697461697265203a2000000000000000000000000000600082015250565b6000611670601383611249565b915061167b8261163a565b601382019050919050565b7f0a2044697374616e63653a200000000000000000000000000000000000000000600082015250565b60006116bc600c83611249565b91506116c782611686565b600c82019050919050565b7f6b6d0a0000000000000000000000000000000000000000000000000000000000600082015250565b6000611708600383611249565b9150611713826116d2565b600382019050919050565b600061172982611357565b9150611735828d6113ef565b91506117408261149b565b915061174c828c6113ef565b9150611757826114e7565b9150611763828b6113ef565b915061176f828a6113ef565b915061177a82611533565b915061178682896113ef565b91506117918261157f565b915061179d8288611254565b91506117a8826115cb565b91506117b482876113ef565b91506117bf82611617565b91506117cb82866113ef565b91506117d682611663565b91506117e282856113ef565b91506117ed826116af565b91506117f98284611254565b9150611804826116fb565b91508190509b9a5050505050505050505050565b7f3c623e432765737420756e2070726f64756974207175692070726f7669656e7460008201527f206427756e20636972637569742064652070726f78696d6974653c2f623e0000602082015250565b6000611874603e83611249565b915061187f82611818565b603e82019050919050565b60006118968284611254565b91506118a182611867565b915081905092915050565b7f3c623e432765737420756e2070726f6475697420717569206e652070726f766960008201527f656e7420706173206427756e20636972637569742064652070726f78696d697460208201527f653c2f623e000000000000000000000000000000000000000000000000000000604082015250565b600061192e604583611249565b9150611939826118ac565b604582019050919050565b60006119508284611254565b915061195b82611921565b915081905092915050565b60006119728285611254565b915061197e8284611254565b91508190509392505050565b7f4c65206c6f74206578697374652064656a612064616e73206c6120626c6f636b60008201527f636861696e000000000000000000000000000000000000000000000000000000602082015250565b60006119e6602583610f3e565b91506119f18261198a565b604082019050919050565b60006020820190508181036000830152611a15816119d9565b9050919050565b60006020601f8301049050919050565b600082821b905092915050565b600060088302611a697fffffffffffffffffffffffffffffffffffffffffffffffffffffffffffffffff82611a2c565b611a738683611a2c565b95508019841693508086168417925050509392505050565b6000819050919050565b6000611ab0611aab611aa684610fd4565b611a8b565b610fd4565b9050919050565b6000819050919050565b611aca83611a95565b611ade611ad682611ab7565b848454611a39565b825550505050565b600090565b611af3611ae6565b611afe818484611ac1565b505050565b5b81811015611b2257611b17600082611aeb565b600181019050611b04565b5050565b601f821115611b6757611b38816113da565b611b4184611a1c565b81016020851015611b50578190505b611b64611b5c85611a1c565b830182611b03565b50505b505050565b600082821c905092915050565b6000611b8a60001984600802611b6c565b1980831691505092915050565b6000611ba38383611b79565b9150826002028217905092915050565b611bbc82610f33565b67ffffffffffffffff811115611bd557611bd4610d01565b5b611bdf82546113a9565b611bea828285611b26565b600060209050601f831160018114611c1d5760008415611c0b578287015190505b611c158582611b97565b865550611c7d565b601f198416611c2b866113da565b60005b82811015611c5357848901518255600182019150602085019450602081019050611c2e565b86831015611c705784890151611c6c601f891682611b79565b8355505b6001600288020188555050505b505050505050565b7f4e487b7100000000000000000000000000000000000000000000000000000000600052601160045260246000fd5b6000611cbf82610fd4565b91507fffffffffffffffffffffffffffffffffffffffffffffffffffffffffffffffff8203611cf157611cf0611c85565b5b600182019050919050565b7f4e487b7100000000000000000000000000000000000000000000000000000000600052601260045260246000fd5b6000611d3682610fd4565b9150611d4183610fd4565b925082611d5157611d50611cfc565b5b828204905092915050565b6000611d6782610fd4565b9150611d7283610fd4565b9250828203905081811115611d8a57611d89611c85565b5b92915050565b6000611d9b82610fd4565b9150611da683610fd4565b925082611db657611db5611cfc565b5b828206905092915050565b6000611dcc82610fd4565b9150611dd783610fd4565b9250828201905080821115611def57611dee611c85565b5b92915050565b7f4e487b7100000000000000000000000000000000000000000000000000000000600052603260045260246000fdfea2646970667358221220552930f9ca0803f55bb2c71eae1aa930455a90a5908d74ebb5e1e140f073d5b464736f6c63430008110033",
					"opcodes": "PUSH1 0x80 PUSH1 0x40 MSTORE PUSH1 0x0 PUSH1 0x2 SSTORE CALLVALUE DUP1 ISZERO PUSH2 0x15 JUMPI PUSH1 0x0 DUP1 REVERT JUMPDEST POP CALLER PUSH1 0x0 DUP1 PUSH2 0x100 EXP DUP2 SLOAD DUP2 PUSH20 0xFFFFFFFFFFFFFFFFFFFFFFFFFFFFFFFFFFFFFFFF MUL NOT AND SWAP1 DUP4 PUSH20 0xFFFFFFFFFFFFFFFFFFFFFFFFFFFFFFFFFFFFFFFF AND MUL OR SWAP1 SSTORE POP PUSH2 0x1E5A DUP1 PUSH2 0x65 PUSH1 0x0 CODECOPY PUSH1 0x0 RETURN INVALID PUSH1 0x80 PUSH1 0x40 MSTORE CALLVALUE DUP1 ISZERO PUSH2 0x10 JUMPI PUSH1 0x0 DUP1 REVERT JUMPDEST POP PUSH1 0x4 CALLDATASIZE LT PUSH2 0x9E JUMPI PUSH1 0x0 CALLDATALOAD PUSH1 0xE0 SHR DUP1 PUSH4 0x92F8087E GT PUSH2 0x66 JUMPI DUP1 PUSH4 0x92F8087E EQ PUSH2 0x16B JUMPI DUP1 PUSH4 0xE2D66992 EQ PUSH2 0x187 JUMPI DUP1 PUSH4 0xED0BF0F1 EQ PUSH2 0x1BF JUMPI DUP1 PUSH4 0xF11B344E EQ PUSH2 0x1EF JUMPI DUP1 PUSH4 0xF560026F EQ PUSH2 0x20D JUMPI PUSH2 0x9E JUMP JUMPDEST DUP1 PUSH4 0x261A323E EQ PUSH2 0xA3 JUMPI DUP1 PUSH4 0x4898C5AB EQ PUSH2 0xD3 JUMPI DUP1 PUSH4 0x53BDEC8F EQ PUSH2 0xEF JUMPI DUP1 PUSH4 0x79A2D3F1 EQ PUSH2 0x11F JUMPI DUP1 PUSH4 0x7B9B5209 EQ PUSH2 0x14F JUMPI JUMPDEST PUSH1 0x0 DUP1 REVERT JUMPDEST PUSH2 0xBD PUSH1 0x4 DUP1 CALLDATASIZE SUB DUP2 ADD SWAP1 PUSH2 0xB8 SWAP2 SWAP1 PUSH2 0xE2C JUMP JUMPDEST PUSH2 0x23D JUMP JUMPDEST PUSH1 0x40 MLOAD PUSH2 0xCA SWAP2 SWAP1 PUSH2 0xE90 JUMP JUMPDEST PUSH1 0x40 MLOAD DUP1 SWAP2 SUB SWAP1 RETURN JUMPDEST PUSH2 0xED PUSH1 0x4 DUP1 CALLDATASIZE SUB DUP2 ADD SWAP1 PUSH2 0xE8 SWAP2 SWAP1 PUSH2 0xED7 JUMP JUMPDEST PUSH2 0x26A JUMP JUMPDEST STOP JUMPDEST PUSH2 0x109 PUSH1 0x4 DUP1 CALLDATASIZE SUB DUP2 ADD SWAP1 PUSH2 0x104 SWAP2 SWAP1 PUSH2 0xE2C JUMP JUMPDEST PUSH2 0x2A7 JUMP JUMPDEST PUSH1 0x40 MLOAD PUSH2 0x116 SWAP2 SWAP1 PUSH2 0xE90 JUMP JUMPDEST PUSH1 0x40 MLOAD DUP1 SWAP2 SUB SWAP1 RETURN JUMPDEST PUSH2 0x139 PUSH1 0x4 DUP1 CALLDATASIZE SUB DUP2 ADD SWAP1 PUSH2 0x134 SWAP2 SWAP1 PUSH2 0xE2C JUMP JUMPDEST PUSH2 0x2DF JUMP JUMPDEST PUSH1 0x40 MLOAD PUSH2 0x146 SWAP2 SWAP1 PUSH2 0xFB2 JUMP JUMPDEST PUSH1 0x40 MLOAD DUP1 SWAP2 SUB SWAP1 RETURN JUMPDEST PUSH2 0x169 PUSH1 0x4 DUP1 CALLDATASIZE SUB DUP2 ADD SWAP1 PUSH2 0x164 SWAP2 SWAP1 PUSH2 0xE2C JUMP JUMPDEST PUSH2 0x512 JUMP JUMPDEST STOP JUMPDEST PUSH2 0x185 PUSH1 0x4 DUP1 CALLDATASIZE SUB DUP2 ADD SWAP1 PUSH2 0x180 SWAP2 SWAP1 PUSH2 0x100A JUMP JUMPDEST PUSH2 0x531 JUMP JUMPDEST STOP JUMPDEST PUSH2 0x1A1 PUSH1 0x4 DUP1 CALLDATASIZE SUB DUP2 ADD SWAP1 PUSH2 0x19C SWAP2 SWAP1 PUSH2 0xE2C JUMP JUMPDEST PUSH2 0x6E9 JUMP JUMPDEST PUSH1 0x40 MLOAD PUSH2 0x1B6 SWAP10 SWAP9 SWAP8 SWAP7 SWAP6 SWAP5 SWAP4 SWAP3 SWAP2 SWAP1 PUSH2 0x1177 JUMP JUMPDEST PUSH1 0x40 MLOAD DUP1 SWAP2 SUB SWAP1 RETURN JUMPDEST PUSH2 0x1D9 PUSH1 0x4 DUP1 CALLDATASIZE SUB DUP2 ADD SWAP1 PUSH2 0x1D4 SWAP2 SWAP1 PUSH2 0xE2C JUMP JUMPDEST PUSH2 0xA8A JUMP JUMPDEST PUSH1 0x40 MLOAD PUSH2 0x1E6 SWAP2 SWAP1 PUSH2 0xFB2 JUMP JUMPDEST PUSH1 0x40 MLOAD DUP1 SWAP2 SUB SWAP1 RETURN JUMPDEST PUSH2 0x1F7 PUSH2 0xB3D JUMP JUMPDEST PUSH1 0x40 MLOAD PUSH2 0x204 SWAP2 SWAP1 PUSH2 0x122E JUMP JUMPDEST PUSH1 0x40 MLOAD DUP1 SWAP2 SUB SWAP1 RETURN JUMPDEST PUSH2 0x227 PUSH1 0x4 DUP1 CALLDATASIZE SUB DUP2 ADD SWAP1 PUSH2 0x222 SWAP2 SWAP1 PUSH2 0xE2C JUMP JUMPDEST PUSH2 0xB47 JUMP JUMPDEST PUSH1 0x40 MLOAD PUSH2 0x234 SWAP2 SWAP1 PUSH2 0x122E JUMP JUMPDEST PUSH1 0x40 MLOAD DUP1 SWAP2 SUB SWAP1 RETURN JUMPDEST PUSH1 0x0 DUP1 PUSH1 0x1 DUP4 PUSH1 0x40 MLOAD PUSH2 0x250 SWAP2 SWAP1 PUSH2 0x1285 JUMP JUMPDEST SWAP1 DUP2 MSTORE PUSH1 0x20 ADD PUSH1 0x40 MLOAD DUP1 SWAP2 SUB SWAP1 KECCAK256 PUSH1 0x7 ADD SLOAD GT SWAP1 POP SWAP2 SWAP1 POP JUMP JUMPDEST DUP1 PUSH1 0x1 DUP4 PUSH1 0x40 MLOAD PUSH2 0x27B SWAP2 SWAP1 PUSH2 0x1285 JUMP JUMPDEST SWAP1 DUP2 MSTORE PUSH1 0x20 ADD PUSH1 0x40 MLOAD DUP1 SWAP2 SUB SWAP1 KECCAK256 PUSH1 0x8 ADD PUSH1 0x0 PUSH2 0x100 EXP DUP2 SLOAD DUP2 PUSH1 0xFF MUL NOT AND SWAP1 DUP4 ISZERO ISZERO MUL OR SWAP1 SSTORE POP POP POP JUMP JUMPDEST PUSH1 0x0 PUSH1 0x1 DUP3 PUSH1 0x40 MLOAD PUSH2 0x2B9 SWAP2 SWAP1 PUSH2 0x1285 JUMP JUMPDEST SWAP1 DUP2 MSTORE PUSH1 0x20 ADD PUSH1 0x40 MLOAD DUP1 SWAP2 SUB SWAP1 KECCAK256 PUSH1 0x8 ADD PUSH1 0x0 SWAP1 SLOAD SWAP1 PUSH2 0x100 EXP SWAP1 DIV PUSH1 0xFF AND SWAP1 POP SWAP2 SWAP1 POP JUMP JUMPDEST PUSH1 0x60 PUSH2 0x2EA DUP3 PUSH2 0x23D JUMP JUMPDEST PUSH2 0x329 JUMPI PUSH1 0x40 MLOAD PUSH32 0x8C379A000000000000000000000000000000000000000000000000000000000 DUP2 MSTORE PUSH1 0x4 ADD PUSH2 0x320 SWAP1 PUSH2 0x130E JUMP JUMPDEST PUSH1 0x40 MLOAD DUP1 SWAP2 SUB SWAP1 REVERT JUMPDEST PUSH1 0x0 PUSH1 0x1 DUP4 PUSH1 0x40 MLOAD PUSH2 0x33B SWAP2 SWAP1 PUSH2 0x1285 JUMP JUMPDEST SWAP1 DUP2 MSTORE PUSH1 0x20 ADD PUSH1 0x40 MLOAD DUP1 SWAP2 SUB SWAP1 KECCAK256 PUSH1 0x0 ADD PUSH1 0x1 DUP5 PUSH1 0x40 MLOAD PUSH2 0x35C SWAP2 SWAP1 PUSH2 0x1285 JUMP JUMPDEST SWAP1 DUP2 MSTORE PUSH1 0x20 ADD PUSH1 0x40 MLOAD DUP1 SWAP2 SUB SWAP1 KECCAK256 PUSH1 0x1 ADD PUSH1 0x1 DUP6 PUSH1 0x40 MLOAD PUSH2 0x37D SWAP2 SWAP1 PUSH2 0x1285 JUMP JUMPDEST SWAP1 DUP2 MSTORE PUSH1 0x20 ADD PUSH1 0x40 MLOAD DUP1 SWAP2 SUB SWAP1 KECCAK256 PUSH1 0x0 ADD PUSH1 0x1 DUP7 PUSH1 0x40 MLOAD PUSH2 0x39E SWAP2 SWAP1 PUSH2 0x1285 JUMP JUMPDEST SWAP1 DUP2 MSTORE PUSH1 0x20 ADD PUSH1 0x40 MLOAD DUP1 SWAP2 SUB SWAP1 KECCAK256 PUSH1 0x1 ADD PUSH1 0x1 DUP8 PUSH1 0x40 MLOAD PUSH2 0x3BF SWAP2 SWAP1 PUSH2 0x1285 JUMP JUMPDEST SWAP1 DUP2 MSTORE PUSH1 0x20 ADD PUSH1 0x40 MLOAD DUP1 SWAP2 SUB SWAP1 KECCAK256 PUSH1 0x2 ADD PUSH2 0x3FA PUSH1 0x1 DUP10 PUSH1 0x40 MLOAD PUSH2 0x3E3 SWAP2 SWAP1 PUSH2 0x1285 JUMP JUMPDEST SWAP1 DUP2 MSTORE PUSH1 0x20 ADD PUSH1 0x40 MLOAD DUP1 SWAP2 SUB SWAP1 KECCAK256 PUSH1 0x3 ADD SLOAD PUSH2 0xB72 JUMP JUMPDEST PUSH1 0x1 DUP10 PUSH1 0x40 MLOAD PUSH2 0x40A SWAP2 SWAP1 PUSH2 0x1285 JUMP JUMPDEST SWAP1 DUP2 MSTORE PUSH1 0x20 ADD PUSH1 0x40 MLOAD DUP1 SWAP2 SUB SWAP1 KECCAK256 PUSH1 0x4 ADD PUSH1 0x1 DUP11 PUSH1 0x40 MLOAD PUSH2 0x42B SWAP2 SWAP1 PUSH2 0x1285 JUMP JUMPDEST SWAP1 DUP2 MSTORE PUSH1 0x20 ADD PUSH1 0x40 MLOAD DUP1 SWAP2 SUB SWAP1 KECCAK256 PUSH1 0x5 ADD PUSH1 0x1 DUP12 PUSH1 0x40 MLOAD PUSH2 0x44C SWAP2 SWAP1 PUSH2 0x1285 JUMP JUMPDEST SWAP1 DUP2 MSTORE PUSH1 0x20 ADD PUSH1 0x40 MLOAD DUP1 SWAP2 SUB SWAP1 KECCAK256 PUSH1 0x6 ADD PUSH2 0x487 PUSH1 0x1 DUP14 PUSH1 0x40 MLOAD PUSH2 0x470 SWAP2 SWAP1 PUSH2 0x1285 JUMP JUMPDEST SWAP1 DUP2 MSTORE PUSH1 0x20 ADD PUSH1 0x40 MLOAD DUP1 SWAP2 SUB SWAP1 KECCAK256 PUSH1 0x7 ADD SLOAD PUSH2 0xB72 JUMP JUMPDEST PUSH1 0x40 MLOAD PUSH1 0x20 ADD PUSH2 0x4A0 SWAP11 SWAP10 SWAP9 SWAP8 SWAP7 SWAP6 SWAP5 SWAP4 SWAP3 SWAP2 SWAP1 PUSH2 0x171E JUMP JUMPDEST PUSH1 0x40 MLOAD PUSH1 0x20 DUP2 DUP4 SUB SUB DUP2 MSTORE SWAP1 PUSH1 0x40 MSTORE SWAP1 POP PUSH2 0x4BA DUP4 PUSH2 0x2A7 JUMP JUMPDEST ISZERO PUSH2 0x4E6 JUMPI DUP1 PUSH1 0x40 MLOAD PUSH1 0x20 ADD PUSH2 0x4D0 SWAP2 SWAP1 PUSH2 0x188A JUMP JUMPDEST PUSH1 0x40 MLOAD PUSH1 0x20 DUP2 DUP4 SUB SUB DUP2 MSTORE SWAP1 PUSH1 0x40 MSTORE SWAP1 POP PUSH2 0x509 JUMP JUMPDEST DUP1 PUSH1 0x40 MLOAD PUSH1 0x20 ADD PUSH2 0x4F7 SWAP2 SWAP1 PUSH2 0x1944 JUMP JUMPDEST PUSH1 0x40 MLOAD PUSH1 0x20 DUP2 DUP4 SUB SUB DUP2 MSTORE SWAP1 PUSH1 0x40 MSTORE SWAP1 POP JUMPDEST DUP1 SWAP2 POP POP SWAP2 SWAP1 POP JUMP JUMPDEST PUSH1 0x50 PUSH2 0x51D DUP3 PUSH2 0xB47 JUMP JUMPDEST GT PUSH2 0x52E JUMPI PUSH2 0x52D DUP2 PUSH1 0x1 PUSH2 0x26A JUMP JUMPDEST JUMPDEST POP JUMP JUMPDEST PUSH1 0x0 DUP9 DUP9 PUSH1 0x40 MLOAD PUSH1 0x20 ADD PUSH2 0x546 SWAP3 SWAP2 SWAP1 PUSH2 0x1966 JUMP JUMPDEST PUSH1 0x40 MLOAD PUSH1 0x20 DUP2 DUP4 SUB SUB DUP2 MSTORE SWAP1 PUSH1 0x40 MSTORE SWAP1 POP PUSH2 0x560 DUP2 PUSH2 0x23D JUMP JUMPDEST ISZERO PUSH2 0x5A0 JUMPI PUSH1 0x40 MLOAD PUSH32 0x8C379A000000000000000000000000000000000000000000000000000000000 DUP2 MSTORE PUSH1 0x4 ADD PUSH2 0x597 SWAP1 PUSH2 0x19FC JUMP JUMPDEST PUSH1 0x40 MLOAD DUP1 SWAP2 SUB SWAP1 REVERT JUMPDEST PUSH1 0x40 MLOAD DUP1 PUSH2 0x120 ADD PUSH1 0x40 MSTORE DUP1 DUP11 DUP2 MSTORE PUSH1 0x20 ADD DUP10 DUP2 MSTORE PUSH1 0x20 ADD DUP9 DUP2 MSTORE PUSH1 0x20 ADD DUP8 DUP2 MSTORE PUSH1 0x20 ADD DUP7 DUP2 MSTORE PUSH1 0x20 ADD DUP6 DUP2 MSTORE PUSH1 0x20 ADD DUP5 DUP2 MSTORE PUSH1 0x20 ADD DUP4 DUP2 MSTORE PUSH1 0x20 ADD PUSH1 0x0 ISZERO ISZERO DUP2 MSTORE POP PUSH1 0x1 DUP3 PUSH1 0x40 MLOAD PUSH2 0x5F3 SWAP2 SWAP1 PUSH2 0x1285 JUMP JUMPDEST SWAP1 DUP2 MSTORE PUSH1 0x20 ADD PUSH1 0x40 MLOAD DUP1 SWAP2 SUB SWAP1 KECCAK256 PUSH1 0x0 DUP3 ADD MLOAD DUP2 PUSH1 0x0 ADD SWAP1 DUP2 PUSH2 0x616 SWAP2 SWAP1 PUSH2 0x1BB3 JUMP JUMPDEST POP PUSH1 0x20 DUP3 ADD MLOAD DUP2 PUSH1 0x1 ADD SWAP1 DUP2 PUSH2 0x62C SWAP2 SWAP1 PUSH2 0x1BB3 JUMP JUMPDEST POP PUSH1 0x40 DUP3 ADD MLOAD DUP2 PUSH1 0x2 ADD SWAP1 DUP2 PUSH2 0x642 SWAP2 SWAP1 PUSH2 0x1BB3 JUMP JUMPDEST POP PUSH1 0x60 DUP3 ADD MLOAD DUP2 PUSH1 0x3 ADD SSTORE PUSH1 0x80 DUP3 ADD MLOAD DUP2 PUSH1 0x4 ADD SWAP1 DUP2 PUSH2 0x662 SWAP2 SWAP1 PUSH2 0x1BB3 JUMP JUMPDEST POP PUSH1 0xA0 DUP3 ADD MLOAD DUP2 PUSH1 0x5 ADD SWAP1 DUP2 PUSH2 0x678 SWAP2 SWAP1 PUSH2 0x1BB3 JUMP JUMPDEST POP PUSH1 0xC0 DUP3 ADD MLOAD DUP2 PUSH1 0x6 ADD SWAP1 DUP2 PUSH2 0x68E SWAP2 SWAP1 PUSH2 0x1BB3 JUMP JUMPDEST POP PUSH1 0xE0 DUP3 ADD MLOAD DUP2 PUSH1 0x7 ADD SSTORE PUSH2 0x100 DUP3 ADD MLOAD DUP2 PUSH1 0x8 ADD PUSH1 0x0 PUSH2 0x100 EXP DUP2 SLOAD DUP2 PUSH1 0xFF MUL NOT AND SWAP1 DUP4 ISZERO ISZERO MUL OR SWAP1 SSTORE POP SWAP1 POP POP PUSH1 0x2 PUSH1 0x0 DUP2 SLOAD DUP1 SWAP3 SWAP2 SWAP1 PUSH2 0x6D0 SWAP1 PUSH2 0x1CB4 JUMP JUMPDEST SWAP2 SWAP1 POP SSTORE POP PUSH2 0x6DE DUP2 PUSH2 0x512 JUMP JUMPDEST POP POP POP POP POP POP POP POP POP JUMP JUMPDEST PUSH1 0x1 DUP2 DUP1 MLOAD PUSH1 0x20 DUP2 ADD DUP3 ADD DUP1 MLOAD DUP5 DUP3 MSTORE PUSH1 0x20 DUP4 ADD PUSH1 0x20 DUP6 ADD KECCAK256 DUP2 DUP4 MSTORE DUP1 SWAP6 POP POP POP POP POP POP PUSH1 0x0 SWAP2 POP SWAP1 POP DUP1 PUSH1 0x0 ADD DUP1 SLOAD PUSH2 0x722 SWAP1 PUSH2 0x13A9 JUMP JUMPDEST DUP1 PUSH1 0x1F ADD PUSH1 0x20 DUP1 SWAP2 DIV MUL PUSH1 0x20 ADD PUSH1 0x40 MLOAD SWAP1 DUP2 ADD PUSH1 0x40 MSTORE DUP1 SWAP3 SWAP2 SWAP1 DUP2 DUP2 MSTORE PUSH1 0x20 ADD DUP3 DUP1 SLOAD PUSH2 0x74E SWAP1 PUSH2 0x13A9 JUMP JUMPDEST DUP1 ISZERO PUSH2 0x79B JUMPI DUP1 PUSH1 0x1F LT PUSH2 0x770 JUMPI PUSH2 0x100 DUP1 DUP4 SLOAD DIV MUL DUP4 MSTORE SWAP2 PUSH1 0x20 ADD SWAP2 PUSH2 0x79B JUMP JUMPDEST DUP3 ADD SWAP2 SWAP1 PUSH1 0x0 MSTORE PUSH1 0x20 PUSH1 0x0 KECCAK256 SWAP1 JUMPDEST DUP2 SLOAD DUP2 MSTORE SWAP1 PUSH1 0x1 ADD SWAP1 PUSH1 0x20 ADD DUP1 DUP4 GT PUSH2 0x77E JUMPI DUP3 SWAP1 SUB PUSH1 0x1F AND DUP3 ADD SWAP2 JUMPDEST POP POP POP POP POP SWAP1 DUP1 PUSH1 0x1 ADD DUP1 SLOAD PUSH2 0x7B0 SWAP1 PUSH2 0x13A9 JUMP JUMPDEST DUP1 PUSH1 0x1F ADD PUSH1 0x20 DUP1 SWAP2 DIV MUL PUSH1 0x20 ADD PUSH1 0x40 MLOAD SWAP1 DUP2 ADD PUSH1 0x40 MSTORE DUP1 SWAP3 SWAP2 SWAP1 DUP2 DUP2 MSTORE PUSH1 0x20 ADD DUP3 DUP1 SLOAD PUSH2 0x7DC SWAP1 PUSH2 0x13A9 JUMP JUMPDEST DUP1 ISZERO PUSH2 0x829 JUMPI DUP1 PUSH1 0x1F LT PUSH2 0x7FE JUMPI PUSH2 0x100 DUP1 DUP4 SLOAD DIV MUL DUP4 MSTORE SWAP2 PUSH1 0x20 ADD SWAP2 PUSH2 0x829 JUMP JUMPDEST DUP3 ADD SWAP2 SWAP1 PUSH1 0x0 MSTORE PUSH1 0x20 PUSH1 0x0 KECCAK256 SWAP1 JUMPDEST DUP2 SLOAD DUP2 MSTORE SWAP1 PUSH1 0x1 ADD SWAP1 PUSH1 0x20 ADD DUP1 DUP4 GT PUSH2 0x80C JUMPI DUP3 SWAP1 SUB PUSH1 0x1F AND DUP3 ADD SWAP2 JUMPDEST POP POP POP POP POP SWAP1 DUP1 PUSH1 0x2 ADD DUP1 SLOAD PUSH2 0x83E SWAP1 PUSH2 0x13A9 JUMP JUMPDEST DUP1 PUSH1 0x1F ADD PUSH1 0x20 DUP1 SWAP2 DIV MUL PUSH1 0x20 ADD PUSH1 0x40 MLOAD SWAP1 DUP2 ADD PUSH1 0x40 MSTORE DUP1 SWAP3 SWAP2 SWAP1 DUP2 DUP2 MSTORE PUSH1 0x20 ADD DUP3 DUP1 SLOAD PUSH2 0x86A SWAP1 PUSH2 0x13A9 JUMP JUMPDEST DUP1 ISZERO PUSH2 0x8B7 JUMPI DUP1 PUSH1 0x1F LT PUSH2 0x88C JUMPI PUSH2 0x100 DUP1 DUP4 SLOAD DIV MUL DUP4 MSTORE SWAP2 PUSH1 0x20 ADD SWAP2 PUSH2 0x8B7 JUMP JUMPDEST DUP3 ADD SWAP2 SWAP1 PUSH1 0x0 MSTORE PUSH1 0x20 PUSH1 0x0 KECCAK256 SWAP1 JUMPDEST DUP2 SLOAD DUP2 MSTORE SWAP1 PUSH1 0x1 ADD SWAP1 PUSH1 0x20 ADD DUP1 DUP4 GT PUSH2 0x89A JUMPI DUP3 SWAP1 SUB PUSH1 0x1F AND DUP3 ADD SWAP2 JUMPDEST POP POP POP POP POP SWAP1 DUP1 PUSH1 0x3 ADD SLOAD SWAP1 DUP1 PUSH1 0x4 ADD DUP1 SLOAD PUSH2 0x8D2 SWAP1 PUSH2 0x13A9 JUMP JUMPDEST DUP1 PUSH1 0x1F ADD PUSH1 0x20 DUP1 SWAP2 DIV MUL PUSH1 0x20 ADD PUSH1 0x40 MLOAD SWAP1 DUP2 ADD PUSH1 0x40 MSTORE DUP1 SWAP3 SWAP2 SWAP1 DUP2 DUP2 MSTORE PUSH1 0x20 ADD DUP3 DUP1 SLOAD PUSH2 0x8FE SWAP1 PUSH2 0x13A9 JUMP JUMPDEST DUP1 ISZERO PUSH2 0x94B JUMPI DUP1 PUSH1 0x1F LT PUSH2 0x920 JUMPI PUSH2 0x100 DUP1 DUP4 SLOAD DIV MUL DUP4 MSTORE SWAP2 PUSH1 0x20 ADD SWAP2 PUSH2 0x94B JUMP JUMPDEST DUP3 ADD SWAP2 SWAP1 PUSH1 0x0 MSTORE PUSH1 0x20 PUSH1 0x0 KECCAK256 SWAP1 JUMPDEST DUP2 SLOAD DUP2 MSTORE SWAP1 PUSH1 0x1 ADD SWAP1 PUSH1 0x20 ADD DUP1 DUP4 GT PUSH2 0x92E JUMPI DUP3 SWAP1 SUB PUSH1 0x1F AND DUP3 ADD SWAP2 JUMPDEST POP POP POP POP POP SWAP1 DUP1 PUSH1 0x5 ADD DUP1 SLOAD PUSH2 0x960 SWAP1 PUSH2 0x13A9 JUMP JUMPDEST DUP1 PUSH1 0x1F ADD PUSH1 0x20 DUP1 SWAP2 DIV MUL PUSH1 0x20 ADD PUSH1 0x40 MLOAD SWAP1 DUP2 ADD PUSH1 0x40 MSTORE DUP1 SWAP3 SWAP2 SWAP1 DUP2 DUP2 MSTORE PUSH1 0x20 ADD DUP3 DUP1 SLOAD PUSH2 0x98C SWAP1 PUSH2 0x13A9 JUMP JUMPDEST DUP1 ISZERO PUSH2 0x9D9 JUMPI DUP1 PUSH1 0x1F LT PUSH2 0x9AE JUMPI PUSH2 0x100 DUP1 DUP4 SLOAD DIV MUL DUP4 MSTORE SWAP2 PUSH1 0x20 ADD SWAP2 PUSH2 0x9D9 JUMP JUMPDEST DUP3 ADD SWAP2 SWAP1 PUSH1 0x0 MSTORE PUSH1 0x20 PUSH1 0x0 KECCAK256 SWAP1 JUMPDEST DUP2 SLOAD DUP2 MSTORE SWAP1 PUSH1 0x1 ADD SWAP1 PUSH1 0x20 ADD DUP1 DUP4 GT PUSH2 0x9BC JUMPI DUP3 SWAP1 SUB PUSH1 0x1F AND DUP3 ADD SWAP2 JUMPDEST POP POP POP POP POP SWAP1 DUP1 PUSH1 0x6 ADD DUP1 SLOAD PUSH2 0x9EE SWAP1 PUSH2 0x13A9 JUMP JUMPDEST DUP1 PUSH1 0x1F ADD PUSH1 0x20 DUP1 SWAP2 DIV MUL PUSH1 0x20 ADD PUSH1 0x40 MLOAD SWAP1 DUP2 ADD PUSH1 0x40 MSTORE DUP1 SWAP3 SWAP2 SWAP1 DUP2 DUP2 MSTORE PUSH1 0x20 ADD DUP3 DUP1 SLOAD PUSH2 0xA1A SWAP1 PUSH2 0x13A9 JUMP JUMPDEST DUP1 ISZERO PUSH2 0xA67 JUMPI DUP1 PUSH1 0x1F LT PUSH2 0xA3C JUMPI PUSH2 0x100 DUP1 DUP4 SLOAD DIV MUL DUP4 MSTORE SWAP2 PUSH1 0x20 ADD SWAP2 PUSH2 0xA67 JUMP JUMPDEST DUP3 ADD SWAP2 SWAP1 PUSH1 0x0 MSTORE PUSH1 0x20 PUSH1 0x0 KECCAK256 SWAP1 JUMPDEST DUP2 SLOAD DUP2 MSTORE SWAP1 PUSH1 0x1 ADD SWAP1 PUSH1 0x20 ADD DUP1 DUP4 GT PUSH2 0xA4A JUMPI DUP3 SWAP1 SUB PUSH1 0x1F AND DUP3 ADD SWAP2 JUMPDEST POP POP POP POP POP SWAP1 DUP1 PUSH1 0x7 ADD SLOAD SWAP1 DUP1 PUSH1 0x8 ADD PUSH1 0x0 SWAP1 SLOAD SWAP1 PUSH2 0x100 EXP SWAP1 DIV PUSH1 0xFF AND SWAP1 POP DUP10 JUMP JUMPDEST PUSH1 0x60 PUSH1 0x1 DUP3 PUSH1 0x40 MLOAD PUSH2 0xA9C SWAP2 SWAP1 PUSH2 0x1285 JUMP JUMPDEST SWAP1 DUP2 MSTORE PUSH1 0x20 ADD PUSH1 0x40 MLOAD DUP1 SWAP2 SUB SWAP1 KECCAK256 PUSH1 0x0 ADD DUP1 SLOAD PUSH2 0xAB8 SWAP1 PUSH2 0x13A9 JUMP JUMPDEST DUP1 PUSH1 0x1F ADD PUSH1 0x20 DUP1 SWAP2 DIV MUL PUSH1 0x20 ADD PUSH1 0x40 MLOAD SWAP1 DUP2 ADD PUSH1 0x40 MSTORE DUP1 SWAP3 SWAP2 SWAP1 DUP2 DUP2 MSTORE PUSH1 0x20 ADD DUP3 DUP1 SLOAD PUSH2 0xAE4 SWAP1 PUSH2 0x13A9 JUMP JUMPDEST DUP1 ISZERO PUSH2 0xB31 JUMPI DUP1 PUSH1 0x1F LT PUSH2 0xB06 JUMPI PUSH2 0x100 DUP1 DUP4 SLOAD DIV MUL DUP4 MSTORE SWAP2 PUSH1 0x20 ADD SWAP2 PUSH2 0xB31 JUMP JUMPDEST DUP3 ADD SWAP2 SWAP1 PUSH1 0x0 MSTORE PUSH1 0x20 PUSH1 0x0 KECCAK256 SWAP1 JUMPDEST DUP2 SLOAD DUP2 MSTORE SWAP1 PUSH1 0x1 ADD SWAP1 PUSH1 0x20 ADD DUP1 DUP4 GT PUSH2 0xB14 JUMPI DUP3 SWAP1 SUB PUSH1 0x1F AND DUP3 ADD SWAP2 JUMPDEST POP POP POP POP POP SWAP1 POP SWAP2 SWAP1 POP JUMP JUMPDEST PUSH1 0x0 PUSH1 0x2 SLOAD SWAP1 POP SWAP1 JUMP JUMPDEST PUSH1 0x0 PUSH1 0x1 DUP3 PUSH1 0x40 MLOAD PUSH2 0xB59 SWAP2 SWAP1 PUSH2 0x1285 JUMP JUMPDEST SWAP1 DUP2 MSTORE PUSH1 0x20 ADD PUSH1 0x40 MLOAD DUP1 SWAP2 SUB SWAP1 KECCAK256 PUSH1 0x7 ADD SLOAD SWAP1 POP SWAP2 SWAP1 POP JUMP JUMPDEST PUSH1 0x60 PUSH1 0x0 DUP3 SUB PUSH2 0xBB9 JUMPI PUSH1 0x40 MLOAD DUP1 PUSH1 0x40 ADD PUSH1 0x40 MSTORE DUP1 PUSH1 0x1 DUP2 MSTORE PUSH1 0x20 ADD PUSH32 0x3000000000000000000000000000000000000000000000000000000000000000 DUP2 MSTORE POP SWAP1 POP PUSH2 0xCCD JUMP JUMPDEST PUSH1 0x0 DUP3 SWAP1 POP PUSH1 0x0 JUMPDEST PUSH1 0x0 DUP3 EQ PUSH2 0xBEB JUMPI DUP1 DUP1 PUSH2 0xBD4 SWAP1 PUSH2 0x1CB4 JUMP JUMPDEST SWAP2 POP POP PUSH1 0xA DUP3 PUSH2 0xBE4 SWAP2 SWAP1 PUSH2 0x1D2B JUMP JUMPDEST SWAP2 POP PUSH2 0xBC1 JUMP JUMPDEST PUSH1 0x0 DUP2 PUSH8 0xFFFFFFFFFFFFFFFF DUP2 GT ISZERO PUSH2 0xC07 JUMPI PUSH2 0xC06 PUSH2 0xD01 JUMP JUMPDEST JUMPDEST PUSH1 0x40 MLOAD SWAP1 DUP1 DUP3 MSTORE DUP1 PUSH1 0x1F ADD PUSH1 0x1F NOT AND PUSH1 0x20 ADD DUP3 ADD PUSH1 0x40 MSTORE DUP1 ISZERO PUSH2 0xC39 JUMPI DUP2 PUSH1 0x20 ADD PUSH1 0x1 DUP3 MUL DUP1 CALLDATASIZE DUP4 CALLDATACOPY DUP1 DUP3 ADD SWAP2 POP POP SWAP1 POP JUMPDEST POP SWAP1 POP JUMPDEST PUSH1 0x0 DUP6 EQ PUSH2 0xCC6 JUMPI PUSH1 0x1 DUP3 PUSH2 0xC52 SWAP2 SWAP1 PUSH2 0x1D5C JUMP JUMPDEST SWAP2 POP PUSH1 0xA DUP6 PUSH2 0xC61 SWAP2 SWAP1 PUSH2 0x1D90 JUMP JUMPDEST PUSH1 0x30 PUSH2 0xC6D SWAP2 SWAP1 PUSH2 0x1DC1 JUMP JUMPDEST PUSH1 0xF8 SHL DUP2 DUP4 DUP2 MLOAD DUP2 LT PUSH2 0xC83 JUMPI PUSH2 0xC82 PUSH2 0x1DF5 JUMP JUMPDEST JUMPDEST PUSH1 0x20 ADD ADD SWAP1 PUSH31 0xFFFFFFFFFFFFFFFFFFFFFFFFFFFFFFFFFFFFFFFFFFFFFFFFFFFFFFFFFFFFFF NOT AND SWAP1 DUP2 PUSH1 0x0 BYTE SWAP1 MSTORE8 POP PUSH1 0xA DUP6 PUSH2 0xCBF SWAP2 SWAP1 PUSH2 0x1D2B JUMP JUMPDEST SWAP5 POP PUSH2 0xC3D JUMP JUMPDEST DUP1 SWAP4 POP POP POP POP JUMPDEST SWAP2 SWAP1 POP JUMP JUMPDEST PUSH1 0x0 PUSH1 0x40 MLOAD SWAP1 POP SWAP1 JUMP JUMPDEST PUSH1 0x0 DUP1 REVERT JUMPDEST PUSH1 0x0 DUP1 REVERT JUMPDEST PUSH1 0x0 DUP1 REVERT JUMPDEST PUSH1 0x0 DUP1 REVERT JUMPDEST PUSH1 0x0 PUSH1 0x1F NOT PUSH1 0x1F DUP4 ADD AND SWAP1 POP SWAP2 SWAP1 POP JUMP JUMPDEST PUSH32 0x4E487B7100000000000000000000000000000000000000000000000000000000 PUSH1 0x0 MSTORE PUSH1 0x41 PUSH1 0x4 MSTORE PUSH1 0x24 PUSH1 0x0 REVERT JUMPDEST PUSH2 0xD39 DUP3 PUSH2 0xCF0 JUMP JUMPDEST DUP2 ADD DUP2 DUP2 LT PUSH8 0xFFFFFFFFFFFFFFFF DUP3 GT OR ISZERO PUSH2 0xD58 JUMPI PUSH2 0xD57 PUSH2 0xD01 JUMP JUMPDEST JUMPDEST DUP1 PUSH1 0x40 MSTORE POP POP POP JUMP JUMPDEST PUSH1 0x0 PUSH2 0xD6B PUSH2 0xCD2 JUMP JUMPDEST SWAP1 POP PUSH2 0xD77 DUP3 DUP3 PUSH2 0xD30 JUMP JUMPDEST SWAP2 SWAP1 POP JUMP JUMPDEST PUSH1 0x0 PUSH8 0xFFFFFFFFFFFFFFFF DUP3 GT ISZERO PUSH2 0xD97 JUMPI PUSH2 0xD96 PUSH2 0xD01 JUMP JUMPDEST JUMPDEST PUSH2 0xDA0 DUP3 PUSH2 0xCF0 JUMP JUMPDEST SWAP1 POP PUSH1 0x20 DUP2 ADD SWAP1 POP SWAP2 SWAP1 POP JUMP JUMPDEST DUP3 DUP2 DUP4 CALLDATACOPY PUSH1 0x0 DUP4 DUP4 ADD MSTORE POP POP POP JUMP JUMPDEST PUSH1 0x0 PUSH2 0xDCF PUSH2 0xDCA DUP5 PUSH2 0xD7C JUMP JUMPDEST PUSH2 0xD61 JUMP JUMPDEST SWAP1 POP DUP3 DUP2 MSTORE PUSH1 0x20 DUP2 ADD DUP5 DUP5 DUP5 ADD GT ISZERO PUSH2 0xDEB JUMPI PUSH2 0xDEA PUSH2 0xCEB JUMP JUMPDEST JUMPDEST PUSH2 0xDF6 DUP5 DUP3 DUP6 PUSH2 0xDAD JUMP JUMPDEST POP SWAP4 SWAP3 POP POP POP JUMP JUMPDEST PUSH1 0x0 DUP3 PUSH1 0x1F DUP4 ADD SLT PUSH2 0xE13 JUMPI PUSH2 0xE12 PUSH2 0xCE6 JUMP JUMPDEST JUMPDEST DUP2 CALLDATALOAD PUSH2 0xE23 DUP5 DUP3 PUSH1 0x20 DUP7 ADD PUSH2 0xDBC JUMP JUMPDEST SWAP2 POP POP SWAP3 SWAP2 POP POP JUMP JUMPDEST PUSH1 0x0 PUSH1 0x20 DUP3 DUP5 SUB SLT ISZERO PUSH2 0xE42 JUMPI PUSH2 0xE41 PUSH2 0xCDC JUMP JUMPDEST JUMPDEST PUSH1 0x0 DUP3 ADD CALLDATALOAD PUSH8 0xFFFFFFFFFFFFFFFF DUP2 GT ISZERO PUSH2 0xE60 JUMPI PUSH2 0xE5F PUSH2 0xCE1 JUMP JUMPDEST JUMPDEST PUSH2 0xE6C DUP5 DUP3 DUP6 ADD PUSH2 0xDFE JUMP JUMPDEST SWAP2 POP POP SWAP3 SWAP2 POP POP JUMP JUMPDEST PUSH1 0x0 DUP2 ISZERO ISZERO SWAP1 POP SWAP2 SWAP1 POP JUMP JUMPDEST PUSH2 0xE8A DUP2 PUSH2 0xE75 JUMP JUMPDEST DUP3 MSTORE POP POP JUMP JUMPDEST PUSH1 0x0 PUSH1 0x20 DUP3 ADD SWAP1 POP PUSH2 0xEA5 PUSH1 0x0 DUP4 ADD DUP5 PUSH2 0xE81 JUMP JUMPDEST SWAP3 SWAP2 POP POP JUMP JUMPDEST PUSH2 0xEB4 DUP2 PUSH2 0xE75 JUMP JUMPDEST DUP2 EQ PUSH2 0xEBF JUMPI PUSH1 0x0 DUP1 REVERT JUMPDEST POP JUMP JUMPDEST PUSH1 0x0 DUP2 CALLDATALOAD SWAP1 POP PUSH2 0xED1 DUP2 PUSH2 0xEAB JUMP JUMPDEST SWAP3 SWAP2 POP POP JUMP JUMPDEST PUSH1 0x0 DUP1 PUSH1 0x40 DUP4 DUP6 SUB SLT ISZERO PUSH2 0xEEE JUMPI PUSH2 0xEED PUSH2 0xCDC JUMP JUMPDEST JUMPDEST PUSH1 0x0 DUP4 ADD CALLDATALOAD PUSH8 0xFFFFFFFFFFFFFFFF DUP2 GT ISZERO PUSH2 0xF0C JUMPI PUSH2 0xF0B PUSH2 0xCE1 JUMP JUMPDEST JUMPDEST PUSH2 0xF18 DUP6 DUP3 DUP7 ADD PUSH2 0xDFE JUMP JUMPDEST SWAP3 POP POP PUSH1 0x20 PUSH2 0xF29 DUP6 DUP3 DUP7 ADD PUSH2 0xEC2 JUMP JUMPDEST SWAP2 POP POP SWAP3 POP SWAP3 SWAP1 POP JUMP JUMPDEST PUSH1 0x0 DUP2 MLOAD SWAP1 POP SWAP2 SWAP1 POP JUMP JUMPDEST PUSH1 0x0 DUP3 DUP3 MSTORE PUSH1 0x20 DUP3 ADD SWAP1 POP SWAP3 SWAP2 POP POP JUMP JUMPDEST PUSH1 0x0 JUMPDEST DUP4 DUP2 LT ISZERO PUSH2 0xF6D JUMPI DUP1 DUP3 ADD MLOAD DUP2 DUP5 ADD MSTORE PUSH1 0x20 DUP2 ADD SWAP1 POP PUSH2 0xF52 JUMP JUMPDEST PUSH1 0x0 DUP5 DUP5 ADD MSTORE POP POP POP POP JUMP JUMPDEST PUSH1 0x0 PUSH2 0xF84 DUP3 PUSH2 0xF33 JUMP JUMPDEST PUSH2 0xF8E DUP2 DUP6 PUSH2 0xF3E JUMP JUMPDEST SWAP4 POP PUSH2 0xF9E DUP2 DUP6 PUSH1 0x20 DUP7 ADD PUSH2 0xF4F JUMP JUMPDEST PUSH2 0xFA7 DUP2 PUSH2 0xCF0 JUMP JUMPDEST DUP5 ADD SWAP2 POP POP SWAP3 SWAP2 POP POP JUMP JUMPDEST PUSH1 0x0 PUSH1 0x20 DUP3 ADD SWAP1 POP DUP2 DUP2 SUB PUSH1 0x0 DUP4 ADD MSTORE PUSH2 0xFCC DUP2 DUP5 PUSH2 0xF79 JUMP JUMPDEST SWAP1 POP SWAP3 SWAP2 POP POP JUMP JUMPDEST PUSH1 0x0 DUP2 SWAP1 POP SWAP2 SWAP1 POP JUMP JUMPDEST PUSH2 0xFE7 DUP2 PUSH2 0xFD4 JUMP JUMPDEST DUP2 EQ PUSH2 0xFF2 JUMPI PUSH1 0x0 DUP1 REVERT JUMPDEST POP JUMP JUMPDEST PUSH1 0x0 DUP2 CALLDATALOAD SWAP1 POP PUSH2 0x1004 DUP2 PUSH2 0xFDE JUMP JUMPDEST SWAP3 SWAP2 POP POP JUMP JUMPDEST PUSH1 0x0 DUP1 PUSH1 0x0 DUP1 PUSH1 0x0 DUP1 PUSH1 0x0 DUP1 PUSH2 0x100 DUP10 DUP12 SUB SLT ISZERO PUSH2 0x102B JUMPI PUSH2 0x102A PUSH2 0xCDC JUMP JUMPDEST JUMPDEST PUSH1 0x0 DUP10 ADD CALLDATALOAD PUSH8 0xFFFFFFFFFFFFFFFF DUP2 GT ISZERO PUSH2 0x1049 JUMPI PUSH2 0x1048 PUSH2 0xCE1 JUMP JUMPDEST JUMPDEST PUSH2 0x1055 DUP12 DUP3 DUP13 ADD PUSH2 0xDFE JUMP JUMPDEST SWAP9 POP POP PUSH1 0x20 DUP10 ADD CALLDATALOAD PUSH8 0xFFFFFFFFFFFFFFFF DUP2 GT ISZERO PUSH2 0x1076 JUMPI PUSH2 0x1075 PUSH2 0xCE1 JUMP JUMPDEST JUMPDEST PUSH2 0x1082 DUP12 DUP3 DUP13 ADD PUSH2 0xDFE JUMP JUMPDEST SWAP8 POP POP PUSH1 0x40 DUP10 ADD CALLDATALOAD PUSH8 0xFFFFFFFFFFFFFFFF DUP2 GT ISZERO PUSH2 0x10A3 JUMPI PUSH2 0x10A2 PUSH2 0xCE1 JUMP JUMPDEST JUMPDEST PUSH2 0x10AF DUP12 DUP3 DUP13 ADD PUSH2 0xDFE JUMP JUMPDEST SWAP7 POP POP PUSH1 0x60 PUSH2 0x10C0 DUP12 DUP3 DUP13 ADD PUSH2 0xFF5 JUMP JUMPDEST SWAP6 POP POP PUSH1 0x80 DUP10 ADD CALLDATALOAD PUSH8 0xFFFFFFFFFFFFFFFF DUP2 GT ISZERO PUSH2 0x10E1 JUMPI PUSH2 0x10E0 PUSH2 0xCE1 JUMP JUMPDEST JUMPDEST PUSH2 0x10ED DUP12 DUP3 DUP13 ADD PUSH2 0xDFE JUMP JUMPDEST SWAP5 POP POP PUSH1 0xA0 DUP10 ADD CALLDATALOAD PUSH8 0xFFFFFFFFFFFFFFFF DUP2 GT ISZERO PUSH2 0x110E JUMPI PUSH2 0x110D PUSH2 0xCE1 JUMP JUMPDEST JUMPDEST PUSH2 0x111A DUP12 DUP3 DUP13 ADD PUSH2 0xDFE JUMP JUMPDEST SWAP4 POP POP PUSH1 0xC0 DUP10 ADD CALLDATALOAD PUSH8 0xFFFFFFFFFFFFFFFF DUP2 GT ISZERO PUSH2 0x113B JUMPI PUSH2 0x113A PUSH2 0xCE1 JUMP JUMPDEST JUMPDEST PUSH2 0x1147 DUP12 DUP3 DUP13 ADD PUSH2 0xDFE JUMP JUMPDEST SWAP3 POP POP PUSH1 0xE0 PUSH2 0x1158 DUP12 DUP3 DUP13 ADD PUSH2 0xFF5 JUMP JUMPDEST SWAP2 POP POP SWAP3 SWAP6 SWAP9 POP SWAP3 SWAP6 SWAP9 SWAP1 SWAP4 SWAP7 POP JUMP JUMPDEST PUSH2 0x1171 DUP2 PUSH2 0xFD4 JUMP JUMPDEST DUP3 MSTORE POP POP JUMP JUMPDEST PUSH1 0x0 PUSH2 0x120 DUP3 ADD SWAP1 POP DUP2 DUP2 SUB PUSH1 0x0 DUP4 ADD MSTORE PUSH2 0x1192 DUP2 DUP13 PUSH2 0xF79 JUMP JUMPDEST SWAP1 POP DUP2 DUP2 SUB PUSH1 0x20 DUP4 ADD MSTORE PUSH2 0x11A6 DUP2 DUP12 PUSH2 0xF79 JUMP JUMPDEST SWAP1 POP DUP2 DUP2 SUB PUSH1 0x40 DUP4 ADD MSTORE PUSH2 0x11BA DUP2 DUP11 PUSH2 0xF79 JUMP JUMPDEST SWAP1 POP PUSH2 0x11C9 PUSH1 0x60 DUP4 ADD DUP10 PUSH2 0x1168 JUMP JUMPDEST DUP2 DUP2 SUB PUSH1 0x80 DUP4 ADD MSTORE PUSH2 0x11DB DUP2 DUP9 PUSH2 0xF79 JUMP JUMPDEST SWAP1 POP DUP2 DUP2 SUB PUSH1 0xA0 DUP4 ADD MSTORE PUSH2 0x11EF DUP2 DUP8 PUSH2 0xF79 JUMP JUMPDEST SWAP1 POP DUP2 DUP2 SUB PUSH1 0xC0 DUP4 ADD MSTORE PUSH2 0x1203 DUP2 DUP7 PUSH2 0xF79 JUMP JUMPDEST SWAP1 POP PUSH2 0x1212 PUSH1 0xE0 DUP4 ADD DUP6 PUSH2 0x1168 JUMP JUMPDEST PUSH2 0x1220 PUSH2 0x100 DUP4 ADD DUP5 PUSH2 0xE81 JUMP JUMPDEST SWAP11 SWAP10 POP POP POP POP POP POP POP POP POP POP JUMP JUMPDEST PUSH1 0x0 PUSH1 0x20 DUP3 ADD SWAP1 POP PUSH2 0x1243 PUSH1 0x0 DUP4 ADD DUP5 PUSH2 0x1168 JUMP JUMPDEST SWAP3 SWAP2 POP POP JUMP JUMPDEST PUSH1 0x0 DUP2 SWAP1 POP SWAP3 SWAP2 POP POP JUMP JUMPDEST PUSH1 0x0 PUSH2 0x125F DUP3 PUSH2 0xF33 JUMP JUMPDEST PUSH2 0x1269 DUP2 DUP6 PUSH2 0x1249 JUMP JUMPDEST SWAP4 POP PUSH2 0x1279 DUP2 DUP6 PUSH1 0x20 DUP7 ADD PUSH2 0xF4F JUMP JUMPDEST DUP1 DUP5 ADD SWAP2 POP POP SWAP3 SWAP2 POP POP JUMP JUMPDEST PUSH1 0x0 PUSH2 0x1291 DUP3 DUP5 PUSH2 0x1254 JUMP JUMPDEST SWAP2 POP DUP2 SWAP1 POP SWAP3 SWAP2 POP POP JUMP JUMPDEST PUSH32 0x4C65204C6F74206E27657869737465207061732064616E73206C6120626C6F63 PUSH1 0x0 DUP3 ADD MSTORE PUSH32 0x6B636861696E0000000000000000000000000000000000000000000000000000 PUSH1 0x20 DUP3 ADD MSTORE POP JUMP JUMPDEST PUSH1 0x0 PUSH2 0x12F8 PUSH1 0x26 DUP4 PUSH2 0xF3E JUMP JUMPDEST SWAP2 POP PUSH2 0x1303 DUP3 PUSH2 0x129C JUMP JUMPDEST PUSH1 0x40 DUP3 ADD SWAP1 POP SWAP2 SWAP1 POP JUMP JUMPDEST PUSH1 0x0 PUSH1 0x20 DUP3 ADD SWAP1 POP DUP2 DUP2 SUB PUSH1 0x0 DUP4 ADD MSTORE PUSH2 0x1327 DUP2 PUSH2 0x12EB JUMP JUMPDEST SWAP1 POP SWAP2 SWAP1 POP JUMP JUMPDEST PUSH32 0x436F6465206475206D61676173696E203A200000000000000000000000000000 PUSH1 0x0 DUP3 ADD MSTORE POP JUMP JUMPDEST PUSH1 0x0 PUSH2 0x1364 PUSH1 0x12 DUP4 PUSH2 0x1249 JUMP JUMPDEST SWAP2 POP PUSH2 0x136F DUP3 PUSH2 0x132E JUMP JUMPDEST PUSH1 0x12 DUP3 ADD SWAP1 POP SWAP2 SWAP1 POP JUMP JUMPDEST PUSH32 0x4E487B7100000000000000000000000000000000000000000000000000000000 PUSH1 0x0 MSTORE PUSH1 0x22 PUSH1 0x4 MSTORE PUSH1 0x24 PUSH1 0x0 REVERT JUMPDEST PUSH1 0x0 PUSH1 0x2 DUP3 DIV SWAP1 POP PUSH1 0x1 DUP3 AND DUP1 PUSH2 0x13C1 JUMPI PUSH1 0x7F DUP3 AND SWAP2 POP JUMPDEST PUSH1 0x20 DUP3 LT DUP2 SUB PUSH2 0x13D4 JUMPI PUSH2 0x13D3 PUSH2 0x137A JUMP JUMPDEST JUMPDEST POP SWAP2 SWAP1 POP JUMP JUMPDEST PUSH1 0x0 DUP2 SWAP1 POP DUP2 PUSH1 0x0 MSTORE PUSH1 0x20 PUSH1 0x0 KECCAK256 SWAP1 POP SWAP2 SWAP1 POP JUMP JUMPDEST PUSH1 0x0 DUP2 SLOAD PUSH2 0x13FC DUP2 PUSH2 0x13A9 JUMP JUMPDEST PUSH2 0x1406 DUP2 DUP7 PUSH2 0x1249 JUMP JUMPDEST SWAP5 POP PUSH1 0x1 DUP3 AND PUSH1 0x0 DUP2 EQ PUSH2 0x1421 JUMPI PUSH1 0x1 DUP2 EQ PUSH2 0x1436 JUMPI PUSH2 0x1469 JUMP JUMPDEST PUSH1 0xFF NOT DUP4 AND DUP7 MSTORE DUP2 ISZERO ISZERO DUP3 MUL DUP7 ADD SWAP4 POP PUSH2 0x1469 JUMP JUMPDEST PUSH2 0x143F DUP6 PUSH2 0x13DA JUMP JUMPDEST PUSH1 0x0 JUMPDEST DUP4 DUP2 LT ISZERO PUSH2 0x1461 JUMPI DUP2 SLOAD DUP2 DUP10 ADD MSTORE PUSH1 0x1 DUP3 ADD SWAP2 POP PUSH1 0x20 DUP2 ADD SWAP1 POP PUSH2 0x1442 JUMP JUMPDEST DUP4 DUP9 ADD SWAP6 POP POP POP JUMPDEST POP POP POP SWAP3 SWAP2 POP POP JUMP JUMPDEST PUSH32 0xA204E756D65726F204C6F743A20000000000000000000000000000000000000 PUSH1 0x0 DUP3 ADD MSTORE POP JUMP JUMPDEST PUSH1 0x0 PUSH2 0x14A8 PUSH1 0xE DUP4 PUSH2 0x1249 JUMP JUMPDEST SWAP2 POP PUSH2 0x14B3 DUP3 PUSH2 0x1472 JUMP JUMPDEST PUSH1 0xE DUP3 ADD SWAP1 POP SWAP2 SWAP1 POP JUMP JUMPDEST PUSH32 0xA20436F6465204C6F743A200000000000000000000000000000000000000000 PUSH1 0x0 DUP3 ADD MSTORE POP JUMP JUMPDEST PUSH1 0x0 PUSH2 0x14F4 PUSH1 0xC DUP4 PUSH2 0x1249 JUMP JUMPDEST SWAP2 POP PUSH2 0x14FF DUP3 PUSH2 0x14BE JUMP JUMPDEST PUSH1 0xC DUP3 ADD SWAP1 POP SWAP2 SWAP1 POP JUMP JUMPDEST PUSH32 0xA204E756D65726F20647520626F6E206465206C6976726169736F6E203A2000 PUSH1 0x0 DUP3 ADD MSTORE POP JUMP JUMPDEST PUSH1 0x0 PUSH2 0x1540 PUSH1 0x1F DUP4 PUSH2 0x1249 JUMP JUMPDEST SWAP2 POP PUSH2 0x154B DUP3 PUSH2 0x150A JUMP JUMPDEST PUSH1 0x1F DUP3 ADD SWAP1 POP SWAP2 SWAP1 POP JUMP JUMPDEST PUSH32 0xA20506F6964733A200000000000000000000000000000000000000000000000 PUSH1 0x0 DUP3 ADD MSTORE POP JUMP JUMPDEST PUSH1 0x0 PUSH2 0x158C PUSH1 0x9 DUP4 PUSH2 0x1249 JUMP JUMPDEST SWAP2 POP PUSH2 0x1597 DUP3 PUSH2 0x1556 JUMP JUMPDEST PUSH1 0x9 DUP3 ADD SWAP1 POP SWAP2 SWAP1 POP JUMP JUMPDEST PUSH32 0x6B670A204461746520642761727269766565206475206C6F743A200000000000 PUSH1 0x0 DUP3 ADD MSTORE POP JUMP JUMPDEST PUSH1 0x0 PUSH2 0x15D8 PUSH1 0x1B DUP4 PUSH2 0x1249 JUMP JUMPDEST SWAP2 POP PUSH2 0x15E3 DUP3 PUSH2 0x15A2 JUMP JUMPDEST PUSH1 0x1B DUP3 ADD SWAP1 POP SWAP2 SWAP1 POP JUMP JUMPDEST PUSH32 0xA2050726F76656E616E636520647520466F75726E697373657572203A200000 PUSH1 0x0 DUP3 ADD MSTORE POP JUMP JUMPDEST PUSH1 0x0 PUSH2 0x1624 PUSH1 0x1E DUP4 PUSH2 0x1249 JUMP JUMPDEST SWAP2 POP PUSH2 0x162F DUP3 PUSH2 0x15EE JUMP JUMPDEST PUSH1 0x1E DUP3 ADD SWAP1 POP SWAP2 SWAP1 POP JUMP JUMPDEST PUSH32 0xA20436F64652073616E697461697265203A2000000000000000000000000000 PUSH1 0x0 DUP3 ADD MSTORE POP JUMP JUMPDEST PUSH1 0x0 PUSH2 0x1670 PUSH1 0x13 DUP4 PUSH2 0x1249 JUMP JUMPDEST SWAP2 POP PUSH2 0x167B DUP3 PUSH2 0x163A JUMP JUMPDEST PUSH1 0x13 DUP3 ADD SWAP1 POP SWAP2 SWAP1 POP JUMP JUMPDEST PUSH32 0xA2044697374616E63653A200000000000000000000000000000000000000000 PUSH1 0x0 DUP3 ADD MSTORE POP JUMP JUMPDEST PUSH1 0x0 PUSH2 0x16BC PUSH1 0xC DUP4 PUSH2 0x1249 JUMP JUMPDEST SWAP2 POP PUSH2 0x16C7 DUP3 PUSH2 0x1686 JUMP JUMPDEST PUSH1 0xC DUP3 ADD SWAP1 POP SWAP2 SWAP1 POP JUMP JUMPDEST PUSH32 0x6B6D0A0000000000000000000000000000000000000000000000000000000000 PUSH1 0x0 DUP3 ADD MSTORE POP JUMP JUMPDEST PUSH1 0x0 PUSH2 0x1708 PUSH1 0x3 DUP4 PUSH2 0x1249 JUMP JUMPDEST SWAP2 POP PUSH2 0x1713 DUP3 PUSH2 0x16D2 JUMP JUMPDEST PUSH1 0x3 DUP3 ADD SWAP1 POP SWAP2 SWAP1 POP JUMP JUMPDEST PUSH1 0x0 PUSH2 0x1729 DUP3 PUSH2 0x1357 JUMP JUMPDEST SWAP2 POP PUSH2 0x1735 DUP3 DUP14 PUSH2 0x13EF JUMP JUMPDEST SWAP2 POP PUSH2 0x1740 DUP3 PUSH2 0x149B JUMP JUMPDEST SWAP2 POP PUSH2 0x174C DUP3 DUP13 PUSH2 0x13EF JUMP JUMPDEST SWAP2 POP PUSH2 0x1757 DUP3 PUSH2 0x14E7 JUMP JUMPDEST SWAP2 POP PUSH2 0x1763 DUP3 DUP12 PUSH2 0x13EF JUMP JUMPDEST SWAP2 POP PUSH2 0x176F DUP3 DUP11 PUSH2 0x13EF JUMP JUMPDEST SWAP2 POP PUSH2 0x177A DUP3 PUSH2 0x1533 JUMP JUMPDEST SWAP2 POP PUSH2 0x1786 DUP3 DUP10 PUSH2 0x13EF JUMP JUMPDEST SWAP2 POP PUSH2 0x1791 DUP3 PUSH2 0x157F JUMP JUMPDEST SWAP2 POP PUSH2 0x179D DUP3 DUP9 PUSH2 0x1254 JUMP JUMPDEST SWAP2 POP PUSH2 0x17A8 DUP3 PUSH2 0x15CB JUMP JUMPDEST SWAP2 POP PUSH2 0x17B4 DUP3 DUP8 PUSH2 0x13EF JUMP JUMPDEST SWAP2 POP PUSH2 0x17BF DUP3 PUSH2 0x1617 JUMP JUMPDEST SWAP2 POP PUSH2 0x17CB DUP3 DUP7 PUSH2 0x13EF JUMP JUMPDEST SWAP2 POP PUSH2 0x17D6 DUP3 PUSH2 0x1663 JUMP JUMPDEST SWAP2 POP PUSH2 0x17E2 DUP3 DUP6 PUSH2 0x13EF JUMP JUMPDEST SWAP2 POP PUSH2 0x17ED DUP3 PUSH2 0x16AF JUMP JUMPDEST SWAP2 POP PUSH2 0x17F9 DUP3 DUP5 PUSH2 0x1254 JUMP JUMPDEST SWAP2 POP PUSH2 0x1804 DUP3 PUSH2 0x16FB JUMP JUMPDEST SWAP2 POP DUP2 SWAP1 POP SWAP12 SWAP11 POP POP POP POP POP POP POP POP POP POP POP JUMP JUMPDEST PUSH32 0x3C623E432765737420756E2070726F64756974207175692070726F7669656E74 PUSH1 0x0 DUP3 ADD MSTORE PUSH32 0x206427756E20636972637569742064652070726F78696D6974653C2F623E0000 PUSH1 0x20 DUP3 ADD MSTORE POP JUMP JUMPDEST PUSH1 0x0 PUSH2 0x1874 PUSH1 0x3E DUP4 PUSH2 0x1249 JUMP JUMPDEST SWAP2 POP PUSH2 0x187F DUP3 PUSH2 0x1818 JUMP JUMPDEST PUSH1 0x3E DUP3 ADD SWAP1 POP SWAP2 SWAP1 POP JUMP JUMPDEST PUSH1 0x0 PUSH2 0x1896 DUP3 DUP5 PUSH2 0x1254 JUMP JUMPDEST SWAP2 POP PUSH2 0x18A1 DUP3 PUSH2 0x1867 JUMP JUMPDEST SWAP2 POP DUP2 SWAP1 POP SWAP3 SWAP2 POP POP JUMP JUMPDEST PUSH32 0x3C623E432765737420756E2070726F6475697420717569206E652070726F7669 PUSH1 0x0 DUP3 ADD MSTORE PUSH32 0x656E7420706173206427756E20636972637569742064652070726F78696D6974 PUSH1 0x20 DUP3 ADD MSTORE PUSH32 0x653C2F623E000000000000000000000000000000000000000000000000000000 PUSH1 0x40 DUP3 ADD MSTORE POP JUMP JUMPDEST PUSH1 0x0 PUSH2 0x192E PUSH1 0x45 DUP4 PUSH2 0x1249 JUMP JUMPDEST SWAP2 POP PUSH2 0x1939 DUP3 PUSH2 0x18AC JUMP JUMPDEST PUSH1 0x45 DUP3 ADD SWAP1 POP SWAP2 SWAP1 POP JUMP JUMPDEST PUSH1 0x0 PUSH2 0x1950 DUP3 DUP5 PUSH2 0x1254 JUMP JUMPDEST SWAP2 POP PUSH2 0x195B DUP3 PUSH2 0x1921 JUMP JUMPDEST SWAP2 POP DUP2 SWAP1 POP SWAP3 SWAP2 POP POP JUMP JUMPDEST PUSH1 0x0 PUSH2 0x1972 DUP3 DUP6 PUSH2 0x1254 JUMP JUMPDEST SWAP2 POP PUSH2 0x197E DUP3 DUP5 PUSH2 0x1254 JUMP JUMPDEST SWAP2 POP DUP2 SWAP1 POP SWAP4 SWAP3 POP POP POP JUMP JUMPDEST PUSH32 0x4C65206C6F74206578697374652064656A612064616E73206C6120626C6F636B PUSH1 0x0 DUP3 ADD MSTORE PUSH32 0x636861696E000000000000000000000000000000000000000000000000000000 PUSH1 0x20 DUP3 ADD MSTORE POP JUMP JUMPDEST PUSH1 0x0 PUSH2 0x19E6 PUSH1 0x25 DUP4 PUSH2 0xF3E JUMP JUMPDEST SWAP2 POP PUSH2 0x19F1 DUP3 PUSH2 0x198A JUMP JUMPDEST PUSH1 0x40 DUP3 ADD SWAP1 POP SWAP2 SWAP1 POP JUMP JUMPDEST PUSH1 0x0 PUSH1 0x20 DUP3 ADD SWAP1 POP DUP2 DUP2 SUB PUSH1 0x0 DUP4 ADD MSTORE PUSH2 0x1A15 DUP2 PUSH2 0x19D9 JUMP JUMPDEST SWAP1 POP SWAP2 SWAP1 POP JUMP JUMPDEST PUSH1 0x0 PUSH1 0x20 PUSH1 0x1F DUP4 ADD DIV SWAP1 POP SWAP2 SWAP1 POP JUMP JUMPDEST PUSH1 0x0 DUP3 DUP3 SHL SWAP1 POP SWAP3 SWAP2 POP POP JUMP JUMPDEST PUSH1 0x0 PUSH1 0x8 DUP4 MUL PUSH2 0x1A69 PUSH32 0xFFFFFFFFFFFFFFFFFFFFFFFFFFFFFFFFFFFFFFFFFFFFFFFFFFFFFFFFFFFFFFFF DUP3 PUSH2 0x1A2C JUMP JUMPDEST PUSH2 0x1A73 DUP7 DUP4 PUSH2 0x1A2C JUMP JUMPDEST SWAP6 POP DUP1 NOT DUP5 AND SWAP4 POP DUP1 DUP7 AND DUP5 OR SWAP3 POP POP POP SWAP4 SWAP3 POP POP POP JUMP JUMPDEST PUSH1 0x0 DUP2 SWAP1 POP SWAP2 SWAP1 POP JUMP JUMPDEST PUSH1 0x0 PUSH2 0x1AB0 PUSH2 0x1AAB PUSH2 0x1AA6 DUP5 PUSH2 0xFD4 JUMP JUMPDEST PUSH2 0x1A8B JUMP JUMPDEST PUSH2 0xFD4 JUMP JUMPDEST SWAP1 POP SWAP2 SWAP1 POP JUMP JUMPDEST PUSH1 0x0 DUP2 SWAP1 POP SWAP2 SWAP1 POP JUMP JUMPDEST PUSH2 0x1ACA DUP4 PUSH2 0x1A95 JUMP JUMPDEST PUSH2 0x1ADE PUSH2 0x1AD6 DUP3 PUSH2 0x1AB7 JUMP JUMPDEST DUP5 DUP5 SLOAD PUSH2 0x1A39 JUMP JUMPDEST DUP3 SSTORE POP POP POP POP JUMP JUMPDEST PUSH1 0x0 SWAP1 JUMP JUMPDEST PUSH2 0x1AF3 PUSH2 0x1AE6 JUMP JUMPDEST PUSH2 0x1AFE DUP2 DUP5 DUP5 PUSH2 0x1AC1 JUMP JUMPDEST POP POP POP JUMP JUMPDEST JUMPDEST DUP2 DUP2 LT ISZERO PUSH2 0x1B22 JUMPI PUSH2 0x1B17 PUSH1 0x0 DUP3 PUSH2 0x1AEB JUMP JUMPDEST PUSH1 0x1 DUP2 ADD SWAP1 POP PUSH2 0x1B04 JUMP JUMPDEST POP POP JUMP JUMPDEST PUSH1 0x1F DUP3 GT ISZERO PUSH2 0x1B67 JUMPI PUSH2 0x1B38 DUP2 PUSH2 0x13DA JUMP JUMPDEST PUSH2 0x1B41 DUP5 PUSH2 0x1A1C JUMP JUMPDEST DUP2 ADD PUSH1 0x20 DUP6 LT ISZERO PUSH2 0x1B50 JUMPI DUP2 SWAP1 POP JUMPDEST PUSH2 0x1B64 PUSH2 0x1B5C DUP6 PUSH2 0x1A1C JUMP JUMPDEST DUP4 ADD DUP3 PUSH2 0x1B03 JUMP JUMPDEST POP POP JUMPDEST POP POP POP JUMP JUMPDEST PUSH1 0x0 DUP3 DUP3 SHR SWAP1 POP SWAP3 SWAP2 POP POP JUMP JUMPDEST PUSH1 0x0 PUSH2 0x1B8A PUSH1 0x0 NOT DUP5 PUSH1 0x8 MUL PUSH2 0x1B6C JUMP JUMPDEST NOT DUP1 DUP4 AND SWAP2 POP POP SWAP3 SWAP2 POP POP JUMP JUMPDEST PUSH1 0x0 PUSH2 0x1BA3 DUP4 DUP4 PUSH2 0x1B79 JUMP JUMPDEST SWAP2 POP DUP3 PUSH1 0x2 MUL DUP3 OR SWAP1 POP SWAP3 SWAP2 POP POP JUMP JUMPDEST PUSH2 0x1BBC DUP3 PUSH2 0xF33 JUMP JUMPDEST PUSH8 0xFFFFFFFFFFFFFFFF DUP2 GT ISZERO PUSH2 0x1BD5 JUMPI PUSH2 0x1BD4 PUSH2 0xD01 JUMP JUMPDEST JUMPDEST PUSH2 0x1BDF DUP3 SLOAD PUSH2 0x13A9 JUMP JUMPDEST PUSH2 0x1BEA DUP3 DUP3 DUP6 PUSH2 0x1B26 JUMP JUMPDEST PUSH1 0x0 PUSH1 0x20 SWAP1 POP PUSH1 0x1F DUP4 GT PUSH1 0x1 DUP2 EQ PUSH2 0x1C1D JUMPI PUSH1 0x0 DUP5 ISZERO PUSH2 0x1C0B JUMPI DUP3 DUP8 ADD MLOAD SWAP1 POP JUMPDEST PUSH2 0x1C15 DUP6 DUP3 PUSH2 0x1B97 JUMP JUMPDEST DUP7 SSTORE POP PUSH2 0x1C7D JUMP JUMPDEST PUSH1 0x1F NOT DUP5 AND PUSH2 0x1C2B DUP7 PUSH2 0x13DA JUMP JUMPDEST PUSH1 0x0 JUMPDEST DUP3 DUP2 LT ISZERO PUSH2 0x1C53 JUMPI DUP5 DUP10 ADD MLOAD DUP3 SSTORE PUSH1 0x1 DUP3 ADD SWAP2 POP PUSH1 0x20 DUP6 ADD SWAP5 POP PUSH1 0x20 DUP2 ADD SWAP1 POP PUSH2 0x1C2E JUMP JUMPDEST DUP7 DUP4 LT ISZERO PUSH2 0x1C70 JUMPI DUP5 DUP10 ADD MLOAD PUSH2 0x1C6C PUSH1 0x1F DUP10 AND DUP3 PUSH2 0x1B79 JUMP JUMPDEST DUP4 SSTORE POP JUMPDEST PUSH1 0x1 PUSH1 0x2 DUP9 MUL ADD DUP9 SSTORE POP POP POP JUMPDEST POP POP POP POP POP POP JUMP JUMPDEST PUSH32 0x4E487B7100000000000000000000000000000000000000000000000000000000 PUSH1 0x0 MSTORE PUSH1 0x11 PUSH1 0x4 MSTORE PUSH1 0x24 PUSH1 0x0 REVERT JUMPDEST PUSH1 0x0 PUSH2 0x1CBF DUP3 PUSH2 0xFD4 JUMP JUMPDEST SWAP2 POP PUSH32 0xFFFFFFFFFFFFFFFFFFFFFFFFFFFFFFFFFFFFFFFFFFFFFFFFFFFFFFFFFFFFFFFF DUP3 SUB PUSH2 0x1CF1 JUMPI PUSH2 0x1CF0 PUSH2 0x1C85 JUMP JUMPDEST JUMPDEST PUSH1 0x1 DUP3 ADD SWAP1 POP SWAP2 SWAP1 POP JUMP JUMPDEST PUSH32 0x4E487B7100000000000000000000000000000000000000000000000000000000 PUSH1 0x0 MSTORE PUSH1 0x12 PUSH1 0x4 MSTORE PUSH1 0x24 PUSH1 0x0 REVERT JUMPDEST PUSH1 0x0 PUSH2 0x1D36 DUP3 PUSH2 0xFD4 JUMP JUMPDEST SWAP2 POP PUSH2 0x1D41 DUP4 PUSH2 0xFD4 JUMP JUMPDEST SWAP3 POP DUP3 PUSH2 0x1D51 JUMPI PUSH2 0x1D50 PUSH2 0x1CFC JUMP JUMPDEST JUMPDEST DUP3 DUP3 DIV SWAP1 POP SWAP3 SWAP2 POP POP JUMP JUMPDEST PUSH1 0x0 PUSH2 0x1D67 DUP3 PUSH2 0xFD4 JUMP JUMPDEST SWAP2 POP PUSH2 0x1D72 DUP4 PUSH2 0xFD4 JUMP JUMPDEST SWAP3 POP DUP3 DUP3 SUB SWAP1 POP DUP2 DUP2 GT ISZERO PUSH2 0x1D8A JUMPI PUSH2 0x1D89 PUSH2 0x1C85 JUMP JUMPDEST JUMPDEST SWAP3 SWAP2 POP POP JUMP JUMPDEST PUSH1 0x0 PUSH2 0x1D9B DUP3 PUSH2 0xFD4 JUMP JUMPDEST SWAP2 POP PUSH2 0x1DA6 DUP4 PUSH2 0xFD4 JUMP JUMPDEST SWAP3 POP DUP3 PUSH2 0x1DB6 JUMPI PUSH2 0x1DB5 PUSH2 0x1CFC JUMP JUMPDEST JUMPDEST DUP3 DUP3 MOD SWAP1 POP SWAP3 SWAP2 POP POP JUMP JUMPDEST PUSH1 0x0 PUSH2 0x1DCC DUP3 PUSH2 0xFD4 JUMP JUMPDEST SWAP2 POP PUSH2 0x1DD7 DUP4 PUSH2 0xFD4 JUMP JUMPDEST SWAP3 POP DUP3 DUP3 ADD SWAP1 POP DUP1 DUP3 GT ISZERO PUSH2 0x1DEF JUMPI PUSH2 0x1DEE PUSH2 0x1C85 JUMP JUMPDEST JUMPDEST SWAP3 SWAP2 POP POP JUMP JUMPDEST PUSH32 0x4E487B7100000000000000000000000000000000000000000000000000000000 PUSH1 0x0 MSTORE PUSH1 0x32 PUSH1 0x4 MSTORE PUSH1 0x24 PUSH1 0x0 REVERT INVALID LOG2 PUSH5 0x6970667358 0x22 SLT KECCAK256 SSTORE 0x29 ADDRESS 0xF9 0xCA ADDMOD SUB CREATE2 JUMPDEST 0xB2 0xC7 0x1E 0xAE BYTE 0xA9 ADDRESS GASLIMIT GAS SWAP1 0xA5 SWAP1 DUP14 PUSH21 0xEBB5E1E140F073D5B464736F6C6343000811003300 "
				},
				"gasEstimates": {
					"creation": {
						"codeDepositCost": "1554000",
						"executionCost": "30896",
						"totalCost": "1584896"
					},
					"external": {
						"ajouterLot(string,string,string,uint256,string,string,string,uint256)": "infinite",
						"certification(string)": "infinite",
						"exists(string)": "infinite",
						"getCircuitProximite(string)": "infinite",
						"getDistance(string)": "infinite",
						"getFournisseur(string)": "infinite",
						"getLotInformations(string)": "infinite",
						"getTaille()": "2503",
						"lots(string)": "infinite",
						"setCircuitProximite(string,bool)": "infinite"
					},
					"internal": {
						"toString(uint256)": "infinite"
					}
				},
				"methodIdentifiers": {
					"ajouterLot(string,string,string,uint256,string,string,string,uint256)": "92f8087e",
					"certification(string)": "7b9b5209",
					"exists(string)": "261a323e",
					"getCircuitProximite(string)": "53bdec8f",
					"getDistance(string)": "f560026f",
					"getFournisseur(string)": "ed0bf0f1",
					"getLotInformations(string)": "79a2d3f1",
					"getTaille()": "f11b344e",
					"lots(string)": "e2d66992",
					"setCircuitProximite(string,bool)": "4898c5ab"
				}
			},
			"storageLayout": {
				"storage": [
					{
						"astId": 3,
						"contract": "contracts/monContrat.sol:Certification",
						"label": "owner",
						"offset": 0,
						"slot": "0",
						"type": "t_address"
					},
					{
						"astId": 27,
						"contract": "contracts/monContrat.sol:Certification",
						"label": "lots",
						"offset": 0,
						"slot": "1",
						"type": "t_mapping(t_string_memory_ptr,t_struct(Lot)22_storage)"
					},
					{
						"astId": 30,
						"contract": "contracts/monContrat.sol:Certification",
						"label": "taille",
						"offset": 0,
						"slot": "2",
						"type": "t_uint256"
					}
				],
				"types": {
					"t_address": {
						"encoding": "inplace",
						"label": "address",
						"numberOfBytes": "20"
					},
					"t_bool": {
						"encoding": "inplace",
						"label": "bool",
						"numberOfBytes": "1"
					},
					"t_mapping(t_string_memory_ptr,t_struct(Lot)22_storage)": {
						"encoding": "mapping",
						"key": "t_string_memory_ptr",
						"label": "mapping(string => struct Certification.Lot)",
						"numberOfBytes": "32",
						"value": "t_struct(Lot)22_storage"
					},
					"t_string_memory_ptr": {
						"encoding": "bytes",
						"label": "string",
						"numberOfBytes": "32"
					},
					"t_string_storage": {
						"encoding": "bytes",
						"label": "string",
						"numberOfBytes": "32"
					},
					"t_struct(Lot)22_storage": {
						"encoding": "inplace",
						"label": "struct Certification.Lot",
						"members": [
							{
								"astId": 5,
								"contract": "contracts/monContrat.sol:Certification",
								"label": "code_magasin",
								"offset": 0,
								"slot": "0",
								"type": "t_string_storage"
							},
							{
								"astId": 7,
								"contract": "contracts/monContrat.sol:Certification",
								"label": "n_lot",
								"offset": 0,
								"slot": "1",
								"type": "t_string_storage"
							},
							{
								"astId": 9,
								"contract": "contracts/monContrat.sol:Certification",
								"label": "n_bon_livraison",
								"offset": 0,
								"slot": "2",
								"type": "t_string_storage"
							},
							{
								"astId": 11,
								"contract": "contracts/monContrat.sol:Certification",
								"label": "poids",
								"offset": 0,
								"slot": "3",
								"type": "t_uint256"
							},
							{
								"astId": 13,
								"contract": "contracts/monContrat.sol:Certification",
								"label": "date_arrivee",
								"offset": 0,
								"slot": "4",
								"type": "t_string_storage"
							},
							{
								"astId": 15,
								"contract": "contracts/monContrat.sol:Certification",
								"label": "provenance_fournisseur",
								"offset": 0,
								"slot": "5",
								"type": "t_string_storage"
							},
							{
								"astId": 17,
								"contract": "contracts/monContrat.sol:Certification",
								"label": "code_sanitaire",
								"offset": 0,
								"slot": "6",
								"type": "t_string_storage"
							},
							{
								"astId": 19,
								"contract": "contracts/monContrat.sol:Certification",
								"label": "distance",
								"offset": 0,
								"slot": "7",
								"type": "t_uint256"
							},
							{
								"astId": 21,
								"contract": "contracts/monContrat.sol:Certification",
								"label": "circuit_proximite",
								"offset": 0,
								"slot": "8",
								"type": "t_bool"
							}
						],
						"numberOfBytes": "288"
					},
					"t_uint256": {
						"encoding": "inplace",
						"label": "uint256",
						"numberOfBytes": "32"
					}
				}
			},
			"userdoc": {
				"kind": "user",
				"methods": {},
				"version": 1
			}
		}
	}
}