{
	"data": {
		"bytecode": {
			"linkReferences": {},
			"object": "608060405234801561000f575f80fd5b50613dca8061001d5f395ff3fe608060405234801561000f575f80fd5b50600436106100b2575f3560e01c8063de7753511161006f578063de775351146101c2578063e6cf743d146101de578063e8a38d531461020e578063f11b344e1461022c578063f8517b2b1461024a578063ffd826d314610266576100b2565b80635b172066146100b65780637e043c4a146100e6578063961522b114610116578063b7a567d614610146578063bed34bba14610176578063ccfecaac146101a6575b5f80fd5b6100d060048036038101906100cb91906122ed565b61029d565b6040516100dd91906126d6565b60405180910390f35b61010060048036038101906100fb91906122ed565b610b03565b60405161010d9190612710565b60405180910390f35b610130600480360381019061012b91906122ed565b610d2c565b60405161013d9190612738565b60405180910390f35b610160600480360381019061015b91906122ed565b610fd7565b60405161016d9190612799565b60405180910390f35b610190600480360381019061018b91906127b9565b611116565b60405161019d9190612710565b60405180910390f35b6101c060048036038101906101bb9190612859565b61116e565b005b6101dc60048036038101906101d79190612ae2565b611432565b005b6101f860048036038101906101f391906127b9565b611680565b6040516102059190612710565b60405180910390f35b610216611828565b6040516102239190612738565b60405180910390f35b61023461182e565b6040516102419190612738565b60405180910390f35b610264600480360381019061025f9190612bb6565b611837565b005b610280600480360381019061027b9190612dbb565b611a19565b604051610294989796959493929190612e27565b60405180910390f35b6102a5612011565b6102b0848484610b03565b6102ef576040517f08c379a00000000000000000000000000000000000000000000000000000000081526004016102e690612f1e565b60405180910390fd5b5f8383604051602001610303929190612f76565b60405160208183030381529060405290505f5b600154811015610af9576103d15f828154811061033657610335612f99565b5b905f5260205f2090600b02015f01805461034f90612ff3565b80601f016020809104026020016040519081016040528092919081815260200182805461037b90612ff3565b80156103c65780601f1061039d576101008083540402835291602001916103c6565b820191905f5260205f20905b8154815290600101906020018083116103a957829003601f168201915b505050505087611116565b15610ae6575f5b5f82815481106103eb576103ea612f99565b5b905f5260205f2090600b020160080180549050811015610ae4576104d15f838154811061041b5761041a612f99565b5b905f5260205f2090600b0201600801828154811061043c5761043b612f99565b5b905f5260205f2001805461044f90612ff3565b80601f016020809104026020016040519081016040528092919081815260200182805461047b90612ff3565b80156104c65780601f1061049d576101008083540402835291602001916104c6565b820191905f5260205f20905b8154815290600101906020018083116104a957829003601f168201915b505050505084611116565b15610ad1575f82815481106104e9576104e8612f99565b5b905f5260205f2090600b0201604051806101400160405290815f8201805461051090612ff3565b80601f016020809104026020016040519081016040528092919081815260200182805461053c90612ff3565b80156105875780601f1061055e57610100808354040283529160200191610587565b820191905f5260205f20905b81548152906001019060200180831161056a57829003601f168201915b505050505081526020016001820180546105a090612ff3565b80601f01602080910402602001604051908101604052809291908181526020018280546105cc90612ff3565b80156106175780601f106105ee57610100808354040283529160200191610617565b820191905f5260205f20905b8154815290600101906020018083116105fa57829003601f168201915b5050505050815260200160028201805461063090612ff3565b80601f016020809104026020016040519081016040528092919081815260200182805461065c90612ff3565b80156106a75780601f1061067e576101008083540402835291602001916106a7565b820191905f5260205f20905b81548152906001019060200180831161068a57829003601f168201915b505050505081526020016003820180546106c090612ff3565b80601f01602080910402602001604051908101604052809291908181526020018280546106ec90612ff3565b80156107375780601f1061070e57610100808354040283529160200191610737565b820191905f5260205f20905b81548152906001019060200180831161071a57829003601f168201915b50505050508152602001600482016040518060400160405290815f8201805461075f90612ff3565b80601f016020809104026020016040519081016040528092919081815260200182805461078b90612ff3565b80156107d65780601f106107ad576101008083540402835291602001916107d6565b820191905f5260205f20905b8154815290600101906020018083116107b957829003601f168201915b505050505081526020016001820180546107ef90612ff3565b80601f016020809104026020016040519081016040528092919081815260200182805461081b90612ff3565b80156108665780601f1061083d57610100808354040283529160200191610866565b820191905f5260205f20905b81548152906001019060200180831161084957829003601f168201915b505050505081525050815260200160068201805461088390612ff3565b80601f01602080910402602001604051908101604052809291908181526020018280546108af90612ff3565b80156108fa5780601f106108d1576101008083540402835291602001916108fa565b820191905f5260205f20905b8154815290600101906020018083116108dd57829003601f168201915b505050505081526020016007820154815260200160088201805480602002602001604051908101604052809291908181526020015f905b828210156109d9578382905f5260205f2001805461094e90612ff3565b80601f016020809104026020016040519081016040528092919081815260200182805461097a90612ff3565b80156109c55780601f1061099c576101008083540402835291602001916109c5565b820191905f5260205f20905b8154815290600101906020018083116109a857829003601f168201915b505050505081526020019060010190610931565b50505050815260200160098201805480602002602001604051908101604052809291908181526020018280548015610a2e57602002820191905f5260205f20905b815481526020019060010190808311610a1a575b50505050508152602001600a82018054610a4790612ff3565b80601f0160208091040260200160405190810160405280929190818152602001828054610a7390612ff3565b8015610abe5780601f10610a9557610100808354040283529160200191610abe565b820191905f5260205f20905b815481529060010190602001808311610aa157829003601f168201915b5050505050815250509350505050610afc565b8080610adc90613050565b9150506103d8565b505b8080610af190613050565b915050610316565b50505b9392505050565b5f808383604051602001610b18929190612f76565b60405160208183030381529060405290505f5b600154811015610d1f57610be65f8281548110610b4b57610b4a612f99565b5b905f5260205f2090600b02015f018054610b6490612ff3565b80601f0160208091040260200160405190810160405280929190818152602001828054610b9090612ff3565b8015610bdb5780601f10610bb257610100808354040283529160200191610bdb565b820191905f5260205f20905b815481529060010190602001808311610bbe57829003601f168201915b505050505087611116565b15610d0c575f5b5f8281548110610c0057610bff612f99565b5b905f5260205f2090600b020160080180549050811015610d0a57610ce65f8381548110610c3057610c2f612f99565b5b905f5260205f2090600b02016008018281548110610c5157610c50612f99565b5b905f5260205f20018054610c6490612ff3565b80601f0160208091040260200160405190810160405280929190818152602001828054610c9090612ff3565b8015610cdb5780601f10610cb257610100808354040283529160200191610cdb565b820191905f5260205f20905b815481529060010190602001808311610cbe57829003601f168201915b505050505084611116565b15610cf75760019350505050610d25565b8080610d0290613050565b915050610bed565b505b8080610d1790613050565b915050610b2b565b505f9150505b9392505050565b5f610d38848484610b03565b610d77576040517f08c379a0000000000000000000000000000000000000000000000000000000008152600401610d6e906130e1565b60405180910390fd5b5f8383604051602001610d8b929190612f76565b60405160208183030381529060405290505f5b600154811015610fcd57610e595f8281548110610dbe57610dbd612f99565b5b905f5260205f2090600b02015f018054610dd790612ff3565b80601f0160208091040260200160405190810160405280929190818152602001828054610e0390612ff3565b8015610e4e5780601f10610e2557610100808354040283529160200191610e4e565b820191905f5260205f20905b815481529060010190602001808311610e3157829003601f168201915b505050505087611116565b15610fba575f5b5f8281548110610e7357610e72612f99565b5b905f5260205f2090600b020160080180549050811015610fb857610f595f8381548110610ea357610ea2612f99565b5b905f5260205f2090600b02016008018281548110610ec457610ec3612f99565b5b905f5260205f20018054610ed790612ff3565b80601f0160208091040260200160405190810160405280929190818152602001828054610f0390612ff3565b8015610f4e5780601f10610f2557610100808354040283529160200191610f4e565b820191905f5260205f20905b815481529060010190602001808311610f3157829003601f168201915b505050505084611116565b15610fa5575f8281548110610f7157610f70612f99565b5b905f5260205f2090600b02016009018181548110610f9257610f91612f99565b5b905f5260205f2001549350505050610fd0565b8080610fb090613050565b915050610e60565b505b8080610fc590613050565b915050610d9e565b50505b9392505050565b6060610fe4848484610b03565b611023576040517f08c379a000000000000000000000000000000000000000000000000000000000815260040161101a9061316f565b60405180910390fd5b5f61102f85858561029d565b90505f61103d868686610d2c565b90505f825f015183602001518460400151856060015186608001515f01518760800151602001518860a001518c8c6110748b611eb8565b6110818d60c00151611eb8565b8d61012001516040516020016110a29c9b9a9998979695949392919061362f565b604051602081830303815290604052905060508360c00151116110e657806040516020016110d091906137e9565b6040516020818303038152906040529050611109565b806040516020016110f791906138a0565b60405160208183030381529060405290505b8093505050509392505050565b5f8160405160200161112891906138c1565b604051602081830303815290604052805190602001208360405160200161114f91906138c1565b6040516020818303038152906040528051906020012014905092915050565b6111788585611680565b6111b7576040517f08c379a00000000000000000000000000000000000000000000000000000000081526004016111ae90613947565b60405180910390fd5b6111c2858484610b03565b15611202576040517f08c379a00000000000000000000000000000000000000000000000000000000081526004016111f9906139af565b60405180910390fd5b5f5b60015481101561142a576112bf5f828154811061122457611223612f99565b5b905f5260205f2090600b02015f01805461123d90612ff3565b80601f016020809104026020016040519081016040528092919081815260200182805461126990612ff3565b80156112b45780601f1061128b576101008083540402835291602001916112b4565b820191905f5260205f20905b81548152906001019060200180831161129757829003601f168201915b505050505087611116565b801561137957506113785f82815481106112dc576112db612f99565b5b905f5260205f2090600b020160010180546112f690612ff3565b80601f016020809104026020016040519081016040528092919081815260200182805461132290612ff3565b801561136d5780601f106113445761010080835404028352916020019161136d565b820191905f5260205f20905b81548152906001019060200180831161135057829003601f168201915b505050505086611116565b5b15611417575f818154811061139157611390612f99565b5b905f5260205f2090600b020160080183908060018154018082558091505060019003905f5260205f20015f9091909190915090816113cf9190613b6a565b505f81815481106113e3576113e2612f99565b5b905f5260205f2090600b020160090182908060018154018082558091505060019003905f5260205f20015f90919091909150555b808061142290613050565b915050611204565b505050505050565b61143c8484611680565b61147b576040517f08c379a000000000000000000000000000000000000000000000000000000000815260040161147290612f1e565b60405180910390fd5b5f5b600154811015611679576115385f828154811061149d5761149c612f99565b5b905f5260205f2090600b02015f0180546114b690612ff3565b80601f01602080910402602001604051908101604052809291908181526020018280546114e290612ff3565b801561152d5780601f106115045761010080835404028352916020019161152d565b820191905f5260205f20905b81548152906001019060200180831161151057829003601f168201915b505050505086611116565b80156115f257506115f15f828154811061155557611554612f99565b5b905f5260205f2090600b0201600101805461156f90612ff3565b80601f016020809104026020016040519081016040528092919081815260200182805461159b90612ff3565b80156115e65780601f106115bd576101008083540402835291602001916115e6565b820191905f5260205f20905b8154815290600101906020018083116115c957829003601f168201915b505050505085611116565b5b1561166657825f828154811061160b5761160a612f99565b5b905f5260205f2090600b0201600801908051906020019061162d929190612069565b50815f828154811061164257611641612f99565b5b905f5260205f2090600b020160090190805190602001906116649291906120c0565b505b808061167190613050565b91505061147d565b5050505050565b5f805f90505b60015481101561181d576117415f82815481106116a6576116a5612f99565b5b905f5260205f2090600b02015f0180546116bf90612ff3565b80601f01602080910402602001604051908101604052809291908181526020018280546116eb90612ff3565b80156117365780601f1061170d57610100808354040283529160200191611736565b820191905f5260205f20905b81548152906001019060200180831161171957829003601f168201915b505050505085611116565b80156117fb57506117fa5f828154811061175e5761175d612f99565b5b905f5260205f2090600b0201600101805461177890612ff3565b80601f01602080910402602001604051908101604052809291908181526020018280546117a490612ff3565b80156117ef5780601f106117c6576101008083540402835291602001916117ef565b820191905f5260205f20905b8154815290600101906020018083116117d257829003601f168201915b505050505084611116565b5b1561180a576001915050611822565b808061181590613050565b915050611686565b505f90505b92915050565b60015481565b5f600154905090565b6118418b8b611680565b15611881576040517f08c379a000000000000000000000000000000000000000000000000000000000815260040161187890613c83565b60405180910390fd5b5f6040518061014001604052808d81526020018c81526020018b81526020018a815260200160405180604001604052808b81526020018a815250815260200187815260200186815260200185815260200184815260200183815250908060018154018082558091505060019003905f5260205f2090600b02015f909190919091505f820151815f0190816119159190613b6a565b50602082015181600101908161192b9190613b6a565b5060408201518160020190816119419190613b6a565b5060608201518160030190816119579190613b6a565b506080820151816004015f820151815f0190816119749190613b6a565b50602082015181600101908161198a9190613b6a565b50505060a08201518160060190816119a29190613b6a565b5060c0820151816007015560e08201518160080190805190602001906119c9929190612069565b506101008201518160090190805190602001906119e79291906120c0565b5061012082015181600a0190816119fe9190613b6a565b5050505f805490506001819055505050505050505050505050565b5f8181548110611a27575f80fd5b905f5260205f2090600b02015f91509050805f018054611a4690612ff3565b80601f0160208091040260200160405190810160405280929190818152602001828054611a7290612ff3565b8015611abd5780601f10611a9457610100808354040283529160200191611abd565b820191905f5260205f20905b815481529060010190602001808311611aa057829003601f168201915b505050505090806001018054611ad290612ff3565b80601f0160208091040260200160405190810160405280929190818152602001828054611afe90612ff3565b8015611b495780601f10611b2057610100808354040283529160200191611b49565b820191905f5260205f20905b815481529060010190602001808311611b2c57829003601f168201915b505050505090806002018054611b5e90612ff3565b80601f0160208091040260200160405190810160405280929190818152602001828054611b8a90612ff3565b8015611bd55780601f10611bac57610100808354040283529160200191611bd5565b820191905f5260205f20905b815481529060010190602001808311611bb857829003601f168201915b505050505090806003018054611bea90612ff3565b80601f0160208091040260200160405190810160405280929190818152602001828054611c1690612ff3565b8015611c615780601f10611c3857610100808354040283529160200191611c61565b820191905f5260205f20905b815481529060010190602001808311611c4457829003601f168201915b505050505090806004016040518060400160405290815f82018054611c8590612ff3565b80601f0160208091040260200160405190810160405280929190818152602001828054611cb190612ff3565b8015611cfc5780601f10611cd357610100808354040283529160200191611cfc565b820191905f5260205f20905b815481529060010190602001808311611cdf57829003601f168201915b50505050508152602001600182018054611d1590612ff3565b80601f0160208091040260200160405190810160405280929190818152602001828054611d4190612ff3565b8015611d8c5780601f10611d6357610100808354040283529160200191611d8c565b820191905f5260205f20905b815481529060010190602001808311611d6f57829003601f168201915b50505050508152505090806006018054611da590612ff3565b80601f0160208091040260200160405190810160405280929190818152602001828054611dd190612ff3565b8015611e1c5780601f10611df357610100808354040283529160200191611e1c565b820191905f5260205f20905b815481529060010190602001808311611dff57829003601f168201915b50505050509080600701549080600a018054611e3790612ff3565b80601f0160208091040260200160405190810160405280929190818152602001828054611e6390612ff3565b8015611eae5780601f10611e8557610100808354040283529160200191611eae565b820191905f5260205f20905b815481529060010190602001808311611e9157829003601f168201915b5050505050905088565b60605f8203611efe576040518060400160405280600181526020017f3000000000000000000000000000000000000000000000000000000000000000815250905061200c565b5f8290505f5b5f8214611f2d578080611f1690613050565b915050600a82611f269190613cce565b9150611f04565b5f8167ffffffffffffffff811115611f4857611f476121c9565b5b6040519080825280601f01601f191660200182016040528015611f7a5781602001600182028036833780820191505090505b5090505b5f851461200557600182611f929190613cfe565b9150600a85611fa19190613d31565b6030611fad9190613d61565b60f81b818381518110611fc357611fc2612f99565b5b60200101907effffffffffffffffffffffffffffffffffffffffffffffffffffffffffffff191690815f1a905350600a85611ffe9190613cce565b9450611f7e565b8093505050505b919050565b6040518061014001604052806060815260200160608152602001606081526020016060815260200161204161210b565b8152602001606081526020015f81526020016060815260200160608152602001606081525090565b828054828255905f5260205f209081019282156120af579160200282015b828111156120ae57825182908161209e9190613b6a565b5091602001919060010190612087565b5b5090506120bc9190612125565b5090565b828054828255905f5260205f209081019282156120fa579160200282015b828111156120f95782518255916020019190600101906120de565b5b5090506121079190612148565b5090565b604051806040016040528060608152602001606081525090565b5b80821115612144575f818161213b9190612163565b50600101612126565b5090565b5b8082111561215f575f815f905550600101612149565b5090565b50805461216f90612ff3565b5f825580601f10612180575061219d565b601f0160209004905f5260205f209081019061219c9190612148565b5b50565b5f604051905090565b5f80fd5b5f80fd5b5f80fd5b5f80fd5b5f601f19601f8301169050919050565b7f4e487b71000000000000000000000000000000000000000000000000000000005f52604160045260245ffd5b6121ff826121b9565b810181811067ffffffffffffffff8211171561221e5761221d6121c9565b5b80604052505050565b5f6122306121a0565b905061223c82826121f6565b919050565b5f67ffffffffffffffff82111561225b5761225a6121c9565b5b612264826121b9565b9050602081019050919050565b828183375f83830152505050565b5f61229161228c84612241565b612227565b9050828152602081018484840111156122ad576122ac6121b5565b5b6122b8848285612271565b509392505050565b5f82601f8301126122d4576122d36121b1565b5b81356122e484826020860161227f565b91505092915050565b5f805f60608486031215612304576123036121a9565b5b5f84013567ffffffffffffffff811115612321576123206121ad565b5b61232d868287016122c0565b935050602084013567ffffffffffffffff81111561234e5761234d6121ad565b5b61235a868287016122c0565b925050604084013567ffffffffffffffff81111561237b5761237a6121ad565b5b612387868287016122c0565b9150509250925092565b5f81519050919050565b5f82825260208201905092915050565b5f5b838110156123c85780820151818401526020810190506123ad565b5f8484015250505050565b5f6123dd82612391565b6123e7818561239b565b93506123f78185602086016123ab565b612400816121b9565b840191505092915050565b5f604083015f8301518482035f86015261242582826123d3565b9150506020830151848203602086015261243f82826123d3565b9150508091505092915050565b5f819050919050565b61245e8161244c565b82525050565b5f81519050919050565b5f82825260208201905092915050565b5f819050602082019050919050565b5f61249883836123d3565b905092915050565b5f602082019050919050565b5f6124b682612464565b6124c0818561246e565b9350836020820285016124d28561247e565b805f5b8581101561250d57848403895281516124ee858261248d565b94506124f9836124a0565b925060208a019950506001810190506124d5565b50829750879550505050505092915050565b5f81519050919050565b5f82825260208201905092915050565b5f819050602082019050919050565b5f6125538383612455565b60208301905092915050565b5f602082019050919050565b5f6125758261251f565b61257f8185612529565b935061258a83612539565b805f5b838110156125ba5781516125a18882612548565b97506125ac8361255f565b92505060018101905061258d565b5085935050505092915050565b5f61014083015f8301518482035f8601526125e282826123d3565b915050602083015184820360208601526125fc82826123d3565b9150506040830151848203604086015261261682826123d3565b9150506060830151848203606086015261263082826123d3565b9150506080830151848203608086015261264a828261240b565b91505060a083015184820360a086015261266482826123d3565b91505060c083015161267960c0860182612455565b5060e083015184820360e086015261269182826124ac565b9150506101008301518482036101008601526126ad828261256b565b9150506101208301518482036101208601526126c982826123d3565b9150508091505092915050565b5f6020820190508181035f8301526126ee81846125c7565b905092915050565b5f8115159050919050565b61270a816126f6565b82525050565b5f6020820190506127235f830184612701565b92915050565b6127328161244c565b82525050565b5f60208201905061274b5f830184612729565b92915050565b5f82825260208201905092915050565b5f61276b82612391565b6127758185612751565b93506127858185602086016123ab565b61278e816121b9565b840191505092915050565b5f6020820190508181035f8301526127b18184612761565b905092915050565b5f80604083850312156127cf576127ce6121a9565b5b5f83013567ffffffffffffffff8111156127ec576127eb6121ad565b5b6127f8858286016122c0565b925050602083013567ffffffffffffffff811115612819576128186121ad565b5b612825858286016122c0565b9150509250929050565b6128388161244c565b8114612842575f80fd5b50565b5f813590506128538161282f565b92915050565b5f805f805f60a08688031215612872576128716121a9565b5b5f86013567ffffffffffffffff81111561288f5761288e6121ad565b5b61289b888289016122c0565b955050602086013567ffffffffffffffff8111156128bc576128bb6121ad565b5b6128c8888289016122c0565b945050604086013567ffffffffffffffff8111156128e9576128e86121ad565b5b6128f5888289016122c0565b935050606086013567ffffffffffffffff811115612916576129156121ad565b5b612922888289016122c0565b925050608061293388828901612845565b9150509295509295909350565b5f67ffffffffffffffff82111561295a576129596121c9565b5b602082029050602081019050919050565b5f80fd5b5f61298161297c84612940565b612227565b905080838252602082019050602084028301858111156129a4576129a361296b565b5b835b818110156129eb57803567ffffffffffffffff8111156129c9576129c86121b1565b5b8086016129d689826122c0565b855260208501945050506020810190506129a6565b5050509392505050565b5f82601f830112612a0957612a086121b1565b5b8135612a1984826020860161296f565b91505092915050565b5f67ffffffffffffffff821115612a3c57612a3b6121c9565b5b602082029050602081019050919050565b5f612a5f612a5a84612a22565b612227565b90508083825260208201905060208402830185811115612a8257612a8161296b565b5b835b81811015612aab5780612a978882612845565b845260208401935050602081019050612a84565b5050509392505050565b5f82601f830112612ac957612ac86121b1565b5b8135612ad9848260208601612a4d565b91505092915050565b5f805f8060808587031215612afa57612af96121a9565b5b5f85013567ffffffffffffffff811115612b1757612b166121ad565b5b612b23878288016122c0565b945050602085013567ffffffffffffffff811115612b4457612b436121ad565b5b612b50878288016122c0565b935050604085013567ffffffffffffffff811115612b7157612b706121ad565b5b612b7d878288016129f5565b925050606085013567ffffffffffffffff811115612b9e57612b9d6121ad565b5b612baa87828801612ab5565b91505092959194509250565b5f805f805f805f805f805f6101608c8e031215612bd657612bd56121a9565b5b5f8c013567ffffffffffffffff811115612bf357612bf26121ad565b5b612bff8e828f016122c0565b9b505060208c013567ffffffffffffffff811115612c2057612c1f6121ad565b5b612c2c8e828f016122c0565b9a505060408c013567ffffffffffffffff811115612c4d57612c4c6121ad565b5b612c598e828f016122c0565b99505060608c013567ffffffffffffffff811115612c7a57612c796121ad565b5b612c868e828f016122c0565b98505060808c013567ffffffffffffffff811115612ca757612ca66121ad565b5b612cb38e828f016122c0565b97505060a08c013567ffffffffffffffff811115612cd457612cd36121ad565b5b612ce08e828f016122c0565b96505060c08c013567ffffffffffffffff811115612d0157612d006121ad565b5b612d0d8e828f016122c0565b95505060e0612d1e8e828f01612845565b9450506101008c013567ffffffffffffffff811115612d4057612d3f6121ad565b5b612d4c8e828f016129f5565b9350506101208c013567ffffffffffffffff811115612d6e57612d6d6121ad565b5b612d7a8e828f01612ab5565b9250506101408c013567ffffffffffffffff811115612d9c57612d9b6121ad565b5b612da88e828f016122c0565b9150509295989b509295989b9093969950565b5f60208284031215612dd057612dcf6121a9565b5b5f612ddd84828501612845565b91505092915050565b5f604083015f8301518482035f860152612e0082826123d3565b91505060208301518482036020860152612e1a82826123d3565b9150508091505092915050565b5f610100820190508181035f830152612e40818b612761565b90508181036020830152612e54818a612761565b90508181036040830152612e688189612761565b90508181036060830152612e7c8188612761565b90508181036080830152612e908187612de6565b905081810360a0830152612ea48186612761565b9050612eb360c0830185612729565b81810360e0830152612ec58184612761565b90509998505050505050505050565b7f4c6120636f6d6d616e6465206e276578697374652070617300000000000000005f82015250565b5f612f08601883612751565b9150612f1382612ed4565b602082019050919050565b5f6020820190508181035f830152612f3581612efc565b9050919050565b5f81905092915050565b5f612f5082612391565b612f5a8185612f3c565b9350612f6a8185602086016123ab565b80840191505092915050565b5f612f818285612f46565b9150612f8d8284612f46565b91508190509392505050565b7f4e487b71000000000000000000000000000000000000000000000000000000005f52603260045260245ffd5b7f4e487b71000000000000000000000000000000000000000000000000000000005f52602260045260245ffd5b5f600282049050600182168061300a57607f821691505b60208210810361301d5761301c612fc6565b5b50919050565b7f4e487b71000000000000000000000000000000000000000000000000000000005f52601160045260245ffd5b5f61305a8261244c565b91507fffffffffffffffffffffffffffffffffffffffffffffffffffffffffffffffff820361308c5761308b613023565b5b600182019050919050565b7f4c2761727469636c65206e2765786973746520706173000000000000000000005f82015250565b5f6130cb601683612751565b91506130d682613097565b602082019050919050565b5f6020820190508181035f8301526130f8816130bf565b9050919050565b7f4c2761727469636c65206e27657869737465207061732064616e73206c6120625f8201527f6c6f636b636861696e0000000000000000000000000000000000000000000000602082015250565b5f613159602983612751565b9150613164826130ff565b604082019050919050565b5f6020820190508181035f8301526131868161314d565b9050919050565b7f436f6465206475206d61676173696e203a2000000000000000000000000000005f82015250565b5f6131c1601283612f3c565b91506131cc8261318d565b601282019050919050565b7f0a204e756d65726f20646520436f6d6d616e64653a20000000000000000000005f82015250565b5f61320b601683612f3c565b9150613216826131d7565b601682019050919050565b7f0a204461746520642761727269766565206465206c6120636f6d6d616e64653a5f8201527f2000000000000000000000000000000000000000000000000000000000000000602082015250565b5f61327b602183612f3c565b915061328682613221565b602182019050919050565b7f0a204461746520646520636c6f74757265206465206c6120636f6d6d616e64655f8201527f3a20000000000000000000000000000000000000000000000000000000000000602082015250565b5f6132eb602283612f3c565b91506132f682613291565b602282019050919050565b7f0a20466f75726e697373657572203a20000000000000000000000000000000005f82015250565b5f613335601083612f3c565b915061334082613301565b601082019050919050565b7f0a204164726573736520647520466f75726e697373657572203a2000000000005f82015250565b5f61337f601b83612f3c565b915061338a8261334b565b601b82019050919050565b7f0a20436f64652073616e697461697265203a20000000000000000000000000005f82015250565b5f6133c9601383612f3c565b91506133d482613395565b601382019050919050565b7f0a20436f6465206475204c6f74203a20000000000000000000000000000000005f82015250565b5f613413601083612f3c565b915061341e826133df565b601082019050919050565b7f0a20636f64652041727469636c65203a200000000000000000000000000000005f82015250565b5f61345d601183612f3c565b915061346882613429565b601182019050919050565b7f0a20506f696473203a20000000000000000000000000000000000000000000005f82015250565b5f6134a7600a83612f3c565b91506134b282613473565b600a82019050919050565b7f6b670000000000000000000000000000000000000000000000000000000000005f82015250565b5f6134f1600283612f3c565b91506134fc826134bd565b600282019050919050565b7f0a2044697374616e6365203a20000000000000000000000000000000000000005f82015250565b5f61353b600d83612f3c565b915061354682613507565b600d82019050919050565b7f6b6d0000000000000000000000000000000000000000000000000000000000005f82015250565b5f613585600283612f3c565b915061359082613551565b600282019050919050565b7f0a20436f6d6d656e7461697265203a20000000000000000000000000000000005f82015250565b5f6135cf601083612f3c565b91506135da8261359b565b601082019050919050565b7f0a000000000000000000000000000000000000000000000000000000000000005f82015250565b5f613619600183612f3c565b9150613624826135e5565b600182019050919050565b5f613639826131b5565b9150613645828f612f46565b9150613650826131ff565b915061365c828e612f46565b91506136678261326f565b9150613673828d612f46565b915061367e826132df565b915061368a828c612f46565b915061369582613329565b91506136a1828b612f46565b91506136ac82613373565b91506136b8828a612f46565b91506136c3826133bd565b91506136cf8289612f46565b91506136da82613407565b91506136e68288612f46565b91506136f182613451565b91506136fd8287612f46565b91506137088261349b565b91506137148286612f46565b915061371f826134e5565b915061372a8261352f565b91506137368285612f46565b915061374182613579565b915061374c826135c3565b91506137588284612f46565b91506137638261360d565b91508190509d9c50505050505050505050505050565b7f3c623e432765737420756e2070726f64756974207175692070726f7669656e745f8201527f206427756e20636972637569742064652070726f78696d6974653c2f623e0000602082015250565b5f6137d3603e83612f3c565b91506137de82613779565b603e82019050919050565b5f6137f48284612f46565b91506137ff826137c7565b915081905092915050565b7f3c623e432765737420756e2070726f6475697420717569206e652070726f76695f8201527f656e7420706173206427756e20636972637569742064652070726f78696d697460208201527f653c2f623e000000000000000000000000000000000000000000000000000000604082015250565b5f61388a604583612f3c565b91506138958261380a565b604582019050919050565b5f6138ab8284612f46565b91506138b68261387e565b915081905092915050565b5f6138cc8284612f46565b915081905092915050565b7f4c6120636f6d6d616e64652061206d6f646966696572206e27657869737465205f8201527f7061730000000000000000000000000000000000000000000000000000000000602082015250565b5f613931602383612751565b915061393c826138d7565b604082019050919050565b5f6020820190508181035f83015261395e81613925565b9050919050565b7f4c2761727469636c65206120616a6f75746572206578697374652064656a61005f82015250565b5f613999601f83612751565b91506139a482613965565b602082019050919050565b5f6020820190508181035f8301526139c68161398d565b9050919050565b5f819050815f5260205f209050919050565b5f6020601f8301049050919050565b5f82821b905092915050565b5f60088302613a297fffffffffffffffffffffffffffffffffffffffffffffffffffffffffffffffff826139ee565b613a3386836139ee565b95508019841693508086168417925050509392505050565b5f819050919050565b5f613a6e613a69613a648461244c565b613a4b565b61244c565b9050919050565b5f819050919050565b613a8783613a54565b613a9b613a9382613a75565b8484546139fa565b825550505050565b5f90565b613aaf613aa3565b613aba818484613a7e565b505050565b5b81811015613add57613ad25f82613aa7565b600181019050613ac0565b5050565b601f821115613b2257613af3816139cd565b613afc846139df565b81016020851015613b0b578190505b613b1f613b17856139df565b830182613abf565b50505b505050565b5f82821c905092915050565b5f613b425f1984600802613b27565b1980831691505092915050565b5f613b5a8383613b33565b9150826002028217905092915050565b613b7382612391565b67ffffffffffffffff811115613b8c57613b8b6121c9565b5b613b968254612ff3565b613ba1828285613ae1565b5f60209050601f831160018114613bd2575f8415613bc0578287015190505b613bca8582613b4f565b865550613c31565b601f198416613be0866139cd565b5f5b82811015613c0757848901518255600182019150602085019450602081019050613be2565b86831015613c245784890151613c20601f891682613b33565b8355505b6001600288020188555050505b505050505050565b7f4c6120636f6d6d616e6465206578697374652064656a612100000000000000005f82015250565b5f613c6d601883612751565b9150613c7882613c39565b602082019050919050565b5f6020820190508181035f830152613c9a81613c61565b9050919050565b7f4e487b71000000000000000000000000000000000000000000000000000000005f52601260045260245ffd5b5f613cd88261244c565b9150613ce38361244c565b925082613cf357613cf2613ca1565b5b828204905092915050565b5f613d088261244c565b9150613d138361244c565b9250828203905081811115613d2b57613d2a613023565b5b92915050565b5f613d3b8261244c565b9150613d468361244c565b925082613d5657613d55613ca1565b5b828206905092915050565b5f613d6b8261244c565b9150613d768361244c565b9250828201905080821115613d8e57613d8d613023565b5b9291505056fea264697066735822122098c389b594684325c605d12ec173a64b82441f420696c9eee197eb2475b7d22564736f6c63430008150033",
			"opcodes": "PUSH1 0x80 PUSH1 0x40 MSTORE CALLVALUE DUP1 ISZERO PUSH2 0xF JUMPI PUSH0 DUP1 REVERT JUMPDEST POP PUSH2 0x3DCA DUP1 PUSH2 0x1D PUSH0 CODECOPY PUSH0 RETURN INVALID PUSH1 0x80 PUSH1 0x40 MSTORE CALLVALUE DUP1 ISZERO PUSH2 0xF JUMPI PUSH0 DUP1 REVERT JUMPDEST POP PUSH1 0x4 CALLDATASIZE LT PUSH2 0xB2 JUMPI PUSH0 CALLDATALOAD PUSH1 0xE0 SHR DUP1 PUSH4 0xDE775351 GT PUSH2 0x6F JUMPI DUP1 PUSH4 0xDE775351 EQ PUSH2 0x1C2 JUMPI DUP1 PUSH4 0xE6CF743D EQ PUSH2 0x1DE JUMPI DUP1 PUSH4 0xE8A38D53 EQ PUSH2 0x20E JUMPI DUP1 PUSH4 0xF11B344E EQ PUSH2 0x22C JUMPI DUP1 PUSH4 0xF8517B2B EQ PUSH2 0x24A JUMPI DUP1 PUSH4 0xFFD826D3 EQ PUSH2 0x266 JUMPI PUSH2 0xB2 JUMP JUMPDEST DUP1 PUSH4 0x5B172066 EQ PUSH2 0xB6 JUMPI DUP1 PUSH4 0x7E043C4A EQ PUSH2 0xE6 JUMPI DUP1 PUSH4 0x961522B1 EQ PUSH2 0x116 JUMPI DUP1 PUSH4 0xB7A567D6 EQ PUSH2 0x146 JUMPI DUP1 PUSH4 0xBED34BBA EQ PUSH2 0x176 JUMPI DUP1 PUSH4 0xCCFECAAC EQ PUSH2 0x1A6 JUMPI JUMPDEST PUSH0 DUP1 REVERT JUMPDEST PUSH2 0xD0 PUSH1 0x4 DUP1 CALLDATASIZE SUB DUP2 ADD SWAP1 PUSH2 0xCB SWAP2 SWAP1 PUSH2 0x22ED JUMP JUMPDEST PUSH2 0x29D JUMP JUMPDEST PUSH1 0x40 MLOAD PUSH2 0xDD SWAP2 SWAP1 PUSH2 0x26D6 JUMP JUMPDEST PUSH1 0x40 MLOAD DUP1 SWAP2 SUB SWAP1 RETURN JUMPDEST PUSH2 0x100 PUSH1 0x4 DUP1 CALLDATASIZE SUB DUP2 ADD SWAP1 PUSH2 0xFB SWAP2 SWAP1 PUSH2 0x22ED JUMP JUMPDEST PUSH2 0xB03 JUMP JUMPDEST PUSH1 0x40 MLOAD PUSH2 0x10D SWAP2 SWAP1 PUSH2 0x2710 JUMP JUMPDEST PUSH1 0x40 MLOAD DUP1 SWAP2 SUB SWAP1 RETURN JUMPDEST PUSH2 0x130 PUSH1 0x4 DUP1 CALLDATASIZE SUB DUP2 ADD SWAP1 PUSH2 0x12B SWAP2 SWAP1 PUSH2 0x22ED JUMP JUMPDEST PUSH2 0xD2C JUMP JUMPDEST PUSH1 0x40 MLOAD PUSH2 0x13D SWAP2 SWAP1 PUSH2 0x2738 JUMP JUMPDEST PUSH1 0x40 MLOAD DUP1 SWAP2 SUB SWAP1 RETURN JUMPDEST PUSH2 0x160 PUSH1 0x4 DUP1 CALLDATASIZE SUB DUP2 ADD SWAP1 PUSH2 0x15B SWAP2 SWAP1 PUSH2 0x22ED JUMP JUMPDEST PUSH2 0xFD7 JUMP JUMPDEST PUSH1 0x40 MLOAD PUSH2 0x16D SWAP2 SWAP1 PUSH2 0x2799 JUMP JUMPDEST PUSH1 0x40 MLOAD DUP1 SWAP2 SUB SWAP1 RETURN JUMPDEST PUSH2 0x190 PUSH1 0x4 DUP1 CALLDATASIZE SUB DUP2 ADD SWAP1 PUSH2 0x18B SWAP2 SWAP1 PUSH2 0x27B9 JUMP JUMPDEST PUSH2 0x1116 JUMP JUMPDEST PUSH1 0x40 MLOAD PUSH2 0x19D SWAP2 SWAP1 PUSH2 0x2710 JUMP JUMPDEST PUSH1 0x40 MLOAD DUP1 SWAP2 SUB SWAP1 RETURN JUMPDEST PUSH2 0x1C0 PUSH1 0x4 DUP1 CALLDATASIZE SUB DUP2 ADD SWAP1 PUSH2 0x1BB SWAP2 SWAP1 PUSH2 0x2859 JUMP JUMPDEST PUSH2 0x116E JUMP JUMPDEST STOP JUMPDEST PUSH2 0x1DC PUSH1 0x4 DUP1 CALLDATASIZE SUB DUP2 ADD SWAP1 PUSH2 0x1D7 SWAP2 SWAP1 PUSH2 0x2AE2 JUMP JUMPDEST PUSH2 0x1432 JUMP JUMPDEST STOP JUMPDEST PUSH2 0x1F8 PUSH1 0x4 DUP1 CALLDATASIZE SUB DUP2 ADD SWAP1 PUSH2 0x1F3 SWAP2 SWAP1 PUSH2 0x27B9 JUMP JUMPDEST PUSH2 0x1680 JUMP JUMPDEST PUSH1 0x40 MLOAD PUSH2 0x205 SWAP2 SWAP1 PUSH2 0x2710 JUMP JUMPDEST PUSH1 0x40 MLOAD DUP1 SWAP2 SUB SWAP1 RETURN JUMPDEST PUSH2 0x216 PUSH2 0x1828 JUMP JUMPDEST PUSH1 0x40 MLOAD PUSH2 0x223 SWAP2 SWAP1 PUSH2 0x2738 JUMP JUMPDEST PUSH1 0x40 MLOAD DUP1 SWAP2 SUB SWAP1 RETURN JUMPDEST PUSH2 0x234 PUSH2 0x182E JUMP JUMPDEST PUSH1 0x40 MLOAD PUSH2 0x241 SWAP2 SWAP1 PUSH2 0x2738 JUMP JUMPDEST PUSH1 0x40 MLOAD DUP1 SWAP2 SUB SWAP1 RETURN JUMPDEST PUSH2 0x264 PUSH1 0x4 DUP1 CALLDATASIZE SUB DUP2 ADD SWAP1 PUSH2 0x25F SWAP2 SWAP1 PUSH2 0x2BB6 JUMP JUMPDEST PUSH2 0x1837 JUMP JUMPDEST STOP JUMPDEST PUSH2 0x280 PUSH1 0x4 DUP1 CALLDATASIZE SUB DUP2 ADD SWAP1 PUSH2 0x27B SWAP2 SWAP1 PUSH2 0x2DBB JUMP JUMPDEST PUSH2 0x1A19 JUMP JUMPDEST PUSH1 0x40 MLOAD PUSH2 0x294 SWAP9 SWAP8 SWAP7 SWAP6 SWAP5 SWAP4 SWAP3 SWAP2 SWAP1 PUSH2 0x2E27 JUMP JUMPDEST PUSH1 0x40 MLOAD DUP1 SWAP2 SUB SWAP1 RETURN JUMPDEST PUSH2 0x2A5 PUSH2 0x2011 JUMP JUMPDEST PUSH2 0x2B0 DUP5 DUP5 DUP5 PUSH2 0xB03 JUMP JUMPDEST PUSH2 0x2EF JUMPI PUSH1 0x40 MLOAD PUSH32 0x8C379A000000000000000000000000000000000000000000000000000000000 DUP2 MSTORE PUSH1 0x4 ADD PUSH2 0x2E6 SWAP1 PUSH2 0x2F1E JUMP JUMPDEST PUSH1 0x40 MLOAD DUP1 SWAP2 SUB SWAP1 REVERT JUMPDEST PUSH0 DUP4 DUP4 PUSH1 0x40 MLOAD PUSH1 0x20 ADD PUSH2 0x303 SWAP3 SWAP2 SWAP1 PUSH2 0x2F76 JUMP JUMPDEST PUSH1 0x40 MLOAD PUSH1 0x20 DUP2 DUP4 SUB SUB DUP2 MSTORE SWAP1 PUSH1 0x40 MSTORE SWAP1 POP PUSH0 JUMPDEST PUSH1 0x1 SLOAD DUP2 LT ISZERO PUSH2 0xAF9 JUMPI PUSH2 0x3D1 PUSH0 DUP3 DUP2 SLOAD DUP2 LT PUSH2 0x336 JUMPI PUSH2 0x335 PUSH2 0x2F99 JUMP JUMPDEST JUMPDEST SWAP1 PUSH0 MSTORE PUSH1 0x20 PUSH0 KECCAK256 SWAP1 PUSH1 0xB MUL ADD PUSH0 ADD DUP1 SLOAD PUSH2 0x34F SWAP1 PUSH2 0x2FF3 JUMP JUMPDEST DUP1 PUSH1 0x1F ADD PUSH1 0x20 DUP1 SWAP2 DIV MUL PUSH1 0x20 ADD PUSH1 0x40 MLOAD SWAP1 DUP2 ADD PUSH1 0x40 MSTORE DUP1 SWAP3 SWAP2 SWAP1 DUP2 DUP2 MSTORE PUSH1 0x20 ADD DUP3 DUP1 SLOAD PUSH2 0x37B SWAP1 PUSH2 0x2FF3 JUMP JUMPDEST DUP1 ISZERO PUSH2 0x3C6 JUMPI DUP1 PUSH1 0x1F LT PUSH2 0x39D JUMPI PUSH2 0x100 DUP1 DUP4 SLOAD DIV MUL DUP4 MSTORE SWAP2 PUSH1 0x20 ADD SWAP2 PUSH2 0x3C6 JUMP JUMPDEST DUP3 ADD SWAP2 SWAP1 PUSH0 MSTORE PUSH1 0x20 PUSH0 KECCAK256 SWAP1 JUMPDEST DUP2 SLOAD DUP2 MSTORE SWAP1 PUSH1 0x1 ADD SWAP1 PUSH1 0x20 ADD DUP1 DUP4 GT PUSH2 0x3A9 JUMPI DUP3 SWAP1 SUB PUSH1 0x1F AND DUP3 ADD SWAP2 JUMPDEST POP POP POP POP POP DUP8 PUSH2 0x1116 JUMP JUMPDEST ISZERO PUSH2 0xAE6 JUMPI PUSH0 JUMPDEST PUSH0 DUP3 DUP2 SLOAD DUP2 LT PUSH2 0x3EB JUMPI PUSH2 0x3EA PUSH2 0x2F99 JUMP JUMPDEST JUMPDEST SWAP1 PUSH0 MSTORE PUSH1 0x20 PUSH0 KECCAK256 SWAP1 PUSH1 0xB MUL ADD PUSH1 0x8 ADD DUP1 SLOAD SWAP1 POP DUP2 LT ISZERO PUSH2 0xAE4 JUMPI PUSH2 0x4D1 PUSH0 DUP4 DUP2 SLOAD DUP2 LT PUSH2 0x41B JUMPI PUSH2 0x41A PUSH2 0x2F99 JUMP JUMPDEST JUMPDEST SWAP1 PUSH0 MSTORE PUSH1 0x20 PUSH0 KECCAK256 SWAP1 PUSH1 0xB MUL ADD PUSH1 0x8 ADD DUP3 DUP2 SLOAD DUP2 LT PUSH2 0x43C JUMPI PUSH2 0x43B PUSH2 0x2F99 JUMP JUMPDEST JUMPDEST SWAP1 PUSH0 MSTORE PUSH1 0x20 PUSH0 KECCAK256 ADD DUP1 SLOAD PUSH2 0x44F SWAP1 PUSH2 0x2FF3 JUMP JUMPDEST DUP1 PUSH1 0x1F ADD PUSH1 0x20 DUP1 SWAP2 DIV MUL PUSH1 0x20 ADD PUSH1 0x40 MLOAD SWAP1 DUP2 ADD PUSH1 0x40 MSTORE DUP1 SWAP3 SWAP2 SWAP1 DUP2 DUP2 MSTORE PUSH1 0x20 ADD DUP3 DUP1 SLOAD PUSH2 0x47B SWAP1 PUSH2 0x2FF3 JUMP JUMPDEST DUP1 ISZERO PUSH2 0x4C6 JUMPI DUP1 PUSH1 0x1F LT PUSH2 0x49D JUMPI PUSH2 0x100 DUP1 DUP4 SLOAD DIV MUL DUP4 MSTORE SWAP2 PUSH1 0x20 ADD SWAP2 PUSH2 0x4C6 JUMP JUMPDEST DUP3 ADD SWAP2 SWAP1 PUSH0 MSTORE PUSH1 0x20 PUSH0 KECCAK256 SWAP1 JUMPDEST DUP2 SLOAD DUP2 MSTORE SWAP1 PUSH1 0x1 ADD SWAP1 PUSH1 0x20 ADD DUP1 DUP4 GT PUSH2 0x4A9 JUMPI DUP3 SWAP1 SUB PUSH1 0x1F AND DUP3 ADD SWAP2 JUMPDEST POP POP POP POP POP DUP5 PUSH2 0x1116 JUMP JUMPDEST ISZERO PUSH2 0xAD1 JUMPI PUSH0 DUP3 DUP2 SLOAD DUP2 LT PUSH2 0x4E9 JUMPI PUSH2 0x4E8 PUSH2 0x2F99 JUMP JUMPDEST JUMPDEST SWAP1 PUSH0 MSTORE PUSH1 0x20 PUSH0 KECCAK256 SWAP1 PUSH1 0xB MUL ADD PUSH1 0x40 MLOAD DUP1 PUSH2 0x140 ADD PUSH1 0x40 MSTORE SWAP1 DUP2 PUSH0 DUP3 ADD DUP1 SLOAD PUSH2 0x510 SWAP1 PUSH2 0x2FF3 JUMP JUMPDEST DUP1 PUSH1 0x1F ADD PUSH1 0x20 DUP1 SWAP2 DIV MUL PUSH1 0x20 ADD PUSH1 0x40 MLOAD SWAP1 DUP2 ADD PUSH1 0x40 MSTORE DUP1 SWAP3 SWAP2 SWAP1 DUP2 DUP2 MSTORE PUSH1 0x20 ADD DUP3 DUP1 SLOAD PUSH2 0x53C SWAP1 PUSH2 0x2FF3 JUMP JUMPDEST DUP1 ISZERO PUSH2 0x587 JUMPI DUP1 PUSH1 0x1F LT PUSH2 0x55E JUMPI PUSH2 0x100 DUP1 DUP4 SLOAD DIV MUL DUP4 MSTORE SWAP2 PUSH1 0x20 ADD SWAP2 PUSH2 0x587 JUMP JUMPDEST DUP3 ADD SWAP2 SWAP1 PUSH0 MSTORE PUSH1 0x20 PUSH0 KECCAK256 SWAP1 JUMPDEST DUP2 SLOAD DUP2 MSTORE SWAP1 PUSH1 0x1 ADD SWAP1 PUSH1 0x20 ADD DUP1 DUP4 GT PUSH2 0x56A JUMPI DUP3 SWAP1 SUB PUSH1 0x1F AND DUP3 ADD SWAP2 JUMPDEST POP POP POP POP POP DUP2 MSTORE PUSH1 0x20 ADD PUSH1 0x1 DUP3 ADD DUP1 SLOAD PUSH2 0x5A0 SWAP1 PUSH2 0x2FF3 JUMP JUMPDEST DUP1 PUSH1 0x1F ADD PUSH1 0x20 DUP1 SWAP2 DIV MUL PUSH1 0x20 ADD PUSH1 0x40 MLOAD SWAP1 DUP2 ADD PUSH1 0x40 MSTORE DUP1 SWAP3 SWAP2 SWAP1 DUP2 DUP2 MSTORE PUSH1 0x20 ADD DUP3 DUP1 SLOAD PUSH2 0x5CC SWAP1 PUSH2 0x2FF3 JUMP JUMPDEST DUP1 ISZERO PUSH2 0x617 JUMPI DUP1 PUSH1 0x1F LT PUSH2 0x5EE JUMPI PUSH2 0x100 DUP1 DUP4 SLOAD DIV MUL DUP4 MSTORE SWAP2 PUSH1 0x20 ADD SWAP2 PUSH2 0x617 JUMP JUMPDEST DUP3 ADD SWAP2 SWAP1 PUSH0 MSTORE PUSH1 0x20 PUSH0 KECCAK256 SWAP1 JUMPDEST DUP2 SLOAD DUP2 MSTORE SWAP1 PUSH1 0x1 ADD SWAP1 PUSH1 0x20 ADD DUP1 DUP4 GT PUSH2 0x5FA JUMPI DUP3 SWAP1 SUB PUSH1 0x1F AND DUP3 ADD SWAP2 JUMPDEST POP POP POP POP POP DUP2 MSTORE PUSH1 0x20 ADD PUSH1 0x2 DUP3 ADD DUP1 SLOAD PUSH2 0x630 SWAP1 PUSH2 0x2FF3 JUMP JUMPDEST DUP1 PUSH1 0x1F ADD PUSH1 0x20 DUP1 SWAP2 DIV MUL PUSH1 0x20 ADD PUSH1 0x40 MLOAD SWAP1 DUP2 ADD PUSH1 0x40 MSTORE DUP1 SWAP3 SWAP2 SWAP1 DUP2 DUP2 MSTORE PUSH1 0x20 ADD DUP3 DUP1 SLOAD PUSH2 0x65C SWAP1 PUSH2 0x2FF3 JUMP JUMPDEST DUP1 ISZERO PUSH2 0x6A7 JUMPI DUP1 PUSH1 0x1F LT PUSH2 0x67E JUMPI PUSH2 0x100 DUP1 DUP4 SLOAD DIV MUL DUP4 MSTORE SWAP2 PUSH1 0x20 ADD SWAP2 PUSH2 0x6A7 JUMP JUMPDEST DUP3 ADD SWAP2 SWAP1 PUSH0 MSTORE PUSH1 0x20 PUSH0 KECCAK256 SWAP1 JUMPDEST DUP2 SLOAD DUP2 MSTORE SWAP1 PUSH1 0x1 ADD SWAP1 PUSH1 0x20 ADD DUP1 DUP4 GT PUSH2 0x68A JUMPI DUP3 SWAP1 SUB PUSH1 0x1F AND DUP3 ADD SWAP2 JUMPDEST POP POP POP POP POP DUP2 MSTORE PUSH1 0x20 ADD PUSH1 0x3 DUP3 ADD DUP1 SLOAD PUSH2 0x6C0 SWAP1 PUSH2 0x2FF3 JUMP JUMPDEST DUP1 PUSH1 0x1F ADD PUSH1 0x20 DUP1 SWAP2 DIV MUL PUSH1 0x20 ADD PUSH1 0x40 MLOAD SWAP1 DUP2 ADD PUSH1 0x40 MSTORE DUP1 SWAP3 SWAP2 SWAP1 DUP2 DUP2 MSTORE PUSH1 0x20 ADD DUP3 DUP1 SLOAD PUSH2 0x6EC SWAP1 PUSH2 0x2FF3 JUMP JUMPDEST DUP1 ISZERO PUSH2 0x737 JUMPI DUP1 PUSH1 0x1F LT PUSH2 0x70E JUMPI PUSH2 0x100 DUP1 DUP4 SLOAD DIV MUL DUP4 MSTORE SWAP2 PUSH1 0x20 ADD SWAP2 PUSH2 0x737 JUMP JUMPDEST DUP3 ADD SWAP2 SWAP1 PUSH0 MSTORE PUSH1 0x20 PUSH0 KECCAK256 SWAP1 JUMPDEST DUP2 SLOAD DUP2 MSTORE SWAP1 PUSH1 0x1 ADD SWAP1 PUSH1 0x20 ADD DUP1 DUP4 GT PUSH2 0x71A JUMPI DUP3 SWAP1 SUB PUSH1 0x1F AND DUP3 ADD SWAP2 JUMPDEST POP POP POP POP POP DUP2 MSTORE PUSH1 0x20 ADD PUSH1 0x4 DUP3 ADD PUSH1 0x40 MLOAD DUP1 PUSH1 0x40 ADD PUSH1 0x40 MSTORE SWAP1 DUP2 PUSH0 DUP3 ADD DUP1 SLOAD PUSH2 0x75F SWAP1 PUSH2 0x2FF3 JUMP JUMPDEST DUP1 PUSH1 0x1F ADD PUSH1 0x20 DUP1 SWAP2 DIV MUL PUSH1 0x20 ADD PUSH1 0x40 MLOAD SWAP1 DUP2 ADD PUSH1 0x40 MSTORE DUP1 SWAP3 SWAP2 SWAP1 DUP2 DUP2 MSTORE PUSH1 0x20 ADD DUP3 DUP1 SLOAD PUSH2 0x78B SWAP1 PUSH2 0x2FF3 JUMP JUMPDEST DUP1 ISZERO PUSH2 0x7D6 JUMPI DUP1 PUSH1 0x1F LT PUSH2 0x7AD JUMPI PUSH2 0x100 DUP1 DUP4 SLOAD DIV MUL DUP4 MSTORE SWAP2 PUSH1 0x20 ADD SWAP2 PUSH2 0x7D6 JUMP JUMPDEST DUP3 ADD SWAP2 SWAP1 PUSH0 MSTORE PUSH1 0x20 PUSH0 KECCAK256 SWAP1 JUMPDEST DUP2 SLOAD DUP2 MSTORE SWAP1 PUSH1 0x1 ADD SWAP1 PUSH1 0x20 ADD DUP1 DUP4 GT PUSH2 0x7B9 JUMPI DUP3 SWAP1 SUB PUSH1 0x1F AND DUP3 ADD SWAP2 JUMPDEST POP POP POP POP POP DUP2 MSTORE PUSH1 0x20 ADD PUSH1 0x1 DUP3 ADD DUP1 SLOAD PUSH2 0x7EF SWAP1 PUSH2 0x2FF3 JUMP JUMPDEST DUP1 PUSH1 0x1F ADD PUSH1 0x20 DUP1 SWAP2 DIV MUL PUSH1 0x20 ADD PUSH1 0x40 MLOAD SWAP1 DUP2 ADD PUSH1 0x40 MSTORE DUP1 SWAP3 SWAP2 SWAP1 DUP2 DUP2 MSTORE PUSH1 0x20 ADD DUP3 DUP1 SLOAD PUSH2 0x81B SWAP1 PUSH2 0x2FF3 JUMP JUMPDEST DUP1 ISZERO PUSH2 0x866 JUMPI DUP1 PUSH1 0x1F LT PUSH2 0x83D JUMPI PUSH2 0x100 DUP1 DUP4 SLOAD DIV MUL DUP4 MSTORE SWAP2 PUSH1 0x20 ADD SWAP2 PUSH2 0x866 JUMP JUMPDEST DUP3 ADD SWAP2 SWAP1 PUSH0 MSTORE PUSH1 0x20 PUSH0 KECCAK256 SWAP1 JUMPDEST DUP2 SLOAD DUP2 MSTORE SWAP1 PUSH1 0x1 ADD SWAP1 PUSH1 0x20 ADD DUP1 DUP4 GT PUSH2 0x849 JUMPI DUP3 SWAP1 SUB PUSH1 0x1F AND DUP3 ADD SWAP2 JUMPDEST POP POP POP POP POP DUP2 MSTORE POP POP DUP2 MSTORE PUSH1 0x20 ADD PUSH1 0x6 DUP3 ADD DUP1 SLOAD PUSH2 0x883 SWAP1 PUSH2 0x2FF3 JUMP JUMPDEST DUP1 PUSH1 0x1F ADD PUSH1 0x20 DUP1 SWAP2 DIV MUL PUSH1 0x20 ADD PUSH1 0x40 MLOAD SWAP1 DUP2 ADD PUSH1 0x40 MSTORE DUP1 SWAP3 SWAP2 SWAP1 DUP2 DUP2 MSTORE PUSH1 0x20 ADD DUP3 DUP1 SLOAD PUSH2 0x8AF SWAP1 PUSH2 0x2FF3 JUMP JUMPDEST DUP1 ISZERO PUSH2 0x8FA JUMPI DUP1 PUSH1 0x1F LT PUSH2 0x8D1 JUMPI PUSH2 0x100 DUP1 DUP4 SLOAD DIV MUL DUP4 MSTORE SWAP2 PUSH1 0x20 ADD SWAP2 PUSH2 0x8FA JUMP JUMPDEST DUP3 ADD SWAP2 SWAP1 PUSH0 MSTORE PUSH1 0x20 PUSH0 KECCAK256 SWAP1 JUMPDEST DUP2 SLOAD DUP2 MSTORE SWAP1 PUSH1 0x1 ADD SWAP1 PUSH1 0x20 ADD DUP1 DUP4 GT PUSH2 0x8DD JUMPI DUP3 SWAP1 SUB PUSH1 0x1F AND DUP3 ADD SWAP2 JUMPDEST POP POP POP POP POP DUP2 MSTORE PUSH1 0x20 ADD PUSH1 0x7 DUP3 ADD SLOAD DUP2 MSTORE PUSH1 0x20 ADD PUSH1 0x8 DUP3 ADD DUP1 SLOAD DUP1 PUSH1 0x20 MUL PUSH1 0x20 ADD PUSH1 0x40 MLOAD SWAP1 DUP2 ADD PUSH1 0x40 MSTORE DUP1 SWAP3 SWAP2 SWAP1 DUP2 DUP2 MSTORE PUSH1 0x20 ADD PUSH0 SWAP1 JUMPDEST DUP3 DUP3 LT ISZERO PUSH2 0x9D9 JUMPI DUP4 DUP3 SWAP1 PUSH0 MSTORE PUSH1 0x20 PUSH0 KECCAK256 ADD DUP1 SLOAD PUSH2 0x94E SWAP1 PUSH2 0x2FF3 JUMP JUMPDEST DUP1 PUSH1 0x1F ADD PUSH1 0x20 DUP1 SWAP2 DIV MUL PUSH1 0x20 ADD PUSH1 0x40 MLOAD SWAP1 DUP2 ADD PUSH1 0x40 MSTORE DUP1 SWAP3 SWAP2 SWAP1 DUP2 DUP2 MSTORE PUSH1 0x20 ADD DUP3 DUP1 SLOAD PUSH2 0x97A SWAP1 PUSH2 0x2FF3 JUMP JUMPDEST DUP1 ISZERO PUSH2 0x9C5 JUMPI DUP1 PUSH1 0x1F LT PUSH2 0x99C JUMPI PUSH2 0x100 DUP1 DUP4 SLOAD DIV MUL DUP4 MSTORE SWAP2 PUSH1 0x20 ADD SWAP2 PUSH2 0x9C5 JUMP JUMPDEST DUP3 ADD SWAP2 SWAP1 PUSH0 MSTORE PUSH1 0x20 PUSH0 KECCAK256 SWAP1 JUMPDEST DUP2 SLOAD DUP2 MSTORE SWAP1 PUSH1 0x1 ADD SWAP1 PUSH1 0x20 ADD DUP1 DUP4 GT PUSH2 0x9A8 JUMPI DUP3 SWAP1 SUB PUSH1 0x1F AND DUP3 ADD SWAP2 JUMPDEST POP POP POP POP POP DUP2 MSTORE PUSH1 0x20 ADD SWAP1 PUSH1 0x1 ADD SWAP1 PUSH2 0x931 JUMP JUMPDEST POP POP POP POP DUP2 MSTORE PUSH1 0x20 ADD PUSH1 0x9 DUP3 ADD DUP1 SLOAD DUP1 PUSH1 0x20 MUL PUSH1 0x20 ADD PUSH1 0x40 MLOAD SWAP1 DUP2 ADD PUSH1 0x40 MSTORE DUP1 SWAP3 SWAP2 SWAP1 DUP2 DUP2 MSTORE PUSH1 0x20 ADD DUP3 DUP1 SLOAD DUP1 ISZERO PUSH2 0xA2E JUMPI PUSH1 0x20 MUL DUP3 ADD SWAP2 SWAP1 PUSH0 MSTORE PUSH1 0x20 PUSH0 KECCAK256 SWAP1 JUMPDEST DUP2 SLOAD DUP2 MSTORE PUSH1 0x20 ADD SWAP1 PUSH1 0x1 ADD SWAP1 DUP1 DUP4 GT PUSH2 0xA1A JUMPI JUMPDEST POP POP POP POP POP DUP2 MSTORE PUSH1 0x20 ADD PUSH1 0xA DUP3 ADD DUP1 SLOAD PUSH2 0xA47 SWAP1 PUSH2 0x2FF3 JUMP JUMPDEST DUP1 PUSH1 0x1F ADD PUSH1 0x20 DUP1 SWAP2 DIV MUL PUSH1 0x20 ADD PUSH1 0x40 MLOAD SWAP1 DUP2 ADD PUSH1 0x40 MSTORE DUP1 SWAP3 SWAP2 SWAP1 DUP2 DUP2 MSTORE PUSH1 0x20 ADD DUP3 DUP1 SLOAD PUSH2 0xA73 SWAP1 PUSH2 0x2FF3 JUMP JUMPDEST DUP1 ISZERO PUSH2 0xABE JUMPI DUP1 PUSH1 0x1F LT PUSH2 0xA95 JUMPI PUSH2 0x100 DUP1 DUP4 SLOAD DIV MUL DUP4 MSTORE SWAP2 PUSH1 0x20 ADD SWAP2 PUSH2 0xABE JUMP JUMPDEST DUP3 ADD SWAP2 SWAP1 PUSH0 MSTORE PUSH1 0x20 PUSH0 KECCAK256 SWAP1 JUMPDEST DUP2 SLOAD DUP2 MSTORE SWAP1 PUSH1 0x1 ADD SWAP1 PUSH1 0x20 ADD DUP1 DUP4 GT PUSH2 0xAA1 JUMPI DUP3 SWAP1 SUB PUSH1 0x1F AND DUP3 ADD SWAP2 JUMPDEST POP POP POP POP POP DUP2 MSTORE POP POP SWAP4 POP POP POP POP PUSH2 0xAFC JUMP JUMPDEST DUP1 DUP1 PUSH2 0xADC SWAP1 PUSH2 0x3050 JUMP JUMPDEST SWAP2 POP POP PUSH2 0x3D8 JUMP JUMPDEST POP JUMPDEST DUP1 DUP1 PUSH2 0xAF1 SWAP1 PUSH2 0x3050 JUMP JUMPDEST SWAP2 POP POP PUSH2 0x316 JUMP JUMPDEST POP POP JUMPDEST SWAP4 SWAP3 POP POP POP JUMP JUMPDEST PUSH0 DUP1 DUP4 DUP4 PUSH1 0x40 MLOAD PUSH1 0x20 ADD PUSH2 0xB18 SWAP3 SWAP2 SWAP1 PUSH2 0x2F76 JUMP JUMPDEST PUSH1 0x40 MLOAD PUSH1 0x20 DUP2 DUP4 SUB SUB DUP2 MSTORE SWAP1 PUSH1 0x40 MSTORE SWAP1 POP PUSH0 JUMPDEST PUSH1 0x1 SLOAD DUP2 LT ISZERO PUSH2 0xD1F JUMPI PUSH2 0xBE6 PUSH0 DUP3 DUP2 SLOAD DUP2 LT PUSH2 0xB4B JUMPI PUSH2 0xB4A PUSH2 0x2F99 JUMP JUMPDEST JUMPDEST SWAP1 PUSH0 MSTORE PUSH1 0x20 PUSH0 KECCAK256 SWAP1 PUSH1 0xB MUL ADD PUSH0 ADD DUP1 SLOAD PUSH2 0xB64 SWAP1 PUSH2 0x2FF3 JUMP JUMPDEST DUP1 PUSH1 0x1F ADD PUSH1 0x20 DUP1 SWAP2 DIV MUL PUSH1 0x20 ADD PUSH1 0x40 MLOAD SWAP1 DUP2 ADD PUSH1 0x40 MSTORE DUP1 SWAP3 SWAP2 SWAP1 DUP2 DUP2 MSTORE PUSH1 0x20 ADD DUP3 DUP1 SLOAD PUSH2 0xB90 SWAP1 PUSH2 0x2FF3 JUMP JUMPDEST DUP1 ISZERO PUSH2 0xBDB JUMPI DUP1 PUSH1 0x1F LT PUSH2 0xBB2 JUMPI PUSH2 0x100 DUP1 DUP4 SLOAD DIV MUL DUP4 MSTORE SWAP2 PUSH1 0x20 ADD SWAP2 PUSH2 0xBDB JUMP JUMPDEST DUP3 ADD SWAP2 SWAP1 PUSH0 MSTORE PUSH1 0x20 PUSH0 KECCAK256 SWAP1 JUMPDEST DUP2 SLOAD DUP2 MSTORE SWAP1 PUSH1 0x1 ADD SWAP1 PUSH1 0x20 ADD DUP1 DUP4 GT PUSH2 0xBBE JUMPI DUP3 SWAP1 SUB PUSH1 0x1F AND DUP3 ADD SWAP2 JUMPDEST POP POP POP POP POP DUP8 PUSH2 0x1116 JUMP JUMPDEST ISZERO PUSH2 0xD0C JUMPI PUSH0 JUMPDEST PUSH0 DUP3 DUP2 SLOAD DUP2 LT PUSH2 0xC00 JUMPI PUSH2 0xBFF PUSH2 0x2F99 JUMP JUMPDEST JUMPDEST SWAP1 PUSH0 MSTORE PUSH1 0x20 PUSH0 KECCAK256 SWAP1 PUSH1 0xB MUL ADD PUSH1 0x8 ADD DUP1 SLOAD SWAP1 POP DUP2 LT ISZERO PUSH2 0xD0A JUMPI PUSH2 0xCE6 PUSH0 DUP4 DUP2 SLOAD DUP2 LT PUSH2 0xC30 JUMPI PUSH2 0xC2F PUSH2 0x2F99 JUMP JUMPDEST JUMPDEST SWAP1 PUSH0 MSTORE PUSH1 0x20 PUSH0 KECCAK256 SWAP1 PUSH1 0xB MUL ADD PUSH1 0x8 ADD DUP3 DUP2 SLOAD DUP2 LT PUSH2 0xC51 JUMPI PUSH2 0xC50 PUSH2 0x2F99 JUMP JUMPDEST JUMPDEST SWAP1 PUSH0 MSTORE PUSH1 0x20 PUSH0 KECCAK256 ADD DUP1 SLOAD PUSH2 0xC64 SWAP1 PUSH2 0x2FF3 JUMP JUMPDEST DUP1 PUSH1 0x1F ADD PUSH1 0x20 DUP1 SWAP2 DIV MUL PUSH1 0x20 ADD PUSH1 0x40 MLOAD SWAP1 DUP2 ADD PUSH1 0x40 MSTORE DUP1 SWAP3 SWAP2 SWAP1 DUP2 DUP2 MSTORE PUSH1 0x20 ADD DUP3 DUP1 SLOAD PUSH2 0xC90 SWAP1 PUSH2 0x2FF3 JUMP JUMPDEST DUP1 ISZERO PUSH2 0xCDB JUMPI DUP1 PUSH1 0x1F LT PUSH2 0xCB2 JUMPI PUSH2 0x100 DUP1 DUP4 SLOAD DIV MUL DUP4 MSTORE SWAP2 PUSH1 0x20 ADD SWAP2 PUSH2 0xCDB JUMP JUMPDEST DUP3 ADD SWAP2 SWAP1 PUSH0 MSTORE PUSH1 0x20 PUSH0 KECCAK256 SWAP1 JUMPDEST DUP2 SLOAD DUP2 MSTORE SWAP1 PUSH1 0x1 ADD SWAP1 PUSH1 0x20 ADD DUP1 DUP4 GT PUSH2 0xCBE JUMPI DUP3 SWAP1 SUB PUSH1 0x1F AND DUP3 ADD SWAP2 JUMPDEST POP POP POP POP POP DUP5 PUSH2 0x1116 JUMP JUMPDEST ISZERO PUSH2 0xCF7 JUMPI PUSH1 0x1 SWAP4 POP POP POP POP PUSH2 0xD25 JUMP JUMPDEST DUP1 DUP1 PUSH2 0xD02 SWAP1 PUSH2 0x3050 JUMP JUMPDEST SWAP2 POP POP PUSH2 0xBED JUMP JUMPDEST POP JUMPDEST DUP1 DUP1 PUSH2 0xD17 SWAP1 PUSH2 0x3050 JUMP JUMPDEST SWAP2 POP POP PUSH2 0xB2B JUMP JUMPDEST POP PUSH0 SWAP2 POP POP JUMPDEST SWAP4 SWAP3 POP POP POP JUMP JUMPDEST PUSH0 PUSH2 0xD38 DUP5 DUP5 DUP5 PUSH2 0xB03 JUMP JUMPDEST PUSH2 0xD77 JUMPI PUSH1 0x40 MLOAD PUSH32 0x8C379A000000000000000000000000000000000000000000000000000000000 DUP2 MSTORE PUSH1 0x4 ADD PUSH2 0xD6E SWAP1 PUSH2 0x30E1 JUMP JUMPDEST PUSH1 0x40 MLOAD DUP1 SWAP2 SUB SWAP1 REVERT JUMPDEST PUSH0 DUP4 DUP4 PUSH1 0x40 MLOAD PUSH1 0x20 ADD PUSH2 0xD8B SWAP3 SWAP2 SWAP1 PUSH2 0x2F76 JUMP JUMPDEST PUSH1 0x40 MLOAD PUSH1 0x20 DUP2 DUP4 SUB SUB DUP2 MSTORE SWAP1 PUSH1 0x40 MSTORE SWAP1 POP PUSH0 JUMPDEST PUSH1 0x1 SLOAD DUP2 LT ISZERO PUSH2 0xFCD JUMPI PUSH2 0xE59 PUSH0 DUP3 DUP2 SLOAD DUP2 LT PUSH2 0xDBE JUMPI PUSH2 0xDBD PUSH2 0x2F99 JUMP JUMPDEST JUMPDEST SWAP1 PUSH0 MSTORE PUSH1 0x20 PUSH0 KECCAK256 SWAP1 PUSH1 0xB MUL ADD PUSH0 ADD DUP1 SLOAD PUSH2 0xDD7 SWAP1 PUSH2 0x2FF3 JUMP JUMPDEST DUP1 PUSH1 0x1F ADD PUSH1 0x20 DUP1 SWAP2 DIV MUL PUSH1 0x20 ADD PUSH1 0x40 MLOAD SWAP1 DUP2 ADD PUSH1 0x40 MSTORE DUP1 SWAP3 SWAP2 SWAP1 DUP2 DUP2 MSTORE PUSH1 0x20 ADD DUP3 DUP1 SLOAD PUSH2 0xE03 SWAP1 PUSH2 0x2FF3 JUMP JUMPDEST DUP1 ISZERO PUSH2 0xE4E JUMPI DUP1 PUSH1 0x1F LT PUSH2 0xE25 JUMPI PUSH2 0x100 DUP1 DUP4 SLOAD DIV MUL DUP4 MSTORE SWAP2 PUSH1 0x20 ADD SWAP2 PUSH2 0xE4E JUMP JUMPDEST DUP3 ADD SWAP2 SWAP1 PUSH0 MSTORE PUSH1 0x20 PUSH0 KECCAK256 SWAP1 JUMPDEST DUP2 SLOAD DUP2 MSTORE SWAP1 PUSH1 0x1 ADD SWAP1 PUSH1 0x20 ADD DUP1 DUP4 GT PUSH2 0xE31 JUMPI DUP3 SWAP1 SUB PUSH1 0x1F AND DUP3 ADD SWAP2 JUMPDEST POP POP POP POP POP DUP8 PUSH2 0x1116 JUMP JUMPDEST ISZERO PUSH2 0xFBA JUMPI PUSH0 JUMPDEST PUSH0 DUP3 DUP2 SLOAD DUP2 LT PUSH2 0xE73 JUMPI PUSH2 0xE72 PUSH2 0x2F99 JUMP JUMPDEST JUMPDEST SWAP1 PUSH0 MSTORE PUSH1 0x20 PUSH0 KECCAK256 SWAP1 PUSH1 0xB MUL ADD PUSH1 0x8 ADD DUP1 SLOAD SWAP1 POP DUP2 LT ISZERO PUSH2 0xFB8 JUMPI PUSH2 0xF59 PUSH0 DUP4 DUP2 SLOAD DUP2 LT PUSH2 0xEA3 JUMPI PUSH2 0xEA2 PUSH2 0x2F99 JUMP JUMPDEST JUMPDEST SWAP1 PUSH0 MSTORE PUSH1 0x20 PUSH0 KECCAK256 SWAP1 PUSH1 0xB MUL ADD PUSH1 0x8 ADD DUP3 DUP2 SLOAD DUP2 LT PUSH2 0xEC4 JUMPI PUSH2 0xEC3 PUSH2 0x2F99 JUMP JUMPDEST JUMPDEST SWAP1 PUSH0 MSTORE PUSH1 0x20 PUSH0 KECCAK256 ADD DUP1 SLOAD PUSH2 0xED7 SWAP1 PUSH2 0x2FF3 JUMP JUMPDEST DUP1 PUSH1 0x1F ADD PUSH1 0x20 DUP1 SWAP2 DIV MUL PUSH1 0x20 ADD PUSH1 0x40 MLOAD SWAP1 DUP2 ADD PUSH1 0x40 MSTORE DUP1 SWAP3 SWAP2 SWAP1 DUP2 DUP2 MSTORE PUSH1 0x20 ADD DUP3 DUP1 SLOAD PUSH2 0xF03 SWAP1 PUSH2 0x2FF3 JUMP JUMPDEST DUP1 ISZERO PUSH2 0xF4E JUMPI DUP1 PUSH1 0x1F LT PUSH2 0xF25 JUMPI PUSH2 0x100 DUP1 DUP4 SLOAD DIV MUL DUP4 MSTORE SWAP2 PUSH1 0x20 ADD SWAP2 PUSH2 0xF4E JUMP JUMPDEST DUP3 ADD SWAP2 SWAP1 PUSH0 MSTORE PUSH1 0x20 PUSH0 KECCAK256 SWAP1 JUMPDEST DUP2 SLOAD DUP2 MSTORE SWAP1 PUSH1 0x1 ADD SWAP1 PUSH1 0x20 ADD DUP1 DUP4 GT PUSH2 0xF31 JUMPI DUP3 SWAP1 SUB PUSH1 0x1F AND DUP3 ADD SWAP2 JUMPDEST POP POP POP POP POP DUP5 PUSH2 0x1116 JUMP JUMPDEST ISZERO PUSH2 0xFA5 JUMPI PUSH0 DUP3 DUP2 SLOAD DUP2 LT PUSH2 0xF71 JUMPI PUSH2 0xF70 PUSH2 0x2F99 JUMP JUMPDEST JUMPDEST SWAP1 PUSH0 MSTORE PUSH1 0x20 PUSH0 KECCAK256 SWAP1 PUSH1 0xB MUL ADD PUSH1 0x9 ADD DUP2 DUP2 SLOAD DUP2 LT PUSH2 0xF92 JUMPI PUSH2 0xF91 PUSH2 0x2F99 JUMP JUMPDEST JUMPDEST SWAP1 PUSH0 MSTORE PUSH1 0x20 PUSH0 KECCAK256 ADD SLOAD SWAP4 POP POP POP POP PUSH2 0xFD0 JUMP JUMPDEST DUP1 DUP1 PUSH2 0xFB0 SWAP1 PUSH2 0x3050 JUMP JUMPDEST SWAP2 POP POP PUSH2 0xE60 JUMP JUMPDEST POP JUMPDEST DUP1 DUP1 PUSH2 0xFC5 SWAP1 PUSH2 0x3050 JUMP JUMPDEST SWAP2 POP POP PUSH2 0xD9E JUMP JUMPDEST POP POP JUMPDEST SWAP4 SWAP3 POP POP POP JUMP JUMPDEST PUSH1 0x60 PUSH2 0xFE4 DUP5 DUP5 DUP5 PUSH2 0xB03 JUMP JUMPDEST PUSH2 0x1023 JUMPI PUSH1 0x40 MLOAD PUSH32 0x8C379A000000000000000000000000000000000000000000000000000000000 DUP2 MSTORE PUSH1 0x4 ADD PUSH2 0x101A SWAP1 PUSH2 0x316F JUMP JUMPDEST PUSH1 0x40 MLOAD DUP1 SWAP2 SUB SWAP1 REVERT JUMPDEST PUSH0 PUSH2 0x102F DUP6 DUP6 DUP6 PUSH2 0x29D JUMP JUMPDEST SWAP1 POP PUSH0 PUSH2 0x103D DUP7 DUP7 DUP7 PUSH2 0xD2C JUMP JUMPDEST SWAP1 POP PUSH0 DUP3 PUSH0 ADD MLOAD DUP4 PUSH1 0x20 ADD MLOAD DUP5 PUSH1 0x40 ADD MLOAD DUP6 PUSH1 0x60 ADD MLOAD DUP7 PUSH1 0x80 ADD MLOAD PUSH0 ADD MLOAD DUP8 PUSH1 0x80 ADD MLOAD PUSH1 0x20 ADD MLOAD DUP9 PUSH1 0xA0 ADD MLOAD DUP13 DUP13 PUSH2 0x1074 DUP12 PUSH2 0x1EB8 JUMP JUMPDEST PUSH2 0x1081 DUP14 PUSH1 0xC0 ADD MLOAD PUSH2 0x1EB8 JUMP JUMPDEST DUP14 PUSH2 0x120 ADD MLOAD PUSH1 0x40 MLOAD PUSH1 0x20 ADD PUSH2 0x10A2 SWAP13 SWAP12 SWAP11 SWAP10 SWAP9 SWAP8 SWAP7 SWAP6 SWAP5 SWAP4 SWAP3 SWAP2 SWAP1 PUSH2 0x362F JUMP JUMPDEST PUSH1 0x40 MLOAD PUSH1 0x20 DUP2 DUP4 SUB SUB DUP2 MSTORE SWAP1 PUSH1 0x40 MSTORE SWAP1 POP PUSH1 0x50 DUP4 PUSH1 0xC0 ADD MLOAD GT PUSH2 0x10E6 JUMPI DUP1 PUSH1 0x40 MLOAD PUSH1 0x20 ADD PUSH2 0x10D0 SWAP2 SWAP1 PUSH2 0x37E9 JUMP JUMPDEST PUSH1 0x40 MLOAD PUSH1 0x20 DUP2 DUP4 SUB SUB DUP2 MSTORE SWAP1 PUSH1 0x40 MSTORE SWAP1 POP PUSH2 0x1109 JUMP JUMPDEST DUP1 PUSH1 0x40 MLOAD PUSH1 0x20 ADD PUSH2 0x10F7 SWAP2 SWAP1 PUSH2 0x38A0 JUMP JUMPDEST PUSH1 0x40 MLOAD PUSH1 0x20 DUP2 DUP4 SUB SUB DUP2 MSTORE SWAP1 PUSH1 0x40 MSTORE SWAP1 POP JUMPDEST DUP1 SWAP4 POP POP POP POP SWAP4 SWAP3 POP POP POP JUMP JUMPDEST PUSH0 DUP2 PUSH1 0x40 MLOAD PUSH1 0x20 ADD PUSH2 0x1128 SWAP2 SWAP1 PUSH2 0x38C1 JUMP JUMPDEST PUSH1 0x40 MLOAD PUSH1 0x20 DUP2 DUP4 SUB SUB DUP2 MSTORE SWAP1 PUSH1 0x40 MSTORE DUP1 MLOAD SWAP1 PUSH1 0x20 ADD KECCAK256 DUP4 PUSH1 0x40 MLOAD PUSH1 0x20 ADD PUSH2 0x114F SWAP2 SWAP1 PUSH2 0x38C1 JUMP JUMPDEST PUSH1 0x40 MLOAD PUSH1 0x20 DUP2 DUP4 SUB SUB DUP2 MSTORE SWAP1 PUSH1 0x40 MSTORE DUP1 MLOAD SWAP1 PUSH1 0x20 ADD KECCAK256 EQ SWAP1 POP SWAP3 SWAP2 POP POP JUMP JUMPDEST PUSH2 0x1178 DUP6 DUP6 PUSH2 0x1680 JUMP JUMPDEST PUSH2 0x11B7 JUMPI PUSH1 0x40 MLOAD PUSH32 0x8C379A000000000000000000000000000000000000000000000000000000000 DUP2 MSTORE PUSH1 0x4 ADD PUSH2 0x11AE SWAP1 PUSH2 0x3947 JUMP JUMPDEST PUSH1 0x40 MLOAD DUP1 SWAP2 SUB SWAP1 REVERT JUMPDEST PUSH2 0x11C2 DUP6 DUP5 DUP5 PUSH2 0xB03 JUMP JUMPDEST ISZERO PUSH2 0x1202 JUMPI PUSH1 0x40 MLOAD PUSH32 0x8C379A000000000000000000000000000000000000000000000000000000000 DUP2 MSTORE PUSH1 0x4 ADD PUSH2 0x11F9 SWAP1 PUSH2 0x39AF JUMP JUMPDEST PUSH1 0x40 MLOAD DUP1 SWAP2 SUB SWAP1 REVERT JUMPDEST PUSH0 JUMPDEST PUSH1 0x1 SLOAD DUP2 LT ISZERO PUSH2 0x142A JUMPI PUSH2 0x12BF PUSH0 DUP3 DUP2 SLOAD DUP2 LT PUSH2 0x1224 JUMPI PUSH2 0x1223 PUSH2 0x2F99 JUMP JUMPDEST JUMPDEST SWAP1 PUSH0 MSTORE PUSH1 0x20 PUSH0 KECCAK256 SWAP1 PUSH1 0xB MUL ADD PUSH0 ADD DUP1 SLOAD PUSH2 0x123D SWAP1 PUSH2 0x2FF3 JUMP JUMPDEST DUP1 PUSH1 0x1F ADD PUSH1 0x20 DUP1 SWAP2 DIV MUL PUSH1 0x20 ADD PUSH1 0x40 MLOAD SWAP1 DUP2 ADD PUSH1 0x40 MSTORE DUP1 SWAP3 SWAP2 SWAP1 DUP2 DUP2 MSTORE PUSH1 0x20 ADD DUP3 DUP1 SLOAD PUSH2 0x1269 SWAP1 PUSH2 0x2FF3 JUMP JUMPDEST DUP1 ISZERO PUSH2 0x12B4 JUMPI DUP1 PUSH1 0x1F LT PUSH2 0x128B JUMPI PUSH2 0x100 DUP1 DUP4 SLOAD DIV MUL DUP4 MSTORE SWAP2 PUSH1 0x20 ADD SWAP2 PUSH2 0x12B4 JUMP JUMPDEST DUP3 ADD SWAP2 SWAP1 PUSH0 MSTORE PUSH1 0x20 PUSH0 KECCAK256 SWAP1 JUMPDEST DUP2 SLOAD DUP2 MSTORE SWAP1 PUSH1 0x1 ADD SWAP1 PUSH1 0x20 ADD DUP1 DUP4 GT PUSH2 0x1297 JUMPI DUP3 SWAP1 SUB PUSH1 0x1F AND DUP3 ADD SWAP2 JUMPDEST POP POP POP POP POP DUP8 PUSH2 0x1116 JUMP JUMPDEST DUP1 ISZERO PUSH2 0x1379 JUMPI POP PUSH2 0x1378 PUSH0 DUP3 DUP2 SLOAD DUP2 LT PUSH2 0x12DC JUMPI PUSH2 0x12DB PUSH2 0x2F99 JUMP JUMPDEST JUMPDEST SWAP1 PUSH0 MSTORE PUSH1 0x20 PUSH0 KECCAK256 SWAP1 PUSH1 0xB MUL ADD PUSH1 0x1 ADD DUP1 SLOAD PUSH2 0x12F6 SWAP1 PUSH2 0x2FF3 JUMP JUMPDEST DUP1 PUSH1 0x1F ADD PUSH1 0x20 DUP1 SWAP2 DIV MUL PUSH1 0x20 ADD PUSH1 0x40 MLOAD SWAP1 DUP2 ADD PUSH1 0x40 MSTORE DUP1 SWAP3 SWAP2 SWAP1 DUP2 DUP2 MSTORE PUSH1 0x20 ADD DUP3 DUP1 SLOAD PUSH2 0x1322 SWAP1 PUSH2 0x2FF3 JUMP JUMPDEST DUP1 ISZERO PUSH2 0x136D JUMPI DUP1 PUSH1 0x1F LT PUSH2 0x1344 JUMPI PUSH2 0x100 DUP1 DUP4 SLOAD DIV MUL DUP4 MSTORE SWAP2 PUSH1 0x20 ADD SWAP2 PUSH2 0x136D JUMP JUMPDEST DUP3 ADD SWAP2 SWAP1 PUSH0 MSTORE PUSH1 0x20 PUSH0 KECCAK256 SWAP1 JUMPDEST DUP2 SLOAD DUP2 MSTORE SWAP1 PUSH1 0x1 ADD SWAP1 PUSH1 0x20 ADD DUP1 DUP4 GT PUSH2 0x1350 JUMPI DUP3 SWAP1 SUB PUSH1 0x1F AND DUP3 ADD SWAP2 JUMPDEST POP POP POP POP POP DUP7 PUSH2 0x1116 JUMP JUMPDEST JUMPDEST ISZERO PUSH2 0x1417 JUMPI PUSH0 DUP2 DUP2 SLOAD DUP2 LT PUSH2 0x1391 JUMPI PUSH2 0x1390 PUSH2 0x2F99 JUMP JUMPDEST JUMPDEST SWAP1 PUSH0 MSTORE PUSH1 0x20 PUSH0 KECCAK256 SWAP1 PUSH1 0xB MUL ADD PUSH1 0x8 ADD DUP4 SWAP1 DUP1 PUSH1 0x1 DUP2 SLOAD ADD DUP1 DUP3 SSTORE DUP1 SWAP2 POP POP PUSH1 0x1 SWAP1 SUB SWAP1 PUSH0 MSTORE PUSH1 0x20 PUSH0 KECCAK256 ADD PUSH0 SWAP1 SWAP2 SWAP1 SWAP2 SWAP1 SWAP2 POP SWAP1 DUP2 PUSH2 0x13CF SWAP2 SWAP1 PUSH2 0x3B6A JUMP JUMPDEST POP PUSH0 DUP2 DUP2 SLOAD DUP2 LT PUSH2 0x13E3 JUMPI PUSH2 0x13E2 PUSH2 0x2F99 JUMP JUMPDEST JUMPDEST SWAP1 PUSH0 MSTORE PUSH1 0x20 PUSH0 KECCAK256 SWAP1 PUSH1 0xB MUL ADD PUSH1 0x9 ADD DUP3 SWAP1 DUP1 PUSH1 0x1 DUP2 SLOAD ADD DUP1 DUP3 SSTORE DUP1 SWAP2 POP POP PUSH1 0x1 SWAP1 SUB SWAP1 PUSH0 MSTORE PUSH1 0x20 PUSH0 KECCAK256 ADD PUSH0 SWAP1 SWAP2 SWAP1 SWAP2 SWAP1 SWAP2 POP SSTORE JUMPDEST DUP1 DUP1 PUSH2 0x1422 SWAP1 PUSH2 0x3050 JUMP JUMPDEST SWAP2 POP POP PUSH2 0x1204 JUMP JUMPDEST POP POP POP POP POP POP JUMP JUMPDEST PUSH2 0x143C DUP5 DUP5 PUSH2 0x1680 JUMP JUMPDEST PUSH2 0x147B JUMPI PUSH1 0x40 MLOAD PUSH32 0x8C379A000000000000000000000000000000000000000000000000000000000 DUP2 MSTORE PUSH1 0x4 ADD PUSH2 0x1472 SWAP1 PUSH2 0x2F1E JUMP JUMPDEST PUSH1 0x40 MLOAD DUP1 SWAP2 SUB SWAP1 REVERT JUMPDEST PUSH0 JUMPDEST PUSH1 0x1 SLOAD DUP2 LT ISZERO PUSH2 0x1679 JUMPI PUSH2 0x1538 PUSH0 DUP3 DUP2 SLOAD DUP2 LT PUSH2 0x149D JUMPI PUSH2 0x149C PUSH2 0x2F99 JUMP JUMPDEST JUMPDEST SWAP1 PUSH0 MSTORE PUSH1 0x20 PUSH0 KECCAK256 SWAP1 PUSH1 0xB MUL ADD PUSH0 ADD DUP1 SLOAD PUSH2 0x14B6 SWAP1 PUSH2 0x2FF3 JUMP JUMPDEST DUP1 PUSH1 0x1F ADD PUSH1 0x20 DUP1 SWAP2 DIV MUL PUSH1 0x20 ADD PUSH1 0x40 MLOAD SWAP1 DUP2 ADD PUSH1 0x40 MSTORE DUP1 SWAP3 SWAP2 SWAP1 DUP2 DUP2 MSTORE PUSH1 0x20 ADD DUP3 DUP1 SLOAD PUSH2 0x14E2 SWAP1 PUSH2 0x2FF3 JUMP JUMPDEST DUP1 ISZERO PUSH2 0x152D JUMPI DUP1 PUSH1 0x1F LT PUSH2 0x1504 JUMPI PUSH2 0x100 DUP1 DUP4 SLOAD DIV MUL DUP4 MSTORE SWAP2 PUSH1 0x20 ADD SWAP2 PUSH2 0x152D JUMP JUMPDEST DUP3 ADD SWAP2 SWAP1 PUSH0 MSTORE PUSH1 0x20 PUSH0 KECCAK256 SWAP1 JUMPDEST DUP2 SLOAD DUP2 MSTORE SWAP1 PUSH1 0x1 ADD SWAP1 PUSH1 0x20 ADD DUP1 DUP4 GT PUSH2 0x1510 JUMPI DUP3 SWAP1 SUB PUSH1 0x1F AND DUP3 ADD SWAP2 JUMPDEST POP POP POP POP POP DUP7 PUSH2 0x1116 JUMP JUMPDEST DUP1 ISZERO PUSH2 0x15F2 JUMPI POP PUSH2 0x15F1 PUSH0 DUP3 DUP2 SLOAD DUP2 LT PUSH2 0x1555 JUMPI PUSH2 0x1554 PUSH2 0x2F99 JUMP JUMPDEST JUMPDEST SWAP1 PUSH0 MSTORE PUSH1 0x20 PUSH0 KECCAK256 SWAP1 PUSH1 0xB MUL ADD PUSH1 0x1 ADD DUP1 SLOAD PUSH2 0x156F SWAP1 PUSH2 0x2FF3 JUMP JUMPDEST DUP1 PUSH1 0x1F ADD PUSH1 0x20 DUP1 SWAP2 DIV MUL PUSH1 0x20 ADD PUSH1 0x40 MLOAD SWAP1 DUP2 ADD PUSH1 0x40 MSTORE DUP1 SWAP3 SWAP2 SWAP1 DUP2 DUP2 MSTORE PUSH1 0x20 ADD DUP3 DUP1 SLOAD PUSH2 0x159B SWAP1 PUSH2 0x2FF3 JUMP JUMPDEST DUP1 ISZERO PUSH2 0x15E6 JUMPI DUP1 PUSH1 0x1F LT PUSH2 0x15BD JUMPI PUSH2 0x100 DUP1 DUP4 SLOAD DIV MUL DUP4 MSTORE SWAP2 PUSH1 0x20 ADD SWAP2 PUSH2 0x15E6 JUMP JUMPDEST DUP3 ADD SWAP2 SWAP1 PUSH0 MSTORE PUSH1 0x20 PUSH0 KECCAK256 SWAP1 JUMPDEST DUP2 SLOAD DUP2 MSTORE SWAP1 PUSH1 0x1 ADD SWAP1 PUSH1 0x20 ADD DUP1 DUP4 GT PUSH2 0x15C9 JUMPI DUP3 SWAP1 SUB PUSH1 0x1F AND DUP3 ADD SWAP2 JUMPDEST POP POP POP POP POP DUP6 PUSH2 0x1116 JUMP JUMPDEST JUMPDEST ISZERO PUSH2 0x1666 JUMPI DUP3 PUSH0 DUP3 DUP2 SLOAD DUP2 LT PUSH2 0x160B JUMPI PUSH2 0x160A PUSH2 0x2F99 JUMP JUMPDEST JUMPDEST SWAP1 PUSH0 MSTORE PUSH1 0x20 PUSH0 KECCAK256 SWAP1 PUSH1 0xB MUL ADD PUSH1 0x8 ADD SWAP1 DUP1 MLOAD SWAP1 PUSH1 0x20 ADD SWAP1 PUSH2 0x162D SWAP3 SWAP2 SWAP1 PUSH2 0x2069 JUMP JUMPDEST POP DUP2 PUSH0 DUP3 DUP2 SLOAD DUP2 LT PUSH2 0x1642 JUMPI PUSH2 0x1641 PUSH2 0x2F99 JUMP JUMPDEST JUMPDEST SWAP1 PUSH0 MSTORE PUSH1 0x20 PUSH0 KECCAK256 SWAP1 PUSH1 0xB MUL ADD PUSH1 0x9 ADD SWAP1 DUP1 MLOAD SWAP1 PUSH1 0x20 ADD SWAP1 PUSH2 0x1664 SWAP3 SWAP2 SWAP1 PUSH2 0x20C0 JUMP JUMPDEST POP JUMPDEST DUP1 DUP1 PUSH2 0x1671 SWAP1 PUSH2 0x3050 JUMP JUMPDEST SWAP2 POP POP PUSH2 0x147D JUMP JUMPDEST POP POP POP POP POP JUMP JUMPDEST PUSH0 DUP1 PUSH0 SWAP1 POP JUMPDEST PUSH1 0x1 SLOAD DUP2 LT ISZERO PUSH2 0x181D JUMPI PUSH2 0x1741 PUSH0 DUP3 DUP2 SLOAD DUP2 LT PUSH2 0x16A6 JUMPI PUSH2 0x16A5 PUSH2 0x2F99 JUMP JUMPDEST JUMPDEST SWAP1 PUSH0 MSTORE PUSH1 0x20 PUSH0 KECCAK256 SWAP1 PUSH1 0xB MUL ADD PUSH0 ADD DUP1 SLOAD PUSH2 0x16BF SWAP1 PUSH2 0x2FF3 JUMP JUMPDEST DUP1 PUSH1 0x1F ADD PUSH1 0x20 DUP1 SWAP2 DIV MUL PUSH1 0x20 ADD PUSH1 0x40 MLOAD SWAP1 DUP2 ADD PUSH1 0x40 MSTORE DUP1 SWAP3 SWAP2 SWAP1 DUP2 DUP2 MSTORE PUSH1 0x20 ADD DUP3 DUP1 SLOAD PUSH2 0x16EB SWAP1 PUSH2 0x2FF3 JUMP JUMPDEST DUP1 ISZERO PUSH2 0x1736 JUMPI DUP1 PUSH1 0x1F LT PUSH2 0x170D JUMPI PUSH2 0x100 DUP1 DUP4 SLOAD DIV MUL DUP4 MSTORE SWAP2 PUSH1 0x20 ADD SWAP2 PUSH2 0x1736 JUMP JUMPDEST DUP3 ADD SWAP2 SWAP1 PUSH0 MSTORE PUSH1 0x20 PUSH0 KECCAK256 SWAP1 JUMPDEST DUP2 SLOAD DUP2 MSTORE SWAP1 PUSH1 0x1 ADD SWAP1 PUSH1 0x20 ADD DUP1 DUP4 GT PUSH2 0x1719 JUMPI DUP3 SWAP1 SUB PUSH1 0x1F AND DUP3 ADD SWAP2 JUMPDEST POP POP POP POP POP DUP6 PUSH2 0x1116 JUMP JUMPDEST DUP1 ISZERO PUSH2 0x17FB JUMPI POP PUSH2 0x17FA PUSH0 DUP3 DUP2 SLOAD DUP2 LT PUSH2 0x175E JUMPI PUSH2 0x175D PUSH2 0x2F99 JUMP JUMPDEST JUMPDEST SWAP1 PUSH0 MSTORE PUSH1 0x20 PUSH0 KECCAK256 SWAP1 PUSH1 0xB MUL ADD PUSH1 0x1 ADD DUP1 SLOAD PUSH2 0x1778 SWAP1 PUSH2 0x2FF3 JUMP JUMPDEST DUP1 PUSH1 0x1F ADD PUSH1 0x20 DUP1 SWAP2 DIV MUL PUSH1 0x20 ADD PUSH1 0x40 MLOAD SWAP1 DUP2 ADD PUSH1 0x40 MSTORE DUP1 SWAP3 SWAP2 SWAP1 DUP2 DUP2 MSTORE PUSH1 0x20 ADD DUP3 DUP1 SLOAD PUSH2 0x17A4 SWAP1 PUSH2 0x2FF3 JUMP JUMPDEST DUP1 ISZERO PUSH2 0x17EF JUMPI DUP1 PUSH1 0x1F LT PUSH2 0x17C6 JUMPI PUSH2 0x100 DUP1 DUP4 SLOAD DIV MUL DUP4 MSTORE SWAP2 PUSH1 0x20 ADD SWAP2 PUSH2 0x17EF JUMP JUMPDEST DUP3 ADD SWAP2 SWAP1 PUSH0 MSTORE PUSH1 0x20 PUSH0 KECCAK256 SWAP1 JUMPDEST DUP2 SLOAD DUP2 MSTORE SWAP1 PUSH1 0x1 ADD SWAP1 PUSH1 0x20 ADD DUP1 DUP4 GT PUSH2 0x17D2 JUMPI DUP3 SWAP1 SUB PUSH1 0x1F AND DUP3 ADD SWAP2 JUMPDEST POP POP POP POP POP DUP5 PUSH2 0x1116 JUMP JUMPDEST JUMPDEST ISZERO PUSH2 0x180A JUMPI PUSH1 0x1 SWAP2 POP POP PUSH2 0x1822 JUMP JUMPDEST DUP1 DUP1 PUSH2 0x1815 SWAP1 PUSH2 0x3050 JUMP JUMPDEST SWAP2 POP POP PUSH2 0x1686 JUMP JUMPDEST POP PUSH0 SWAP1 POP JUMPDEST SWAP3 SWAP2 POP POP JUMP JUMPDEST PUSH1 0x1 SLOAD DUP2 JUMP JUMPDEST PUSH0 PUSH1 0x1 SLOAD SWAP1 POP SWAP1 JUMP JUMPDEST PUSH2 0x1841 DUP12 DUP12 PUSH2 0x1680 JUMP JUMPDEST ISZERO PUSH2 0x1881 JUMPI PUSH1 0x40 MLOAD PUSH32 0x8C379A000000000000000000000000000000000000000000000000000000000 DUP2 MSTORE PUSH1 0x4 ADD PUSH2 0x1878 SWAP1 PUSH2 0x3C83 JUMP JUMPDEST PUSH1 0x40 MLOAD DUP1 SWAP2 SUB SWAP1 REVERT JUMPDEST PUSH0 PUSH1 0x40 MLOAD DUP1 PUSH2 0x140 ADD PUSH1 0x40 MSTORE DUP1 DUP14 DUP2 MSTORE PUSH1 0x20 ADD DUP13 DUP2 MSTORE PUSH1 0x20 ADD DUP12 DUP2 MSTORE PUSH1 0x20 ADD DUP11 DUP2 MSTORE PUSH1 0x20 ADD PUSH1 0x40 MLOAD DUP1 PUSH1 0x40 ADD PUSH1 0x40 MSTORE DUP1 DUP12 DUP2 MSTORE PUSH1 0x20 ADD DUP11 DUP2 MSTORE POP DUP2 MSTORE PUSH1 0x20 ADD DUP8 DUP2 MSTORE PUSH1 0x20 ADD DUP7 DUP2 MSTORE PUSH1 0x20 ADD DUP6 DUP2 MSTORE PUSH1 0x20 ADD DUP5 DUP2 MSTORE PUSH1 0x20 ADD DUP4 DUP2 MSTORE POP SWAP1 DUP1 PUSH1 0x1 DUP2 SLOAD ADD DUP1 DUP3 SSTORE DUP1 SWAP2 POP POP PUSH1 0x1 SWAP1 SUB SWAP1 PUSH0 MSTORE PUSH1 0x20 PUSH0 KECCAK256 SWAP1 PUSH1 0xB MUL ADD PUSH0 SWAP1 SWAP2 SWAP1 SWAP2 SWAP1 SWAP2 POP PUSH0 DUP3 ADD MLOAD DUP2 PUSH0 ADD SWAP1 DUP2 PUSH2 0x1915 SWAP2 SWAP1 PUSH2 0x3B6A JUMP JUMPDEST POP PUSH1 0x20 DUP3 ADD MLOAD DUP2 PUSH1 0x1 ADD SWAP1 DUP2 PUSH2 0x192B SWAP2 SWAP1 PUSH2 0x3B6A JUMP JUMPDEST POP PUSH1 0x40 DUP3 ADD MLOAD DUP2 PUSH1 0x2 ADD SWAP1 DUP2 PUSH2 0x1941 SWAP2 SWAP1 PUSH2 0x3B6A JUMP JUMPDEST POP PUSH1 0x60 DUP3 ADD MLOAD DUP2 PUSH1 0x3 ADD SWAP1 DUP2 PUSH2 0x1957 SWAP2 SWAP1 PUSH2 0x3B6A JUMP JUMPDEST POP PUSH1 0x80 DUP3 ADD MLOAD DUP2 PUSH1 0x4 ADD PUSH0 DUP3 ADD MLOAD DUP2 PUSH0 ADD SWAP1 DUP2 PUSH2 0x1974 SWAP2 SWAP1 PUSH2 0x3B6A JUMP JUMPDEST POP PUSH1 0x20 DUP3 ADD MLOAD DUP2 PUSH1 0x1 ADD SWAP1 DUP2 PUSH2 0x198A SWAP2 SWAP1 PUSH2 0x3B6A JUMP JUMPDEST POP POP POP PUSH1 0xA0 DUP3 ADD MLOAD DUP2 PUSH1 0x6 ADD SWAP1 DUP2 PUSH2 0x19A2 SWAP2 SWAP1 PUSH2 0x3B6A JUMP JUMPDEST POP PUSH1 0xC0 DUP3 ADD MLOAD DUP2 PUSH1 0x7 ADD SSTORE PUSH1 0xE0 DUP3 ADD MLOAD DUP2 PUSH1 0x8 ADD SWAP1 DUP1 MLOAD SWAP1 PUSH1 0x20 ADD SWAP1 PUSH2 0x19C9 SWAP3 SWAP2 SWAP1 PUSH2 0x2069 JUMP JUMPDEST POP PUSH2 0x100 DUP3 ADD MLOAD DUP2 PUSH1 0x9 ADD SWAP1 DUP1 MLOAD SWAP1 PUSH1 0x20 ADD SWAP1 PUSH2 0x19E7 SWAP3 SWAP2 SWAP1 PUSH2 0x20C0 JUMP JUMPDEST POP PUSH2 0x120 DUP3 ADD MLOAD DUP2 PUSH1 0xA ADD SWAP1 DUP2 PUSH2 0x19FE SWAP2 SWAP1 PUSH2 0x3B6A JUMP JUMPDEST POP POP POP PUSH0 DUP1 SLOAD SWAP1 POP PUSH1 0x1 DUP2 SWAP1 SSTORE POP POP POP POP POP POP POP POP POP POP POP POP JUMP JUMPDEST PUSH0 DUP2 DUP2 SLOAD DUP2 LT PUSH2 0x1A27 JUMPI PUSH0 DUP1 REVERT JUMPDEST SWAP1 PUSH0 MSTORE PUSH1 0x20 PUSH0 KECCAK256 SWAP1 PUSH1 0xB MUL ADD PUSH0 SWAP2 POP SWAP1 POP DUP1 PUSH0 ADD DUP1 SLOAD PUSH2 0x1A46 SWAP1 PUSH2 0x2FF3 JUMP JUMPDEST DUP1 PUSH1 0x1F ADD PUSH1 0x20 DUP1 SWAP2 DIV MUL PUSH1 0x20 ADD PUSH1 0x40 MLOAD SWAP1 DUP2 ADD PUSH1 0x40 MSTORE DUP1 SWAP3 SWAP2 SWAP1 DUP2 DUP2 MSTORE PUSH1 0x20 ADD DUP3 DUP1 SLOAD PUSH2 0x1A72 SWAP1 PUSH2 0x2FF3 JUMP JUMPDEST DUP1 ISZERO PUSH2 0x1ABD JUMPI DUP1 PUSH1 0x1F LT PUSH2 0x1A94 JUMPI PUSH2 0x100 DUP1 DUP4 SLOAD DIV MUL DUP4 MSTORE SWAP2 PUSH1 0x20 ADD SWAP2 PUSH2 0x1ABD JUMP JUMPDEST DUP3 ADD SWAP2 SWAP1 PUSH0 MSTORE PUSH1 0x20 PUSH0 KECCAK256 SWAP1 JUMPDEST DUP2 SLOAD DUP2 MSTORE SWAP1 PUSH1 0x1 ADD SWAP1 PUSH1 0x20 ADD DUP1 DUP4 GT PUSH2 0x1AA0 JUMPI DUP3 SWAP1 SUB PUSH1 0x1F AND DUP3 ADD SWAP2 JUMPDEST POP POP POP POP POP SWAP1 DUP1 PUSH1 0x1 ADD DUP1 SLOAD PUSH2 0x1AD2 SWAP1 PUSH2 0x2FF3 JUMP JUMPDEST DUP1 PUSH1 0x1F ADD PUSH1 0x20 DUP1 SWAP2 DIV MUL PUSH1 0x20 ADD PUSH1 0x40 MLOAD SWAP1 DUP2 ADD PUSH1 0x40 MSTORE DUP1 SWAP3 SWAP2 SWAP1 DUP2 DUP2 MSTORE PUSH1 0x20 ADD DUP3 DUP1 SLOAD PUSH2 0x1AFE SWAP1 PUSH2 0x2FF3 JUMP JUMPDEST DUP1 ISZERO PUSH2 0x1B49 JUMPI DUP1 PUSH1 0x1F LT PUSH2 0x1B20 JUMPI PUSH2 0x100 DUP1 DUP4 SLOAD DIV MUL DUP4 MSTORE SWAP2 PUSH1 0x20 ADD SWAP2 PUSH2 0x1B49 JUMP JUMPDEST DUP3 ADD SWAP2 SWAP1 PUSH0 MSTORE PUSH1 0x20 PUSH0 KECCAK256 SWAP1 JUMPDEST DUP2 SLOAD DUP2 MSTORE SWAP1 PUSH1 0x1 ADD SWAP1 PUSH1 0x20 ADD DUP1 DUP4 GT PUSH2 0x1B2C JUMPI DUP3 SWAP1 SUB PUSH1 0x1F AND DUP3 ADD SWAP2 JUMPDEST POP POP POP POP POP SWAP1 DUP1 PUSH1 0x2 ADD DUP1 SLOAD PUSH2 0x1B5E SWAP1 PUSH2 0x2FF3 JUMP JUMPDEST DUP1 PUSH1 0x1F ADD PUSH1 0x20 DUP1 SWAP2 DIV MUL PUSH1 0x20 ADD PUSH1 0x40 MLOAD SWAP1 DUP2 ADD PUSH1 0x40 MSTORE DUP1 SWAP3 SWAP2 SWAP1 DUP2 DUP2 MSTORE PUSH1 0x20 ADD DUP3 DUP1 SLOAD PUSH2 0x1B8A SWAP1 PUSH2 0x2FF3 JUMP JUMPDEST DUP1 ISZERO PUSH2 0x1BD5 JUMPI DUP1 PUSH1 0x1F LT PUSH2 0x1BAC JUMPI PUSH2 0x100 DUP1 DUP4 SLOAD DIV MUL DUP4 MSTORE SWAP2 PUSH1 0x20 ADD SWAP2 PUSH2 0x1BD5 JUMP JUMPDEST DUP3 ADD SWAP2 SWAP1 PUSH0 MSTORE PUSH1 0x20 PUSH0 KECCAK256 SWAP1 JUMPDEST DUP2 SLOAD DUP2 MSTORE SWAP1 PUSH1 0x1 ADD SWAP1 PUSH1 0x20 ADD DUP1 DUP4 GT PUSH2 0x1BB8 JUMPI DUP3 SWAP1 SUB PUSH1 0x1F AND DUP3 ADD SWAP2 JUMPDEST POP POP POP POP POP SWAP1 DUP1 PUSH1 0x3 ADD DUP1 SLOAD PUSH2 0x1BEA SWAP1 PUSH2 0x2FF3 JUMP JUMPDEST DUP1 PUSH1 0x1F ADD PUSH1 0x20 DUP1 SWAP2 DIV MUL PUSH1 0x20 ADD PUSH1 0x40 MLOAD SWAP1 DUP2 ADD PUSH1 0x40 MSTORE DUP1 SWAP3 SWAP2 SWAP1 DUP2 DUP2 MSTORE PUSH1 0x20 ADD DUP3 DUP1 SLOAD PUSH2 0x1C16 SWAP1 PUSH2 0x2FF3 JUMP JUMPDEST DUP1 ISZERO PUSH2 0x1C61 JUMPI DUP1 PUSH1 0x1F LT PUSH2 0x1C38 JUMPI PUSH2 0x100 DUP1 DUP4 SLOAD DIV MUL DUP4 MSTORE SWAP2 PUSH1 0x20 ADD SWAP2 PUSH2 0x1C61 JUMP JUMPDEST DUP3 ADD SWAP2 SWAP1 PUSH0 MSTORE PUSH1 0x20 PUSH0 KECCAK256 SWAP1 JUMPDEST DUP2 SLOAD DUP2 MSTORE SWAP1 PUSH1 0x1 ADD SWAP1 PUSH1 0x20 ADD DUP1 DUP4 GT PUSH2 0x1C44 JUMPI DUP3 SWAP1 SUB PUSH1 0x1F AND DUP3 ADD SWAP2 JUMPDEST POP POP POP POP POP SWAP1 DUP1 PUSH1 0x4 ADD PUSH1 0x40 MLOAD DUP1 PUSH1 0x40 ADD PUSH1 0x40 MSTORE SWAP1 DUP2 PUSH0 DUP3 ADD DUP1 SLOAD PUSH2 0x1C85 SWAP1 PUSH2 0x2FF3 JUMP JUMPDEST DUP1 PUSH1 0x1F ADD PUSH1 0x20 DUP1 SWAP2 DIV MUL PUSH1 0x20 ADD PUSH1 0x40 MLOAD SWAP1 DUP2 ADD PUSH1 0x40 MSTORE DUP1 SWAP3 SWAP2 SWAP1 DUP2 DUP2 MSTORE PUSH1 0x20 ADD DUP3 DUP1 SLOAD PUSH2 0x1CB1 SWAP1 PUSH2 0x2FF3 JUMP JUMPDEST DUP1 ISZERO PUSH2 0x1CFC JUMPI DUP1 PUSH1 0x1F LT PUSH2 0x1CD3 JUMPI PUSH2 0x100 DUP1 DUP4 SLOAD DIV MUL DUP4 MSTORE SWAP2 PUSH1 0x20 ADD SWAP2 PUSH2 0x1CFC JUMP JUMPDEST DUP3 ADD SWAP2 SWAP1 PUSH0 MSTORE PUSH1 0x20 PUSH0 KECCAK256 SWAP1 JUMPDEST DUP2 SLOAD DUP2 MSTORE SWAP1 PUSH1 0x1 ADD SWAP1 PUSH1 0x20 ADD DUP1 DUP4 GT PUSH2 0x1CDF JUMPI DUP3 SWAP1 SUB PUSH1 0x1F AND DUP3 ADD SWAP2 JUMPDEST POP POP POP POP POP DUP2 MSTORE PUSH1 0x20 ADD PUSH1 0x1 DUP3 ADD DUP1 SLOAD PUSH2 0x1D15 SWAP1 PUSH2 0x2FF3 JUMP JUMPDEST DUP1 PUSH1 0x1F ADD PUSH1 0x20 DUP1 SWAP2 DIV MUL PUSH1 0x20 ADD PUSH1 0x40 MLOAD SWAP1 DUP2 ADD PUSH1 0x40 MSTORE DUP1 SWAP3 SWAP2 SWAP1 DUP2 DUP2 MSTORE PUSH1 0x20 ADD DUP3 DUP1 SLOAD PUSH2 0x1D41 SWAP1 PUSH2 0x2FF3 JUMP JUMPDEST DUP1 ISZERO PUSH2 0x1D8C JUMPI DUP1 PUSH1 0x1F LT PUSH2 0x1D63 JUMPI PUSH2 0x100 DUP1 DUP4 SLOAD DIV MUL DUP4 MSTORE SWAP2 PUSH1 0x20 ADD SWAP2 PUSH2 0x1D8C JUMP JUMPDEST DUP3 ADD SWAP2 SWAP1 PUSH0 MSTORE PUSH1 0x20 PUSH0 KECCAK256 SWAP1 JUMPDEST DUP2 SLOAD DUP2 MSTORE SWAP1 PUSH1 0x1 ADD SWAP1 PUSH1 0x20 ADD DUP1 DUP4 GT PUSH2 0x1D6F JUMPI DUP3 SWAP1 SUB PUSH1 0x1F AND DUP3 ADD SWAP2 JUMPDEST POP POP POP POP POP DUP2 MSTORE POP POP SWAP1 DUP1 PUSH1 0x6 ADD DUP1 SLOAD PUSH2 0x1DA5 SWAP1 PUSH2 0x2FF3 JUMP JUMPDEST DUP1 PUSH1 0x1F ADD PUSH1 0x20 DUP1 SWAP2 DIV MUL PUSH1 0x20 ADD PUSH1 0x40 MLOAD SWAP1 DUP2 ADD PUSH1 0x40 MSTORE DUP1 SWAP3 SWAP2 SWAP1 DUP2 DUP2 MSTORE PUSH1 0x20 ADD DUP3 DUP1 SLOAD PUSH2 0x1DD1 SWAP1 PUSH2 0x2FF3 JUMP JUMPDEST DUP1 ISZERO PUSH2 0x1E1C JUMPI DUP1 PUSH1 0x1F LT PUSH2 0x1DF3 JUMPI PUSH2 0x100 DUP1 DUP4 SLOAD DIV MUL DUP4 MSTORE SWAP2 PUSH1 0x20 ADD SWAP2 PUSH2 0x1E1C JUMP JUMPDEST DUP3 ADD SWAP2 SWAP1 PUSH0 MSTORE PUSH1 0x20 PUSH0 KECCAK256 SWAP1 JUMPDEST DUP2 SLOAD DUP2 MSTORE SWAP1 PUSH1 0x1 ADD SWAP1 PUSH1 0x20 ADD DUP1 DUP4 GT PUSH2 0x1DFF JUMPI DUP3 SWAP1 SUB PUSH1 0x1F AND DUP3 ADD SWAP2 JUMPDEST POP POP POP POP POP SWAP1 DUP1 PUSH1 0x7 ADD SLOAD SWAP1 DUP1 PUSH1 0xA ADD DUP1 SLOAD PUSH2 0x1E37 SWAP1 PUSH2 0x2FF3 JUMP JUMPDEST DUP1 PUSH1 0x1F ADD PUSH1 0x20 DUP1 SWAP2 DIV MUL PUSH1 0x20 ADD PUSH1 0x40 MLOAD SWAP1 DUP2 ADD PUSH1 0x40 MSTORE DUP1 SWAP3 SWAP2 SWAP1 DUP2 DUP2 MSTORE PUSH1 0x20 ADD DUP3 DUP1 SLOAD PUSH2 0x1E63 SWAP1 PUSH2 0x2FF3 JUMP JUMPDEST DUP1 ISZERO PUSH2 0x1EAE JUMPI DUP1 PUSH1 0x1F LT PUSH2 0x1E85 JUMPI PUSH2 0x100 DUP1 DUP4 SLOAD DIV MUL DUP4 MSTORE SWAP2 PUSH1 0x20 ADD SWAP2 PUSH2 0x1EAE JUMP JUMPDEST DUP3 ADD SWAP2 SWAP1 PUSH0 MSTORE PUSH1 0x20 PUSH0 KECCAK256 SWAP1 JUMPDEST DUP2 SLOAD DUP2 MSTORE SWAP1 PUSH1 0x1 ADD SWAP1 PUSH1 0x20 ADD DUP1 DUP4 GT PUSH2 0x1E91 JUMPI DUP3 SWAP1 SUB PUSH1 0x1F AND DUP3 ADD SWAP2 JUMPDEST POP POP POP POP POP SWAP1 POP DUP9 JUMP JUMPDEST PUSH1 0x60 PUSH0 DUP3 SUB PUSH2 0x1EFE JUMPI PUSH1 0x40 MLOAD DUP1 PUSH1 0x40 ADD PUSH1 0x40 MSTORE DUP1 PUSH1 0x1 DUP2 MSTORE PUSH1 0x20 ADD PUSH32 0x3000000000000000000000000000000000000000000000000000000000000000 DUP2 MSTORE POP SWAP1 POP PUSH2 0x200C JUMP JUMPDEST PUSH0 DUP3 SWAP1 POP PUSH0 JUMPDEST PUSH0 DUP3 EQ PUSH2 0x1F2D JUMPI DUP1 DUP1 PUSH2 0x1F16 SWAP1 PUSH2 0x3050 JUMP JUMPDEST SWAP2 POP POP PUSH1 0xA DUP3 PUSH2 0x1F26 SWAP2 SWAP1 PUSH2 0x3CCE JUMP JUMPDEST SWAP2 POP PUSH2 0x1F04 JUMP JUMPDEST PUSH0 DUP2 PUSH8 0xFFFFFFFFFFFFFFFF DUP2 GT ISZERO PUSH2 0x1F48 JUMPI PUSH2 0x1F47 PUSH2 0x21C9 JUMP JUMPDEST JUMPDEST PUSH1 0x40 MLOAD SWAP1 DUP1 DUP3 MSTORE DUP1 PUSH1 0x1F ADD PUSH1 0x1F NOT AND PUSH1 0x20 ADD DUP3 ADD PUSH1 0x40 MSTORE DUP1 ISZERO PUSH2 0x1F7A JUMPI DUP2 PUSH1 0x20 ADD PUSH1 0x1 DUP3 MUL DUP1 CALLDATASIZE DUP4 CALLDATACOPY DUP1 DUP3 ADD SWAP2 POP POP SWAP1 POP JUMPDEST POP SWAP1 POP JUMPDEST PUSH0 DUP6 EQ PUSH2 0x2005 JUMPI PUSH1 0x1 DUP3 PUSH2 0x1F92 SWAP2 SWAP1 PUSH2 0x3CFE JUMP JUMPDEST SWAP2 POP PUSH1 0xA DUP6 PUSH2 0x1FA1 SWAP2 SWAP1 PUSH2 0x3D31 JUMP JUMPDEST PUSH1 0x30 PUSH2 0x1FAD SWAP2 SWAP1 PUSH2 0x3D61 JUMP JUMPDEST PUSH1 0xF8 SHL DUP2 DUP4 DUP2 MLOAD DUP2 LT PUSH2 0x1FC3 JUMPI PUSH2 0x1FC2 PUSH2 0x2F99 JUMP JUMPDEST JUMPDEST PUSH1 0x20 ADD ADD SWAP1 PUSH31 0xFFFFFFFFFFFFFFFFFFFFFFFFFFFFFFFFFFFFFFFFFFFFFFFFFFFFFFFFFFFFFF NOT AND SWAP1 DUP2 PUSH0 BYTE SWAP1 MSTORE8 POP PUSH1 0xA DUP6 PUSH2 0x1FFE SWAP2 SWAP1 PUSH2 0x3CCE JUMP JUMPDEST SWAP5 POP PUSH2 0x1F7E JUMP JUMPDEST DUP1 SWAP4 POP POP POP POP JUMPDEST SWAP2 SWAP1 POP JUMP JUMPDEST PUSH1 0x40 MLOAD DUP1 PUSH2 0x140 ADD PUSH1 0x40 MSTORE DUP1 PUSH1 0x60 DUP2 MSTORE PUSH1 0x20 ADD PUSH1 0x60 DUP2 MSTORE PUSH1 0x20 ADD PUSH1 0x60 DUP2 MSTORE PUSH1 0x20 ADD PUSH1 0x60 DUP2 MSTORE PUSH1 0x20 ADD PUSH2 0x2041 PUSH2 0x210B JUMP JUMPDEST DUP2 MSTORE PUSH1 0x20 ADD PUSH1 0x60 DUP2 MSTORE PUSH1 0x20 ADD PUSH0 DUP2 MSTORE PUSH1 0x20 ADD PUSH1 0x60 DUP2 MSTORE PUSH1 0x20 ADD PUSH1 0x60 DUP2 MSTORE PUSH1 0x20 ADD PUSH1 0x60 DUP2 MSTORE POP SWAP1 JUMP JUMPDEST DUP3 DUP1 SLOAD DUP3 DUP3 SSTORE SWAP1 PUSH0 MSTORE PUSH1 0x20 PUSH0 KECCAK256 SWAP1 DUP2 ADD SWAP3 DUP3 ISZERO PUSH2 0x20AF JUMPI SWAP2 PUSH1 0x20 MUL DUP3 ADD JUMPDEST DUP3 DUP2 GT ISZERO PUSH2 0x20AE JUMPI DUP3 MLOAD DUP3 SWAP1 DUP2 PUSH2 0x209E SWAP2 SWAP1 PUSH2 0x3B6A JUMP JUMPDEST POP SWAP2 PUSH1 0x20 ADD SWAP2 SWAP1 PUSH1 0x1 ADD SWAP1 PUSH2 0x2087 JUMP JUMPDEST JUMPDEST POP SWAP1 POP PUSH2 0x20BC SWAP2 SWAP1 PUSH2 0x2125 JUMP JUMPDEST POP SWAP1 JUMP JUMPDEST DUP3 DUP1 SLOAD DUP3 DUP3 SSTORE SWAP1 PUSH0 MSTORE PUSH1 0x20 PUSH0 KECCAK256 SWAP1 DUP2 ADD SWAP3 DUP3 ISZERO PUSH2 0x20FA JUMPI SWAP2 PUSH1 0x20 MUL DUP3 ADD JUMPDEST DUP3 DUP2 GT ISZERO PUSH2 0x20F9 JUMPI DUP3 MLOAD DUP3 SSTORE SWAP2 PUSH1 0x20 ADD SWAP2 SWAP1 PUSH1 0x1 ADD SWAP1 PUSH2 0x20DE JUMP JUMPDEST JUMPDEST POP SWAP1 POP PUSH2 0x2107 SWAP2 SWAP1 PUSH2 0x2148 JUMP JUMPDEST POP SWAP1 JUMP JUMPDEST PUSH1 0x40 MLOAD DUP1 PUSH1 0x40 ADD PUSH1 0x40 MSTORE DUP1 PUSH1 0x60 DUP2 MSTORE PUSH1 0x20 ADD PUSH1 0x60 DUP2 MSTORE POP SWAP1 JUMP JUMPDEST JUMPDEST DUP1 DUP3 GT ISZERO PUSH2 0x2144 JUMPI PUSH0 DUP2 DUP2 PUSH2 0x213B SWAP2 SWAP1 PUSH2 0x2163 JUMP JUMPDEST POP PUSH1 0x1 ADD PUSH2 0x2126 JUMP JUMPDEST POP SWAP1 JUMP JUMPDEST JUMPDEST DUP1 DUP3 GT ISZERO PUSH2 0x215F JUMPI PUSH0 DUP2 PUSH0 SWAP1 SSTORE POP PUSH1 0x1 ADD PUSH2 0x2149 JUMP JUMPDEST POP SWAP1 JUMP JUMPDEST POP DUP1 SLOAD PUSH2 0x216F SWAP1 PUSH2 0x2FF3 JUMP JUMPDEST PUSH0 DUP3 SSTORE DUP1 PUSH1 0x1F LT PUSH2 0x2180 JUMPI POP PUSH2 0x219D JUMP JUMPDEST PUSH1 0x1F ADD PUSH1 0x20 SWAP1 DIV SWAP1 PUSH0 MSTORE PUSH1 0x20 PUSH0 KECCAK256 SWAP1 DUP2 ADD SWAP1 PUSH2 0x219C SWAP2 SWAP1 PUSH2 0x2148 JUMP JUMPDEST JUMPDEST POP JUMP JUMPDEST PUSH0 PUSH1 0x40 MLOAD SWAP1 POP SWAP1 JUMP JUMPDEST PUSH0 DUP1 REVERT JUMPDEST PUSH0 DUP1 REVERT JUMPDEST PUSH0 DUP1 REVERT JUMPDEST PUSH0 DUP1 REVERT JUMPDEST PUSH0 PUSH1 0x1F NOT PUSH1 0x1F DUP4 ADD AND SWAP1 POP SWAP2 SWAP1 POP JUMP JUMPDEST PUSH32 0x4E487B7100000000000000000000000000000000000000000000000000000000 PUSH0 MSTORE PUSH1 0x41 PUSH1 0x4 MSTORE PUSH1 0x24 PUSH0 REVERT JUMPDEST PUSH2 0x21FF DUP3 PUSH2 0x21B9 JUMP JUMPDEST DUP2 ADD DUP2 DUP2 LT PUSH8 0xFFFFFFFFFFFFFFFF DUP3 GT OR ISZERO PUSH2 0x221E JUMPI PUSH2 0x221D PUSH2 0x21C9 JUMP JUMPDEST JUMPDEST DUP1 PUSH1 0x40 MSTORE POP POP POP JUMP JUMPDEST PUSH0 PUSH2 0x2230 PUSH2 0x21A0 JUMP JUMPDEST SWAP1 POP PUSH2 0x223C DUP3 DUP3 PUSH2 0x21F6 JUMP JUMPDEST SWAP2 SWAP1 POP JUMP JUMPDEST PUSH0 PUSH8 0xFFFFFFFFFFFFFFFF DUP3 GT ISZERO PUSH2 0x225B JUMPI PUSH2 0x225A PUSH2 0x21C9 JUMP JUMPDEST JUMPDEST PUSH2 0x2264 DUP3 PUSH2 0x21B9 JUMP JUMPDEST SWAP1 POP PUSH1 0x20 DUP2 ADD SWAP1 POP SWAP2 SWAP1 POP JUMP JUMPDEST DUP3 DUP2 DUP4 CALLDATACOPY PUSH0 DUP4 DUP4 ADD MSTORE POP POP POP JUMP JUMPDEST PUSH0 PUSH2 0x2291 PUSH2 0x228C DUP5 PUSH2 0x2241 JUMP JUMPDEST PUSH2 0x2227 JUMP JUMPDEST SWAP1 POP DUP3 DUP2 MSTORE PUSH1 0x20 DUP2 ADD DUP5 DUP5 DUP5 ADD GT ISZERO PUSH2 0x22AD JUMPI PUSH2 0x22AC PUSH2 0x21B5 JUMP JUMPDEST JUMPDEST PUSH2 0x22B8 DUP5 DUP3 DUP6 PUSH2 0x2271 JUMP JUMPDEST POP SWAP4 SWAP3 POP POP POP JUMP JUMPDEST PUSH0 DUP3 PUSH1 0x1F DUP4 ADD SLT PUSH2 0x22D4 JUMPI PUSH2 0x22D3 PUSH2 0x21B1 JUMP JUMPDEST JUMPDEST DUP2 CALLDATALOAD PUSH2 0x22E4 DUP5 DUP3 PUSH1 0x20 DUP7 ADD PUSH2 0x227F JUMP JUMPDEST SWAP2 POP POP SWAP3 SWAP2 POP POP JUMP JUMPDEST PUSH0 DUP1 PUSH0 PUSH1 0x60 DUP5 DUP7 SUB SLT ISZERO PUSH2 0x2304 JUMPI PUSH2 0x2303 PUSH2 0x21A9 JUMP JUMPDEST JUMPDEST PUSH0 DUP5 ADD CALLDATALOAD PUSH8 0xFFFFFFFFFFFFFFFF DUP2 GT ISZERO PUSH2 0x2321 JUMPI PUSH2 0x2320 PUSH2 0x21AD JUMP JUMPDEST JUMPDEST PUSH2 0x232D DUP7 DUP3 DUP8 ADD PUSH2 0x22C0 JUMP JUMPDEST SWAP4 POP POP PUSH1 0x20 DUP5 ADD CALLDATALOAD PUSH8 0xFFFFFFFFFFFFFFFF DUP2 GT ISZERO PUSH2 0x234E JUMPI PUSH2 0x234D PUSH2 0x21AD JUMP JUMPDEST JUMPDEST PUSH2 0x235A DUP7 DUP3 DUP8 ADD PUSH2 0x22C0 JUMP JUMPDEST SWAP3 POP POP PUSH1 0x40 DUP5 ADD CALLDATALOAD PUSH8 0xFFFFFFFFFFFFFFFF DUP2 GT ISZERO PUSH2 0x237B JUMPI PUSH2 0x237A PUSH2 0x21AD JUMP JUMPDEST JUMPDEST PUSH2 0x2387 DUP7 DUP3 DUP8 ADD PUSH2 0x22C0 JUMP JUMPDEST SWAP2 POP POP SWAP3 POP SWAP3 POP SWAP3 JUMP JUMPDEST PUSH0 DUP2 MLOAD SWAP1 POP SWAP2 SWAP1 POP JUMP JUMPDEST PUSH0 DUP3 DUP3 MSTORE PUSH1 0x20 DUP3 ADD SWAP1 POP SWAP3 SWAP2 POP POP JUMP JUMPDEST PUSH0 JUMPDEST DUP4 DUP2 LT ISZERO PUSH2 0x23C8 JUMPI DUP1 DUP3 ADD MLOAD DUP2 DUP5 ADD MSTORE PUSH1 0x20 DUP2 ADD SWAP1 POP PUSH2 0x23AD JUMP JUMPDEST PUSH0 DUP5 DUP5 ADD MSTORE POP POP POP POP JUMP JUMPDEST PUSH0 PUSH2 0x23DD DUP3 PUSH2 0x2391 JUMP JUMPDEST PUSH2 0x23E7 DUP2 DUP6 PUSH2 0x239B JUMP JUMPDEST SWAP4 POP PUSH2 0x23F7 DUP2 DUP6 PUSH1 0x20 DUP7 ADD PUSH2 0x23AB JUMP JUMPDEST PUSH2 0x2400 DUP2 PUSH2 0x21B9 JUMP JUMPDEST DUP5 ADD SWAP2 POP POP SWAP3 SWAP2 POP POP JUMP JUMPDEST PUSH0 PUSH1 0x40 DUP4 ADD PUSH0 DUP4 ADD MLOAD DUP5 DUP3 SUB PUSH0 DUP7 ADD MSTORE PUSH2 0x2425 DUP3 DUP3 PUSH2 0x23D3 JUMP JUMPDEST SWAP2 POP POP PUSH1 0x20 DUP4 ADD MLOAD DUP5 DUP3 SUB PUSH1 0x20 DUP7 ADD MSTORE PUSH2 0x243F DUP3 DUP3 PUSH2 0x23D3 JUMP JUMPDEST SWAP2 POP POP DUP1 SWAP2 POP POP SWAP3 SWAP2 POP POP JUMP JUMPDEST PUSH0 DUP2 SWAP1 POP SWAP2 SWAP1 POP JUMP JUMPDEST PUSH2 0x245E DUP2 PUSH2 0x244C JUMP JUMPDEST DUP3 MSTORE POP POP JUMP JUMPDEST PUSH0 DUP2 MLOAD SWAP1 POP SWAP2 SWAP1 POP JUMP JUMPDEST PUSH0 DUP3 DUP3 MSTORE PUSH1 0x20 DUP3 ADD SWAP1 POP SWAP3 SWAP2 POP POP JUMP JUMPDEST PUSH0 DUP2 SWAP1 POP PUSH1 0x20 DUP3 ADD SWAP1 POP SWAP2 SWAP1 POP JUMP JUMPDEST PUSH0 PUSH2 0x2498 DUP4 DUP4 PUSH2 0x23D3 JUMP JUMPDEST SWAP1 POP SWAP3 SWAP2 POP POP JUMP JUMPDEST PUSH0 PUSH1 0x20 DUP3 ADD SWAP1 POP SWAP2 SWAP1 POP JUMP JUMPDEST PUSH0 PUSH2 0x24B6 DUP3 PUSH2 0x2464 JUMP JUMPDEST PUSH2 0x24C0 DUP2 DUP6 PUSH2 0x246E JUMP JUMPDEST SWAP4 POP DUP4 PUSH1 0x20 DUP3 MUL DUP6 ADD PUSH2 0x24D2 DUP6 PUSH2 0x247E JUMP JUMPDEST DUP1 PUSH0 JUMPDEST DUP6 DUP2 LT ISZERO PUSH2 0x250D JUMPI DUP5 DUP5 SUB DUP10 MSTORE DUP2 MLOAD PUSH2 0x24EE DUP6 DUP3 PUSH2 0x248D JUMP JUMPDEST SWAP5 POP PUSH2 0x24F9 DUP4 PUSH2 0x24A0 JUMP JUMPDEST SWAP3 POP PUSH1 0x20 DUP11 ADD SWAP10 POP POP PUSH1 0x1 DUP2 ADD SWAP1 POP PUSH2 0x24D5 JUMP JUMPDEST POP DUP3 SWAP8 POP DUP8 SWAP6 POP POP POP POP POP POP SWAP3 SWAP2 POP POP JUMP JUMPDEST PUSH0 DUP2 MLOAD SWAP1 POP SWAP2 SWAP1 POP JUMP JUMPDEST PUSH0 DUP3 DUP3 MSTORE PUSH1 0x20 DUP3 ADD SWAP1 POP SWAP3 SWAP2 POP POP JUMP JUMPDEST PUSH0 DUP2 SWAP1 POP PUSH1 0x20 DUP3 ADD SWAP1 POP SWAP2 SWAP1 POP JUMP JUMPDEST PUSH0 PUSH2 0x2553 DUP4 DUP4 PUSH2 0x2455 JUMP JUMPDEST PUSH1 0x20 DUP4 ADD SWAP1 POP SWAP3 SWAP2 POP POP JUMP JUMPDEST PUSH0 PUSH1 0x20 DUP3 ADD SWAP1 POP SWAP2 SWAP1 POP JUMP JUMPDEST PUSH0 PUSH2 0x2575 DUP3 PUSH2 0x251F JUMP JUMPDEST PUSH2 0x257F DUP2 DUP6 PUSH2 0x2529 JUMP JUMPDEST SWAP4 POP PUSH2 0x258A DUP4 PUSH2 0x2539 JUMP JUMPDEST DUP1 PUSH0 JUMPDEST DUP4 DUP2 LT ISZERO PUSH2 0x25BA JUMPI DUP2 MLOAD PUSH2 0x25A1 DUP9 DUP3 PUSH2 0x2548 JUMP JUMPDEST SWAP8 POP PUSH2 0x25AC DUP4 PUSH2 0x255F JUMP JUMPDEST SWAP3 POP POP PUSH1 0x1 DUP2 ADD SWAP1 POP PUSH2 0x258D JUMP JUMPDEST POP DUP6 SWAP4 POP POP POP POP SWAP3 SWAP2 POP POP JUMP JUMPDEST PUSH0 PUSH2 0x140 DUP4 ADD PUSH0 DUP4 ADD MLOAD DUP5 DUP3 SUB PUSH0 DUP7 ADD MSTORE PUSH2 0x25E2 DUP3 DUP3 PUSH2 0x23D3 JUMP JUMPDEST SWAP2 POP POP PUSH1 0x20 DUP4 ADD MLOAD DUP5 DUP3 SUB PUSH1 0x20 DUP7 ADD MSTORE PUSH2 0x25FC DUP3 DUP3 PUSH2 0x23D3 JUMP JUMPDEST SWAP2 POP POP PUSH1 0x40 DUP4 ADD MLOAD DUP5 DUP3 SUB PUSH1 0x40 DUP7 ADD MSTORE PUSH2 0x2616 DUP3 DUP3 PUSH2 0x23D3 JUMP JUMPDEST SWAP2 POP POP PUSH1 0x60 DUP4 ADD MLOAD DUP5 DUP3 SUB PUSH1 0x60 DUP7 ADD MSTORE PUSH2 0x2630 DUP3 DUP3 PUSH2 0x23D3 JUMP JUMPDEST SWAP2 POP POP PUSH1 0x80 DUP4 ADD MLOAD DUP5 DUP3 SUB PUSH1 0x80 DUP7 ADD MSTORE PUSH2 0x264A DUP3 DUP3 PUSH2 0x240B JUMP JUMPDEST SWAP2 POP POP PUSH1 0xA0 DUP4 ADD MLOAD DUP5 DUP3 SUB PUSH1 0xA0 DUP7 ADD MSTORE PUSH2 0x2664 DUP3 DUP3 PUSH2 0x23D3 JUMP JUMPDEST SWAP2 POP POP PUSH1 0xC0 DUP4 ADD MLOAD PUSH2 0x2679 PUSH1 0xC0 DUP7 ADD DUP3 PUSH2 0x2455 JUMP JUMPDEST POP PUSH1 0xE0 DUP4 ADD MLOAD DUP5 DUP3 SUB PUSH1 0xE0 DUP7 ADD MSTORE PUSH2 0x2691 DUP3 DUP3 PUSH2 0x24AC JUMP JUMPDEST SWAP2 POP POP PUSH2 0x100 DUP4 ADD MLOAD DUP5 DUP3 SUB PUSH2 0x100 DUP7 ADD MSTORE PUSH2 0x26AD DUP3 DUP3 PUSH2 0x256B JUMP JUMPDEST SWAP2 POP POP PUSH2 0x120 DUP4 ADD MLOAD DUP5 DUP3 SUB PUSH2 0x120 DUP7 ADD MSTORE PUSH2 0x26C9 DUP3 DUP3 PUSH2 0x23D3 JUMP JUMPDEST SWAP2 POP POP DUP1 SWAP2 POP POP SWAP3 SWAP2 POP POP JUMP JUMPDEST PUSH0 PUSH1 0x20 DUP3 ADD SWAP1 POP DUP2 DUP2 SUB PUSH0 DUP4 ADD MSTORE PUSH2 0x26EE DUP2 DUP5 PUSH2 0x25C7 JUMP JUMPDEST SWAP1 POP SWAP3 SWAP2 POP POP JUMP JUMPDEST PUSH0 DUP2 ISZERO ISZERO SWAP1 POP SWAP2 SWAP1 POP JUMP JUMPDEST PUSH2 0x270A DUP2 PUSH2 0x26F6 JUMP JUMPDEST DUP3 MSTORE POP POP JUMP JUMPDEST PUSH0 PUSH1 0x20 DUP3 ADD SWAP1 POP PUSH2 0x2723 PUSH0 DUP4 ADD DUP5 PUSH2 0x2701 JUMP JUMPDEST SWAP3 SWAP2 POP POP JUMP JUMPDEST PUSH2 0x2732 DUP2 PUSH2 0x244C JUMP JUMPDEST DUP3 MSTORE POP POP JUMP JUMPDEST PUSH0 PUSH1 0x20 DUP3 ADD SWAP1 POP PUSH2 0x274B PUSH0 DUP4 ADD DUP5 PUSH2 0x2729 JUMP JUMPDEST SWAP3 SWAP2 POP POP JUMP JUMPDEST PUSH0 DUP3 DUP3 MSTORE PUSH1 0x20 DUP3 ADD SWAP1 POP SWAP3 SWAP2 POP POP JUMP JUMPDEST PUSH0 PUSH2 0x276B DUP3 PUSH2 0x2391 JUMP JUMPDEST PUSH2 0x2775 DUP2 DUP6 PUSH2 0x2751 JUMP JUMPDEST SWAP4 POP PUSH2 0x2785 DUP2 DUP6 PUSH1 0x20 DUP7 ADD PUSH2 0x23AB JUMP JUMPDEST PUSH2 0x278E DUP2 PUSH2 0x21B9 JUMP JUMPDEST DUP5 ADD SWAP2 POP POP SWAP3 SWAP2 POP POP JUMP JUMPDEST PUSH0 PUSH1 0x20 DUP3 ADD SWAP1 POP DUP2 DUP2 SUB PUSH0 DUP4 ADD MSTORE PUSH2 0x27B1 DUP2 DUP5 PUSH2 0x2761 JUMP JUMPDEST SWAP1 POP SWAP3 SWAP2 POP POP JUMP JUMPDEST PUSH0 DUP1 PUSH1 0x40 DUP4 DUP6 SUB SLT ISZERO PUSH2 0x27CF JUMPI PUSH2 0x27CE PUSH2 0x21A9 JUMP JUMPDEST JUMPDEST PUSH0 DUP4 ADD CALLDATALOAD PUSH8 0xFFFFFFFFFFFFFFFF DUP2 GT ISZERO PUSH2 0x27EC JUMPI PUSH2 0x27EB PUSH2 0x21AD JUMP JUMPDEST JUMPDEST PUSH2 0x27F8 DUP6 DUP3 DUP7 ADD PUSH2 0x22C0 JUMP JUMPDEST SWAP3 POP POP PUSH1 0x20 DUP4 ADD CALLDATALOAD PUSH8 0xFFFFFFFFFFFFFFFF DUP2 GT ISZERO PUSH2 0x2819 JUMPI PUSH2 0x2818 PUSH2 0x21AD JUMP JUMPDEST JUMPDEST PUSH2 0x2825 DUP6 DUP3 DUP7 ADD PUSH2 0x22C0 JUMP JUMPDEST SWAP2 POP POP SWAP3 POP SWAP3 SWAP1 POP JUMP JUMPDEST PUSH2 0x2838 DUP2 PUSH2 0x244C JUMP JUMPDEST DUP2 EQ PUSH2 0x2842 JUMPI PUSH0 DUP1 REVERT JUMPDEST POP JUMP JUMPDEST PUSH0 DUP2 CALLDATALOAD SWAP1 POP PUSH2 0x2853 DUP2 PUSH2 0x282F JUMP JUMPDEST SWAP3 SWAP2 POP POP JUMP JUMPDEST PUSH0 DUP1 PUSH0 DUP1 PUSH0 PUSH1 0xA0 DUP7 DUP9 SUB SLT ISZERO PUSH2 0x2872 JUMPI PUSH2 0x2871 PUSH2 0x21A9 JUMP JUMPDEST JUMPDEST PUSH0 DUP7 ADD CALLDATALOAD PUSH8 0xFFFFFFFFFFFFFFFF DUP2 GT ISZERO PUSH2 0x288F JUMPI PUSH2 0x288E PUSH2 0x21AD JUMP JUMPDEST JUMPDEST PUSH2 0x289B DUP9 DUP3 DUP10 ADD PUSH2 0x22C0 JUMP JUMPDEST SWAP6 POP POP PUSH1 0x20 DUP7 ADD CALLDATALOAD PUSH8 0xFFFFFFFFFFFFFFFF DUP2 GT ISZERO PUSH2 0x28BC JUMPI PUSH2 0x28BB PUSH2 0x21AD JUMP JUMPDEST JUMPDEST PUSH2 0x28C8 DUP9 DUP3 DUP10 ADD PUSH2 0x22C0 JUMP JUMPDEST SWAP5 POP POP PUSH1 0x40 DUP7 ADD CALLDATALOAD PUSH8 0xFFFFFFFFFFFFFFFF DUP2 GT ISZERO PUSH2 0x28E9 JUMPI PUSH2 0x28E8 PUSH2 0x21AD JUMP JUMPDEST JUMPDEST PUSH2 0x28F5 DUP9 DUP3 DUP10 ADD PUSH2 0x22C0 JUMP JUMPDEST SWAP4 POP POP PUSH1 0x60 DUP7 ADD CALLDATALOAD PUSH8 0xFFFFFFFFFFFFFFFF DUP2 GT ISZERO PUSH2 0x2916 JUMPI PUSH2 0x2915 PUSH2 0x21AD JUMP JUMPDEST JUMPDEST PUSH2 0x2922 DUP9 DUP3 DUP10 ADD PUSH2 0x22C0 JUMP JUMPDEST SWAP3 POP POP PUSH1 0x80 PUSH2 0x2933 DUP9 DUP3 DUP10 ADD PUSH2 0x2845 JUMP JUMPDEST SWAP2 POP POP SWAP3 SWAP6 POP SWAP3 SWAP6 SWAP1 SWAP4 POP JUMP JUMPDEST PUSH0 PUSH8 0xFFFFFFFFFFFFFFFF DUP3 GT ISZERO PUSH2 0x295A JUMPI PUSH2 0x2959 PUSH2 0x21C9 JUMP JUMPDEST JUMPDEST PUSH1 0x20 DUP3 MUL SWAP1 POP PUSH1 0x20 DUP2 ADD SWAP1 POP SWAP2 SWAP1 POP JUMP JUMPDEST PUSH0 DUP1 REVERT JUMPDEST PUSH0 PUSH2 0x2981 PUSH2 0x297C DUP5 PUSH2 0x2940 JUMP JUMPDEST PUSH2 0x2227 JUMP JUMPDEST SWAP1 POP DUP1 DUP4 DUP3 MSTORE PUSH1 0x20 DUP3 ADD SWAP1 POP PUSH1 0x20 DUP5 MUL DUP4 ADD DUP6 DUP2 GT ISZERO PUSH2 0x29A4 JUMPI PUSH2 0x29A3 PUSH2 0x296B JUMP JUMPDEST JUMPDEST DUP4 JUMPDEST DUP2 DUP2 LT ISZERO PUSH2 0x29EB JUMPI DUP1 CALLDATALOAD PUSH8 0xFFFFFFFFFFFFFFFF DUP2 GT ISZERO PUSH2 0x29C9 JUMPI PUSH2 0x29C8 PUSH2 0x21B1 JUMP JUMPDEST JUMPDEST DUP1 DUP7 ADD PUSH2 0x29D6 DUP10 DUP3 PUSH2 0x22C0 JUMP JUMPDEST DUP6 MSTORE PUSH1 0x20 DUP6 ADD SWAP5 POP POP POP PUSH1 0x20 DUP2 ADD SWAP1 POP PUSH2 0x29A6 JUMP JUMPDEST POP POP POP SWAP4 SWAP3 POP POP POP JUMP JUMPDEST PUSH0 DUP3 PUSH1 0x1F DUP4 ADD SLT PUSH2 0x2A09 JUMPI PUSH2 0x2A08 PUSH2 0x21B1 JUMP JUMPDEST JUMPDEST DUP2 CALLDATALOAD PUSH2 0x2A19 DUP5 DUP3 PUSH1 0x20 DUP7 ADD PUSH2 0x296F JUMP JUMPDEST SWAP2 POP POP SWAP3 SWAP2 POP POP JUMP JUMPDEST PUSH0 PUSH8 0xFFFFFFFFFFFFFFFF DUP3 GT ISZERO PUSH2 0x2A3C JUMPI PUSH2 0x2A3B PUSH2 0x21C9 JUMP JUMPDEST JUMPDEST PUSH1 0x20 DUP3 MUL SWAP1 POP PUSH1 0x20 DUP2 ADD SWAP1 POP SWAP2 SWAP1 POP JUMP JUMPDEST PUSH0 PUSH2 0x2A5F PUSH2 0x2A5A DUP5 PUSH2 0x2A22 JUMP JUMPDEST PUSH2 0x2227 JUMP JUMPDEST SWAP1 POP DUP1 DUP4 DUP3 MSTORE PUSH1 0x20 DUP3 ADD SWAP1 POP PUSH1 0x20 DUP5 MUL DUP4 ADD DUP6 DUP2 GT ISZERO PUSH2 0x2A82 JUMPI PUSH2 0x2A81 PUSH2 0x296B JUMP JUMPDEST JUMPDEST DUP4 JUMPDEST DUP2 DUP2 LT ISZERO PUSH2 0x2AAB JUMPI DUP1 PUSH2 0x2A97 DUP9 DUP3 PUSH2 0x2845 JUMP JUMPDEST DUP5 MSTORE PUSH1 0x20 DUP5 ADD SWAP4 POP POP PUSH1 0x20 DUP2 ADD SWAP1 POP PUSH2 0x2A84 JUMP JUMPDEST POP POP POP SWAP4 SWAP3 POP POP POP JUMP JUMPDEST PUSH0 DUP3 PUSH1 0x1F DUP4 ADD SLT PUSH2 0x2AC9 JUMPI PUSH2 0x2AC8 PUSH2 0x21B1 JUMP JUMPDEST JUMPDEST DUP2 CALLDATALOAD PUSH2 0x2AD9 DUP5 DUP3 PUSH1 0x20 DUP7 ADD PUSH2 0x2A4D JUMP JUMPDEST SWAP2 POP POP SWAP3 SWAP2 POP POP JUMP JUMPDEST PUSH0 DUP1 PUSH0 DUP1 PUSH1 0x80 DUP6 DUP8 SUB SLT ISZERO PUSH2 0x2AFA JUMPI PUSH2 0x2AF9 PUSH2 0x21A9 JUMP JUMPDEST JUMPDEST PUSH0 DUP6 ADD CALLDATALOAD PUSH8 0xFFFFFFFFFFFFFFFF DUP2 GT ISZERO PUSH2 0x2B17 JUMPI PUSH2 0x2B16 PUSH2 0x21AD JUMP JUMPDEST JUMPDEST PUSH2 0x2B23 DUP8 DUP3 DUP9 ADD PUSH2 0x22C0 JUMP JUMPDEST SWAP5 POP POP PUSH1 0x20 DUP6 ADD CALLDATALOAD PUSH8 0xFFFFFFFFFFFFFFFF DUP2 GT ISZERO PUSH2 0x2B44 JUMPI PUSH2 0x2B43 PUSH2 0x21AD JUMP JUMPDEST JUMPDEST PUSH2 0x2B50 DUP8 DUP3 DUP9 ADD PUSH2 0x22C0 JUMP JUMPDEST SWAP4 POP POP PUSH1 0x40 DUP6 ADD CALLDATALOAD PUSH8 0xFFFFFFFFFFFFFFFF DUP2 GT ISZERO PUSH2 0x2B71 JUMPI PUSH2 0x2B70 PUSH2 0x21AD JUMP JUMPDEST JUMPDEST PUSH2 0x2B7D DUP8 DUP3 DUP9 ADD PUSH2 0x29F5 JUMP JUMPDEST SWAP3 POP POP PUSH1 0x60 DUP6 ADD CALLDATALOAD PUSH8 0xFFFFFFFFFFFFFFFF DUP2 GT ISZERO PUSH2 0x2B9E JUMPI PUSH2 0x2B9D PUSH2 0x21AD JUMP JUMPDEST JUMPDEST PUSH2 0x2BAA DUP8 DUP3 DUP9 ADD PUSH2 0x2AB5 JUMP JUMPDEST SWAP2 POP POP SWAP3 SWAP6 SWAP2 SWAP5 POP SWAP3 POP JUMP JUMPDEST PUSH0 DUP1 PUSH0 DUP1 PUSH0 DUP1 PUSH0 DUP1 PUSH0 DUP1 PUSH0 PUSH2 0x160 DUP13 DUP15 SUB SLT ISZERO PUSH2 0x2BD6 JUMPI PUSH2 0x2BD5 PUSH2 0x21A9 JUMP JUMPDEST JUMPDEST PUSH0 DUP13 ADD CALLDATALOAD PUSH8 0xFFFFFFFFFFFFFFFF DUP2 GT ISZERO PUSH2 0x2BF3 JUMPI PUSH2 0x2BF2 PUSH2 0x21AD JUMP JUMPDEST JUMPDEST PUSH2 0x2BFF DUP15 DUP3 DUP16 ADD PUSH2 0x22C0 JUMP JUMPDEST SWAP12 POP POP PUSH1 0x20 DUP13 ADD CALLDATALOAD PUSH8 0xFFFFFFFFFFFFFFFF DUP2 GT ISZERO PUSH2 0x2C20 JUMPI PUSH2 0x2C1F PUSH2 0x21AD JUMP JUMPDEST JUMPDEST PUSH2 0x2C2C DUP15 DUP3 DUP16 ADD PUSH2 0x22C0 JUMP JUMPDEST SWAP11 POP POP PUSH1 0x40 DUP13 ADD CALLDATALOAD PUSH8 0xFFFFFFFFFFFFFFFF DUP2 GT ISZERO PUSH2 0x2C4D JUMPI PUSH2 0x2C4C PUSH2 0x21AD JUMP JUMPDEST JUMPDEST PUSH2 0x2C59 DUP15 DUP3 DUP16 ADD PUSH2 0x22C0 JUMP JUMPDEST SWAP10 POP POP PUSH1 0x60 DUP13 ADD CALLDATALOAD PUSH8 0xFFFFFFFFFFFFFFFF DUP2 GT ISZERO PUSH2 0x2C7A JUMPI PUSH2 0x2C79 PUSH2 0x21AD JUMP JUMPDEST JUMPDEST PUSH2 0x2C86 DUP15 DUP3 DUP16 ADD PUSH2 0x22C0 JUMP JUMPDEST SWAP9 POP POP PUSH1 0x80 DUP13 ADD CALLDATALOAD PUSH8 0xFFFFFFFFFFFFFFFF DUP2 GT ISZERO PUSH2 0x2CA7 JUMPI PUSH2 0x2CA6 PUSH2 0x21AD JUMP JUMPDEST JUMPDEST PUSH2 0x2CB3 DUP15 DUP3 DUP16 ADD PUSH2 0x22C0 JUMP JUMPDEST SWAP8 POP POP PUSH1 0xA0 DUP13 ADD CALLDATALOAD PUSH8 0xFFFFFFFFFFFFFFFF DUP2 GT ISZERO PUSH2 0x2CD4 JUMPI PUSH2 0x2CD3 PUSH2 0x21AD JUMP JUMPDEST JUMPDEST PUSH2 0x2CE0 DUP15 DUP3 DUP16 ADD PUSH2 0x22C0 JUMP JUMPDEST SWAP7 POP POP PUSH1 0xC0 DUP13 ADD CALLDATALOAD PUSH8 0xFFFFFFFFFFFFFFFF DUP2 GT ISZERO PUSH2 0x2D01 JUMPI PUSH2 0x2D00 PUSH2 0x21AD JUMP JUMPDEST JUMPDEST PUSH2 0x2D0D DUP15 DUP3 DUP16 ADD PUSH2 0x22C0 JUMP JUMPDEST SWAP6 POP POP PUSH1 0xE0 PUSH2 0x2D1E DUP15 DUP3 DUP16 ADD PUSH2 0x2845 JUMP JUMPDEST SWAP5 POP POP PUSH2 0x100 DUP13 ADD CALLDATALOAD PUSH8 0xFFFFFFFFFFFFFFFF DUP2 GT ISZERO PUSH2 0x2D40 JUMPI PUSH2 0x2D3F PUSH2 0x21AD JUMP JUMPDEST JUMPDEST PUSH2 0x2D4C DUP15 DUP3 DUP16 ADD PUSH2 0x29F5 JUMP JUMPDEST SWAP4 POP POP PUSH2 0x120 DUP13 ADD CALLDATALOAD PUSH8 0xFFFFFFFFFFFFFFFF DUP2 GT ISZERO PUSH2 0x2D6E JUMPI PUSH2 0x2D6D PUSH2 0x21AD JUMP JUMPDEST JUMPDEST PUSH2 0x2D7A DUP15 DUP3 DUP16 ADD PUSH2 0x2AB5 JUMP JUMPDEST SWAP3 POP POP PUSH2 0x140 DUP13 ADD CALLDATALOAD PUSH8 0xFFFFFFFFFFFFFFFF DUP2 GT ISZERO PUSH2 0x2D9C JUMPI PUSH2 0x2D9B PUSH2 0x21AD JUMP JUMPDEST JUMPDEST PUSH2 0x2DA8 DUP15 DUP3 DUP16 ADD PUSH2 0x22C0 JUMP JUMPDEST SWAP2 POP POP SWAP3 SWAP6 SWAP9 SWAP12 POP SWAP3 SWAP6 SWAP9 SWAP12 SWAP1 SWAP4 SWAP7 SWAP10 POP JUMP JUMPDEST PUSH0 PUSH1 0x20 DUP3 DUP5 SUB SLT ISZERO PUSH2 0x2DD0 JUMPI PUSH2 0x2DCF PUSH2 0x21A9 JUMP JUMPDEST JUMPDEST PUSH0 PUSH2 0x2DDD DUP5 DUP3 DUP6 ADD PUSH2 0x2845 JUMP JUMPDEST SWAP2 POP POP SWAP3 SWAP2 POP POP JUMP JUMPDEST PUSH0 PUSH1 0x40 DUP4 ADD PUSH0 DUP4 ADD MLOAD DUP5 DUP3 SUB PUSH0 DUP7 ADD MSTORE PUSH2 0x2E00 DUP3 DUP3 PUSH2 0x23D3 JUMP JUMPDEST SWAP2 POP POP PUSH1 0x20 DUP4 ADD MLOAD DUP5 DUP3 SUB PUSH1 0x20 DUP7 ADD MSTORE PUSH2 0x2E1A DUP3 DUP3 PUSH2 0x23D3 JUMP JUMPDEST SWAP2 POP POP DUP1 SWAP2 POP POP SWAP3 SWAP2 POP POP JUMP JUMPDEST PUSH0 PUSH2 0x100 DUP3 ADD SWAP1 POP DUP2 DUP2 SUB PUSH0 DUP4 ADD MSTORE PUSH2 0x2E40 DUP2 DUP12 PUSH2 0x2761 JUMP JUMPDEST SWAP1 POP DUP2 DUP2 SUB PUSH1 0x20 DUP4 ADD MSTORE PUSH2 0x2E54 DUP2 DUP11 PUSH2 0x2761 JUMP JUMPDEST SWAP1 POP DUP2 DUP2 SUB PUSH1 0x40 DUP4 ADD MSTORE PUSH2 0x2E68 DUP2 DUP10 PUSH2 0x2761 JUMP JUMPDEST SWAP1 POP DUP2 DUP2 SUB PUSH1 0x60 DUP4 ADD MSTORE PUSH2 0x2E7C DUP2 DUP9 PUSH2 0x2761 JUMP JUMPDEST SWAP1 POP DUP2 DUP2 SUB PUSH1 0x80 DUP4 ADD MSTORE PUSH2 0x2E90 DUP2 DUP8 PUSH2 0x2DE6 JUMP JUMPDEST SWAP1 POP DUP2 DUP2 SUB PUSH1 0xA0 DUP4 ADD MSTORE PUSH2 0x2EA4 DUP2 DUP7 PUSH2 0x2761 JUMP JUMPDEST SWAP1 POP PUSH2 0x2EB3 PUSH1 0xC0 DUP4 ADD DUP6 PUSH2 0x2729 JUMP JUMPDEST DUP2 DUP2 SUB PUSH1 0xE0 DUP4 ADD MSTORE PUSH2 0x2EC5 DUP2 DUP5 PUSH2 0x2761 JUMP JUMPDEST SWAP1 POP SWAP10 SWAP9 POP POP POP POP POP POP POP POP POP JUMP JUMPDEST PUSH32 0x4C6120636F6D6D616E6465206E27657869737465207061730000000000000000 PUSH0 DUP3 ADD MSTORE POP JUMP JUMPDEST PUSH0 PUSH2 0x2F08 PUSH1 0x18 DUP4 PUSH2 0x2751 JUMP JUMPDEST SWAP2 POP PUSH2 0x2F13 DUP3 PUSH2 0x2ED4 JUMP JUMPDEST PUSH1 0x20 DUP3 ADD SWAP1 POP SWAP2 SWAP1 POP JUMP JUMPDEST PUSH0 PUSH1 0x20 DUP3 ADD SWAP1 POP DUP2 DUP2 SUB PUSH0 DUP4 ADD MSTORE PUSH2 0x2F35 DUP2 PUSH2 0x2EFC JUMP JUMPDEST SWAP1 POP SWAP2 SWAP1 POP JUMP JUMPDEST PUSH0 DUP2 SWAP1 POP SWAP3 SWAP2 POP POP JUMP JUMPDEST PUSH0 PUSH2 0x2F50 DUP3 PUSH2 0x2391 JUMP JUMPDEST PUSH2 0x2F5A DUP2 DUP6 PUSH2 0x2F3C JUMP JUMPDEST SWAP4 POP PUSH2 0x2F6A DUP2 DUP6 PUSH1 0x20 DUP7 ADD PUSH2 0x23AB JUMP JUMPDEST DUP1 DUP5 ADD SWAP2 POP POP SWAP3 SWAP2 POP POP JUMP JUMPDEST PUSH0 PUSH2 0x2F81 DUP3 DUP6 PUSH2 0x2F46 JUMP JUMPDEST SWAP2 POP PUSH2 0x2F8D DUP3 DUP5 PUSH2 0x2F46 JUMP JUMPDEST SWAP2 POP DUP2 SWAP1 POP SWAP4 SWAP3 POP POP POP JUMP JUMPDEST PUSH32 0x4E487B7100000000000000000000000000000000000000000000000000000000 PUSH0 MSTORE PUSH1 0x32 PUSH1 0x4 MSTORE PUSH1 0x24 PUSH0 REVERT JUMPDEST PUSH32 0x4E487B7100000000000000000000000000000000000000000000000000000000 PUSH0 MSTORE PUSH1 0x22 PUSH1 0x4 MSTORE PUSH1 0x24 PUSH0 REVERT JUMPDEST PUSH0 PUSH1 0x2 DUP3 DIV SWAP1 POP PUSH1 0x1 DUP3 AND DUP1 PUSH2 0x300A JUMPI PUSH1 0x7F DUP3 AND SWAP2 POP JUMPDEST PUSH1 0x20 DUP3 LT DUP2 SUB PUSH2 0x301D JUMPI PUSH2 0x301C PUSH2 0x2FC6 JUMP JUMPDEST JUMPDEST POP SWAP2 SWAP1 POP JUMP JUMPDEST PUSH32 0x4E487B7100000000000000000000000000000000000000000000000000000000 PUSH0 MSTORE PUSH1 0x11 PUSH1 0x4 MSTORE PUSH1 0x24 PUSH0 REVERT JUMPDEST PUSH0 PUSH2 0x305A DUP3 PUSH2 0x244C JUMP JUMPDEST SWAP2 POP PUSH32 0xFFFFFFFFFFFFFFFFFFFFFFFFFFFFFFFFFFFFFFFFFFFFFFFFFFFFFFFFFFFFFFFF DUP3 SUB PUSH2 0x308C JUMPI PUSH2 0x308B PUSH2 0x3023 JUMP JUMPDEST JUMPDEST PUSH1 0x1 DUP3 ADD SWAP1 POP SWAP2 SWAP1 POP JUMP JUMPDEST PUSH32 0x4C2761727469636C65206E276578697374652070617300000000000000000000 PUSH0 DUP3 ADD MSTORE POP JUMP JUMPDEST PUSH0 PUSH2 0x30CB PUSH1 0x16 DUP4 PUSH2 0x2751 JUMP JUMPDEST SWAP2 POP PUSH2 0x30D6 DUP3 PUSH2 0x3097 JUMP JUMPDEST PUSH1 0x20 DUP3 ADD SWAP1 POP SWAP2 SWAP1 POP JUMP JUMPDEST PUSH0 PUSH1 0x20 DUP3 ADD SWAP1 POP DUP2 DUP2 SUB PUSH0 DUP4 ADD MSTORE PUSH2 0x30F8 DUP2 PUSH2 0x30BF JUMP JUMPDEST SWAP1 POP SWAP2 SWAP1 POP JUMP JUMPDEST PUSH32 0x4C2761727469636C65206E27657869737465207061732064616E73206C612062 PUSH0 DUP3 ADD MSTORE PUSH32 0x6C6F636B636861696E0000000000000000000000000000000000000000000000 PUSH1 0x20 DUP3 ADD MSTORE POP JUMP JUMPDEST PUSH0 PUSH2 0x3159 PUSH1 0x29 DUP4 PUSH2 0x2751 JUMP JUMPDEST SWAP2 POP PUSH2 0x3164 DUP3 PUSH2 0x30FF JUMP JUMPDEST PUSH1 0x40 DUP3 ADD SWAP1 POP SWAP2 SWAP1 POP JUMP JUMPDEST PUSH0 PUSH1 0x20 DUP3 ADD SWAP1 POP DUP2 DUP2 SUB PUSH0 DUP4 ADD MSTORE PUSH2 0x3186 DUP2 PUSH2 0x314D JUMP JUMPDEST SWAP1 POP SWAP2 SWAP1 POP JUMP JUMPDEST PUSH32 0x436F6465206475206D61676173696E203A200000000000000000000000000000 PUSH0 DUP3 ADD MSTORE POP JUMP JUMPDEST PUSH0 PUSH2 0x31C1 PUSH1 0x12 DUP4 PUSH2 0x2F3C JUMP JUMPDEST SWAP2 POP PUSH2 0x31CC DUP3 PUSH2 0x318D JUMP JUMPDEST PUSH1 0x12 DUP3 ADD SWAP1 POP SWAP2 SWAP1 POP JUMP JUMPDEST PUSH32 0xA204E756D65726F20646520436F6D6D616E64653A2000000000000000000000 PUSH0 DUP3 ADD MSTORE POP JUMP JUMPDEST PUSH0 PUSH2 0x320B PUSH1 0x16 DUP4 PUSH2 0x2F3C JUMP JUMPDEST SWAP2 POP PUSH2 0x3216 DUP3 PUSH2 0x31D7 JUMP JUMPDEST PUSH1 0x16 DUP3 ADD SWAP1 POP SWAP2 SWAP1 POP JUMP JUMPDEST PUSH32 0xA204461746520642761727269766565206465206C6120636F6D6D616E64653A PUSH0 DUP3 ADD MSTORE PUSH32 0x2000000000000000000000000000000000000000000000000000000000000000 PUSH1 0x20 DUP3 ADD MSTORE POP JUMP JUMPDEST PUSH0 PUSH2 0x327B PUSH1 0x21 DUP4 PUSH2 0x2F3C JUMP JUMPDEST SWAP2 POP PUSH2 0x3286 DUP3 PUSH2 0x3221 JUMP JUMPDEST PUSH1 0x21 DUP3 ADD SWAP1 POP SWAP2 SWAP1 POP JUMP JUMPDEST PUSH32 0xA204461746520646520636C6F74757265206465206C6120636F6D6D616E6465 PUSH0 DUP3 ADD MSTORE PUSH32 0x3A20000000000000000000000000000000000000000000000000000000000000 PUSH1 0x20 DUP3 ADD MSTORE POP JUMP JUMPDEST PUSH0 PUSH2 0x32EB PUSH1 0x22 DUP4 PUSH2 0x2F3C JUMP JUMPDEST SWAP2 POP PUSH2 0x32F6 DUP3 PUSH2 0x3291 JUMP JUMPDEST PUSH1 0x22 DUP3 ADD SWAP1 POP SWAP2 SWAP1 POP JUMP JUMPDEST PUSH32 0xA20466F75726E697373657572203A2000000000000000000000000000000000 PUSH0 DUP3 ADD MSTORE POP JUMP JUMPDEST PUSH0 PUSH2 0x3335 PUSH1 0x10 DUP4 PUSH2 0x2F3C JUMP JUMPDEST SWAP2 POP PUSH2 0x3340 DUP3 PUSH2 0x3301 JUMP JUMPDEST PUSH1 0x10 DUP3 ADD SWAP1 POP SWAP2 SWAP1 POP JUMP JUMPDEST PUSH32 0xA204164726573736520647520466F75726E697373657572203A200000000000 PUSH0 DUP3 ADD MSTORE POP JUMP JUMPDEST PUSH0 PUSH2 0x337F PUSH1 0x1B DUP4 PUSH2 0x2F3C JUMP JUMPDEST SWAP2 POP PUSH2 0x338A DUP3 PUSH2 0x334B JUMP JUMPDEST PUSH1 0x1B DUP3 ADD SWAP1 POP SWAP2 SWAP1 POP JUMP JUMPDEST PUSH32 0xA20436F64652073616E697461697265203A2000000000000000000000000000 PUSH0 DUP3 ADD MSTORE POP JUMP JUMPDEST PUSH0 PUSH2 0x33C9 PUSH1 0x13 DUP4 PUSH2 0x2F3C JUMP JUMPDEST SWAP2 POP PUSH2 0x33D4 DUP3 PUSH2 0x3395 JUMP JUMPDEST PUSH1 0x13 DUP3 ADD SWAP1 POP SWAP2 SWAP1 POP JUMP JUMPDEST PUSH32 0xA20436F6465206475204C6F74203A2000000000000000000000000000000000 PUSH0 DUP3 ADD MSTORE POP JUMP JUMPDEST PUSH0 PUSH2 0x3413 PUSH1 0x10 DUP4 PUSH2 0x2F3C JUMP JUMPDEST SWAP2 POP PUSH2 0x341E DUP3 PUSH2 0x33DF JUMP JUMPDEST PUSH1 0x10 DUP3 ADD SWAP1 POP SWAP2 SWAP1 POP JUMP JUMPDEST PUSH32 0xA20636F64652041727469636C65203A20000000000000000000000000000000 PUSH0 DUP3 ADD MSTORE POP JUMP JUMPDEST PUSH0 PUSH2 0x345D PUSH1 0x11 DUP4 PUSH2 0x2F3C JUMP JUMPDEST SWAP2 POP PUSH2 0x3468 DUP3 PUSH2 0x3429 JUMP JUMPDEST PUSH1 0x11 DUP3 ADD SWAP1 POP SWAP2 SWAP1 POP JUMP JUMPDEST PUSH32 0xA20506F696473203A2000000000000000000000000000000000000000000000 PUSH0 DUP3 ADD MSTORE POP JUMP JUMPDEST PUSH0 PUSH2 0x34A7 PUSH1 0xA DUP4 PUSH2 0x2F3C JUMP JUMPDEST SWAP2 POP PUSH2 0x34B2 DUP3 PUSH2 0x3473 JUMP JUMPDEST PUSH1 0xA DUP3 ADD SWAP1 POP SWAP2 SWAP1 POP JUMP JUMPDEST PUSH32 0x6B67000000000000000000000000000000000000000000000000000000000000 PUSH0 DUP3 ADD MSTORE POP JUMP JUMPDEST PUSH0 PUSH2 0x34F1 PUSH1 0x2 DUP4 PUSH2 0x2F3C JUMP JUMPDEST SWAP2 POP PUSH2 0x34FC DUP3 PUSH2 0x34BD JUMP JUMPDEST PUSH1 0x2 DUP3 ADD SWAP1 POP SWAP2 SWAP1 POP JUMP JUMPDEST PUSH32 0xA2044697374616E6365203A2000000000000000000000000000000000000000 PUSH0 DUP3 ADD MSTORE POP JUMP JUMPDEST PUSH0 PUSH2 0x353B PUSH1 0xD DUP4 PUSH2 0x2F3C JUMP JUMPDEST SWAP2 POP PUSH2 0x3546 DUP3 PUSH2 0x3507 JUMP JUMPDEST PUSH1 0xD DUP3 ADD SWAP1 POP SWAP2 SWAP1 POP JUMP JUMPDEST PUSH32 0x6B6D000000000000000000000000000000000000000000000000000000000000 PUSH0 DUP3 ADD MSTORE POP JUMP JUMPDEST PUSH0 PUSH2 0x3585 PUSH1 0x2 DUP4 PUSH2 0x2F3C JUMP JUMPDEST SWAP2 POP PUSH2 0x3590 DUP3 PUSH2 0x3551 JUMP JUMPDEST PUSH1 0x2 DUP3 ADD SWAP1 POP SWAP2 SWAP1 POP JUMP JUMPDEST PUSH32 0xA20436F6D6D656E7461697265203A2000000000000000000000000000000000 PUSH0 DUP3 ADD MSTORE POP JUMP JUMPDEST PUSH0 PUSH2 0x35CF PUSH1 0x10 DUP4 PUSH2 0x2F3C JUMP JUMPDEST SWAP2 POP PUSH2 0x35DA DUP3 PUSH2 0x359B JUMP JUMPDEST PUSH1 0x10 DUP3 ADD SWAP1 POP SWAP2 SWAP1 POP JUMP JUMPDEST PUSH32 0xA00000000000000000000000000000000000000000000000000000000000000 PUSH0 DUP3 ADD MSTORE POP JUMP JUMPDEST PUSH0 PUSH2 0x3619 PUSH1 0x1 DUP4 PUSH2 0x2F3C JUMP JUMPDEST SWAP2 POP PUSH2 0x3624 DUP3 PUSH2 0x35E5 JUMP JUMPDEST PUSH1 0x1 DUP3 ADD SWAP1 POP SWAP2 SWAP1 POP JUMP JUMPDEST PUSH0 PUSH2 0x3639 DUP3 PUSH2 0x31B5 JUMP JUMPDEST SWAP2 POP PUSH2 0x3645 DUP3 DUP16 PUSH2 0x2F46 JUMP JUMPDEST SWAP2 POP PUSH2 0x3650 DUP3 PUSH2 0x31FF JUMP JUMPDEST SWAP2 POP PUSH2 0x365C DUP3 DUP15 PUSH2 0x2F46 JUMP JUMPDEST SWAP2 POP PUSH2 0x3667 DUP3 PUSH2 0x326F JUMP JUMPDEST SWAP2 POP PUSH2 0x3673 DUP3 DUP14 PUSH2 0x2F46 JUMP JUMPDEST SWAP2 POP PUSH2 0x367E DUP3 PUSH2 0x32DF JUMP JUMPDEST SWAP2 POP PUSH2 0x368A DUP3 DUP13 PUSH2 0x2F46 JUMP JUMPDEST SWAP2 POP PUSH2 0x3695 DUP3 PUSH2 0x3329 JUMP JUMPDEST SWAP2 POP PUSH2 0x36A1 DUP3 DUP12 PUSH2 0x2F46 JUMP JUMPDEST SWAP2 POP PUSH2 0x36AC DUP3 PUSH2 0x3373 JUMP JUMPDEST SWAP2 POP PUSH2 0x36B8 DUP3 DUP11 PUSH2 0x2F46 JUMP JUMPDEST SWAP2 POP PUSH2 0x36C3 DUP3 PUSH2 0x33BD JUMP JUMPDEST SWAP2 POP PUSH2 0x36CF DUP3 DUP10 PUSH2 0x2F46 JUMP JUMPDEST SWAP2 POP PUSH2 0x36DA DUP3 PUSH2 0x3407 JUMP JUMPDEST SWAP2 POP PUSH2 0x36E6 DUP3 DUP9 PUSH2 0x2F46 JUMP JUMPDEST SWAP2 POP PUSH2 0x36F1 DUP3 PUSH2 0x3451 JUMP JUMPDEST SWAP2 POP PUSH2 0x36FD DUP3 DUP8 PUSH2 0x2F46 JUMP JUMPDEST SWAP2 POP PUSH2 0x3708 DUP3 PUSH2 0x349B JUMP JUMPDEST SWAP2 POP PUSH2 0x3714 DUP3 DUP7 PUSH2 0x2F46 JUMP JUMPDEST SWAP2 POP PUSH2 0x371F DUP3 PUSH2 0x34E5 JUMP JUMPDEST SWAP2 POP PUSH2 0x372A DUP3 PUSH2 0x352F JUMP JUMPDEST SWAP2 POP PUSH2 0x3736 DUP3 DUP6 PUSH2 0x2F46 JUMP JUMPDEST SWAP2 POP PUSH2 0x3741 DUP3 PUSH2 0x3579 JUMP JUMPDEST SWAP2 POP PUSH2 0x374C DUP3 PUSH2 0x35C3 JUMP JUMPDEST SWAP2 POP PUSH2 0x3758 DUP3 DUP5 PUSH2 0x2F46 JUMP JUMPDEST SWAP2 POP PUSH2 0x3763 DUP3 PUSH2 0x360D JUMP JUMPDEST SWAP2 POP DUP2 SWAP1 POP SWAP14 SWAP13 POP POP POP POP POP POP POP POP POP POP POP POP POP JUMP JUMPDEST PUSH32 0x3C623E432765737420756E2070726F64756974207175692070726F7669656E74 PUSH0 DUP3 ADD MSTORE PUSH32 0x206427756E20636972637569742064652070726F78696D6974653C2F623E0000 PUSH1 0x20 DUP3 ADD MSTORE POP JUMP JUMPDEST PUSH0 PUSH2 0x37D3 PUSH1 0x3E DUP4 PUSH2 0x2F3C JUMP JUMPDEST SWAP2 POP PUSH2 0x37DE DUP3 PUSH2 0x3779 JUMP JUMPDEST PUSH1 0x3E DUP3 ADD SWAP1 POP SWAP2 SWAP1 POP JUMP JUMPDEST PUSH0 PUSH2 0x37F4 DUP3 DUP5 PUSH2 0x2F46 JUMP JUMPDEST SWAP2 POP PUSH2 0x37FF DUP3 PUSH2 0x37C7 JUMP JUMPDEST SWAP2 POP DUP2 SWAP1 POP SWAP3 SWAP2 POP POP JUMP JUMPDEST PUSH32 0x3C623E432765737420756E2070726F6475697420717569206E652070726F7669 PUSH0 DUP3 ADD MSTORE PUSH32 0x656E7420706173206427756E20636972637569742064652070726F78696D6974 PUSH1 0x20 DUP3 ADD MSTORE PUSH32 0x653C2F623E000000000000000000000000000000000000000000000000000000 PUSH1 0x40 DUP3 ADD MSTORE POP JUMP JUMPDEST PUSH0 PUSH2 0x388A PUSH1 0x45 DUP4 PUSH2 0x2F3C JUMP JUMPDEST SWAP2 POP PUSH2 0x3895 DUP3 PUSH2 0x380A JUMP JUMPDEST PUSH1 0x45 DUP3 ADD SWAP1 POP SWAP2 SWAP1 POP JUMP JUMPDEST PUSH0 PUSH2 0x38AB DUP3 DUP5 PUSH2 0x2F46 JUMP JUMPDEST SWAP2 POP PUSH2 0x38B6 DUP3 PUSH2 0x387E JUMP JUMPDEST SWAP2 POP DUP2 SWAP1 POP SWAP3 SWAP2 POP POP JUMP JUMPDEST PUSH0 PUSH2 0x38CC DUP3 DUP5 PUSH2 0x2F46 JUMP JUMPDEST SWAP2 POP DUP2 SWAP1 POP SWAP3 SWAP2 POP POP JUMP JUMPDEST PUSH32 0x4C6120636F6D6D616E64652061206D6F646966696572206E2765786973746520 PUSH0 DUP3 ADD MSTORE PUSH32 0x7061730000000000000000000000000000000000000000000000000000000000 PUSH1 0x20 DUP3 ADD MSTORE POP JUMP JUMPDEST PUSH0 PUSH2 0x3931 PUSH1 0x23 DUP4 PUSH2 0x2751 JUMP JUMPDEST SWAP2 POP PUSH2 0x393C DUP3 PUSH2 0x38D7 JUMP JUMPDEST PUSH1 0x40 DUP3 ADD SWAP1 POP SWAP2 SWAP1 POP JUMP JUMPDEST PUSH0 PUSH1 0x20 DUP3 ADD SWAP1 POP DUP2 DUP2 SUB PUSH0 DUP4 ADD MSTORE PUSH2 0x395E DUP2 PUSH2 0x3925 JUMP JUMPDEST SWAP1 POP SWAP2 SWAP1 POP JUMP JUMPDEST PUSH32 0x4C2761727469636C65206120616A6F75746572206578697374652064656A6100 PUSH0 DUP3 ADD MSTORE POP JUMP JUMPDEST PUSH0 PUSH2 0x3999 PUSH1 0x1F DUP4 PUSH2 0x2751 JUMP JUMPDEST SWAP2 POP PUSH2 0x39A4 DUP3 PUSH2 0x3965 JUMP JUMPDEST PUSH1 0x20 DUP3 ADD SWAP1 POP SWAP2 SWAP1 POP JUMP JUMPDEST PUSH0 PUSH1 0x20 DUP3 ADD SWAP1 POP DUP2 DUP2 SUB PUSH0 DUP4 ADD MSTORE PUSH2 0x39C6 DUP2 PUSH2 0x398D JUMP JUMPDEST SWAP1 POP SWAP2 SWAP1 POP JUMP JUMPDEST PUSH0 DUP2 SWAP1 POP DUP2 PUSH0 MSTORE PUSH1 0x20 PUSH0 KECCAK256 SWAP1 POP SWAP2 SWAP1 POP JUMP JUMPDEST PUSH0 PUSH1 0x20 PUSH1 0x1F DUP4 ADD DIV SWAP1 POP SWAP2 SWAP1 POP JUMP JUMPDEST PUSH0 DUP3 DUP3 SHL SWAP1 POP SWAP3 SWAP2 POP POP JUMP JUMPDEST PUSH0 PUSH1 0x8 DUP4 MUL PUSH2 0x3A29 PUSH32 0xFFFFFFFFFFFFFFFFFFFFFFFFFFFFFFFFFFFFFFFFFFFFFFFFFFFFFFFFFFFFFFFF DUP3 PUSH2 0x39EE JUMP JUMPDEST PUSH2 0x3A33 DUP7 DUP4 PUSH2 0x39EE JUMP JUMPDEST SWAP6 POP DUP1 NOT DUP5 AND SWAP4 POP DUP1 DUP7 AND DUP5 OR SWAP3 POP POP POP SWAP4 SWAP3 POP POP POP JUMP JUMPDEST PUSH0 DUP2 SWAP1 POP SWAP2 SWAP1 POP JUMP JUMPDEST PUSH0 PUSH2 0x3A6E PUSH2 0x3A69 PUSH2 0x3A64 DUP5 PUSH2 0x244C JUMP JUMPDEST PUSH2 0x3A4B JUMP JUMPDEST PUSH2 0x244C JUMP JUMPDEST SWAP1 POP SWAP2 SWAP1 POP JUMP JUMPDEST PUSH0 DUP2 SWAP1 POP SWAP2 SWAP1 POP JUMP JUMPDEST PUSH2 0x3A87 DUP4 PUSH2 0x3A54 JUMP JUMPDEST PUSH2 0x3A9B PUSH2 0x3A93 DUP3 PUSH2 0x3A75 JUMP JUMPDEST DUP5 DUP5 SLOAD PUSH2 0x39FA JUMP JUMPDEST DUP3 SSTORE POP POP POP POP JUMP JUMPDEST PUSH0 SWAP1 JUMP JUMPDEST PUSH2 0x3AAF PUSH2 0x3AA3 JUMP JUMPDEST PUSH2 0x3ABA DUP2 DUP5 DUP5 PUSH2 0x3A7E JUMP JUMPDEST POP POP POP JUMP JUMPDEST JUMPDEST DUP2 DUP2 LT ISZERO PUSH2 0x3ADD JUMPI PUSH2 0x3AD2 PUSH0 DUP3 PUSH2 0x3AA7 JUMP JUMPDEST PUSH1 0x1 DUP2 ADD SWAP1 POP PUSH2 0x3AC0 JUMP JUMPDEST POP POP JUMP JUMPDEST PUSH1 0x1F DUP3 GT ISZERO PUSH2 0x3B22 JUMPI PUSH2 0x3AF3 DUP2 PUSH2 0x39CD JUMP JUMPDEST PUSH2 0x3AFC DUP5 PUSH2 0x39DF JUMP JUMPDEST DUP2 ADD PUSH1 0x20 DUP6 LT ISZERO PUSH2 0x3B0B JUMPI DUP2 SWAP1 POP JUMPDEST PUSH2 0x3B1F PUSH2 0x3B17 DUP6 PUSH2 0x39DF JUMP JUMPDEST DUP4 ADD DUP3 PUSH2 0x3ABF JUMP JUMPDEST POP POP JUMPDEST POP POP POP JUMP JUMPDEST PUSH0 DUP3 DUP3 SHR SWAP1 POP SWAP3 SWAP2 POP POP JUMP JUMPDEST PUSH0 PUSH2 0x3B42 PUSH0 NOT DUP5 PUSH1 0x8 MUL PUSH2 0x3B27 JUMP JUMPDEST NOT DUP1 DUP4 AND SWAP2 POP POP SWAP3 SWAP2 POP POP JUMP JUMPDEST PUSH0 PUSH2 0x3B5A DUP4 DUP4 PUSH2 0x3B33 JUMP JUMPDEST SWAP2 POP DUP3 PUSH1 0x2 MUL DUP3 OR SWAP1 POP SWAP3 SWAP2 POP POP JUMP JUMPDEST PUSH2 0x3B73 DUP3 PUSH2 0x2391 JUMP JUMPDEST PUSH8 0xFFFFFFFFFFFFFFFF DUP2 GT ISZERO PUSH2 0x3B8C JUMPI PUSH2 0x3B8B PUSH2 0x21C9 JUMP JUMPDEST JUMPDEST PUSH2 0x3B96 DUP3 SLOAD PUSH2 0x2FF3 JUMP JUMPDEST PUSH2 0x3BA1 DUP3 DUP3 DUP6 PUSH2 0x3AE1 JUMP JUMPDEST PUSH0 PUSH1 0x20 SWAP1 POP PUSH1 0x1F DUP4 GT PUSH1 0x1 DUP2 EQ PUSH2 0x3BD2 JUMPI PUSH0 DUP5 ISZERO PUSH2 0x3BC0 JUMPI DUP3 DUP8 ADD MLOAD SWAP1 POP JUMPDEST PUSH2 0x3BCA DUP6 DUP3 PUSH2 0x3B4F JUMP JUMPDEST DUP7 SSTORE POP PUSH2 0x3C31 JUMP JUMPDEST PUSH1 0x1F NOT DUP5 AND PUSH2 0x3BE0 DUP7 PUSH2 0x39CD JUMP JUMPDEST PUSH0 JUMPDEST DUP3 DUP2 LT ISZERO PUSH2 0x3C07 JUMPI DUP5 DUP10 ADD MLOAD DUP3 SSTORE PUSH1 0x1 DUP3 ADD SWAP2 POP PUSH1 0x20 DUP6 ADD SWAP5 POP PUSH1 0x20 DUP2 ADD SWAP1 POP PUSH2 0x3BE2 JUMP JUMPDEST DUP7 DUP4 LT ISZERO PUSH2 0x3C24 JUMPI DUP5 DUP10 ADD MLOAD PUSH2 0x3C20 PUSH1 0x1F DUP10 AND DUP3 PUSH2 0x3B33 JUMP JUMPDEST DUP4 SSTORE POP JUMPDEST PUSH1 0x1 PUSH1 0x2 DUP9 MUL ADD DUP9 SSTORE POP POP POP JUMPDEST POP POP POP POP POP POP JUMP JUMPDEST PUSH32 0x4C6120636F6D6D616E6465206578697374652064656A61210000000000000000 PUSH0 DUP3 ADD MSTORE POP JUMP JUMPDEST PUSH0 PUSH2 0x3C6D PUSH1 0x18 DUP4 PUSH2 0x2751 JUMP JUMPDEST SWAP2 POP PUSH2 0x3C78 DUP3 PUSH2 0x3C39 JUMP JUMPDEST PUSH1 0x20 DUP3 ADD SWAP1 POP SWAP2 SWAP1 POP JUMP JUMPDEST PUSH0 PUSH1 0x20 DUP3 ADD SWAP1 POP DUP2 DUP2 SUB PUSH0 DUP4 ADD MSTORE PUSH2 0x3C9A DUP2 PUSH2 0x3C61 JUMP JUMPDEST SWAP1 POP SWAP2 SWAP1 POP JUMP JUMPDEST PUSH32 0x4E487B7100000000000000000000000000000000000000000000000000000000 PUSH0 MSTORE PUSH1 0x12 PUSH1 0x4 MSTORE PUSH1 0x24 PUSH0 REVERT JUMPDEST PUSH0 PUSH2 0x3CD8 DUP3 PUSH2 0x244C JUMP JUMPDEST SWAP2 POP PUSH2 0x3CE3 DUP4 PUSH2 0x244C JUMP JUMPDEST SWAP3 POP DUP3 PUSH2 0x3CF3 JUMPI PUSH2 0x3CF2 PUSH2 0x3CA1 JUMP JUMPDEST JUMPDEST DUP3 DUP3 DIV SWAP1 POP SWAP3 SWAP2 POP POP JUMP JUMPDEST PUSH0 PUSH2 0x3D08 DUP3 PUSH2 0x244C JUMP JUMPDEST SWAP2 POP PUSH2 0x3D13 DUP4 PUSH2 0x244C JUMP JUMPDEST SWAP3 POP DUP3 DUP3 SUB SWAP1 POP DUP2 DUP2 GT ISZERO PUSH2 0x3D2B JUMPI PUSH2 0x3D2A PUSH2 0x3023 JUMP JUMPDEST JUMPDEST SWAP3 SWAP2 POP POP JUMP JUMPDEST PUSH0 PUSH2 0x3D3B DUP3 PUSH2 0x244C JUMP JUMPDEST SWAP2 POP PUSH2 0x3D46 DUP4 PUSH2 0x244C JUMP JUMPDEST SWAP3 POP DUP3 PUSH2 0x3D56 JUMPI PUSH2 0x3D55 PUSH2 0x3CA1 JUMP JUMPDEST JUMPDEST DUP3 DUP3 MOD SWAP1 POP SWAP3 SWAP2 POP POP JUMP JUMPDEST PUSH0 PUSH2 0x3D6B DUP3 PUSH2 0x244C JUMP JUMPDEST SWAP2 POP PUSH2 0x3D76 DUP4 PUSH2 0x244C JUMP JUMPDEST SWAP3 POP DUP3 DUP3 ADD SWAP1 POP DUP1 DUP3 GT ISZERO PUSH2 0x3D8E JUMPI PUSH2 0x3D8D PUSH2 0x3023 JUMP JUMPDEST JUMPDEST SWAP3 SWAP2 POP POP JUMP INVALID LOG2 PUSH5 0x6970667358 0x22 SLT KECCAK256 SWAP9 0xC3 DUP10 0xB5 SWAP5 PUSH9 0x4325C605D12EC173A6 0x4B DUP3 PREVRANDAO 0x1F TIMESTAMP MOD SWAP7 0xC9 0xEE 0xE1 SWAP8 0xEB 0x24 PUSH22 0xB7D22564736F6C634300081500330000000000000000 "
		},
		"gasEstimates": {
			"creation": {
				"codeDepositCost": "3163600",
				"executionCost": "3497",
				"totalCost": "3167097"
			},
			"external": {
				"ajouterArticle(string,string,string,string,uint256)": "infinite",
				"ajouterCommande(string,string,string,string,string,string,string,uint256,string[],uint256[],string)": "infinite",
				"articleExists(string,string,string)": "infinite",
				"commandeExists(string,string)": "infinite",
				"commandes(uint256)": "infinite",
				"compareStrings(string,string)": "infinite",
				"getArticle(string,string,string)": "infinite",
				"getCommande(string,string,string)": "infinite",
				"getPoidsArticle(string,string,string)": "infinite",
				"getTaille()": "2498",
				"modifierCommande(string,string,string[],uint256[])": "infinite",
				"taille()": "2469"
			},
			"internal": {
				"toString(uint256)": "infinite"
			}
		},
		"methodIdentifiers": {
			"ajouterArticle(string,string,string,string,uint256)": "ccfecaac",
			"ajouterCommande(string,string,string,string,string,string,string,uint256,string[],uint256[],string)": "f8517b2b",
			"articleExists(string,string,string)": "7e043c4a",
			"commandeExists(string,string)": "e6cf743d",
			"commandes(uint256)": "ffd826d3",
			"compareStrings(string,string)": "bed34bba",
			"getArticle(string,string,string)": "b7a567d6",
			"getCommande(string,string,string)": "5b172066",
			"getPoidsArticle(string,string,string)": "961522b1",
			"getTaille()": "f11b344e",
			"modifierCommande(string,string,string[],uint256[])": "de775351",
			"taille()": "e8a38d53"
		}
	},
	"abi": [
		{
			"inputs": [],
			"stateMutability": "nonpayable",
			"type": "constructor"
		},
		{
			"inputs": [
				{
					"internalType": "string",
					"name": "_code_magasin",
					"type": "string"
				},
				{
					"internalType": "string",
					"name": "_n_commande",
					"type": "string"
				},
				{
					"internalType": "string",
					"name": "_n_lot",
					"type": "string"
				},
				{
					"internalType": "string",
					"name": "_n_article",
					"type": "string"
				},
				{
					"internalType": "uint256",
					"name": "_poids_article",
					"type": "uint256"
				}
			],
			"name": "ajouterArticle",
			"outputs": [],
			"stateMutability": "nonpayable",
			"type": "function"
		},
		{
			"inputs": [
				{
					"internalType": "string",
					"name": "_code_magasin",
					"type": "string"
				},
				{
					"internalType": "string",
					"name": "_n_commande",
					"type": "string"
				},
				{
					"internalType": "string",
					"name": "_date_arrivee",
					"type": "string"
				},
				{
					"internalType": "string",
					"name": "_date_cloture",
					"type": "string"
				},
				{
					"internalType": "string",
					"name": "_id_fournisseur",
					"type": "string"
				},
				{
					"internalType": "string",
					"name": "_adresse_fournisseur",
					"type": "string"
				},
				{
					"internalType": "string",
					"name": "_code_sanitaire",
					"type": "string"
				},
				{
					"internalType": "uint256",
					"name": "_distance",
					"type": "uint256"
				},
				{
					"internalType": "string[]",
					"name": "_code_articles",
					"type": "string[]"
				},
				{
					"internalType": "uint256[]",
					"name": "_poids_articles",
					"type": "uint256[]"
				},
				{
					"internalType": "string",
					"name": "_commentaire",
					"type": "string"
				}
			],
			"name": "ajouterCommande",
			"outputs": [],
			"stateMutability": "nonpayable",
			"type": "function"
		},
		{
			"inputs": [
				{
					"internalType": "string",
					"name": "_code_magasin",
					"type": "string"
				},
				{
					"internalType": "string",
					"name": "_n_lot",
					"type": "string"
				},
				{
					"internalType": "string",
					"name": "_n_article",
					"type": "string"
				}
			],
			"name": "articleExists",
			"outputs": [
				{
					"internalType": "bool",
					"name": "",
					"type": "bool"
				}
			],
			"stateMutability": "view",
			"type": "function"
		},
		{
			"inputs": [
				{
					"internalType": "string",
					"name": "_code_magasin",
					"type": "string"
				},
				{
					"internalType": "string",
					"name": "_n_commande",
					"type": "string"
				}
			],
			"name": "commandeExists",
			"outputs": [
				{
					"internalType": "bool",
					"name": "",
					"type": "bool"
				}
			],
			"stateMutability": "view",
			"type": "function"
		},
		{
			"inputs": [
				{
					"internalType": "uint256",
					"name": "",
					"type": "uint256"
				}
			],
			"name": "commandes",
			"outputs": [
				{
					"internalType": "string",
					"name": "code_magasin",
					"type": "string"
				},
				{
					"internalType": "string",
					"name": "n_commande",
					"type": "string"
				},
				{
					"internalType": "string",
					"name": "date_arrivee",
					"type": "string"
				},
				{
					"internalType": "string",
					"name": "date_cloture",
					"type": "string"
				},
				{
					"components": [
						{
							"internalType": "string",
							"name": "id",
							"type": "string"
						},
						{
							"internalType": "string",
							"name": "adresse",
							"type": "string"
						}
					],
					"internalType": "struct CertificationCommande.Fournisseur",
					"name": "provenance_fournisseur",
					"type": "tuple"
				},
				{
					"internalType": "string",
					"name": "code_sanitaire",
					"type": "string"
				},
				{
					"internalType": "uint256",
					"name": "distance",
					"type": "uint256"
				},
				{
					"internalType": "string",
					"name": "commentaire",
					"type": "string"
				}
			],
			"stateMutability": "view",
			"type": "function"
		},
		{
			"inputs": [
				{
					"internalType": "string",
					"name": "a",
					"type": "string"
				},
				{
					"internalType": "string",
					"name": "b",
					"type": "string"
				}
			],
			"name": "compareStrings",
			"outputs": [
				{
					"internalType": "bool",
					"name": "",
					"type": "bool"
				}
			],
			"stateMutability": "pure",
			"type": "function"
		},
		{
			"inputs": [
				{
					"internalType": "string",
					"name": "_code_magasin",
					"type": "string"
				},
				{
					"internalType": "string",
					"name": "_n_lot",
					"type": "string"
				},
				{
					"internalType": "string",
					"name": "_n_article",
					"type": "string"
				}
			],
			"name": "getArticle",
			"outputs": [
				{
					"internalType": "string",
					"name": "",
					"type": "string"
				}
			],
			"stateMutability": "view",
			"type": "function"
		},
		{
			"inputs": [
				{
					"internalType": "string",
					"name": "_code_magasin",
					"type": "string"
				},
				{
					"internalType": "string",
					"name": "_n_lot",
					"type": "string"
				},
				{
					"internalType": "string",
					"name": "_n_article",
					"type": "string"
				}
			],
			"name": "getCommande",
			"outputs": [
				{
					"components": [
						{
							"internalType": "string",
							"name": "code_magasin",
							"type": "string"
						},
						{
							"internalType": "string",
							"name": "n_commande",
							"type": "string"
						},
						{
							"internalType": "string",
							"name": "date_arrivee",
							"type": "string"
						},
						{
							"internalType": "string",
							"name": "date_cloture",
							"type": "string"
						},
						{
							"components": [
								{
									"internalType": "string",
									"name": "id",
									"type": "string"
								},
								{
									"internalType": "string",
									"name": "adresse",
									"type": "string"
								}
							],
							"internalType": "struct CertificationCommande.Fournisseur",
							"name": "provenance_fournisseur",
							"type": "tuple"
						},
						{
							"internalType": "string",
							"name": "code_sanitaire",
							"type": "string"
						},
						{
							"internalType": "uint256",
							"name": "distance",
							"type": "uint256"
						},
						{
							"internalType": "string[]",
							"name": "code_articles",
							"type": "string[]"
						},
						{
							"internalType": "uint256[]",
							"name": "poids_articles",
							"type": "uint256[]"
						},
						{
							"internalType": "string",
							"name": "commentaire",
							"type": "string"
						}
					],
					"internalType": "struct CertificationCommande.Commande",
					"name": "",
					"type": "tuple"
				}
			],
			"stateMutability": "view",
			"type": "function"
		},
		{
			"inputs": [
				{
					"internalType": "string",
					"name": "_code_magasin",
					"type": "string"
				},
				{
					"internalType": "string",
					"name": "_n_lot",
					"type": "string"
				},
				{
					"internalType": "string",
					"name": "_n_article",
					"type": "string"
				}
			],
			"name": "getPoidsArticle",
			"outputs": [
				{
					"internalType": "uint256",
					"name": "",
					"type": "uint256"
				}
			],
			"stateMutability": "view",
			"type": "function"
		},
		{
			"inputs": [],
			"name": "getTaille",
			"outputs": [
				{
					"internalType": "uint256",
					"name": "",
					"type": "uint256"
				}
			],
			"stateMutability": "view",
			"type": "function"
		},
		{
			"inputs": [
				{
					"internalType": "string",
					"name": "_code_magasin",
					"type": "string"
				},
				{
					"internalType": "string",
					"name": "_n_commande",
					"type": "string"
				},
				{
					"internalType": "string[]",
					"name": "_code_articles",
					"type": "string[]"
				},
				{
					"internalType": "uint256[]",
					"name": "_poids_articles",
					"type": "uint256[]"
				}
			],
			"name": "modifierCommande",
			"outputs": [],
			"stateMutability": "nonpayable",
			"type": "function"
		},
		{
			"inputs": [],
			"name": "taille",
			"outputs": [
				{
					"internalType": "uint256",
					"name": "",
					"type": "uint256"
				}
			],
			"stateMutability": "view",
			"type": "function"
		}
	]
}