{
  "contractName": "CertificationCommande",
  "abi": [
    {
      "inputs": [],
      "stateMutability": "nonpayable",
      "type": "constructor"
    },
    {
      "inputs": [
        {
          "internalType": "uint256",
          "name": "",
          "type": "uint256"
        }
      ],
      "name": "commandes",
      "outputs": [
        {
          "internalType": "string",
          "name": "code_magasin",
          "type": "string"
        },
        {
          "internalType": "string",
          "name": "n_commande",
          "type": "string"
        },
        {
          "internalType": "string",
          "name": "date_arrivee",
          "type": "string"
        },
        {
          "internalType": "string",
          "name": "date_cloture",
          "type": "string"
        },
        {
          "components": [
            {
              "internalType": "string",
              "name": "id",
              "type": "string"
            },
            {
              "internalType": "string",
              "name": "adresse",
              "type": "string"
            }
          ],
          "internalType": "struct CertificationCommande.Fournisseur",
          "name": "provenance_fournisseur",
          "type": "tuple"
        },
        {
          "internalType": "string",
          "name": "code_sanitaire",
          "type": "string"
        },
        {
          "internalType": "uint256",
          "name": "distance",
          "type": "uint256"
        },
        {
          "internalType": "string",
          "name": "commentaire",
          "type": "string"
        }
      ],
      "stateMutability": "view",
      "type": "function",
      "constant": true
    },
    {
      "inputs": [],
      "name": "taille",
      "outputs": [
        {
          "internalType": "uint256",
          "name": "",
          "type": "uint256"
        }
      ],
      "stateMutability": "view",
      "type": "function",
      "constant": true
    },
    {
      "inputs": [
        {
          "internalType": "string",
          "name": "_code_magasin",
          "type": "string"
        },
        {
          "internalType": "string",
          "name": "_n_commande",
          "type": "string"
        },
        {
          "internalType": "string",
          "name": "_date_arrivee",
          "type": "string"
        },
        {
          "internalType": "string",
          "name": "_date_cloture",
          "type": "string"
        },
        {
          "internalType": "string",
          "name": "_id_fournisseur",
          "type": "string"
        },
        {
          "internalType": "string",
          "name": "_adresse_fournisseur",
          "type": "string"
        },
        {
          "internalType": "string",
          "name": "_code_sanitaire",
          "type": "string"
        },
        {
          "internalType": "uint256",
          "name": "_distance",
          "type": "uint256"
        },
        {
          "internalType": "string[]",
          "name": "_code_articles",
          "type": "string[]"
        },
        {
          "internalType": "uint256[]",
          "name": "_poids_articles",
          "type": "uint256[]"
        },
        {
          "internalType": "string",
          "name": "_commentaire",
          "type": "string"
        }
      ],
      "name": "ajouterCommande",
      "outputs": [],
      "stateMutability": "nonpayable",
      "type": "function"
    },
    {
      "inputs": [
        {
          "internalType": "string",
          "name": "_code_magasin",
          "type": "string"
        },
        {
          "internalType": "string",
          "name": "_n_commande",
          "type": "string"
        },
        {
          "internalType": "string[]",
          "name": "_code_articles",
          "type": "string[]"
        },
        {
          "internalType": "uint256[]",
          "name": "_poids_articles",
          "type": "uint256[]"
        }
      ],
      "name": "modifierCommande",
      "outputs": [],
      "stateMutability": "nonpayable",
      "type": "function"
    },
    {
      "inputs": [
        {
          "internalType": "string",
          "name": "_code_magasin",
          "type": "string"
        },
        {
          "internalType": "string",
          "name": "_n_commande",
          "type": "string"
        },
        {
          "internalType": "string",
          "name": "_n_lot",
          "type": "string"
        },
        {
          "internalType": "string",
          "name": "_n_article",
          "type": "string"
        },
        {
          "internalType": "uint256",
          "name": "_poids_article",
          "type": "uint256"
        }
      ],
      "name": "ajouterArticle",
      "outputs": [],
      "stateMutability": "nonpayable",
      "type": "function"
    },
    {
      "inputs": [
        {
          "internalType": "string",
          "name": "_code_magasin",
          "type": "string"
        },
        {
          "internalType": "string",
          "name": "_n_commande",
          "type": "string"
        }
      ],
      "name": "commandeExists",
      "outputs": [
        {
          "internalType": "bool",
          "name": "",
          "type": "bool"
        }
      ],
      "stateMutability": "view",
      "type": "function",
      "constant": true
    },
    {
      "inputs": [
        {
          "internalType": "string",
          "name": "a",
          "type": "string"
        },
        {
          "internalType": "string",
          "name": "b",
          "type": "string"
        }
      ],
      "name": "compareStrings",
      "outputs": [
        {
          "internalType": "bool",
          "name": "",
          "type": "bool"
        }
      ],
      "stateMutability": "pure",
      "type": "function",
      "constant": true
    },
    {
      "inputs": [],
      "name": "getTaille",
      "outputs": [
        {
          "internalType": "uint256",
          "name": "",
          "type": "uint256"
        }
      ],
      "stateMutability": "view",
      "type": "function",
      "constant": true
    },
    {
      "inputs": [
        {
          "internalType": "string",
          "name": "_code_magasin",
          "type": "string"
        },
        {
          "internalType": "string",
          "name": "_n_lot",
          "type": "string"
        },
        {
          "internalType": "string",
          "name": "_n_article",
          "type": "string"
        }
      ],
      "name": "articleExists",
      "outputs": [
        {
          "internalType": "bool",
          "name": "",
          "type": "bool"
        }
      ],
      "stateMutability": "view",
      "type": "function",
      "constant": true
    },
    {
      "inputs": [
        {
          "internalType": "string",
          "name": "_code_magasin",
          "type": "string"
        },
        {
          "internalType": "string",
          "name": "_n_lot",
          "type": "string"
        },
        {
          "internalType": "string",
          "name": "_n_article",
          "type": "string"
        }
      ],
      "name": "getCommande",
      "outputs": [
        {
          "components": [
            {
              "internalType": "string",
              "name": "code_magasin",
              "type": "string"
            },
            {
              "internalType": "string",
              "name": "n_commande",
              "type": "string"
            },
            {
              "internalType": "string",
              "name": "date_arrivee",
              "type": "string"
            },
            {
              "internalType": "string",
              "name": "date_cloture",
              "type": "string"
            },
            {
              "components": [
                {
                  "internalType": "string",
                  "name": "id",
                  "type": "string"
                },
                {
                  "internalType": "string",
                  "name": "adresse",
                  "type": "string"
                }
              ],
              "internalType": "struct CertificationCommande.Fournisseur",
              "name": "provenance_fournisseur",
              "type": "tuple"
            },
            {
              "internalType": "string",
              "name": "code_sanitaire",
              "type": "string"
            },
            {
              "internalType": "uint256",
              "name": "distance",
              "type": "uint256"
            },
            {
              "internalType": "string[]",
              "name": "code_articles",
              "type": "string[]"
            },
            {
              "internalType": "uint256[]",
              "name": "poids_articles",
              "type": "uint256[]"
            },
            {
              "internalType": "string",
              "name": "commentaire",
              "type": "string"
            }
          ],
          "internalType": "struct CertificationCommande.Commande",
          "name": "",
          "type": "tuple"
        }
      ],
      "stateMutability": "view",
      "type": "function",
      "constant": true
    },
    {
      "inputs": [
        {
          "internalType": "string",
          "name": "_code_magasin",
          "type": "string"
        },
        {
          "internalType": "string",
          "name": "_n_lot",
          "type": "string"
        },
        {
          "internalType": "string",
          "name": "_n_article",
          "type": "string"
        }
      ],
      "name": "getPoidsArticle",
      "outputs": [
        {
          "internalType": "uint256",
          "name": "",
          "type": "uint256"
        }
      ],
      "stateMutability": "view",
      "type": "function",
      "constant": true
    },
    {
      "inputs": [
        {
          "internalType": "string",
          "name": "_code_magasin",
          "type": "string"
        },
        {
          "internalType": "string",
          "name": "_n_lot",
          "type": "string"
        },
        {
          "internalType": "string",
          "name": "_n_article",
          "type": "string"
        }
      ],
      "name": "getArticle",
      "outputs": [
        {
          "internalType": "string",
          "name": "",
          "type": "string"
        }
      ],
      "stateMutability": "view",
      "type": "function",
      "constant": true
    }
  ],
  "bytecode": "0x608060405234801561001057600080fd5b50613f50806100206000396000f3fe608060405234801561001057600080fd5b50600436106100b45760003560e01c8063de77535111610071578063de775351146101c5578063e6cf743d146101e1578063e8a38d5314610211578063f11b344e1461022f578063f8517b2b1461024d578063ffd826d314610269576100b4565b80635b172066146100b95780637e043c4a146100e9578063961522b114610119578063b7a567d614610149578063bed34bba14610179578063ccfecaac146101a9575b600080fd5b6100d360048036038101906100ce91906123ca565b6102a0565b6040516100e091906127d0565b60405180910390f35b61010360048036038101906100fe91906123ca565b610b35565b604051610110919061280d565b60405180910390f35b610133600480360381019061012e91906123ca565b610d72565b6040516101409190612837565b60405180910390f35b610163600480360381019061015e91906123ca565b611036565b604051610170919061289c565b60405180910390f35b610193600480360381019061018e91906128be565b61117a565b6040516101a0919061280d565b60405180910390f35b6101c360048036038101906101be9190612962565b6111d3565b005b6101df60048036038101906101da9190612bf6565b6114af565b005b6101fb60048036038101906101f691906128be565b61170f565b604051610208919061280d565b60405180910390f35b6102196118c5565b6040516102269190612837565b60405180910390f35b6102376118cb565b6040516102449190612837565b60405180910390f35b61026760048036038101906102629190612ccd565b6118d5565b005b610283600480360381019061027e9190612ed9565b611ac0565b604051610297989796959493929190612f4a565b60405180910390f35b6102a86120d6565b6102b3848484610b35565b6102f2576040517f08c379a00000000000000000000000000000000000000000000000000000000081526004016102e990613045565b60405180910390fd5b600083836040516020016103079291906130a1565b604051602081830303815290604052905060005b600154811015610b2b576103dc6000828154811061033c5761033b6130c5565b5b90600052602060002090600b0201600001805461035890613123565b80601f016020809104026020016040519081016040528092919081815260200182805461038490613123565b80156103d15780601f106103a6576101008083540402835291602001916103d1565b820191906000526020600020905b8154815290600101906020018083116103b457829003601f168201915b50505050508761117a565b15610b185760005b600082815481106103f8576103f76130c5565b5b90600052602060002090600b020160080180549050811015610b16576104e76000838154811061042b5761042a6130c5565b5b90600052602060002090600b0201600801828154811061044e5761044d6130c5565b5b90600052602060002001805461046390613123565b80601f016020809104026020016040519081016040528092919081815260200182805461048f90613123565b80156104dc5780601f106104b1576101008083540402835291602001916104dc565b820191906000526020600020905b8154815290600101906020018083116104bf57829003601f168201915b50505050508461117a565b15610b035760008281548110610500576104ff6130c5565b5b90600052602060002090600b02016040518061014001604052908160008201805461052a90613123565b80601f016020809104026020016040519081016040528092919081815260200182805461055690613123565b80156105a35780601f10610578576101008083540402835291602001916105a3565b820191906000526020600020905b81548152906001019060200180831161058657829003601f168201915b505050505081526020016001820180546105bc90613123565b80601f01602080910402602001604051908101604052809291908181526020018280546105e890613123565b80156106355780601f1061060a57610100808354040283529160200191610635565b820191906000526020600020905b81548152906001019060200180831161061857829003601f168201915b5050505050815260200160028201805461064e90613123565b80601f016020809104026020016040519081016040528092919081815260200182805461067a90613123565b80156106c75780601f1061069c576101008083540402835291602001916106c7565b820191906000526020600020905b8154815290600101906020018083116106aa57829003601f168201915b505050505081526020016003820180546106e090613123565b80601f016020809104026020016040519081016040528092919081815260200182805461070c90613123565b80156107595780601f1061072e57610100808354040283529160200191610759565b820191906000526020600020905b81548152906001019060200180831161073c57829003601f168201915b505050505081526020016004820160405180604001604052908160008201805461078290613123565b80601f01602080910402602001604051908101604052809291908181526020018280546107ae90613123565b80156107fb5780601f106107d0576101008083540402835291602001916107fb565b820191906000526020600020905b8154815290600101906020018083116107de57829003601f168201915b5050505050815260200160018201805461081490613123565b80601f016020809104026020016040519081016040528092919081815260200182805461084090613123565b801561088d5780601f106108625761010080835404028352916020019161088d565b820191906000526020600020905b81548152906001019060200180831161087057829003601f168201915b50505050508152505081526020016006820180546108aa90613123565b80601f01602080910402602001604051908101604052809291908181526020018280546108d690613123565b80156109235780601f106108f857610100808354040283529160200191610923565b820191906000526020600020905b81548152906001019060200180831161090657829003601f168201915b505050505081526020016007820154815260200160088201805480602002602001604051908101604052809291908181526020016000905b82821015610a0757838290600052602060002001805461097a90613123565b80601f01602080910402602001604051908101604052809291908181526020018280546109a690613123565b80156109f35780601f106109c8576101008083540402835291602001916109f3565b820191906000526020600020905b8154815290600101906020018083116109d657829003601f168201915b50505050508152602001906001019061095b565b50505050815260200160098201805480602002602001604051908101604052809291908181526020018280548015610a5e57602002820191906000526020600020905b815481526020019060010190808311610a4a575b50505050508152602001600a82018054610a7790613123565b80601f0160208091040260200160405190810160405280929190818152602001828054610aa390613123565b8015610af05780601f10610ac557610100808354040283529160200191610af0565b820191906000526020600020905b815481529060010190602001808311610ad357829003601f168201915b5050505050815250509350505050610b2e565b8080610b0e90613183565b9150506103e4565b505b8080610b2390613183565b91505061031b565b50505b9392505050565b6000808383604051602001610b4b9291906130a1565b604051602081830303815290604052905060005b600154811015610d6457610c2060008281548110610b8057610b7f6130c5565b5b90600052602060002090600b02016000018054610b9c90613123565b80601f0160208091040260200160405190810160405280929190818152602001828054610bc890613123565b8015610c155780601f10610bea57610100808354040283529160200191610c15565b820191906000526020600020905b815481529060010190602001808311610bf857829003601f168201915b50505050508761117a565b15610d515760005b60008281548110610c3c57610c3b6130c5565b5b90600052602060002090600b020160080180549050811015610d4f57610d2b60008381548110610c6f57610c6e6130c5565b5b90600052602060002090600b02016008018281548110610c9257610c916130c5565b5b906000526020600020018054610ca790613123565b80601f0160208091040260200160405190810160405280929190818152602001828054610cd390613123565b8015610d205780601f10610cf557610100808354040283529160200191610d20565b820191906000526020600020905b815481529060010190602001808311610d0357829003601f168201915b50505050508461117a565b15610d3c5760019350505050610d6b565b8080610d4790613183565b915050610c28565b505b8080610d5c90613183565b915050610b5f565b5060009150505b9392505050565b6000610d7f848484610b35565b610dbe576040517f08c379a0000000000000000000000000000000000000000000000000000000008152600401610db590613217565b60405180910390fd5b60008383604051602001610dd39291906130a1565b604051602081830303815290604052905060005b60015481101561102c57610ea860008281548110610e0857610e076130c5565b5b90600052602060002090600b02016000018054610e2490613123565b80601f0160208091040260200160405190810160405280929190818152602001828054610e5090613123565b8015610e9d5780601f10610e7257610100808354040283529160200191610e9d565b820191906000526020600020905b815481529060010190602001808311610e8057829003601f168201915b50505050508761117a565b156110195760005b60008281548110610ec457610ec36130c5565b5b90600052602060002090600b02016008018054905081101561101757610fb360008381548110610ef757610ef66130c5565b5b90600052602060002090600b02016008018281548110610f1a57610f196130c5565b5b906000526020600020018054610f2f90613123565b80601f0160208091040260200160405190810160405280929190818152602001828054610f5b90613123565b8015610fa85780601f10610f7d57610100808354040283529160200191610fa8565b820191906000526020600020905b815481529060010190602001808311610f8b57829003601f168201915b50505050508461117a565b156110045760008281548110610fcc57610fcb6130c5565b5b90600052602060002090600b02016009018181548110610fef57610fee6130c5565b5b9060005260206000200154935050505061102f565b808061100f90613183565b915050610eb0565b505b808061102490613183565b915050610de7565b50505b9392505050565b6060611043848484610b35565b611082576040517f08c379a0000000000000000000000000000000000000000000000000000000008152600401611079906132a9565b60405180910390fd5b600061108f8585856102a0565b9050600061109e868686610d72565b9050600082600001518360200151846040015185606001518660800151600001518760800151602001518860a001518c8c6110d88b611f76565b6110e58d60c00151611f76565b8d61012001516040516020016111069c9b9a99989796959493929190613789565b604051602081830303815290604052905060508360c001511161114a57806040516020016111349190613946565b604051602081830303815290604052905061116d565b8060405160200161115b9190613a00565b60405160208183030381529060405290505b8093505050509392505050565b60008160405160200161118d9190613a22565b60405160208183030381529060405280519060200120836040516020016111b49190613a22565b6040516020818303038152906040528051906020012014905092915050565b6111dd858561170f565b61121c576040517f08c379a000000000000000000000000000000000000000000000000000000000815260040161121390613aab565b60405180910390fd5b611227858484610b35565b15611267576040517f08c379a000000000000000000000000000000000000000000000000000000000815260040161125e90613b17565b60405180910390fd5b60005b6001548110156114a75761132b6000828154811061128b5761128a6130c5565b5b90600052602060002090600b020160000180546112a790613123565b80601f01602080910402602001604051908101604052809291908181526020018280546112d390613123565b80156113205780601f106112f557610100808354040283529160200191611320565b820191906000526020600020905b81548152906001019060200180831161130357829003601f168201915b50505050508761117a565b80156113ea57506113e960008281548110611349576113486130c5565b5b90600052602060002090600b0201600101805461136590613123565b80601f016020809104026020016040519081016040528092919081815260200182805461139190613123565b80156113de5780601f106113b3576101008083540402835291602001916113de565b820191906000526020600020905b8154815290600101906020018083116113c157829003601f168201915b50505050508661117a565b5b156114945760008181548110611403576114026130c5565b5b90600052602060002090600b0201600801839080600181540180825580915050600190039060005260206000200160009091909190915090816114469190613ce3565b506000818154811061145b5761145a6130c5565b5b90600052602060002090600b02016009018290806001815401808255809150506001900390600052602060002001600090919091909150555b808061149f90613183565b91505061126a565b505050505050565b6114b9848461170f565b6114f8576040517f08c379a00000000000000000000000000000000000000000000000000000000081526004016114ef90613045565b60405180910390fd5b60005b600154811015611708576115bc6000828154811061151c5761151b6130c5565b5b90600052602060002090600b0201600001805461153890613123565b80601f016020809104026020016040519081016040528092919081815260200182805461156490613123565b80156115b15780601f10611586576101008083540402835291602001916115b1565b820191906000526020600020905b81548152906001019060200180831161159457829003601f168201915b50505050508661117a565b801561167b575061167a600082815481106115da576115d96130c5565b5b90600052602060002090600b020160010180546115f690613123565b80601f016020809104026020016040519081016040528092919081815260200182805461162290613123565b801561166f5780601f106116445761010080835404028352916020019161166f565b820191906000526020600020905b81548152906001019060200180831161165257829003601f168201915b50505050508561117a565b5b156116f5578260008281548110611695576116946130c5565b5b90600052602060002090600b020160080190805190602001906116b992919061212f565b5081600082815481106116cf576116ce6130c5565b5b90600052602060002090600b020160090190805190602001906116f3929190612188565b505b808061170090613183565b9150506114fb565b5050505050565b600080600090505b6001548110156118b9576117d860008281548110611738576117376130c5565b5b90600052602060002090600b0201600001805461175490613123565b80601f016020809104026020016040519081016040528092919081815260200182805461178090613123565b80156117cd5780601f106117a2576101008083540402835291602001916117cd565b820191906000526020600020905b8154815290600101906020018083116117b057829003601f168201915b50505050508561117a565b80156118975750611896600082815481106117f6576117f56130c5565b5b90600052602060002090600b0201600101805461181290613123565b80601f016020809104026020016040519081016040528092919081815260200182805461183e90613123565b801561188b5780601f106118605761010080835404028352916020019161188b565b820191906000526020600020905b81548152906001019060200180831161186e57829003601f168201915b50505050508461117a565b5b156118a65760019150506118bf565b80806118b190613183565b915050611717565b50600090505b92915050565b60015481565b6000600154905090565b6118df8b8b61170f565b1561191f576040517f08c379a000000000000000000000000000000000000000000000000000000000815260040161191690613e01565b60405180910390fd5b60006040518061014001604052808d81526020018c81526020018b81526020018a815260200160405180604001604052808b81526020018a81525081526020018781526020018681526020018581526020018481526020018381525090806001815401808255809150506001900390600052602060002090600b020160009091909190915060008201518160000190816119b99190613ce3565b5060208201518160010190816119cf9190613ce3565b5060408201518160020190816119e59190613ce3565b5060608201518160030190816119fb9190613ce3565b506080820151816004016000820151816000019081611a1a9190613ce3565b506020820151816001019081611a309190613ce3565b50505060a0820151816006019081611a489190613ce3565b5060c0820151816007015560e0820151816008019080519060200190611a6f92919061212f565b50610100820151816009019080519060200190611a8d929190612188565b5061012082015181600a019081611aa49190613ce3565b5050506000805490506001819055505050505050505050505050565b60008181548110611ad057600080fd5b90600052602060002090600b0201600091509050806000018054611af390613123565b80601f0160208091040260200160405190810160405280929190818152602001828054611b1f90613123565b8015611b6c5780601f10611b4157610100808354040283529160200191611b6c565b820191906000526020600020905b815481529060010190602001808311611b4f57829003601f168201915b505050505090806001018054611b8190613123565b80601f0160208091040260200160405190810160405280929190818152602001828054611bad90613123565b8015611bfa5780601f10611bcf57610100808354040283529160200191611bfa565b820191906000526020600020905b815481529060010190602001808311611bdd57829003601f168201915b505050505090806002018054611c0f90613123565b80601f0160208091040260200160405190810160405280929190818152602001828054611c3b90613123565b8015611c885780601f10611c5d57610100808354040283529160200191611c88565b820191906000526020600020905b815481529060010190602001808311611c6b57829003601f168201915b505050505090806003018054611c9d90613123565b80601f0160208091040260200160405190810160405280929190818152602001828054611cc990613123565b8015611d165780601f10611ceb57610100808354040283529160200191611d16565b820191906000526020600020905b815481529060010190602001808311611cf957829003601f168201915b50505050509080600401604051806040016040529081600082018054611d3b90613123565b80601f0160208091040260200160405190810160405280929190818152602001828054611d6790613123565b8015611db45780601f10611d8957610100808354040283529160200191611db4565b820191906000526020600020905b815481529060010190602001808311611d9757829003601f168201915b50505050508152602001600182018054611dcd90613123565b80601f0160208091040260200160405190810160405280929190818152602001828054611df990613123565b8015611e465780601f10611e1b57610100808354040283529160200191611e46565b820191906000526020600020905b815481529060010190602001808311611e2957829003601f168201915b50505050508152505090806006018054611e5f90613123565b80601f0160208091040260200160405190810160405280929190818152602001828054611e8b90613123565b8015611ed85780601f10611ead57610100808354040283529160200191611ed8565b820191906000526020600020905b815481529060010190602001808311611ebb57829003601f168201915b50505050509080600701549080600a018054611ef390613123565b80601f0160208091040260200160405190810160405280929190818152602001828054611f1f90613123565b8015611f6c5780601f10611f4157610100808354040283529160200191611f6c565b820191906000526020600020905b815481529060010190602001808311611f4f57829003601f168201915b5050505050905088565b606060008203611fbd576040518060400160405280600181526020017f300000000000000000000000000000000000000000000000000000000000000081525090506120d1565b600082905060005b60008214611fef578080611fd890613183565b915050600a82611fe89190613e50565b9150611fc5565b60008167ffffffffffffffff81111561200b5761200a61229f565b5b6040519080825280601f01601f19166020018201604052801561203d5781602001600182028036833780820191505090505b5090505b600085146120ca576001826120569190613e81565b9150600a856120659190613eb5565b60306120719190613ee6565b60f81b818381518110612087576120866130c5565b5b60200101907effffffffffffffffffffffffffffffffffffffffffffffffffffffffffffff1916908160001a905350600a856120c39190613e50565b9450612041565b8093505050505b919050565b604051806101400160405280606081526020016060815260200160608152602001606081526020016121066121d5565b815260200160608152602001600081526020016060815260200160608152602001606081525090565b828054828255906000526020600020908101928215612177579160200282015b828111156121765782518290816121669190613ce3565b509160200191906001019061214f565b5b50905061218491906121ef565b5090565b8280548282559060005260206000209081019282156121c4579160200282015b828111156121c35782518255916020019190600101906121a8565b5b5090506121d19190612213565b5090565b604051806040016040528060608152602001606081525090565b5b8082111561220f57600081816122069190612230565b506001016121f0565b5090565b5b8082111561222c576000816000905550600101612214565b5090565b50805461223c90613123565b6000825580601f1061224e575061226d565b601f01602090049060005260206000209081019061226c9190612213565b5b50565b6000604051905090565b600080fd5b600080fd5b600080fd5b600080fd5b6000601f19601f8301169050919050565b7f4e487b7100000000000000000000000000000000000000000000000000000000600052604160045260246000fd5b6122d78261228e565b810181811067ffffffffffffffff821117156122f6576122f561229f565b5b80604052505050565b6000612309612270565b905061231582826122ce565b919050565b600067ffffffffffffffff8211156123355761233461229f565b5b61233e8261228e565b9050602081019050919050565b82818337600083830152505050565b600061236d6123688461231a565b6122ff565b90508281526020810184848401111561238957612388612289565b5b61239484828561234b565b509392505050565b600082601f8301126123b1576123b0612284565b5b81356123c184826020860161235a565b91505092915050565b6000806000606084860312156123e3576123e261227a565b5b600084013567ffffffffffffffff8111156124015761240061227f565b5b61240d8682870161239c565b935050602084013567ffffffffffffffff81111561242e5761242d61227f565b5b61243a8682870161239c565b925050604084013567ffffffffffffffff81111561245b5761245a61227f565b5b6124678682870161239c565b9150509250925092565b600081519050919050565b600082825260208201905092915050565b60005b838110156124ab578082015181840152602081019050612490565b60008484015250505050565b60006124c282612471565b6124cc818561247c565b93506124dc81856020860161248d565b6124e58161228e565b840191505092915050565b6000604083016000830151848203600086015261250d82826124b7565b9150506020830151848203602086015261252782826124b7565b9150508091505092915050565b6000819050919050565b61254781612534565b82525050565b600081519050919050565b600082825260208201905092915050565b6000819050602082019050919050565b600061258583836124b7565b905092915050565b6000602082019050919050565b60006125a58261254d565b6125af8185612558565b9350836020820285016125c185612569565b8060005b858110156125fd57848403895281516125de8582612579565b94506125e98361258d565b925060208a019950506001810190506125c5565b50829750879550505050505092915050565b600081519050919050565b600082825260208201905092915050565b6000819050602082019050919050565b6000612647838361253e565b60208301905092915050565b6000602082019050919050565b600061266b8261260f565b612675818561261a565b93506126808361262b565b8060005b838110156126b1578151612698888261263b565b97506126a383612653565b925050600181019050612684565b5085935050505092915050565b60006101408301600083015184820360008601526126dc82826124b7565b915050602083015184820360208601526126f682826124b7565b9150506040830151848203604086015261271082826124b7565b9150506060830151848203606086015261272a82826124b7565b9150506080830151848203608086015261274482826124f0565b91505060a083015184820360a086015261275e82826124b7565b91505060c083015161277360c086018261253e565b5060e083015184820360e086015261278b828261259a565b9150506101008301518482036101008601526127a78282612660565b9150506101208301518482036101208601526127c382826124b7565b9150508091505092915050565b600060208201905081810360008301526127ea81846126be565b905092915050565b60008115159050919050565b612807816127f2565b82525050565b600060208201905061282260008301846127fe565b92915050565b61283181612534565b82525050565b600060208201905061284c6000830184612828565b92915050565b600082825260208201905092915050565b600061286e82612471565b6128788185612852565b935061288881856020860161248d565b6128918161228e565b840191505092915050565b600060208201905081810360008301526128b68184612863565b905092915050565b600080604083850312156128d5576128d461227a565b5b600083013567ffffffffffffffff8111156128f3576128f261227f565b5b6128ff8582860161239c565b925050602083013567ffffffffffffffff8111156129205761291f61227f565b5b61292c8582860161239c565b9150509250929050565b61293f81612534565b811461294a57600080fd5b50565b60008135905061295c81612936565b92915050565b600080600080600060a0868803121561297e5761297d61227a565b5b600086013567ffffffffffffffff81111561299c5761299b61227f565b5b6129a88882890161239c565b955050602086013567ffffffffffffffff8111156129c9576129c861227f565b5b6129d58882890161239c565b945050604086013567ffffffffffffffff8111156129f6576129f561227f565b5b612a028882890161239c565b935050606086013567ffffffffffffffff811115612a2357612a2261227f565b5b612a2f8882890161239c565b9250506080612a408882890161294d565b9150509295509295909350565b600067ffffffffffffffff821115612a6857612a6761229f565b5b602082029050602081019050919050565b600080fd5b6000612a91612a8c84612a4d565b6122ff565b90508083825260208201905060208402830185811115612ab457612ab3612a79565b5b835b81811015612afb57803567ffffffffffffffff811115612ad957612ad8612284565b5b808601612ae6898261239c565b85526020850194505050602081019050612ab6565b5050509392505050565b600082601f830112612b1a57612b19612284565b5b8135612b2a848260208601612a7e565b91505092915050565b600067ffffffffffffffff821115612b4e57612b4d61229f565b5b602082029050602081019050919050565b6000612b72612b6d84612b33565b6122ff565b90508083825260208201905060208402830185811115612b9557612b94612a79565b5b835b81811015612bbe5780612baa888261294d565b845260208401935050602081019050612b97565b5050509392505050565b600082601f830112612bdd57612bdc612284565b5b8135612bed848260208601612b5f565b91505092915050565b60008060008060808587031215612c1057612c0f61227a565b5b600085013567ffffffffffffffff811115612c2e57612c2d61227f565b5b612c3a8782880161239c565b945050602085013567ffffffffffffffff811115612c5b57612c5a61227f565b5b612c678782880161239c565b935050604085013567ffffffffffffffff811115612c8857612c8761227f565b5b612c9487828801612b05565b925050606085013567ffffffffffffffff811115612cb557612cb461227f565b5b612cc187828801612bc8565b91505092959194509250565b60008060008060008060008060008060006101608c8e031215612cf357612cf261227a565b5b60008c013567ffffffffffffffff811115612d1157612d1061227f565b5b612d1d8e828f0161239c565b9b505060208c013567ffffffffffffffff811115612d3e57612d3d61227f565b5b612d4a8e828f0161239c565b9a505060408c013567ffffffffffffffff811115612d6b57612d6a61227f565b5b612d778e828f0161239c565b99505060608c013567ffffffffffffffff811115612d9857612d9761227f565b5b612da48e828f0161239c565b98505060808c013567ffffffffffffffff811115612dc557612dc461227f565b5b612dd18e828f0161239c565b97505060a08c013567ffffffffffffffff811115612df257612df161227f565b5b612dfe8e828f0161239c565b96505060c08c013567ffffffffffffffff811115612e1f57612e1e61227f565b5b612e2b8e828f0161239c565b95505060e0612e3c8e828f0161294d565b9450506101008c013567ffffffffffffffff811115612e5e57612e5d61227f565b5b612e6a8e828f01612b05565b9350506101208c013567ffffffffffffffff811115612e8c57612e8b61227f565b5b612e988e828f01612bc8565b9250506101408c013567ffffffffffffffff811115612eba57612eb961227f565b5b612ec68e828f0161239c565b9150509295989b509295989b9093969950565b600060208284031215612eef57612eee61227a565b5b6000612efd8482850161294d565b91505092915050565b60006040830160008301518482036000860152612f2382826124b7565b91505060208301518482036020860152612f3d82826124b7565b9150508091505092915050565b6000610100820190508181036000830152612f65818b612863565b90508181036020830152612f79818a612863565b90508181036040830152612f8d8189612863565b90508181036060830152612fa18188612863565b90508181036080830152612fb58187612f06565b905081810360a0830152612fc98186612863565b9050612fd860c0830185612828565b81810360e0830152612fea8184612863565b90509998505050505050505050565b7f4c6120636f6d6d616e6465206e27657869737465207061730000000000000000600082015250565b600061302f601883612852565b915061303a82612ff9565b602082019050919050565b6000602082019050818103600083015261305e81613022565b9050919050565b600081905092915050565b600061307b82612471565b6130858185613065565b935061309581856020860161248d565b80840191505092915050565b60006130ad8285613070565b91506130b98284613070565b91508190509392505050565b7f4e487b7100000000000000000000000000000000000000000000000000000000600052603260045260246000fd5b7f4e487b7100000000000000000000000000000000000000000000000000000000600052602260045260246000fd5b6000600282049050600182168061313b57607f821691505b60208210810361314e5761314d6130f4565b5b50919050565b7f4e487b7100000000000000000000000000000000000000000000000000000000600052601160045260246000fd5b600061318e82612534565b91507fffffffffffffffffffffffffffffffffffffffffffffffffffffffffffffffff82036131c0576131bf613154565b5b600182019050919050565b7f4c2761727469636c65206e276578697374652070617300000000000000000000600082015250565b6000613201601683612852565b915061320c826131cb565b602082019050919050565b60006020820190508181036000830152613230816131f4565b9050919050565b7f4c2761727469636c65206e27657869737465207061732064616e73206c61206260008201527f6c6f636b636861696e0000000000000000000000000000000000000000000000602082015250565b6000613293602983612852565b915061329e82613237565b604082019050919050565b600060208201905081810360008301526132c281613286565b9050919050565b7f436f6465206475206d61676173696e203a200000000000000000000000000000600082015250565b60006132ff601283613065565b915061330a826132c9565b601282019050919050565b7f0a204e756d65726f20646520436f6d6d616e64653a2000000000000000000000600082015250565b600061334b601683613065565b915061335682613315565b601682019050919050565b7f0a204461746520642761727269766565206465206c6120636f6d6d616e64653a60008201527f2000000000000000000000000000000000000000000000000000000000000000602082015250565b60006133bd602183613065565b91506133c882613361565b602182019050919050565b7f0a204461746520646520636c6f74757265206465206c6120636f6d6d616e646560008201527f3a20000000000000000000000000000000000000000000000000000000000000602082015250565b600061342f602283613065565b915061343a826133d3565b602282019050919050565b7f0a20466f75726e697373657572203a2000000000000000000000000000000000600082015250565b600061347b601083613065565b915061348682613445565b601082019050919050565b7f0a204164726573736520647520466f75726e697373657572203a200000000000600082015250565b60006134c7601b83613065565b91506134d282613491565b601b82019050919050565b7f0a20436f64652073616e697461697265203a2000000000000000000000000000600082015250565b6000613513601383613065565b915061351e826134dd565b601382019050919050565b7f0a20436f6465206475204c6f74203a2000000000000000000000000000000000600082015250565b600061355f601083613065565b915061356a82613529565b601082019050919050565b7f0a20636f64652041727469636c65203a20000000000000000000000000000000600082015250565b60006135ab601183613065565b91506135b682613575565b601182019050919050565b7f0a20506f696473203a2000000000000000000000000000000000000000000000600082015250565b60006135f7600a83613065565b9150613602826135c1565b600a82019050919050565b7f6b67000000000000000000000000000000000000000000000000000000000000600082015250565b6000613643600283613065565b915061364e8261360d565b600282019050919050565b7f0a2044697374616e6365203a2000000000000000000000000000000000000000600082015250565b600061368f600d83613065565b915061369a82613659565b600d82019050919050565b7f6b6d000000000000000000000000000000000000000000000000000000000000600082015250565b60006136db600283613065565b91506136e6826136a5565b600282019050919050565b7f0a20436f6d6d656e7461697265203a2000000000000000000000000000000000600082015250565b6000613727601083613065565b9150613732826136f1565b601082019050919050565b7f0a00000000000000000000000000000000000000000000000000000000000000600082015250565b6000613773600183613065565b915061377e8261373d565b600182019050919050565b6000613794826132f2565b91506137a0828f613070565b91506137ab8261333e565b91506137b7828e613070565b91506137c2826133b0565b91506137ce828d613070565b91506137d982613422565b91506137e5828c613070565b91506137f08261346e565b91506137fc828b613070565b9150613807826134ba565b9150613813828a613070565b915061381e82613506565b915061382a8289613070565b915061383582613552565b91506138418288613070565b915061384c8261359e565b91506138588287613070565b9150613863826135ea565b915061386f8286613070565b915061387a82613636565b915061388582613682565b91506138918285613070565b915061389c826136ce565b91506138a78261371a565b91506138b38284613070565b91506138be82613766565b91508190509d9c50505050505050505050505050565b7f3c623e432765737420756e2070726f64756974207175692070726f7669656e7460008201527f206427756e20636972637569742064652070726f78696d6974653c2f623e0000602082015250565b6000613930603e83613065565b915061393b826138d4565b603e82019050919050565b60006139528284613070565b915061395d82613923565b915081905092915050565b7f3c623e432765737420756e2070726f6475697420717569206e652070726f766960008201527f656e7420706173206427756e20636972637569742064652070726f78696d697460208201527f653c2f623e000000000000000000000000000000000000000000000000000000604082015250565b60006139ea604583613065565b91506139f582613968565b604582019050919050565b6000613a0c8284613070565b9150613a17826139dd565b915081905092915050565b6000613a2e8284613070565b915081905092915050565b7f4c6120636f6d6d616e64652061206d6f646966696572206e276578697374652060008201527f7061730000000000000000000000000000000000000000000000000000000000602082015250565b6000613a95602383612852565b9150613aa082613a39565b604082019050919050565b60006020820190508181036000830152613ac481613a88565b9050919050565b7f4c2761727469636c65206120616a6f75746572206578697374652064656a6100600082015250565b6000613b01601f83612852565b9150613b0c82613acb565b602082019050919050565b60006020820190508181036000830152613b3081613af4565b9050919050565b60008190508160005260206000209050919050565b60006020601f8301049050919050565b600082821b905092915050565b600060088302613b997fffffffffffffffffffffffffffffffffffffffffffffffffffffffffffffffff82613b5c565b613ba38683613b5c565b95508019841693508086168417925050509392505050565b6000819050919050565b6000613be0613bdb613bd684612534565b613bbb565b612534565b9050919050565b6000819050919050565b613bfa83613bc5565b613c0e613c0682613be7565b848454613b69565b825550505050565b600090565b613c23613c16565b613c2e818484613bf1565b505050565b5b81811015613c5257613c47600082613c1b565b600181019050613c34565b5050565b601f821115613c9757613c6881613b37565b613c7184613b4c565b81016020851015613c80578190505b613c94613c8c85613b4c565b830182613c33565b50505b505050565b600082821c905092915050565b6000613cba60001984600802613c9c565b1980831691505092915050565b6000613cd38383613ca9565b9150826002028217905092915050565b613cec82612471565b67ffffffffffffffff811115613d0557613d0461229f565b5b613d0f8254613123565b613d1a828285613c56565b600060209050601f831160018114613d4d5760008415613d3b578287015190505b613d458582613cc7565b865550613dad565b601f198416613d5b86613b37565b60005b82811015613d8357848901518255600182019150602085019450602081019050613d5e565b86831015613da05784890151613d9c601f891682613ca9565b8355505b6001600288020188555050505b505050505050565b7f4c6120636f6d6d616e6465206578697374652064656a61210000000000000000600082015250565b6000613deb601883612852565b9150613df682613db5565b602082019050919050565b60006020820190508181036000830152613e1a81613dde565b9050919050565b7f4e487b7100000000000000000000000000000000000000000000000000000000600052601260045260246000fd5b6000613e5b82612534565b9150613e6683612534565b925082613e7657613e75613e21565b5b828204905092915050565b6000613e8c82612534565b9150613e9783612534565b9250828203905081811115613eaf57613eae613154565b5b92915050565b6000613ec082612534565b9150613ecb83612534565b925082613edb57613eda613e21565b5b828206905092915050565b6000613ef182612534565b9150613efc83612534565b9250828201905080821115613f1457613f13613154565b5b9291505056fea264697066735822122000bf40f06e42770140bf6de534f0712cdeaf1f89babbd0e78063afe02100cd8864736f6c63430008110033",
  "immutableReferences": {},
  "source": "// SPDX-License-Identifier: MIT\r\npragma solidity 0.8.17;\r\n\r\ncontract CertificationCommande {\r\n    struct Fournisseur{\r\n        string id;\r\n        string adresse;\r\n    }\r\n\r\n    struct Commande {\r\n        string code_magasin;\r\n        string n_commande;\r\n        string date_arrivee;\r\n        string date_cloture;\r\n        Fournisseur provenance_fournisseur;\r\n        string code_sanitaire;\r\n        uint256 distance;\r\n        string[] code_articles; // la liste des codes articles : Concatination du N lot et N article\r\n        uint256[] poids_articles; //les poids des articles, il faut que la taille des 2 listes soit gales\r\n        string commentaire;\r\n    }\r\n\r\n    Commande[] public commandes;\r\n    uint256 public taille;\r\n\r\n    constructor() {}\r\n\r\n    function ajouterCommande(\r\n        string memory _code_magasin,\r\n        string memory _n_commande,\r\n        string memory _date_arrivee,\r\n        string memory _date_cloture,\r\n        string memory _id_fournisseur,\r\n        string memory _adresse_fournisseur,\r\n        string memory _code_sanitaire,\r\n        uint256 _distance,\r\n        string[] memory _code_articles,\r\n        uint256[] memory _poids_articles,\r\n        string memory _commentaire\r\n    ) public {\r\n        require(!commandeExists(_code_magasin, _n_commande),\"La commande existe deja!\");\r\n        // Crer une nouvelle commande\r\n        commandes.push(Commande({\r\n            code_magasin: _code_magasin,\r\n            n_commande: _n_commande,\r\n            date_arrivee: _date_arrivee,\r\n            date_cloture: _date_cloture,\r\n            provenance_fournisseur: Fournisseur({\r\n                id: _id_fournisseur,\r\n                adresse: _adresse_fournisseur\r\n            }),\r\n            code_sanitaire: _code_sanitaire,\r\n            distance: _distance,\r\n            code_articles: _code_articles,\r\n            poids_articles: _poids_articles,\r\n            commentaire: _commentaire\r\n        }));\r\n        taille = commandes.length;\r\n    }\r\n\r\n\r\n    function modifierCommande(\r\n        string memory _code_magasin,\r\n        string memory _n_commande,\r\n        string[] memory _code_articles,\r\n        uint256[] memory _poids_articles\r\n    ) public {\r\n        require(commandeExists(_code_magasin, _n_commande), \"La commande n'existe pas\");\r\n\r\n        for (uint256 i = 0; i < taille; i++) {\r\n            if (compareStrings(commandes[i].code_magasin, _code_magasin) && compareStrings(commandes[i].n_commande, _n_commande)) {\r\n                // Modifier la commande existante\r\n                commandes[i].code_articles = _code_articles;\r\n                commandes[i].poids_articles = _poids_articles;\r\n            }\r\n        }\r\n    }\r\n    \r\n    function ajouterArticle(string memory _code_magasin,string memory _n_commande, string memory _n_lot, string memory _n_article, uint256 _poids_article) public {\r\n        require(commandeExists(_code_magasin, _n_commande),\"La commande a modifier n'existe pas\");\r\n        require(!articleExists(_code_magasin, _n_lot, _n_article),\"L'article a ajouter existe deja\");\r\n        for(uint256 i = 0; i< taille; i++){\r\n            if(compareStrings(commandes[i].code_magasin,_code_magasin) && compareStrings(commandes[i].n_commande,_n_commande)){\r\n                commandes[i].code_articles.push(_n_article);\r\n                commandes[i].poids_articles.push(_poids_article);\r\n            }\r\n        } \r\n    }\r\n\r\n    function commandeExists(string memory _code_magasin, string memory _n_commande) public view returns(bool){\r\n    for(uint256 i = 0; i < taille; i++){\r\n        if(compareStrings(commandes[i].code_magasin,_code_magasin) && compareStrings(commandes[i].n_commande,_n_commande)) {\r\n            return true;\r\n        }\r\n    }\r\n    return false;\r\n    }\r\n\r\n    //on fait une conversion de type car impossible de comparer un string storage to string memory\r\n    function compareStrings(string memory a, string memory b) public pure returns (bool) {\r\n    return (keccak256(abi.encodePacked(a)) == keccak256(abi.encodePacked(b)));\r\n    }\r\n\r\n    function getTaille() public view returns (uint256) {\r\n        return taille;\r\n    }\r\n\r\n    function articleExists(string memory _code_magasin, string memory _n_lot, string memory _n_article) public view returns(bool){\r\n        string memory code_article_recherche = string(abi.encodePacked(_n_lot , _n_article));\r\n        for(uint256 i = 0; i< taille; i++){\r\n            if(compareStrings(commandes[i].code_magasin,_code_magasin)){\r\n                for(uint256 j = 0; j<commandes[i].code_articles.length; j++){\r\n                    if(compareStrings(commandes[i].code_articles[j],code_article_recherche))\r\n                        return true;\r\n                }\r\n            }\r\n        }\r\n        return false;\r\n    }\r\n\r\n    function getCommande(string memory _code_magasin, string memory _n_lot, string memory _n_article) public view returns(Commande memory){\r\n        require(articleExists(_code_magasin, _n_lot, _n_article),\"La commande n'existe pas\");\r\n        string memory code_article_recherche = string(abi.encodePacked(_n_lot , _n_article));\r\n        for(uint256 i = 0; i< taille; i++){\r\n            if(compareStrings(commandes[i].code_magasin,_code_magasin)){\r\n                for(uint256 j = 0; j<commandes[i].code_articles.length; j++){\r\n                    if(compareStrings(commandes[i].code_articles[j],code_article_recherche))\r\n                        return commandes[i];\r\n                }\r\n            }\r\n        }        \r\n    }\r\n\r\n    function getPoidsArticle(string memory _code_magasin, string memory _n_lot, string memory _n_article) public view returns(uint256){\r\n        require(articleExists(_code_magasin, _n_lot, _n_article),\"L'article n'existe pas\");\r\n        string memory code_article_recherche = string(abi.encodePacked(_n_lot , _n_article));\r\n        for(uint256 i = 0; i< taille; i++){\r\n            if(compareStrings(commandes[i].code_magasin,_code_magasin)){\r\n                for(uint256 j = 0; j<commandes[i].code_articles.length; j++){\r\n                    if(compareStrings(commandes[i].code_articles[j],code_article_recherche))\r\n                        return commandes[i].poids_articles[j];\r\n                }\r\n            }\r\n        } \r\n    }\r\n\r\n    function getArticle(string memory _code_magasin, string memory _n_lot, string memory _n_article) public view returns(string memory){\r\n        require(articleExists(_code_magasin, _n_lot, _n_article),\"L'article n'existe pas dans la blockchain\");\r\n        Commande memory commande = getCommande(_code_magasin, _n_lot, _n_article);\r\n        uint256 poids_article = getPoidsArticle(_code_magasin, _n_lot, _n_article);\r\n        string memory res = string(abi.encodePacked(\"Code du magasin : \" , commande.code_magasin,\r\n                                                    \"\\n Numero de Commande: \" , commande.n_commande,\r\n                                                    \"\\n Date d'arrivee de la commande: \" ,commande.date_arrivee,\r\n                                                    \"\\n Date de cloture de la commande: \" ,commande.date_cloture,\r\n                                                    \"\\n Fournisseur : \" ,commande.provenance_fournisseur.id,\r\n                                                    \"\\n Adresse du Fournisseur : \" ,commande.provenance_fournisseur.adresse,\r\n                                                    \"\\n Code sanitaire : \" ,commande.code_sanitaire,\r\n                                                    \"\\n Code du Lot : \" , _n_lot,\r\n                                                    \"\\n code Article : \" , _n_article,\r\n                                                    \"\\n Poids : \" , toString(poids_article),\"kg\",\r\n                                                    \"\\n Distance : \", toString(commande.distance),\"km\",\r\n                                                    \"\\n Commentaire : \", commande.commentaire,\"\\n\"));\r\n\r\n        if (commande.distance <= 80) {\r\n            res = string(abi.encodePacked(res, \"<b>C'est un produit qui provient d'un circuit de proximite</b>\"));\r\n        } else {\r\n            res = string(abi.encodePacked(res, \"<b>C'est un produit qui ne provient pas d'un circuit de proximite</b>\"));\r\n        }\r\n        return res;\r\n    }\r\n\r\n    function toString(uint256 value) internal pure returns (string memory) {\r\n        if (value == 0) {\r\n            return \"0\";\r\n        }\r\n        uint256 temp = value;\r\n        uint256 digits;\r\n        while (temp != 0) {\r\n            digits++;\r\n            temp /= 10;\r\n        }\r\n        bytes memory buffer = new bytes(digits);\r\n        while (value != 0) {\r\n            digits -= 1;\r\n            buffer[digits] = bytes1(uint8(48 + uint256(value % 10)));\r\n            value /= 10;\r\n        }\r\n        return string(buffer);\r\n    }\r\n}\r\n",
  "sourcePath": "C:\\Users\\larai\\Documents\\M1-IWOCS\\tpe\\Blockalchain_Server (2)\\Blockalchain_Server\\contracts\\monContratCommande.sol",
  "compiler": {
    "name": "solc",
    "version": "0.8.17+commit.8df45f5f.Emscripten.clang"
  },
  "schemaVersion": "3.4.16",
  "updatedAt": "2024-06-02T17:09:42.911Z",
  "networkType": "ethereum",
  "devdoc": {
    "kind": "dev",
    "methods": {},
    "version": 1
  },
  "userdoc": {
    "kind": "user",
    "methods": {},
    "version": 1
  }
}